{"abi":[{"type":"constructor","inputs":[{"name":"_cometAddress","type":"address","internalType":"address"},{"name":"_wrapperAddress","type":"address","internalType":"address"},{"name":"_contractFeeModifier","type":"uint16","internalType":"uint16"},{"name":"_minDueDateParameter","type":"uint256","internalType":"uint256"},{"name":"_maxDueDateParameter","type":"uint256","internalType":"uint256"},{"name":"_minTotalAmountParameter","type":"uint256","internalType":"uint256"},{"name":"_maxPayoutArraySize","type":"uint8","internalType":"uint8"}],"stateMutability":"payable"},{"type":"function","name":"ERC20FeeProxyAddress","inputs":[],"outputs":[{"name":"","type":"address","internalType":"address"}],"stateMutability":"view"},{"type":"function","name":"baseAsset","inputs":[],"outputs":[{"name":"","type":"address","internalType":"address"}],"stateMutability":"view"},{"type":"function","name":"claimBaseAssetBalance","inputs":[],"outputs":[],"stateMutability":"payable"},{"type":"function","name":"claimCompRewards","inputs":[],"outputs":[],"stateMutability":"payable"},{"type":"function","name":"cometAddress","inputs":[],"outputs":[{"name":"","type":"address","internalType":"address"}],"stateMutability":"view"},{"type":"function","name":"contractFeeModifier","inputs":[],"outputs":[{"name":"","type":"uint16","internalType":"uint16"}],"stateMutability":"view"},{"type":"function","name":"getMapping","inputs":[{"name":"_paymentReference","type":"bytes","internalType":"bytes"}],"outputs":[{"name":"","type":"tuple","internalType":"struct Paytr.PaymentERC20","components":[{"name":"amount","type":"uint256","internalType":"uint256"},{"name":"feeAmount","type":"uint256","internalType":"uint256"},{"name":"wrapperSharesReceived","type":"uint256","internalType":"uint256"},{"name":"dueDate","type":"uint40","internalType":"uint40"},{"name":"payer","type":"address","internalType":"address"},{"name":"payee","type":"address","internalType":"address"},{"name":"feeAddress","type":"address","internalType":"address"},{"name":"shouldPayoutViaRequestNetwork","type":"uint8","internalType":"uint8"}]}],"stateMutability":"view"},{"type":"function","name":"maxDueDateParameter","inputs":[],"outputs":[{"name":"","type":"uint256","internalType":"uint256"}],"stateMutability":"view"},{"type":"function","name":"maxPayoutArraySize","inputs":[],"outputs":[{"name":"","type":"uint8","internalType":"uint8"}],"stateMutability":"view"},{"type":"function","name":"minDueDateParameter","inputs":[],"outputs":[{"name":"","type":"uint256","internalType":"uint256"}],"stateMutability":"view"},{"type":"function","name":"minTotalAmountParameter","inputs":[],"outputs":[{"name":"","type":"uint256","internalType":"uint256"}],"stateMutability":"view"},{"type":"function","name":"owner","inputs":[],"outputs":[{"name":"","type":"address","internalType":"address"}],"stateMutability":"view"},{"type":"function","name":"pause","inputs":[],"outputs":[],"stateMutability":"payable"},{"type":"function","name":"paused","inputs":[],"outputs":[{"name":"","type":"bool","internalType":"bool"}],"stateMutability":"view"},{"type":"function","name":"payInvoiceERC20","inputs":[{"name":"_payee","type":"address","internalType":"address"},{"name":"_feeAddress","type":"address","internalType":"address"},{"name":"_dueDate","type":"uint40","internalType":"uint40"},{"name":"_amount","type":"uint256","internalType":"uint256"},{"name":"_feeAmount","type":"uint256","internalType":"uint256"},{"name":"_paymentReference","type":"bytes","internalType":"bytes"},{"name":"_shouldPayoutViaRequestNetwork","type":"uint8","internalType":"uint8"}],"outputs":[],"stateMutability":"nonpayable"},{"type":"function","name":"payInvoiceERC20Escrow","inputs":[{"name":"_payee","type":"address","internalType":"address"},{"name":"_feeAddress","type":"address","internalType":"address"},{"name":"_amount","type":"uint256","internalType":"uint256"},{"name":"_feeAmount","type":"uint256","internalType":"uint256"},{"name":"_paymentReference","type":"bytes","internalType":"bytes"},{"name":"_shouldPayoutViaRequestNetwork","type":"uint8","internalType":"uint8"}],"outputs":[],"stateMutability":"nonpayable"},{"type":"function","name":"payOutERC20Invoice","inputs":[{"name":"payoutReferencesArray","type":"bytes[]","internalType":"bytes[]"}],"outputs":[],"stateMutability":"nonpayable"},{"type":"function","name":"paymentMapping","inputs":[{"name":"","type":"bytes","internalType":"bytes"}],"outputs":[{"name":"amount","type":"uint256","internalType":"uint256"},{"name":"feeAmount","type":"uint256","internalType":"uint256"},{"name":"wrapperSharesReceived","type":"uint256","internalType":"uint256"},{"name":"dueDate","type":"uint40","internalType":"uint40"},{"name":"payer","type":"address","internalType":"address"},{"name":"payee","type":"address","internalType":"address"},{"name":"feeAddress","type":"address","internalType":"address"},{"name":"shouldPayoutViaRequestNetwork","type":"uint8","internalType":"uint8"}],"stateMutability":"view"},{"type":"function","name":"releaseEscrowPayment","inputs":[{"name":"_paymentReference","type":"bytes","internalType":"bytes"}],"outputs":[],"stateMutability":"nonpayable"},{"type":"function","name":"renounceOwnership","inputs":[],"outputs":[],"stateMutability":"nonpayable"},{"type":"function","name":"setContractParameters","inputs":[{"name":"_contractFeeModifier","type":"uint16","internalType":"uint16"},{"name":"_minDueDateParameter","type":"uint256","internalType":"uint256"},{"name":"_maxDueDateParameter","type":"uint256","internalType":"uint256"},{"name":"_minTotalAmountParameter","type":"uint256","internalType":"uint256"},{"name":"_maxPayoutArraySize","type":"uint8","internalType":"uint8"}],"outputs":[],"stateMutability":"payable"},{"type":"function","name":"setERC20FeeProxy","inputs":[{"name":"_ERC20FeeProxyAddress","type":"address","internalType":"address"}],"outputs":[],"stateMutability":"payable"},{"type":"function","name":"transferOwnership","inputs":[{"name":"newOwner","type":"address","internalType":"address"}],"outputs":[],"stateMutability":"nonpayable"},{"type":"function","name":"unpause","inputs":[],"outputs":[],"stateMutability":"payable"},{"type":"function","name":"wrapperAddress","inputs":[],"outputs":[{"name":"","type":"address","internalType":"address"}],"stateMutability":"view"},{"type":"event","name":"ContractParametersUpdatedEvent","inputs":[{"name":"contractFeeModifier","type":"uint16","indexed":false,"internalType":"uint16"},{"name":"minDueDateParameter","type":"uint256","indexed":false,"internalType":"uint256"},{"name":"maxDueDateParameter","type":"uint256","indexed":false,"internalType":"uint256"},{"name":"minTotalAmount","type":"uint256","indexed":false,"internalType":"uint256"},{"name":"maxPayoutArraySize","type":"uint8","indexed":false,"internalType":"uint8"}],"anonymous":false},{"type":"event","name":"InterestPayoutEvent","inputs":[{"name":"tokenAddress","type":"address","indexed":false,"internalType":"address"},{"name":"payee","type":"address","indexed":false,"internalType":"address"},{"name":"interestAmount","type":"uint256","indexed":false,"internalType":"uint256"},{"name":"paymentReference","type":"bytes","indexed":false,"internalType":"bytes"}],"anonymous":false},{"type":"event","name":"OwnershipTransferred","inputs":[{"name":"previousOwner","type":"address","indexed":true,"internalType":"address"},{"name":"newOwner","type":"address","indexed":true,"internalType":"address"}],"anonymous":false},{"type":"event","name":"Paused","inputs":[{"name":"account","type":"address","indexed":false,"internalType":"address"}],"anonymous":false},{"type":"event","name":"PayOutERC20Event","inputs":[{"name":"tokenAddress","type":"address","indexed":false,"internalType":"address"},{"name":"payee","type":"address","indexed":false,"internalType":"address"},{"name":"feeAddress","type":"address","indexed":false,"internalType":"address"},{"name":"amount","type":"uint256","indexed":false,"internalType":"uint256"},{"name":"paymentReference","type":"bytes","indexed":false,"internalType":"bytes"},{"name":"feeAmount","type":"uint256","indexed":false,"internalType":"uint256"}],"anonymous":false},{"type":"event","name":"PaymentERC20Event","inputs":[{"name":"tokenAddress","type":"address","indexed":false,"internalType":"address"},{"name":"payee","type":"address","indexed":false,"internalType":"address"},{"name":"feeAddress","type":"address","indexed":false,"internalType":"address"},{"name":"amount","type":"uint256","indexed":false,"internalType":"uint256"},{"name":"dueDate","type":"uint40","indexed":false,"internalType":"uint40"},{"name":"feeAmount","type":"uint256","indexed":false,"internalType":"uint256"},{"name":"paymentReference","type":"bytes","indexed":false,"internalType":"bytes"}],"anonymous":false},{"type":"event","name":"Unpaused","inputs":[{"name":"account","type":"address","indexed":false,"internalType":"address"}],"anonymous":false},{"type":"event","name":"setERC20FeeProxyEvent","inputs":[{"name":"ERC20FeeProxyAddress","type":"address","indexed":false,"internalType":"address"}],"anonymous":false},{"type":"error","name":"DueDateNotAllowed","inputs":[]},{"type":"error","name":"DueDateNotZero","inputs":[]},{"type":"error","name":"InvalidArrayLength","inputs":[]},{"type":"error","name":"InvalidContractFeeModifier","inputs":[]},{"type":"error","name":"InvalidFeeAmount","inputs":[]},{"type":"error","name":"InvalidFeeAmountMultiplier","inputs":[]},{"type":"error","name":"InvalidMaxArraySize","inputs":[]},{"type":"error","name":"InvalidMaxDueDate","inputs":[]},{"type":"error","name":"InvalidMinAmount","inputs":[]},{"type":"error","name":"InvalidMinDueDate","inputs":[]},{"type":"error","name":"InvalidNewDueDate","inputs":[]},{"type":"error","name":"InvalidTotalAmount","inputs":[]},{"type":"error","name":"NoPrePayment","inputs":[]},{"type":"error","name":"NotAuthorized","inputs":[]},{"type":"error","name":"NotPayer","inputs":[]},{"type":"error","name":"PaymentReferenceInUse","inputs":[]},{"type":"error","name":"ReferenceNotDue","inputs":[]},{"type":"error","name":"ZeroFeeAddress","inputs":[]},{"type":"error","name":"ZeroPayeeAddress","inputs":[]},{"type":"error","name":"referenceNotInEscrow","inputs":[]}],"bytecode":{"object":"0x60e06040818152600060e0836200295a8038038091620000208285620003f5565b833981010312620003c057620000368362000419565b926020906200004782820162000419565b90848101519061ffff821682036200036d5760608101519060808101519060c060a08201519101519160ff83168303620003bc57889987896004819c9a9b5460018060a01b03809c519586948593338482167f8be0079c531659141344cd1fd0a4f28419497f9722a3daafe3b4186f6b6457e08480a36001600160a81b0319163360ff60a01b19161790556001805560c081905263c55dae6360e01b8352165afa908115620003b2578a9162000371575b506080528560a0526002549360035560045560055560ff60a01b9060a01b169161ffff60a81b9060a81b169062ffffff60a01b191617176002558160c0511690813b156200036d578260448692838951958694859363110496e560e01b8552166004840152600160248401525af18015620003635762000333575b5080608051169060c051169284519280840191808063095ea7b360e01b94858152886024890152600019604489015260448852620001b188620003c3565b87519082885af1620001c262000433565b81620002fe575b5080620002f3575b15620002b1575b86516122ee90816200066c82396080518181816102350152818161037c01528181610706015281816109cc01528181610a4301528181610c3b01528181610eca0152818161144d01528181611523015281816115ae01528181611673015281816117500152818161179b01528181611814015281816118fc0152611939015260a05181818161046e01528181610aa801528181610dc9015281816114040152611b53015260c0518181816103be01528181610a050152818161102b015281816114a3015281816114de0152818161155c015261204f0152f35b620002e795620002e1938851938401526024830152604482015260448152620002da81620003c3565b8262000490565b62000490565b388080808080620001d8565b50833b1515620001d1565b8051801592508490831562000318575b50505038620001c9565b6200032a935082018101910162000476565b3883816200030e565b9092906001600160401b0381116200034f578452913862000173565b634e487b7160e01b82526041600452602482fd5b85513d86823e3d90fd5b8480fd5b90508881813d8311620003aa575b6200038b8183620003f5565b81010312620003a6576200039f9062000419565b38620000f8565b8980fd5b503d6200037f565b8b513d8c823e3d90fd5b8780fd5b80fd5b608081019081106001600160401b03821117620003df57604052565b634e487b7160e01b600052604160045260246000fd5b601f909101601f19168101906001600160401b03821190821017620003df57604052565b51906001600160a01b03821682036200042e57565b600080fd5b3d1562000471573d906001600160401b038211620003df576040519162000465601f8201601f191660200184620003f5565b82523d6000602084013e565b606090565b908160209103126200042e575180151581036200042e5790565b60408051908101916001600160a01b03166001600160401b03831182841017620003df5762000504926040526000806020958685527f5361666545524332303a206c6f772d6c6576656c2063616c6c206661696c656487860152868151910182855af1620004fd62000433565b9162000591565b80519082821592831562000576575b505050156200051f5750565b6084906040519062461bcd60e51b82526004820152602a60248201527f5361666545524332303a204552433230206f7065726174696f6e20646964206e6044820152691bdd081cdd58d8d9595960b21b6064820152fd5b62000588935082018101910162000476565b38828162000513565b91929015620005f65750815115620005a7575090565b3b15620005b15790565b60405162461bcd60e51b815260206004820152601d60248201527f416464726573733a2063616c6c20746f206e6f6e2d636f6e74726163740000006044820152606490fd5b8251909150156200060a5750805190602001fd5b6040519062461bcd60e51b82528160208060048301528251908160248401526000935b82851062000651575050604492506000838284010152601f80199101168101030190fd5b84810182015186860160440152938101938593506200062d56fe608080604052600436101561001357600080fd5b600090813560e01c9081631949b25c14611c8f5750806324c2074014611c665780633d1d15bf14611c485780633f4ba83a14611bb257806345107cae14611b2d5780634677863514611aa15780634beb2a1e146112af57806350fba64a146111e65780635738e818146110bb578063589113971461109d5780635c975abb14611078578063616212ba1461105a5780636bbb194b146110155780636e2f87f314610e52578063715018a614610df85780637df8b80214610db35780638456cb5914610d57578063887d5d3d146108dc5780638c4c7e04146107805780638da5cb5b14610759578063c11e284614610735578063cdf456e1146106f0578063d2cd134a146102c2578063ed19fa84146102015763f2fde38b1461013457600080fd5b346101fe5760203660031901126101fe5761014d611da8565b610155611ea9565b6001600160a01b039081169081156101aa57600054826bffffffffffffffffffffffff60a01b821617600055167f8be0079c531659141344cd1fd0a4f28419497f9722a3daafe3b4186f6b6457e0600080a380f35b60405162461bcd60e51b815260206004820152602660248201527f4f776e61626c653a206e6577206f776e657220697320746865207a65726f206160448201526564647265737360d01b6064820152608490fd5b80fd5b50806003193601126101fe57610215611ea9565b80546040516370a0823160e01b8152306004820152906001600160a01b037f000000000000000000000000000000000000000000000000000000000000000081169116602083602481855afa9182156102b757849261027c575b6102799350611f57565b80f35b91506020833d6020116102af575b8161029760209383611ce1565b810103126102aa5761027992519161026f565b600080fd5b3d915061028a565b6040513d86823e3d90fd5b50346101fe5760c03660031901126101fe576102dc611da8565b6102e4611dbe565b606435916044356084356001600160401b0381116106ec5761030a903690600401611dd4565b94909160a4359460ff861686036102aa57610323611f01565b61032b611f95565b6040518785823760208189810160068152030190209561034b8484611e9c565b6001600160a01b039096169687156106da576001600160a01b038316156106c557546106b35760055486106106a1577f0000000000000000000000000000000000000000000000000000000000000000908960018060a01b038316976103b38130338c611fdc565b6103bb612034565b937f00000000000000000000000000000000000000000000000000000000000000006001600160a01b031691823b1561069d57604051631e573fb760e31b81526001600160a01b0392909216600483015260248201529082908290604490829084905af180156106925761067a575b505060206104426104699361043d612034565b611e58565b604051636e553f6560e01b8152600481019190915230602482015292839081906044820190565b03818d7f00000000000000000000000000000000000000000000000000000000000000006001600160a01b03165af191821561066f578a9261062b575b50916105e67f160b9883c8416d313cc749bc5858db361276143105365a035258beace5bf3b3e99949260ff610621989795604051926104e484611cc5565b86845287602085015260408401528d60608401523360808401528b60a084015260018060a01b03851660c08401528160e0840191168152604051888a82376006818a01908152602090829003810190912084518155908401516001820155604084015160028201556060840151600382018054608087015165010000000000600160c81b0360289190911b1664ffffffffff9093166001600160c81b03199091161791909117905560a0808501516004830180546001600160a01b039283166001600160a01b031990911617905560c09095015160059092018054935160ff60a01b951690911b9390931693166001600160a81b031990911617919091179055565b6040519788978852602088015260018060a01b03166040870152606086015287608086015260a085015260e060c085015260e0840191611e7b565b0390a16001805580f35b989391509493916020893d602011610667575b8161064b60209383611ce1565b810103126102aa579751929793949193909290916105e66104a6565b3d915061063e565b6040513d8c823e3d90fd5b61068390611cb2565b61068e57893861042a565b8980fd5b6040513d84823e3d90fd5b8380fd5b6040516324204a3560e21b8152600490fd5b604051630a685b0f60e41b8152600490fd5b604051600162287bad60e01b03198152600490fd5b604051631781d75760e01b8152600490fd5b8580fd5b50346101fe57806003193601126101fe576040517f00000000000000000000000000000000000000000000000000000000000000006001600160a01b03168152602090f35b50346101fe57806003193601126101fe57602060ff60025460a01c16604051908152f35b50346101fe57806003193601126101fe57546040516001600160a01b039091168152602090f35b5060a03660031901126101fe5761ffff6004358181169182820361069d5760243592604435936064356084359260ff8416908185036102aa576107c1611ea9565b61138881109081156108d0575b506108be576206978083106108ac576301e13380871161089a57600182106108885715610876577f7e2c6359e276662df7728b39a0ad6d74d0333c402835ac343a5208bbf5a23d549560a09560ff946002549085600355836004558460055586891b90891b169161ffff60a81b9060a81b169062ffffff891b191617179283600255604051958460a81c168652602086015260408501526060840152831c166080820152a180f35b60405163f39d15db60e01b8152600490fd5b604051639c68554f60e01b8152600490fd5b6040516329efbf6360e21b8152600490fd5b60405163f57c57d360e01b8152600490fd5b604051637b4a552360e11b8152600490fd5b612710915011386107ce565b50346101fe5760e03660031901126101fe576108f6611da8565b6108fe611dbe565b6044359164ffffffffff8316830361069d5760a4356001600160401b038111610d535761092f903690600401611dd4565b60c43560ff811681036102aa57610944611f01565b61094c611f95565b60405182848237602081848101600681520301902090610970608435606435611e9c565b916001600160a01b038616156106da576001600160a01b038716156106c557546106b35760055482106106a15764ffffffffff6109af60035442611e9c565b1664ffffffffff8816108015610d31575b610d1f576109f98230337f00000000000000000000000000000000000000000000000000000000000000006001600160a01b0316611fdc565b87610a02612034565b927f00000000000000000000000000000000000000000000000000000000000000006001600160a01b0316803b15610d1b57604051631e573fb760e31b81527f00000000000000000000000000000000000000000000000000000000000000006001600160a01b03166004820152602481019290925282908290604490829084905af1801561069257610d03575b50506020610442610aa39361043d612034565b03818b7f00000000000000000000000000000000000000000000000000000000000000006001600160a01b03165af1918215610cf8578892610c9e575b507f160b9883c8416d313cc749bc5858db361276143105365a035258beace5bf3b3e96610c2c61062195949360ff64ffffffffff9460405192610b2284611cc5565b606435845260843560208501526040840152858516606084015233608084015260018060a01b038a1660a084015260018060a01b038b1660c08401521660e082015260ff60e0604051878982376006818901908152602090829003810190912084518155908401516001820155604084015160028201556060840151600382018054608087015165010000000000600160c81b0360289190911b16928a166001600160c81b03199091161791909117905560a0808501516004830180546001600160a01b039283166001600160a01b031990911617905560c086015160059093018054949096015160ff60a01b951690911b9390931692166001600160a81b031990911617179055565b60405196879660018060a01b037f000000000000000000000000000000000000000000000000000000000000000016885260018060a01b0316602088015260018060a01b03166040870152606435606087015216608085015260843560a085015260e060c085015260e0840191611e7b565b939291506020843d602011610cf0575b81610cbb60209383611ce1565b810103126102aa57925191929091907f160b9883c8416d313cc749bc5858db361276143105365a035258beace5bf3b3e610ae0565b3d9150610cae565b6040513d8a823e3d90fd5b610d0c90611cb2565b610d17578738610a90565b8780fd5b8280fd5b6040516354ad112d60e11b8152600490fd5b5064ffffffffff610d4460045442611e9c565b1664ffffffffff8816116109c0565b8480fd5b50806003193601126101fe57610d6b611ea9565b610d73611f95565b805460ff60a01b1916600160a01b1781556040513381527f62e78cea01bee320cd4e420270b5ea74000d11b0c9f74754ebdbfc544b05a25890602090a180f35b50346101fe57806003193601126101fe576040517f00000000000000000000000000000000000000000000000000000000000000006001600160a01b03168152602090f35b50346101fe57806003193601126101fe57610e11611ea9565b600080546001600160a01b0319811682556001600160a01b03167f8be0079c531659141344cd1fd0a4f28419497f9722a3daafe3b4186f6b6457e08280a380f35b5060208060031936011261101157610e68611da8565b90610e71611ea9565b600280546001600160a01b039384166001600160a01b03198216811790925560405163095ea7b360e01b8482018181529287168087168517602484015260001960448085019190915283526001600160401b03969491937f00000000000000000000000000000000000000000000000000000000000000008616929190608085018581108a821117610fc1578a91829160405286519082875af1610f136121d5565b81610fe1575b5080610fd7575b15610f58575b887fc118d94973a304abcd8e14e20e459d7aea61d380847a0070bcdf945a0b4a5341888860025416604051908152a180f35b604051948786015217602484015286604484015260448352608083019583871090871117610fc157610fb2610fb7937fc118d94973a304abcd8e14e20e459d7aea61d380847a0070bcdf945a0b4a534197604052826120de565b6120de565b3880808080610f26565b634e487b7160e01b600052604160045260246000fd5b50823b1515610f20565b80518015925089908315610ff9575b50505038610f19565b61100993508201810191016120c6565b388881610ff0565b5080fd5b50346101fe57806003193601126101fe576040517f00000000000000000000000000000000000000000000000000000000000000006001600160a01b03168152602090f35b50346101fe57806003193601126101fe576020600354604051908152f35b50346101fe57806003193601126101fe5760ff6020915460a01c166040519015158152f35b50346101fe57806003193601126101fe576020600554604051908152f35b50346101fe5761111d6020610100926110d336611d1d565b9060e06040516110e281611cc5565b82815282858201528260408201528260608201528260808201528260a08201528260c082015201528160405193828580945193849201611d85565b8101600681520301902060ff60e06040519261113884611cc5565b805493848152600182015491602082019283526002810154906040830191825260038101549364ffffffffff946060850195808216875260018060a01b0396879586948560808a019560281c1685528b60058760048a0154169860a08c01998a5201549b8a8860c08f9d019c168c52019b60a01c168b526040519c8d525160208d01525160408c0152511660608a015251166080880152511660a0860152511660c0840152511660e0820152f35b50346101fe5761120d60206111fa36611d1d565b8160405193828580945193849201611d85565b6006908201908152030190206003810180549091602882901c6001600160a01b0316330361129d5764ffffffffff9081831661128b5754156112795761b478420180421161126557169064ffffffffff191617905580f35b634e487b7160e01b85526011600452602485fd5b604051632a313f9360e01b8152600490fd5b604051631ddf006760e11b8152600490fd5b604051631435e35760e01b8152600490fd5b50346101fe5760203660031901126101fe576004356001600160401b03808211610d1b5736602383011215610d1b5781600401351161101157366024826004013560051b8301011161101157611303611f01565b8060040135158015611a8c575b611a7a57815b8160040135811061132957826001805580f35b602061133d82846004013560248601611e01565b91908260405193849283378101600681520301902090815480156112795760038301544264ffffffffff821611611a685760058401549360018060a01b036004820154166002600183015492015488600560206113a3898c602481600401359101611e01565b919082604051938492833781016006815203019020828155826001820155826002820155826003820155826004820155015560405190635d043b2960e11b825260048201523060248201523060448201526020816064818c60018060a01b037f0000000000000000000000000000000000000000000000000000000000000000165af18015611a3257611a3d575b506040516370a0823160e01b81523060048201526020816024817f00000000000000000000000000000000000000000000000000000000000000006001600160a01b03165afa908115611a32578991611a00575b506040516370a0823160e01b815230600482015289906020816024817f00000000000000000000000000000000000000000000000000000000000000006001600160a01b03165afa9081156106925782916119cb575b507f00000000000000000000000000000000000000000000000000000000000000006001600160a01b03163b156110115760405163f3fef3a360e01b81526001600160a01b037f00000000000000000000000000000000000000000000000000000000000000001660048201526024810191909152818180604481010381837f00000000000000000000000000000000000000000000000000000000000000006001600160a01b03165af18015610692576119b3575b50506040516370a0823160e01b81523060048201526020816024817f00000000000000000000000000000000000000000000000000000000000000006001600160a01b03165afa91821561066f57869285928c91611977575b509261043d61043d926115fc95611e58565b9361ffff60025460a81c16928584810204841486151715611963578860a089901c60ff161561189157506002546001600160a01b03168a6116458960048d013560248e01611e01565b90833b15610d1b576116b493839283898f6040519889968795869463c219a14d60e01b865260018060a01b037f000000000000000000000000000000000000000000000000000000000000000016600487015260248601528d604486015260c0606486015260c4850191611e7b565b608483018b90526001600160a01b0390911660a483015203925af1918215611884578b92611861575b5050976118589385937f3c77ae279df37c7ea5dd3a57f101c57dac95417ce9c24279d6ec87d9399c82d7612710946117838c60019e611775897fa5ed23d5ebdea6438acd5b68a3befbb14c431a7a8f221448bfb708ab8a408e9f9f9e9d8f5b02046001600160a01b0360288f901c8116907f000000000000000000000000000000000000000000000000000000000000000016611f57565b602481600401359101611e01565b9590916117e860405193849360c09860018060a01b037f0000000000000000000000000000000000000000000000000000000000000000168652602086015260018060a01b0316604085015260609687850152608098888a998a870152850191611e7b565b9060a08301520390a16118038a60048e013560248f01611e01565b949095604051998a998e8060a01b037f0000000000000000000000000000000000000000000000000000000000000000168b528e8060a01b039060281c1660208b015202046040880152860152840191611e7b565b0390a101611316565b611872919250979695939497611cb2565b61068e57888a389794939596976116dd565b50604051903d90823e3d90fd5b9783837f3c77ae279df37c7ea5dd3a57f101c57dac95417ce9c24279d6ec87d9399c82d7612710946117838c60019e8f897fa5ed23d5ebdea6438acd5b68a3befbb14c431a7a8f221448bfb708ab8a408e9f9f9e9d8f6119216118589f9e839f866117759760a01b037f000000000000000000000000000000000000000000000000000000000000000016611f57565b871561173c5761195e886001600160a01b03808f16907f000000000000000000000000000000000000000000000000000000000000000016611f57565b61173c565b634e487b7160e01b8a52601160045260248afd5b93505090506020823d6020116119ab575b8161199560209383611ce1565b810103126102aa5790518591849161043d6115ea565b3d9150611988565b6119bc90611cb2565b6119c7578838611591565b8880fd5b9150506020813d6020116119f8575b816119e760209383611ce1565b810103126102aa57899051386114db565b3d91506119da565b90506020813d602011611a2a575b81611a1b60209383611ce1565b810103126102aa575138611485565b3d9150611a0e565b6040513d8b823e3d90fd5b602090813d8311611a61575b611a538183611ce1565b810103126102aa5738611431565b503d611a49565b604051631db89f5b60e11b8152600490fd5b604051634ec4810560e11b8152600490fd5b5060ff60025460a01c16816004013511611310565b50346101fe57610100611ab860206111fa36611d1d565b8101600681520301902060ff81549160018101549060028101549060038101549160018060a01b03928391600583600486015416940154956040519889526020890152604088015264ffffffffff8116606088015260281c16608086015260a0850152811660c084015260a01c1660e0820152f35b50806003193601126101fe57611b41611ea9565b805481906001600160a01b03908116907f000000000000000000000000000000000000000000000000000000000000000016803b15611bae5760248392604051948593849263144c5ebf60e31b845260048401525af1801561069257611ba5575080f35b61027990611cb2565b5050fd5b50806003193601126101fe57611bc6611ea9565b805460ff8160a01c1615611c0c5760ff60a01b191681556040513381527f5db9ee0a495bf2e6ff9c91a7834c1ba4fdd244a5e8aa4e537bd38aeae4b073aa90602090a180f35b60405162461bcd60e51b815260206004820152601460248201527314185d5cd8589b194e881b9bdd081c185d5cd95960621b6044820152606490fd5b50346101fe57806003193601126101fe576020600454604051908152f35b50346101fe57806003193601126101fe576002546040516001600160a01b039091168152602090f35b90503461101157816003193601126110115760209061ffff60025460a81c168152f35b6001600160401b038111610fc157604052565b61010081019081106001600160401b03821117610fc157604052565b90601f801991011681019081106001600160401b03821117610fc157604052565b6001600160401b038111610fc157601f01601f191660200190565b60206003198201126102aa576004356001600160401b0381116102aa57816023820112156102aa57806004013590611d5482611d02565b92611d626040519485611ce1565b828452602483830101116102aa5781600092602460209301838601378301015290565b60005b838110611d985750506000910152565b8181015183820152602001611d88565b600435906001600160a01b03821682036102aa57565b602435906001600160a01b03821682036102aa57565b9181601f840112156102aa578235916001600160401b0383116102aa57602083818601950101116102aa57565b9190811015611e425760051b81013590601e19813603018212156102aa5701908135916001600160401b0383116102aa5760200182360381136102aa579190565b634e487b7160e01b600052603260045260246000fd5b91908203918211611e6557565b634e487b7160e01b600052601160045260246000fd5b908060209392818452848401376000828201840152601f01601f1916010190565b91908201809211611e6557565b6000546001600160a01b03163303611ebd57565b606460405162461bcd60e51b815260206004820152602060248201527f4f776e61626c653a2063616c6c6572206973206e6f7420746865206f776e65726044820152fd5b600260015414611f12576002600155565b60405162461bcd60e51b815260206004820152601f60248201527f5265656e7472616e637947756172643a207265656e7472616e742063616c6c006044820152606490fd5b60405163a9059cbb60e01b60208201526001600160a01b03929092166024830152604480830193909352918152611f9391610fb2606483611ce1565b565b60ff60005460a01c16611fa457565b60405162461bcd60e51b815260206004820152601060248201526f14185d5cd8589b194e881c185d5cd95960821b6044820152606490fd5b6040516323b872dd60e01b60208201526001600160a01b03928316602482015292909116604483015260648083019390935291815260a08101918183106001600160401b03841117610fc157611f93926040526120de565b6040516370a0823160e01b81523060048201526020816024817f00000000000000000000000000000000000000000000000000000000000000006001600160a01b03165afa9081156120ba5760009161208b575090565b90506020813d6020116120b2575b816120a660209383611ce1565b810103126102aa575190565b3d9150612099565b6040513d6000823e3d90fd5b908160209103126102aa575180151581036102aa5790565b60408051908101916001600160a01b03166001600160401b03831182841017610fc15761214d926040526000806020958685527f5361666545524332303a206c6f772d6c6576656c2063616c6c206661696c656487860152868151910182855af16121476121d5565b91612205565b8051908282159283156121bd575b505050156121665750565b6084906040519062461bcd60e51b82526004820152602a60248201527f5361666545524332303a204552433230206f7065726174696f6e20646964206e6044820152691bdd081cdd58d8d9595960b21b6064820152fd5b6121cd93508201810191016120c6565b38828161215b565b3d15612200573d906121e682611d02565b916121f46040519384611ce1565b82523d6000602084013e565b606090565b919290156122675750815115612219575090565b3b156122225790565b60405162461bcd60e51b815260206004820152601d60248201527f416464726573733a2063616c6c20746f206e6f6e2d636f6e74726163740000006044820152606490fd5b82519091501561227a5750805190602001fd5b6044604051809262461bcd60e51b8252602060048301526122aa8151809281602486015260208686019101611d85565b601f01601f19168101030190fdfea2646970667358221220d66ea033e3b95e51b30ab795e312787057fc60fff31e08aaebf703ced94b1c5a64736f6c63430008180033","linkReferences":{}},"methodIdentifiers":{"ERC20FeeProxyAddress()":"24c20740","baseAsset()":"cdf456e1","claimBaseAssetBalance()":"ed19fa84","claimCompRewards()":"45107cae","cometAddress()":"6bbb194b","contractFeeModifier()":"1949b25c","getMapping(bytes)":"5738e818","maxDueDateParameter()":"3d1d15bf","maxPayoutArraySize()":"c11e2846","minDueDateParameter()":"616212ba","minTotalAmountParameter()":"58911397","owner()":"8da5cb5b","pause()":"8456cb59","paused()":"5c975abb","payInvoiceERC20(address,address,uint40,uint256,uint256,bytes,uint8)":"887d5d3d","payInvoiceERC20Escrow(address,address,uint256,uint256,bytes,uint8)":"d2cd134a","payOutERC20Invoice(bytes[])":"4beb2a1e","paymentMapping(bytes)":"46778635","releaseEscrowPayment(bytes)":"50fba64a","renounceOwnership()":"715018a6","setContractParameters(uint16,uint256,uint256,uint256,uint8)":"8c4c7e04","setERC20FeeProxy(address)":"6e2f87f3","transferOwnership(address)":"f2fde38b","unpause()":"3f4ba83a","wrapperAddress()":"7df8b802"},"id":30}