{"abi":[{"type":"constructor","inputs":[{"name":"_cometAddress","type":"address","internalType":"address"},{"name":"_wrapperAddress","type":"address","internalType":"address"},{"name":"_contractFeeModifier","type":"uint16","internalType":"uint16"},{"name":"_minDueDateParameter","type":"uint256","internalType":"uint256"},{"name":"_maxDueDateParameter","type":"uint256","internalType":"uint256"},{"name":"_minTotalAmountParameter","type":"uint256","internalType":"uint256"},{"name":"_maxPayoutArraySize","type":"uint8","internalType":"uint8"}],"stateMutability":"payable"},{"type":"function","name":"ERC20FeeProxyAddress","inputs":[],"outputs":[{"name":"","type":"address","internalType":"address"}],"stateMutability":"view"},{"type":"function","name":"baseAsset","inputs":[],"outputs":[{"name":"","type":"address","internalType":"address"}],"stateMutability":"view"},{"type":"function","name":"claimBaseAssetBalance","inputs":[],"outputs":[],"stateMutability":"nonpayable"},{"type":"function","name":"claimCompRewards","inputs":[],"outputs":[],"stateMutability":"nonpayable"},{"type":"function","name":"cometAddress","inputs":[],"outputs":[{"name":"","type":"address","internalType":"address"}],"stateMutability":"view"},{"type":"function","name":"contractFeeModifier","inputs":[],"outputs":[{"name":"","type":"uint16","internalType":"uint16"}],"stateMutability":"view"},{"type":"function","name":"getMapping","inputs":[{"name":"_paymentReference","type":"bytes","internalType":"bytes"}],"outputs":[{"name":"","type":"tuple","internalType":"struct Paytr.PaymentERC20","components":[{"name":"amount","type":"uint256","internalType":"uint256"},{"name":"feeAmount","type":"uint256","internalType":"uint256"},{"name":"wrapperSharesReceived","type":"uint256","internalType":"uint256"},{"name":"dueDate","type":"uint40","internalType":"uint40"},{"name":"payer","type":"address","internalType":"address"},{"name":"payee","type":"address","internalType":"address"},{"name":"feeAddress","type":"address","internalType":"address"},{"name":"shouldPayoutViaRequestNetwork","type":"uint8","internalType":"uint8"}]}],"stateMutability":"view"},{"type":"function","name":"maxDueDateParameter","inputs":[],"outputs":[{"name":"","type":"uint256","internalType":"uint256"}],"stateMutability":"view"},{"type":"function","name":"maxPayoutArraySize","inputs":[],"outputs":[{"name":"","type":"uint8","internalType":"uint8"}],"stateMutability":"view"},{"type":"function","name":"minDueDateParameter","inputs":[],"outputs":[{"name":"","type":"uint256","internalType":"uint256"}],"stateMutability":"view"},{"type":"function","name":"minTotalAmountParameter","inputs":[],"outputs":[{"name":"","type":"uint256","internalType":"uint256"}],"stateMutability":"view"},{"type":"function","name":"owner","inputs":[],"outputs":[{"name":"","type":"address","internalType":"address"}],"stateMutability":"view"},{"type":"function","name":"pause","inputs":[],"outputs":[],"stateMutability":"nonpayable"},{"type":"function","name":"paused","inputs":[],"outputs":[{"name":"","type":"bool","internalType":"bool"}],"stateMutability":"view"},{"type":"function","name":"payInvoiceERC20","inputs":[{"name":"_payee","type":"address","internalType":"address"},{"name":"_feeAddress","type":"address","internalType":"address"},{"name":"_dueDate","type":"uint40","internalType":"uint40"},{"name":"_amount","type":"uint256","internalType":"uint256"},{"name":"_feeAmount","type":"uint256","internalType":"uint256"},{"name":"_paymentReference","type":"bytes","internalType":"bytes"},{"name":"_shouldPayoutViaRequestNetwork","type":"uint8","internalType":"uint8"}],"outputs":[],"stateMutability":"nonpayable"},{"type":"function","name":"payInvoiceERC20Escrow","inputs":[{"name":"_payee","type":"address","internalType":"address"},{"name":"_feeAddress","type":"address","internalType":"address"},{"name":"_amount","type":"uint256","internalType":"uint256"},{"name":"_feeAmount","type":"uint256","internalType":"uint256"},{"name":"_paymentReference","type":"bytes","internalType":"bytes"},{"name":"_shouldPayoutViaRequestNetwork","type":"uint8","internalType":"uint8"}],"outputs":[],"stateMutability":"nonpayable"},{"type":"function","name":"payOutERC20Invoice","inputs":[{"name":"payoutReferencesArray","type":"bytes[]","internalType":"bytes[]"}],"outputs":[],"stateMutability":"nonpayable"},{"type":"function","name":"paymentMapping","inputs":[{"name":"","type":"bytes","internalType":"bytes"}],"outputs":[{"name":"amount","type":"uint256","internalType":"uint256"},{"name":"feeAmount","type":"uint256","internalType":"uint256"},{"name":"wrapperSharesReceived","type":"uint256","internalType":"uint256"},{"name":"dueDate","type":"uint40","internalType":"uint40"},{"name":"payer","type":"address","internalType":"address"},{"name":"payee","type":"address","internalType":"address"},{"name":"feeAddress","type":"address","internalType":"address"},{"name":"shouldPayoutViaRequestNetwork","type":"uint8","internalType":"uint8"}],"stateMutability":"view"},{"type":"function","name":"releaseEscrowPayment","inputs":[{"name":"_paymentReference","type":"bytes","internalType":"bytes"}],"outputs":[],"stateMutability":"nonpayable"},{"type":"function","name":"renounceOwnership","inputs":[],"outputs":[],"stateMutability":"nonpayable"},{"type":"function","name":"setContractParameters","inputs":[{"name":"_contractFeeModifier","type":"uint16","internalType":"uint16"},{"name":"_minDueDateParameter","type":"uint256","internalType":"uint256"},{"name":"_maxDueDateParameter","type":"uint256","internalType":"uint256"},{"name":"_minTotalAmountParameter","type":"uint256","internalType":"uint256"},{"name":"_maxPayoutArraySize","type":"uint8","internalType":"uint8"}],"outputs":[],"stateMutability":"nonpayable"},{"type":"function","name":"setERC20FeeProxy","inputs":[{"name":"_ERC20FeeProxyAddress","type":"address","internalType":"address"}],"outputs":[],"stateMutability":"nonpayable"},{"type":"function","name":"transferOwnership","inputs":[{"name":"newOwner","type":"address","internalType":"address"}],"outputs":[],"stateMutability":"nonpayable"},{"type":"function","name":"unpause","inputs":[],"outputs":[],"stateMutability":"nonpayable"},{"type":"function","name":"wrapperAddress","inputs":[],"outputs":[{"name":"","type":"address","internalType":"address"}],"stateMutability":"view"},{"type":"event","name":"ContractParametersUpdatedEvent","inputs":[{"name":"contractFeeModifier","type":"uint16","indexed":false,"internalType":"uint16"},{"name":"minDueDateParameter","type":"uint256","indexed":false,"internalType":"uint256"},{"name":"maxDueDateParameter","type":"uint256","indexed":false,"internalType":"uint256"},{"name":"minTotalAmount","type":"uint256","indexed":false,"internalType":"uint256"},{"name":"maxPayoutArraySize","type":"uint8","indexed":false,"internalType":"uint8"}],"anonymous":false},{"type":"event","name":"InterestPayoutEvent","inputs":[{"name":"tokenAddress","type":"address","indexed":false,"internalType":"address"},{"name":"payee","type":"address","indexed":false,"internalType":"address"},{"name":"interestAmount","type":"uint256","indexed":false,"internalType":"uint256"},{"name":"paymentReference","type":"bytes","indexed":false,"internalType":"bytes"}],"anonymous":false},{"type":"event","name":"OwnershipTransferred","inputs":[{"name":"previousOwner","type":"address","indexed":true,"internalType":"address"},{"name":"newOwner","type":"address","indexed":true,"internalType":"address"}],"anonymous":false},{"type":"event","name":"Paused","inputs":[{"name":"account","type":"address","indexed":false,"internalType":"address"}],"anonymous":false},{"type":"event","name":"PayOutERC20Event","inputs":[{"name":"tokenAddress","type":"address","indexed":false,"internalType":"address"},{"name":"payee","type":"address","indexed":false,"internalType":"address"},{"name":"feeAddress","type":"address","indexed":false,"internalType":"address"},{"name":"amount","type":"uint256","indexed":false,"internalType":"uint256"},{"name":"paymentReference","type":"bytes","indexed":false,"internalType":"bytes"},{"name":"feeAmount","type":"uint256","indexed":false,"internalType":"uint256"}],"anonymous":false},{"type":"event","name":"PaymentERC20Event","inputs":[{"name":"tokenAddress","type":"address","indexed":false,"internalType":"address"},{"name":"payee","type":"address","indexed":false,"internalType":"address"},{"name":"feeAddress","type":"address","indexed":false,"internalType":"address"},{"name":"amount","type":"uint256","indexed":false,"internalType":"uint256"},{"name":"dueDate","type":"uint40","indexed":false,"internalType":"uint40"},{"name":"feeAmount","type":"uint256","indexed":false,"internalType":"uint256"},{"name":"paymentReference","type":"bytes","indexed":false,"internalType":"bytes"}],"anonymous":false},{"type":"event","name":"SetERC20FeeProxyEvent","inputs":[{"name":"ERC20FeeProxyAddress","type":"address","indexed":false,"internalType":"address"}],"anonymous":false},{"type":"event","name":"Unpaused","inputs":[{"name":"account","type":"address","indexed":false,"internalType":"address"}],"anonymous":false},{"type":"error","name":"DueDateNotAllowed","inputs":[]},{"type":"error","name":"InvalidArrayLength","inputs":[]},{"type":"error","name":"InvalidContractFeeModifier","inputs":[]},{"type":"error","name":"InvalidMaxArraySize","inputs":[]},{"type":"error","name":"InvalidMaxDueDate","inputs":[]},{"type":"error","name":"InvalidMinAmount","inputs":[]},{"type":"error","name":"InvalidMinDueDate","inputs":[]},{"type":"error","name":"InvalidTotalAmount","inputs":[]},{"type":"error","name":"NoPrePayment","inputs":[]},{"type":"error","name":"NotPayer","inputs":[]},{"type":"error","name":"PaymentReferenceInUse","inputs":[]},{"type":"error","name":"ReferenceNotDue","inputs":[]},{"type":"error","name":"ReferenceNotInEscrow","inputs":[]},{"type":"error","name":"ZeroAmount","inputs":[]},{"type":"error","name":"ZeroFeeAddress","inputs":[]},{"type":"error","name":"ZeroPayeeAddress","inputs":[]}],"bytecode":{"object":"0x60e080604052600060e0826126d5803803809161001c8285610429565b8339810103126104225761002f82610462565b61003b60208401610462565b9160408401519161ffff8316928381036104255760608601519260808701519460c060a08901519801519160ff831690818403610422578054336001600160a01b0382167f8be0079c531659141344cd1fd0a4f28419497f9722a3daafe3b4186f6b6457e08480a36001600160a81b0319163360ff60a01b1916178155600180559861138883108015610417575b610406576206978087106103f5576301e1338088116103e457600181106103d35781156103c2576004976020977f7e2c6359e276662df7728b39a0ad6d74d0333c402835ac343a5208bbf5a23d549660a0966002549083600355848d558560055560ff891b90891b169161ffff60a81b9060a81b169062ffffff891b1916171760025560405194855288850152604084015260608301526080820152a160c081905260405163c55dae6360e01b815292839182906001600160a01b03165afa90811561037757600091610388575b5060805260a081905260c0516001600160a01b031690813b156103835760405163110496e560e01b81526001600160a01b03909116600482015260016024820152906000908290604490829084905af1801561037757610362575b5060018060a01b03608051169060018060a01b0360c05116916040519180806020850163095ea7b360e01b815286602487015260001960448701526044865261023c606487610429565b85519082865af161024b610476565b81610333575b5080610329575b156102e3575b60405161204b908161068a823960805181818161023501528181610385015281816106f9015281816109b601528181610df001526111e6015260a05181818161047801528181610aa801528181610cd90152818161123801526118b8015260c0518181816103c5015281816109fa01528181610ede015281816112100152611db70152f35b6103209361031b916040519163095ea7b360e01b60208401526024830152604482015260448152610315606482610429565b826104cd565b6104cd565b3880808061025e565b50813b1515610258565b8051801592508215610348575b505038610251565b61035b92506020809183010191016104b5565b3880610340565b61036f9150600090610429565b6000386101f2565b6040513d6000823e3d90fd5b600080fd5b90506020813d6020116103ba575b816103a360209383610429565b81010312610383576103b490610462565b38610197565b3d9150610396565b63f39d15db60e01b60005260046000fd5b639c68554f60e01b60005260046000fd5b6329efbf6360e21b60005260046000fd5b63f57c57d360e01b60005260046000fd5b637b4a552360e11b60005260046000fd5b5061271083116100c9565b80fd5b8280fd5b601f909101601f19168101906001600160401b0382119082101761044c57604052565b634e487b7160e01b600052604160045260246000fd5b51906001600160a01b038216820361038357565b3d156104b0573d906001600160401b03821161044c57604051916104a4601f8201601f191660200184610429565b82523d6000602084013e565b606090565b90816020910312610383575180151581036103835790565b604080519092610532926001600160a01b03169060009081906104f08786610429565b602085527f5361666545524332303a206c6f772d6c6576656c2063616c6c206661696c6564602086015260208151910182855af161052c610476565b916105b9565b805190811591821561059f575b5050156105495750565b5162461bcd60e51b815260206004820152602a60248201527f5361666545524332303a204552433230206f7065726174696f6e20646964206e6044820152691bdd081cdd58d8d9595960b21b6064820152608490fd5b6105b292506020809183010191016104b5565b388061053f565b9192901561061b57508151156105cd575090565b3b156105d65790565b60405162461bcd60e51b815260206004820152601d60248201527f416464726573733a2063616c6c20746f206e6f6e2d636f6e74726163740000006044820152606490fd5b82519091501561062e5750805190602001fd5b6040519062461bcd60e51b8252602060048301528181519182602483015260005b8381106106715750508160006044809484010152601f80199101168101030190fd5b6020828201810151604487840101528593500161064f56fe608080604052600436101561001357600080fd5b600090813560e01c9081631949b25c14611a025750806324c20740146119d95780633d1d15bf146119bb5780633f4ba83a1461192057806345107cae1461189157806346778635146117fb5780634beb2a1e1461117757806350fba64a146110b55780635738e81814610f6e5780635891139714610f505780635c975abb14610f2b578063616212ba14610f0d5780636bbb194b14610ec85780636e2f87f314610d62578063715018a614610d085780637df8b80214610cc35780638456cb5914610c62578063887d5d3d146108c25780638c4c7e04146107735780638da5cb5b1461074c578063c11e284614610728578063cdf456e1146106e3578063d2cd134a146102c2578063ed19fa84146101fc5763f2fde38b1461013457600080fd5b346101f95760203660031901126101f95761014d611b22565b610155611c25565b6001600160a01b031680156101a55781546001600160a01b03198116821783556001600160a01b03167f8be0079c531659141344cd1fd0a4f28419497f9722a3daafe3b4186f6b6457e08380a380f35b60405162461bcd60e51b815260206004820152602660248201527f4f776e61626c653a206e6577206f776e657220697320746865207a65726f206160448201526564647265737360d01b6064820152608490fd5b80fd5b50346101f957806003193601126101f957610215611c25565b80546040516370a0823160e01b8152306004820152906001600160a01b037f000000000000000000000000000000000000000000000000000000000000000081169116602083602481855afa9182156102b757849261027c575b6102799350611cd3565b80f35b91506020833d6020116102af575b8161029760209383611a58565b810103126102aa5761027992519161026f565b600080fd5b3d915061028a565b6040513d86823e3d90fd5b50346101f95760c03660031901126101f9576102dc611b22565b906102e5611b38565b6044359260643560843567ffffffffffffffff81116106df5761030c903690600401611b4e565b909160a4359660ff88168098036106db57610325611c7d565b61032d611d11565b60405183858237602081858101600681520301902061034c8383611c18565b9582156106cc576001600160a01b03169687156106bd576001600160a01b03169081156106ab575461069c57600554861061068d5787987f000000000000000000000000000000000000000000000000000000000000000060018060a01b038116976103ba8130338c611d58565b6103c2611d9c565b917f00000000000000000000000000000000000000000000000000000000000000006001600160a01b031691823b1561068957604051631e573fb760e31b81526001600160a01b039290921660048301526024820152908b908290604490829084905af190811561067e578b91610665575b5050602061044c61047392610447611d9c565b611bd4565b604051636e553f6560e01b8152600481019190915230602482015291829081906044820190565b03818d7f00000000000000000000000000000000000000000000000000000000000000006001600160a01b03165af190811561065a578a91610615575b508260ff869594936005898d7f160b9883c8416d313cc749bc5858db361276143105365a035258beace5bf3b3e9f8d6105d89861060b9f9e9d604051956104f687611a25565b8d87526020870191825260408701928352606087019485526020608088019433865260a0890197885260c089019c8d5260e089019a8b5282604051938492833760069082019081520301902095518655516001860155516002850155905160038401805492516001600160c81b031990931664ffffffffff929092169190911760289290921b65010000000000600160c81b0316919091179055516004820180546001600160a01b0319166001600160a01b0392831617905594519101805492516001600160a81b03199093169190941617911660a01b60ff60a01b16179055565b604051978897885260208801526040870152606086015287608086015260a085015260e060c085015260e0840191611bf7565b0390a16001805580f35b99505094939291906020893d602011610652575b8161063660209383611a58565b810103126102aa579751899894959394929391929190826104b0565b3d9150610629565b6040513d8c823e3d90fd5b8161066f91611a58565b61067a578938610434565b8980fd5b6040513d8d823e3d90fd5b8c80fd5b6324204a3560e21b8852600488fd5b630a685b0f60e41b8852600488fd5b600162287bad60e01b03198952600489fd5b631781d75760e01b8952600489fd5b631f2a200560e01b8952600489fd5b8680fd5b8480fd5b50346101f957806003193601126101f9576040517f00000000000000000000000000000000000000000000000000000000000000006001600160a01b03168152602090f35b50346101f957806003193601126101f957602060ff60025460a01c16604051908152f35b50346101f957806003193601126101f957546040516001600160a01b039091168152602090f35b50346101f95760a03660031901126101f95760043561ffff8116908181036108be57602435604435606435916084359360ff8516948581036108ba576107b7611c25565b611388871080156108af575b6108a057620697808310610891576301e1338084116108825760018510610873578515610864579160a09593917f7e2c6359e276662df7728b39a0ad6d74d0333c402835ac343a5208bbf5a23d549795936002549083600355846004558560055560ff891b90891b169161ffff60a81b9060a81b169062ffffff891b191617176002556040519485526020850152604084015260608301526080820152a180f35b63f39d15db60e01b8852600488fd5b639c68554f60e01b8852600488fd5b6329efbf6360e21b8852600488fd5b63f57c57d360e01b8852600488fd5b637b4a552360e11b8852600488fd5b5061271087116107c3565b8780fd5b8280fd5b50346101f95760e03660031901126101f9576108dc611b22565b6108e4611b38565b6044359164ffffffffff8316809303610be2576064359260843560a43567ffffffffffffffff81116106db5761091e903690600401611b4e565b91909260c4359660ff8816809803610c5e57610938611c7d565b610940611d11565b60405184868237602081868101600681520301902061095f8483611c18565b968215610c4f576001600160a01b0316978815610c40576001600160a01b0316908115610c2e5754610c1f576005548710610c105764ffffffffff6109a660035442611c18565b1683108015610bf5575b610be6577f0000000000000000000000000000000000000000000000000000000000000000986001600160a01b038a16978b906109ef8130338d611d58565b6109f7611d9c565b9b7f00000000000000000000000000000000000000000000000000000000000000006001600160a01b031691823b15610be257604051631e573fb760e31b81526001600160a01b0392909216600483015260248201529082908290604490829084905af18015610bd757610bbe575b50506020610a79610aa49b610447611d9c565b604051636e553f6560e01b815260048101919091523060248201529a8b908d90829081906044820190565b03917f00000000000000000000000000000000000000000000000000000000000000006001600160a01b03165af1801561067e578b90610b5a575b7f160b9883c8416d313cc749bc5858db361276143105365a035258beace5bf3b3e9a508260ff8695949360058a8e8b9a8e61060b9f9e9d98610b2899604051956104f687611a25565b6040519889988952602089015260408801526060870152608086015260a085015260e060c085015260e0840191611bf7565b5095949392919060208a3d602011610bb6575b81610b7a60209383611a58565b810103126102aa5798517f160b9883c8416d313cc749bc5858db361276143105365a035258beace5bf3b3e999596949593949293919290610adf565b3d9150610b6d565b81610bc891611a58565b610bd3578a38610a66565b8a80fd5b6040513d84823e3d90fd5b8380fd5b6354ad112d60e11b8a5260048afd5b5064ffffffffff610c0860045442611c18565b1683116109b0565b6324204a3560e21b8a5260048afd5b630a685b0f60e41b8a5260048afd5b600162287bad60e01b03198b5260048bfd5b631781d75760e01b8b5260048bfd5b631f2a200560e01b8b5260048bfd5b8880fd5b50346101f957806003193601126101f957610c7b611c25565b610c83611d11565b805460ff60a01b1916600160a01b1781556040513381527f62e78cea01bee320cd4e420270b5ea74000d11b0c9f74754ebdbfc544b05a25890602090a180f35b50346101f957806003193601126101f9576040517f00000000000000000000000000000000000000000000000000000000000000006001600160a01b03168152602090f35b50346101f957806003193601126101f957610d21611c25565b80546001600160a01b03198116825581906001600160a01b03167f8be0079c531659141344cd1fd0a4f28419497f9722a3daafe3b4186f6b6457e08280a380f35b50346101f95760203660031901126101f9577fe87b20abc05306d2c168a182a3fbbea47f82ba3e6fb70ee1cafd86603730916f6020610d9f611b22565b610da7611c25565b600280546001600160a01b0319166001600160a01b0392831690811790915560405163095ea7b360e01b84820190815260248201839052600019604480840191909152825291927f0000000000000000000000000000000000000000000000000000000000000000169186908190610e20606485611a58565b83519082865af1610e2f611f32565b81610e9b575b5080610e91575b15610e4e575b5050604051908152a180f35b610e8a91610e8560405163095ea7b360e01b8782015285602482015288604482015260448152610e7f606482611a58565b82611e46565b611e46565b3880610e42565b50813b1515610e3c565b8051801592508215610eb0575b505038610e35565b610ec1925081018601908601611e2e565b3880610ea8565b50346101f957806003193601126101f9576040517f00000000000000000000000000000000000000000000000000000000000000006001600160a01b03168152602090f35b50346101f957806003193601126101f9576020600354604051908152f35b50346101f957806003193601126101f95760ff6020915460a01c166040519015158152f35b50346101f957806003193601126101f9576020600554604051908152f35b50346101f957610fd0602061010092610f8636611a96565b9060e0604051610f9581611a25565b82815282858201528260408201528260608201528260808201528260a08201528260c082015201528160405193828580945193849201611aff565b8101600681520301902060ff60405191610fe983611a25565b8054928381526001820154916020820192835260028101546040830190815264ffffffffff60038301549160608501908284168252608086019360018060a01b039060281c168452600560018060a01b036004870154169560a088019687520154968860e060c089019860018060a01b038b168a52019860a01c168852604051998a525160208a01525160408901525116606087015260018060a01b03905116608086015260018060a01b0390511660a085015260018060a01b0390511660c0840152511660e0820152f35b50346101f9576110dc60206110c936611a96565b8160405193828580945193849201611aff565b810160068152030190206003810190815460018060a01b038160281c1633036111685764ffffffffff1661115957541561114a5761b478420180421161113657815464ffffffffff191664ffffffffff9190911617905580f35b634e487b7160e01b83526011600452602483fd5b632a313f9360e01b8252600482fd5b63e6ef264960e01b8352600483fd5b631435e35760e01b8452600484fd5b50346101f95760203660031901126101f95760043567ffffffffffffffff811161170d573660238201121561170d5780600401359067ffffffffffffffff82116108be576024810190602436918460051b0101116108be576111d7611c7d565b811580156117ea575b6117db577f0000000000000000000000000000000000000000000000000000000000000000916001600160a01b037f0000000000000000000000000000000000000000000000000000000000000000811691818516917f00000000000000000000000000000000000000000000000000000000000000001690865b81811061126a57876001805580f35b6020611277828489611b7c565b91908260405193849283378101600681520301902080549081156117cc5760038101549064ffffffffff82164281119081156117c3575b506117b45790818960058d96959401549387600160a01b6001900360048501541694600160a01b600190039060281c169780600160a01b6001900388169489600188015497600201549461130192611b7c565b908160405192839283378101600681520360200190208181558160018201558160028201558160038201558160048201556005015560405191635d043b2960e11b8352600483015230602483015230604483015280828c815a93606492602095f180156116eb5761177f575b6040516370a0823160e01b815230600482015291506020826024818f5afa9182156116eb578d908293611747575b506020602491604051928380926370a0823160e01b82523060048301525afa908115610bd7578291611711575b508d3b1561170d578f61140a918f84928360405180968195829463f3fef3a360e01b84526004840160209093929193604081019460018060a01b031681520152565b03925af18015610bd7576116f8575b5060249060208d604051938480926370a0823160e01b82523060048301525afa80156116eb5786928592916116b0575b509061044761145b9461044793611bd4565b61ffff60025460a81c169081810291818304149015171561169c57908a8f9493928e60ff6127108d93049960a01c161515600014611625576002546001600160a01b031692506114ac918a91611b7c565b8291923b156106db578691888f84906114f36040519788968795869463c219a14d60e01b8652600486015260248501528a604485015260c0606485015260c4840191611bf7565b8a60848301528960a483015203925af1801561161a578c958f91928c936115eb575b50507fa5ed23d5ebdea6438acd5b68a3befbb14c431a7a8f221448bfb708ab8a408e9f97969360019a969361157c8b7f3c77ae279df37c7ea5dd3a57f101c57dac95417ce9c24279d6ec87d9399c82d798956115a7955b6115778d8d8b611cd3565b611b7c565b919092604051978897885260208801526040870152606086015260c0608086015260c0850191611bf7565b9060a08301520390a16115e26115be85888d611b7c565b6040519485948c865260208601526040850152608060608501526080840191611bf7565b0390a10161125b565b9093959897949a96506116019250839150611a58565b6116165792939095899296888f8e9038611515565b8d80fd5b6040513d87823e3d90fd5b60019a9650938361157c8b6115a7948b9861168688997fa5ed23d5ebdea6438acd5b68a3befbb14c431a7a8f221448bfb708ab8a408e9f9f9e7f3c77ae279df37c7ea5dd3a57f101c57dac95417ce9c24279d6ec87d9399c82d79d9a611cd3565b871561156c5761169788878b611cd3565b61156c565b634e487b7160e01b8f52601160045260248ffd5b9250505060203d81116116e4575b6116c88183611a58565b602082600092810103126101f957505184908390610447611449565b503d6116be565b50604051903d90823e3d90fd5b611703828092611a58565b6101f95738611419565b5080fd5b91505060203d8111611740575b6117288183611a58565b602082600092810103126101f957508f9051386113c8565b503d61171e565b9250505060203d8111611778575b61175f8183611a58565b602082600092810103126101f95750518e8c602061139b565b503d611755565b5060203d81116117ad575b6117948183611a58565b602082600092810103126101f95750602490508e61136d565b503d61178a565b631db89f5b60e11b8b5260048bfd5b905015386112ae565b632a313f9360e01b8a5260048afd5b634ec4810560e11b8352600483fd5b5060ff60025460a01c1682116111e0565b50346101f95761010061181260206110c936611a96565b8101600681520301902060ff8154916001810154906002810154600382015490600560018060a01b03600485015416930154936040519687526020870152604086015264ffffffffff8116606086015260018060a01b039060281c16608085015260a084015260018060a01b03811660c084015260a01c1660e0820152f35b50346101f957806003193601126101f9576118aa611c25565b805481906001600160a01b037f000000000000000000000000000000000000000000000000000000000000000081169116813b1561191c57829160248392604051958693849263144c5ebf60e31b845260048401525af180156116eb5761190e5780f35b61191791611a58565b388180f35b5050fd5b50346101f957806003193601126101f957611939611c25565b805460ff8160a01c161561197f5760ff60a01b191681556040513381527f5db9ee0a495bf2e6ff9c91a7834c1ba4fdd244a5e8aa4e537bd38aeae4b073aa90602090a180f35b60405162461bcd60e51b815260206004820152601460248201527314185d5cd8589b194e881b9bdd081c185d5cd95960621b6044820152606490fd5b50346101f957806003193601126101f9576020600454604051908152f35b50346101f957806003193601126101f9576002546040516001600160a01b039091168152602090f35b90503461170d578160031936011261170d5760209061ffff60025460a81c168152f35b610100810190811067ffffffffffffffff821117611a4257604052565b634e487b7160e01b600052604160045260246000fd5b90601f8019910116810190811067ffffffffffffffff821117611a4257604052565b67ffffffffffffffff8111611a4257601f01601f191660200190565b60206003198201126102aa5760043567ffffffffffffffff81116102aa57816023820112156102aa57806004013590611ace82611a7a565b92611adc6040519485611a58565b828452602483830101116102aa5781600092602460209301838601378301015290565b60005b838110611b125750506000910152565b8181015183820152602001611b02565b600435906001600160a01b03821682036102aa57565b602435906001600160a01b03821682036102aa57565b9181601f840112156102aa5782359167ffffffffffffffff83116102aa57602083818601950101116102aa57565b9190811015611bbe5760051b81013590601e19813603018212156102aa57019081359167ffffffffffffffff83116102aa5760200182360381136102aa579190565b634e487b7160e01b600052603260045260246000fd5b91908203918211611be157565b634e487b7160e01b600052601160045260246000fd5b908060209392818452848401376000828201840152601f01601f1916010190565b91908201809211611be157565b6000546001600160a01b03163303611c3957565b606460405162461bcd60e51b815260206004820152602060248201527f4f776e61626c653a2063616c6c6572206973206e6f7420746865206f776e65726044820152fd5b600260015414611c8e576002600155565b60405162461bcd60e51b815260206004820152601f60248201527f5265656e7472616e637947756172643a207265656e7472616e742063616c6c006044820152606490fd5b60405163a9059cbb60e01b60208201526001600160a01b03929092166024830152604480830193909352918152611d0f91610e85606483611a58565b565b60ff60005460a01c16611d2057565b60405162461bcd60e51b815260206004820152601060248201526f14185d5cd8589b194e881c185d5cd95960821b6044820152606490fd5b6040516323b872dd60e01b60208201526001600160a01b039283166024820152929091166044830152606480830193909352918152611d0f91610e85608483611a58565b6040516370a0823160e01b81523060048201526020816024817f00000000000000000000000000000000000000000000000000000000000000006001600160a01b03165afa908115611e2257600091611df3575090565b90506020813d602011611e1a575b81611e0e60209383611a58565b810103126102aa575190565b3d9150611e01565b6040513d6000823e3d90fd5b908160209103126102aa575180151581036102aa5790565b604080519092611eab926001600160a01b0316906000908190611e698786611a58565b602085527f5361666545524332303a206c6f772d6c6576656c2063616c6c206661696c6564602086015260208151910182855af1611ea5611f32565b91611f62565b8051908115918215611f18575b505015611ec25750565b5162461bcd60e51b815260206004820152602a60248201527f5361666545524332303a204552433230206f7065726174696f6e20646964206e6044820152691bdd081cdd58d8d9595960b21b6064820152608490fd5b611f2b9250602080918301019101611e2e565b3880611eb8565b3d15611f5d573d90611f4382611a7a565b91611f516040519384611a58565b82523d6000602084013e565b606090565b91929015611fc45750815115611f76575090565b3b15611f7f5790565b60405162461bcd60e51b815260206004820152601d60248201527f416464726573733a2063616c6c20746f206e6f6e2d636f6e74726163740000006044820152606490fd5b825190915015611fd75750805190602001fd5b6044604051809262461bcd60e51b8252602060048301526120078151809281602486015260208686019101611aff565b601f01601f19168101030190fdfea2646970667358221220aa075139b0bc9cfdd192724880938cd46a901235814957559fceecb7a9bae93164736f6c634300081a0033","linkReferences":{}},"methodIdentifiers":{"ERC20FeeProxyAddress()":"24c20740","baseAsset()":"cdf456e1","claimBaseAssetBalance()":"ed19fa84","claimCompRewards()":"45107cae","cometAddress()":"6bbb194b","contractFeeModifier()":"1949b25c","getMapping(bytes)":"5738e818","maxDueDateParameter()":"3d1d15bf","maxPayoutArraySize()":"c11e2846","minDueDateParameter()":"616212ba","minTotalAmountParameter()":"58911397","owner()":"8da5cb5b","pause()":"8456cb59","paused()":"5c975abb","payInvoiceERC20(address,address,uint40,uint256,uint256,bytes,uint8)":"887d5d3d","payInvoiceERC20Escrow(address,address,uint256,uint256,bytes,uint8)":"d2cd134a","payOutERC20Invoice(bytes[])":"4beb2a1e","paymentMapping(bytes)":"46778635","releaseEscrowPayment(bytes)":"50fba64a","renounceOwnership()":"715018a6","setContractParameters(uint16,uint256,uint256,uint256,uint8)":"8c4c7e04","setERC20FeeProxy(address)":"6e2f87f3","transferOwnership(address)":"f2fde38b","unpause()":"3f4ba83a","wrapperAddress()":"7df8b802"},"id":31}