{"abi":[{"type":"constructor","inputs":[{"name":"_cometAddress","type":"address","internalType":"address"},{"name":"_wrapperAddress","type":"address","internalType":"address"},{"name":"_contractFeeModifier","type":"uint16","internalType":"uint16"},{"name":"_minDueDateParameter","type":"uint256","internalType":"uint256"},{"name":"_maxDueDateParameter","type":"uint256","internalType":"uint256"},{"name":"_minTotalAmountParameter","type":"uint256","internalType":"uint256"},{"name":"_maxPayoutArraySize","type":"uint8","internalType":"uint8"}],"stateMutability":"payable"},{"type":"function","name":"ERC20FeeProxyAddress","inputs":[],"outputs":[{"name":"","type":"address","internalType":"address"}],"stateMutability":"view"},{"type":"function","name":"baseAsset","inputs":[],"outputs":[{"name":"","type":"address","internalType":"address"}],"stateMutability":"view"},{"type":"function","name":"claimBaseAssetBalance","inputs":[],"outputs":[],"stateMutability":"payable"},{"type":"function","name":"claimCompRewards","inputs":[],"outputs":[],"stateMutability":"payable"},{"type":"function","name":"cometAddress","inputs":[],"outputs":[{"name":"","type":"address","internalType":"address"}],"stateMutability":"view"},{"type":"function","name":"contractFeeModifier","inputs":[],"outputs":[{"name":"","type":"uint16","internalType":"uint16"}],"stateMutability":"view"},{"type":"function","name":"getMapping","inputs":[{"name":"_paymentReference","type":"bytes","internalType":"bytes"}],"outputs":[{"name":"","type":"tuple","internalType":"struct Paytr.PaymentERC20","components":[{"name":"amount","type":"uint256","internalType":"uint256"},{"name":"feeAmount","type":"uint256","internalType":"uint256"},{"name":"wrapperSharesReceived","type":"uint256","internalType":"uint256"},{"name":"dueDate","type":"uint40","internalType":"uint40"},{"name":"payer","type":"address","internalType":"address"},{"name":"payee","type":"address","internalType":"address"},{"name":"feeAddress","type":"address","internalType":"address"},{"name":"shouldPayoutViaRequestNetwork","type":"uint8","internalType":"uint8"}]}],"stateMutability":"view"},{"type":"function","name":"maxDueDateParameter","inputs":[],"outputs":[{"name":"","type":"uint256","internalType":"uint256"}],"stateMutability":"view"},{"type":"function","name":"maxPayoutArraySize","inputs":[],"outputs":[{"name":"","type":"uint8","internalType":"uint8"}],"stateMutability":"view"},{"type":"function","name":"minDueDateParameter","inputs":[],"outputs":[{"name":"","type":"uint256","internalType":"uint256"}],"stateMutability":"view"},{"type":"function","name":"minTotalAmountParameter","inputs":[],"outputs":[{"name":"","type":"uint256","internalType":"uint256"}],"stateMutability":"view"},{"type":"function","name":"owner","inputs":[],"outputs":[{"name":"","type":"address","internalType":"address"}],"stateMutability":"view"},{"type":"function","name":"pause","inputs":[],"outputs":[],"stateMutability":"payable"},{"type":"function","name":"paused","inputs":[],"outputs":[{"name":"","type":"bool","internalType":"bool"}],"stateMutability":"view"},{"type":"function","name":"payInvoiceERC20","inputs":[{"name":"_payee","type":"address","internalType":"address"},{"name":"_feeAddress","type":"address","internalType":"address"},{"name":"_dueDate","type":"uint40","internalType":"uint40"},{"name":"_amount","type":"uint256","internalType":"uint256"},{"name":"_feeAmount","type":"uint256","internalType":"uint256"},{"name":"_paymentReference","type":"bytes","internalType":"bytes"},{"name":"_shouldPayoutViaRequestNetwork","type":"uint8","internalType":"uint8"}],"outputs":[],"stateMutability":"nonpayable"},{"type":"function","name":"payOutERC20Invoice","inputs":[{"name":"payoutReferencesArray","type":"bytes[]","internalType":"bytes[]"}],"outputs":[],"stateMutability":"nonpayable"},{"type":"function","name":"paymentMapping","inputs":[{"name":"","type":"bytes","internalType":"bytes"}],"outputs":[{"name":"amount","type":"uint256","internalType":"uint256"},{"name":"feeAmount","type":"uint256","internalType":"uint256"},{"name":"wrapperSharesReceived","type":"uint256","internalType":"uint256"},{"name":"dueDate","type":"uint40","internalType":"uint40"},{"name":"payer","type":"address","internalType":"address"},{"name":"payee","type":"address","internalType":"address"},{"name":"feeAddress","type":"address","internalType":"address"},{"name":"shouldPayoutViaRequestNetwork","type":"uint8","internalType":"uint8"}],"stateMutability":"view"},{"type":"function","name":"renounceOwnership","inputs":[],"outputs":[],"stateMutability":"nonpayable"},{"type":"function","name":"setContractParameters","inputs":[{"name":"_contractFeeModifier","type":"uint16","internalType":"uint16"},{"name":"_minDueDateParameter","type":"uint256","internalType":"uint256"},{"name":"_maxDueDateParameter","type":"uint256","internalType":"uint256"},{"name":"_minTotalAmountParameter","type":"uint256","internalType":"uint256"},{"name":"_maxPayoutArraySize","type":"uint8","internalType":"uint8"}],"outputs":[],"stateMutability":"payable"},{"type":"function","name":"setERC20FeeProxy","inputs":[{"name":"_ERC20FeeProxyAddress","type":"address","internalType":"address"}],"outputs":[],"stateMutability":"payable"},{"type":"function","name":"transferOwnership","inputs":[{"name":"newOwner","type":"address","internalType":"address"}],"outputs":[],"stateMutability":"nonpayable"},{"type":"function","name":"unpause","inputs":[],"outputs":[],"stateMutability":"payable"},{"type":"function","name":"wrapperAddress","inputs":[],"outputs":[{"name":"","type":"address","internalType":"address"}],"stateMutability":"view"},{"type":"event","name":"ContractParametersUpdatedEvent","inputs":[{"name":"contractFeeModifier","type":"uint16","indexed":false,"internalType":"uint16"},{"name":"minDueDateParameter","type":"uint256","indexed":false,"internalType":"uint256"},{"name":"maxDueDateParameter","type":"uint256","indexed":false,"internalType":"uint256"},{"name":"minTotalAmount","type":"uint256","indexed":false,"internalType":"uint256"},{"name":"maxPayoutArraySize","type":"uint8","indexed":false,"internalType":"uint8"}],"anonymous":false},{"type":"event","name":"InterestPayoutEvent","inputs":[{"name":"tokenAddress","type":"address","indexed":false,"internalType":"address"},{"name":"payee","type":"address","indexed":false,"internalType":"address"},{"name":"interestAmount","type":"uint256","indexed":false,"internalType":"uint256"},{"name":"paymentReference","type":"bytes","indexed":false,"internalType":"bytes"}],"anonymous":false},{"type":"event","name":"OwnershipTransferred","inputs":[{"name":"previousOwner","type":"address","indexed":true,"internalType":"address"},{"name":"newOwner","type":"address","indexed":true,"internalType":"address"}],"anonymous":false},{"type":"event","name":"Paused","inputs":[{"name":"account","type":"address","indexed":false,"internalType":"address"}],"anonymous":false},{"type":"event","name":"PayOutERC20Event","inputs":[{"name":"tokenAddress","type":"address","indexed":false,"internalType":"address"},{"name":"payee","type":"address","indexed":false,"internalType":"address"},{"name":"feeAddress","type":"address","indexed":false,"internalType":"address"},{"name":"amount","type":"uint256","indexed":false,"internalType":"uint256"},{"name":"paymentReference","type":"bytes","indexed":false,"internalType":"bytes"},{"name":"feeAmount","type":"uint256","indexed":false,"internalType":"uint256"}],"anonymous":false},{"type":"event","name":"PaymentERC20Event","inputs":[{"name":"tokenAddress","type":"address","indexed":false,"internalType":"address"},{"name":"payee","type":"address","indexed":false,"internalType":"address"},{"name":"feeAddress","type":"address","indexed":false,"internalType":"address"},{"name":"amount","type":"uint256","indexed":false,"internalType":"uint256"},{"name":"dueDate","type":"uint40","indexed":false,"internalType":"uint40"},{"name":"feeAmount","type":"uint256","indexed":false,"internalType":"uint256"},{"name":"paymentReference","type":"bytes","indexed":false,"internalType":"bytes"}],"anonymous":false},{"type":"event","name":"Unpaused","inputs":[{"name":"account","type":"address","indexed":false,"internalType":"address"}],"anonymous":false},{"type":"event","name":"setERC20FeeProxyEvent","inputs":[{"name":"ERC20FeeProxyAddress","type":"address","indexed":false,"internalType":"address"}],"anonymous":false},{"type":"error","name":"DueDateNotAllowed","inputs":[]},{"type":"error","name":"DueDateNotZero","inputs":[]},{"type":"error","name":"InvalidArrayLength","inputs":[]},{"type":"error","name":"InvalidContractFeeModifier","inputs":[]},{"type":"error","name":"InvalidFeeAmount","inputs":[]},{"type":"error","name":"InvalidFeeAmountMultiplier","inputs":[]},{"type":"error","name":"InvalidMaxArraySize","inputs":[]},{"type":"error","name":"InvalidMaxDueDate","inputs":[]},{"type":"error","name":"InvalidMinAmount","inputs":[]},{"type":"error","name":"InvalidMinDueDate","inputs":[]},{"type":"error","name":"InvalidNewDueDate","inputs":[]},{"type":"error","name":"InvalidTotalAmount","inputs":[]},{"type":"error","name":"NoPrePayment","inputs":[]},{"type":"error","name":"NotAuthorized","inputs":[]},{"type":"error","name":"PaymentReferenceInUse","inputs":[]},{"type":"error","name":"ReferenceNotDue","inputs":[]},{"type":"error","name":"ZeroFeeAddress","inputs":[]},{"type":"error","name":"ZeroPayeeAddress","inputs":[]}],"bytecode":{"object":"0x60e06040818152600060e083620024dd8038038091620000208285620003e0565b833981010312620003ab57620000368362000404565b926020906200004782820162000404565b90848101519061ffff82168203620003585760608101519060808101519060c060a08201519101519160ff83168303620003a757889987896004819c9a9b5460018060a01b03809c519586948593338482167f8be0079c531659141344cd1fd0a4f28419497f9722a3daafe3b4186f6b6457e08480a36001600160a81b0319163360ff60a01b19161790556001805560c081905263c55dae6360e01b8352165afa9081156200039d578a916200035c575b506080528560a0526002549360035560045560055560ff60a01b9060a01b169161ffff60a81b9060a81b169062ffffff60a01b191617176002558160c0511690813b1562000358578260448692838951958694859363110496e560e01b8552166004840152600160248401525af180156200034e576200031e575b5080608051169060c051169284519280840191808063095ea7b360e01b94858152886024890152600019604489015260448852620001b188620003ae565b87519082885af1620001c26200041e565b81620002e9575b5080620002de575b156200029c575b8651611e86908162000657823960805181818161021f015281816102c2015281816106080152818161067f0152818161089501528181610ba0015281816110450152818161111b015281816111a60152818161126b01528181611348015281816113930152818161140c015281816114f80152611535015260a05181818161070401528181610a9e01528181610ffc015261177f015260c05181818161064101528181610ceb0152818161109b015281816110d6015281816111540152611be60152f35b620002d295620002cc938851938401526024830152604482015260448152620002c581620003ae565b826200047b565b6200047b565b388080808080620001d8565b50833b1515620001d1565b8051801592508490831562000303575b50505038620001c9565b62000315935082018101910162000461565b388381620002f9565b9092906001600160401b0381116200033a578452913862000173565b634e487b7160e01b82526041600452602482fd5b85513d86823e3d90fd5b8480fd5b90508881813d831162000395575b620003768183620003e0565b8101031262000391576200038a9062000404565b38620000f8565b8980fd5b503d6200036a565b8b513d8c823e3d90fd5b8780fd5b80fd5b608081019081106001600160401b03821117620003ca57604052565b634e487b7160e01b600052604160045260246000fd5b601f909101601f19168101906001600160401b03821190821017620003ca57604052565b51906001600160a01b03821682036200041957565b600080fd5b3d156200045c573d906001600160401b038211620003ca576040519162000450601f8201601f191660200184620003e0565b82523d6000602084013e565b606090565b908160209103126200041957518015158103620004195790565b60408051908101916001600160a01b03166001600160401b03831182841017620003ca57620004ef926040526000806020958685527f5361666545524332303a206c6f772d6c6576656c2063616c6c206661696c656487860152868151910182855af1620004e86200041e565b916200057c565b80519082821592831562000561575b505050156200050a5750565b6084906040519062461bcd60e51b82526004820152602a60248201527f5361666545524332303a204552433230206f7065726174696f6e20646964206e6044820152691bdd081cdd58d8d9595960b21b6064820152fd5b62000573935082018101910162000461565b388281620004fe565b91929015620005e1575081511562000592575090565b3b156200059c5790565b60405162461bcd60e51b815260206004820152601d60248201527f416464726573733a2063616c6c20746f206e6f6e2d636f6e74726163740000006044820152606490fd5b825190915015620005f55750805190602001fd5b6040519062461bcd60e51b82528160208060048301528251908160248401526000935b8285106200063c575050604492506000838284010152601f80199101168101030190fd5b84810182015186860160440152938101938593506200061856fe608080604052600436101561001357600080fd5b600090813560e01c9081631949b25c146118bb5750806324c20740146118925780633d1d15bf146118745780633f4ba83a146117de57806345107cae1461175957806346778635146116ba5780634beb2a1e14610ea65780635738e81814610d7b5780635891139714610d5d5780635c975abb14610d38578063616212ba14610d1a5780636bbb194b14610cd55780636e2f87f314610b27578063715018a614610acd5780637df8b80214610a885780638456cb5914610a2c578063887d5d3d1461049c5780638c4c7e041461033c5780638da5cb5b14610315578063c11e2846146102f1578063cdf456e1146102ac578063ed19fa84146101eb5763f2fde38b1461011e57600080fd5b346101e85760203660031901126101e8576101376119d9565b61013f611a98565b6001600160a01b0390811690811561019457600054826bffffffffffffffffffffffff60a01b821617600055167f8be0079c531659141344cd1fd0a4f28419497f9722a3daafe3b4186f6b6457e0600080a380f35b60405162461bcd60e51b815260206004820152602660248201527f4f776e61626c653a206e6577206f776e657220697320746865207a65726f206160448201526564647265737360d01b6064820152608490fd5b80fd5b50806003193601126101e8576101ff611a98565b80546040516370a0823160e01b8152306004820152906001600160a01b037f000000000000000000000000000000000000000000000000000000000000000081169116602083602481855afa9182156102a1578492610266575b6102639350611b46565b80f35b91506020833d602011610299575b816102816020938361190f565b8101031261029457610263925191610259565b600080fd5b3d9150610274565b6040513d86823e3d90fd5b50346101e857806003193601126101e8576040517f00000000000000000000000000000000000000000000000000000000000000006001600160a01b03168152602090f35b50346101e857806003193601126101e857602060ff60025460a01c16604051908152f35b50346101e857806003193601126101e857546040516001600160a01b039091168152602090f35b5060a03660031901126101e85761ffff600435818116918282036104985760243592604435936064356084359260ff8416908185036102945761037d611a98565b611388811090811561048c575b5061047a57620697808310610468576301e13380871161045657600182106104445715610432577f7e2c6359e276662df7728b39a0ad6d74d0333c402835ac343a5208bbf5a23d549560a09560ff946002549085600355836004558460055586891b90891b169161ffff60a81b9060a81b169062ffffff891b191617179283600255604051958460a81c168652602086015260408501526060840152831c166080820152a180f35b60405163f39d15db60e01b8152600490fd5b604051639c68554f60e01b8152600490fd5b6040516329efbf6360e21b8152600490fd5b60405163f57c57d360e01b8152600490fd5b604051637b4a552360e11b8152600490fd5b6127109150113861038a565b8380fd5b50346101e85760e03660031901126101e8576104b66119d9565b6024356001600160a01b0381168103610294576044359164ffffffffff831683036104985760a43567ffffffffffffffff8111610a285736602382011215610a285767ffffffffffffffff816004013511610a2857366024826004013583010111610a285760c43560ff8116810361029457610530611af0565b610538611b84565b60405182600401356024840182376006600484013582019081528190036020019020610568608435606435611a8b565b906001600160a01b03851615610a16576001600160a01b03861615610a0157546109ef5760055481106109dd5764ffffffffff6105a760035442611a8b565b1664ffffffffff87161080156109bb575b6109a9576040516323b872dd60e01b6020820152336024820152306044820152816064820152606481528060a081011067ffffffffffffffff60a0830111176109935760a08101604052610635907f00000000000000000000000000000000000000000000000000000000000000006001600160a01b0316611c75565b8661063e611bcb565b917f00000000000000000000000000000000000000000000000000000000000000006001600160a01b0316803b1561098f57604051631e573fb760e31b81527f00000000000000000000000000000000000000000000000000000000000000006001600160a01b03166004820152602481019290925282908290604490829084905af180156109845761096c575b50506106df906106da611bcb565b611a47565b604051636e553f6560e01b81526004810191909152306024820152906020826044818a7f00000000000000000000000000000000000000000000000000000000000000006001600160a01b03165af191821561096157879261090b575b507f160b9883c8416d313cc749bc5858db361276143105365a035258beace5bf3b3e95610901939260ff64ffffffffff936040519261077a846118f2565b6064358452608435602085015260408085019190915284861660608501523360808501526001600160a01b0389811660a08601528a1660c0850152911660e0830152516005906004860135602487018237602081876004013581016006815203019020825181556020830151600182015560408301516002820155600381018560608501511681549065010000000000600160c81b03608087015160281b169166ffffffffffffff60c81b16171790556004810160018060a01b0360a0850151166bffffffffffffffffffffffff60a01b825416179055019060018060a01b0360c08201511682549160e060ff60a01b91015160a01b16916affffffffffffffffffffff60a81b161717905560405195869560018060a01b037f000000000000000000000000000000000000000000000000000000000000000016875260018060a01b0316602087015260018060a01b03166040860152606435606086015216608084015260843560a084015260e060c084015260e0830190602481600401359101611a6a565b0390a16001805580f35b909291506020813d602011610959575b816109286020938361190f565b81010312610294575190917f160b9883c8416d313cc749bc5858db361276143105365a035258beace5bf3b3e61073c565b3d915061091b565b6040513d89823e3d90fd5b610975906118de565b6109805786386106cc565b8680fd5b6040513d84823e3d90fd5b8280fd5b634e487b7160e01b600052604160045260246000fd5b6040516354ad112d60e11b8152600490fd5b5064ffffffffff6109ce60045442611a8b565b1664ffffffffff8716116105b8565b6040516324204a3560e21b8152600490fd5b604051630a685b0f60e41b8152600490fd5b604051600162287bad60e01b03198152600490fd5b604051631781d75760e01b8152600490fd5b8480fd5b50806003193601126101e857610a40611a98565b610a48611b84565b805460ff60a01b1916600160a01b1781556040513381527f62e78cea01bee320cd4e420270b5ea74000d11b0c9f74754ebdbfc544b05a25890602090a180f35b50346101e857806003193601126101e8576040517f00000000000000000000000000000000000000000000000000000000000000006001600160a01b03168152602090f35b50346101e857806003193601126101e857610ae6611a98565b600080546001600160a01b0319811682556001600160a01b03167f8be0079c531659141344cd1fd0a4f28419497f9722a3daafe3b4186f6b6457e08280a380f35b50602080600319360112610cd157610b3d6119d9565b90610b46611a98565b600280546001600160a01b039384166001600160a01b03198216811790925560405163095ea7b360e01b84820181815292871680871685176024840152600019604480850191909152835267ffffffffffffffff969491937f00000000000000000000000000000000000000000000000000000000000000008616929190608085018581108a821117610993578a91829160405286519082875af1610be9611d6d565b81610ca1575b5080610c97575b15610c2e575b887fc118d94973a304abcd8e14e20e459d7aea61d380847a0070bcdf945a0b4a5341888860025416604051908152a180f35b60405194878601521760248401528660448401526044835260808301958387109087111761099357610c88610c8d937fc118d94973a304abcd8e14e20e459d7aea61d380847a0070bcdf945a0b4a53419760405282611c75565b611c75565b3880808080610bfc565b50823b1515610bf6565b80518015925089908315610cb9575b50505038610bef565b610cc99350820181019101611c5d565b388881610cb0565b5080fd5b50346101e857806003193601126101e8576040517f00000000000000000000000000000000000000000000000000000000000000006001600160a01b03168152602090f35b50346101e857806003193601126101e8576020600354604051908152f35b50346101e857806003193601126101e85760ff6020915460a01c166040519015158152f35b50346101e857806003193601126101e8576020600554604051908152f35b50346101e857610ddd602061010092610d933661194d565b9060e0604051610da2816118f2565b82815282858201528260408201528260608201528260808201528260a08201528260c0820152015281604051938285809451938492016119b6565b8101600681520301902060ff60e060405192610df8846118f2565b805493848152600182015491602082019283526002810154906040830191825260038101549364ffffffffff946060850195808216875260018060a01b0396879586948560808a019560281c1685528b60058760048a0154169860a08c01998a5201549b8a8860c08f9d019c168c52019b60a01c168b526040519c8d525160208d01525160408c0152511660608a015251166080880152511660a0860152511660c0840152511660e0820152f35b50346101e85760203660031901126101e85760043567ffffffffffffffff80821161098f573660238301121561098f57816004013511610cd157366024826004013560051b83010111610cd157610efb611af0565b80600401351580156116a5575b61169357815b81600401358110610f2157826001805580f35b6020610f35828460040135602486016119ef565b91908260405193849283378101600681520301902090815480156116815760038301544264ffffffffff82161161166f5760058401549360018060a01b03600482015416600260018301549201548860056020610f9b898c6024816004013591016119ef565b919082604051938492833781016006815203019020828155826001820155826002820155826003820155826004820155015560405190635d043b2960e11b825260048201523060248201523060448201526020816064818c60018060a01b037f0000000000000000000000000000000000000000000000000000000000000000165af1801561163957611644575b506040516370a0823160e01b81523060048201526020816024817f00000000000000000000000000000000000000000000000000000000000000006001600160a01b03165afa908115611639578991611607575b506040516370a0823160e01b815230600482015289906020816024817f00000000000000000000000000000000000000000000000000000000000000006001600160a01b03165afa9081156109845782916115d2575b507f00000000000000000000000000000000000000000000000000000000000000006001600160a01b03163b15610cd15760405163f3fef3a360e01b81526001600160a01b037f00000000000000000000000000000000000000000000000000000000000000001660048201526024810191909152818180604481010381837f00000000000000000000000000000000000000000000000000000000000000006001600160a01b03165af18015610984576115ba575b50506040516370a0823160e01b81523060048201526020816024817f00000000000000000000000000000000000000000000000000000000000000006001600160a01b03165afa9182156115af57869285928c91611573575b50926106da6106da926111f495611a47565b9361ffff60025460a81c1692858481020484148615171561155f578860a089901c60ff161561148d57506002546001600160a01b03168a61123d8960048d013560248e016119ef565b90833b1561098f576112ac93839283898f6040519889968795869463c219a14d60e01b865260018060a01b037f000000000000000000000000000000000000000000000000000000000000000016600487015260248601528d604486015260c0606486015260c4850191611a6a565b608483018b90526001600160a01b0390911660a483015203925af1918215611480578b92611459575b5050976114509385937f3c77ae279df37c7ea5dd3a57f101c57dac95417ce9c24279d6ec87d9399c82d76127109461137b8c60019e61136d897fa5ed23d5ebdea6438acd5b68a3befbb14c431a7a8f221448bfb708ab8a408e9f9f9e9d8f5b02046001600160a01b0360288f901c8116907f000000000000000000000000000000000000000000000000000000000000000016611b46565b6024816004013591016119ef565b9590916113e060405193849360c09860018060a01b037f0000000000000000000000000000000000000000000000000000000000000000168652602086015260018060a01b0316604085015260609687850152608098888a998a870152850191611a6a565b9060a08301520390a16113fb8a60048e013560248f016119ef565b949095604051998a998e8060a01b037f0000000000000000000000000000000000000000000000000000000000000000168b528e8060a01b039060281c1660208b015202046040880152860152840191611a6a565b0390a101610f0e565b61146a9192509796959394976118de565b61147c57888a389794939596976112d5565b8980fd5b50604051903d90823e3d90fd5b9783837f3c77ae279df37c7ea5dd3a57f101c57dac95417ce9c24279d6ec87d9399c82d76127109461137b8c60019e8f897fa5ed23d5ebdea6438acd5b68a3befbb14c431a7a8f221448bfb708ab8a408e9f9f9e9d8f61151d6114509f9e839f8661136d9760a01b037f000000000000000000000000000000000000000000000000000000000000000016611b46565b87156113345761155a886001600160a01b03808f16907f000000000000000000000000000000000000000000000000000000000000000016611b46565b611334565b634e487b7160e01b8a52601160045260248afd5b93505090506020823d6020116115a7575b816115916020938361190f565b81010312610294579051859184916106da6111e2565b3d9150611584565b6040513d8c823e3d90fd5b6115c3906118de565b6115ce578838611189565b8880fd5b9150506020813d6020116115ff575b816115ee6020938361190f565b8101031261029457899051386110d3565b3d91506115e1565b90506020813d602011611631575b816116226020938361190f565b8101031261029457513861107d565b3d9150611615565b6040513d8b823e3d90fd5b602090813d8311611668575b61165a818361190f565b810103126102945738611029565b503d611650565b604051631db89f5b60e11b8152600490fd5b604051632a313f9360e01b8152600490fd5b604051634ec4810560e11b8152600490fd5b5060ff60025460a01c16816004013511610f08565b50346101e8576101006116e460206116d13661194d565b81604051938285809451938492016119b6565b8101600681520301902060ff81549160018101549060028101549060038101549160018060a01b03928391600583600486015416940154956040519889526020890152604088015264ffffffffff8116606088015260281c16608086015260a0850152811660c084015260a01c1660e0820152f35b50806003193601126101e85761176d611a98565b805481906001600160a01b03908116907f000000000000000000000000000000000000000000000000000000000000000016803b156117da5760248392604051948593849263144c5ebf60e31b845260048401525af18015610984576117d1575080f35b610263906118de565b5050fd5b50806003193601126101e8576117f2611a98565b805460ff8160a01c16156118385760ff60a01b191681556040513381527f5db9ee0a495bf2e6ff9c91a7834c1ba4fdd244a5e8aa4e537bd38aeae4b073aa90602090a180f35b60405162461bcd60e51b815260206004820152601460248201527314185d5cd8589b194e881b9bdd081c185d5cd95960621b6044820152606490fd5b50346101e857806003193601126101e8576020600454604051908152f35b50346101e857806003193601126101e8576002546040516001600160a01b039091168152602090f35b905034610cd15781600319360112610cd15760209061ffff60025460a81c168152f35b67ffffffffffffffff811161099357604052565b610100810190811067ffffffffffffffff82111761099357604052565b90601f8019910116810190811067ffffffffffffffff82111761099357604052565b67ffffffffffffffff811161099357601f01601f191660200190565b60206003198201126102945760043567ffffffffffffffff811161029457816023820112156102945780600401359061198582611931565b92611993604051948561190f565b828452602483830101116102945781600092602460209301838601378301015290565b60005b8381106119c95750506000910152565b81810151838201526020016119b9565b600435906001600160a01b038216820361029457565b9190811015611a315760051b81013590601e198136030182121561029457019081359167ffffffffffffffff8311610294576020018236038113610294579190565b634e487b7160e01b600052603260045260246000fd5b91908203918211611a5457565b634e487b7160e01b600052601160045260246000fd5b908060209392818452848401376000828201840152601f01601f1916010190565b91908201809211611a5457565b6000546001600160a01b03163303611aac57565b606460405162461bcd60e51b815260206004820152602060248201527f4f776e61626c653a2063616c6c6572206973206e6f7420746865206f776e65726044820152fd5b600260015414611b01576002600155565b60405162461bcd60e51b815260206004820152601f60248201527f5265656e7472616e637947756172643a207265656e7472616e742063616c6c006044820152606490fd5b60405163a9059cbb60e01b60208201526001600160a01b03929092166024830152604480830193909352918152611b8291610c8860648361190f565b565b60ff60005460a01c16611b9357565b60405162461bcd60e51b815260206004820152601060248201526f14185d5cd8589b194e881c185d5cd95960821b6044820152606490fd5b6040516370a0823160e01b81523060048201526020816024817f00000000000000000000000000000000000000000000000000000000000000006001600160a01b03165afa908115611c5157600091611c22575090565b90506020813d602011611c49575b81611c3d6020938361190f565b81010312610294575190565b3d9150611c30565b6040513d6000823e3d90fd5b90816020910312610294575180151581036102945790565b60408051908101916001600160a01b031667ffffffffffffffff83118284101761099357611ce5926040526000806020958685527f5361666545524332303a206c6f772d6c6576656c2063616c6c206661696c656487860152868151910182855af1611cdf611d6d565b91611d9d565b805190828215928315611d55575b50505015611cfe5750565b6084906040519062461bcd60e51b82526004820152602a60248201527f5361666545524332303a204552433230206f7065726174696f6e20646964206e6044820152691bdd081cdd58d8d9595960b21b6064820152fd5b611d659350820181019101611c5d565b388281611cf3565b3d15611d98573d90611d7e82611931565b91611d8c604051938461190f565b82523d6000602084013e565b606090565b91929015611dff5750815115611db1575090565b3b15611dba5790565b60405162461bcd60e51b815260206004820152601d60248201527f416464726573733a2063616c6c20746f206e6f6e2d636f6e74726163740000006044820152606490fd5b825190915015611e125750805190602001fd5b6044604051809262461bcd60e51b825260206004830152611e4281518092816024860152602086860191016119b6565b601f01601f19168101030190fdfea264697066735822122025cc94c468da51267291a2e55e1af5f92339f0ec245b37d41df2f7170456426064736f6c63430008180033","linkReferences":{}},"methodIdentifiers":{"ERC20FeeProxyAddress()":"24c20740","baseAsset()":"cdf456e1","claimBaseAssetBalance()":"ed19fa84","claimCompRewards()":"45107cae","cometAddress()":"6bbb194b","contractFeeModifier()":"1949b25c","getMapping(bytes)":"5738e818","maxDueDateParameter()":"3d1d15bf","maxPayoutArraySize()":"c11e2846","minDueDateParameter()":"616212ba","minTotalAmountParameter()":"58911397","owner()":"8da5cb5b","pause()":"8456cb59","paused()":"5c975abb","payInvoiceERC20(address,address,uint40,uint256,uint256,bytes,uint8)":"887d5d3d","payOutERC20Invoice(bytes[])":"4beb2a1e","paymentMapping(bytes)":"46778635","renounceOwnership()":"715018a6","setContractParameters(uint16,uint256,uint256,uint256,uint8)":"8c4c7e04","setERC20FeeProxy(address)":"6e2f87f3","transferOwnership(address)":"f2fde38b","unpause()":"3f4ba83a","wrapperAddress()":"7df8b802"},"id":30}