{"abi":[{"type":"constructor","inputs":[{"name":"_cometAddress","type":"address","internalType":"address"},{"name":"_wrapperAddress","type":"address","internalType":"address"},{"name":"_contractFeeModifier","type":"uint16","internalType":"uint16"},{"name":"_minDueDateParameter","type":"uint256","internalType":"uint256"},{"name":"_maxDueDateParameter","type":"uint256","internalType":"uint256"},{"name":"_minTotalAmountParameter","type":"uint256","internalType":"uint256"},{"name":"_maxPayoutArraySize","type":"uint8","internalType":"uint8"}],"stateMutability":"payable"},{"type":"function","name":"ERC20FeeProxyAddress","inputs":[],"outputs":[{"name":"","type":"address","internalType":"address"}],"stateMutability":"view"},{"type":"function","name":"baseAsset","inputs":[],"outputs":[{"name":"","type":"address","internalType":"address"}],"stateMutability":"view"},{"type":"function","name":"claimBaseAssetBalance","inputs":[],"outputs":[],"stateMutability":"nonpayable"},{"type":"function","name":"claimCompRewards","inputs":[],"outputs":[],"stateMutability":"nonpayable"},{"type":"function","name":"cometAddress","inputs":[],"outputs":[{"name":"","type":"address","internalType":"address"}],"stateMutability":"view"},{"type":"function","name":"contractFeeModifier","inputs":[],"outputs":[{"name":"","type":"uint16","internalType":"uint16"}],"stateMutability":"view"},{"type":"function","name":"getMapping","inputs":[{"name":"_paymentReference","type":"bytes","internalType":"bytes"}],"outputs":[{"name":"","type":"tuple","internalType":"struct Paytr.PaymentERC20","components":[{"name":"amount","type":"uint256","internalType":"uint256"},{"name":"feeAmount","type":"uint256","internalType":"uint256"},{"name":"wrapperSharesReceived","type":"uint256","internalType":"uint256"},{"name":"dueDate","type":"uint40","internalType":"uint40"},{"name":"payer","type":"address","internalType":"address"},{"name":"payee","type":"address","internalType":"address"},{"name":"feeAddress","type":"address","internalType":"address"},{"name":"shouldPayoutViaRequestNetwork","type":"bool","internalType":"bool"}]}],"stateMutability":"view"},{"type":"function","name":"maxDueDateParameter","inputs":[],"outputs":[{"name":"","type":"uint256","internalType":"uint256"}],"stateMutability":"view"},{"type":"function","name":"maxPayoutArraySize","inputs":[],"outputs":[{"name":"","type":"uint8","internalType":"uint8"}],"stateMutability":"view"},{"type":"function","name":"minDueDateParameter","inputs":[],"outputs":[{"name":"","type":"uint256","internalType":"uint256"}],"stateMutability":"view"},{"type":"function","name":"minTotalAmountParameter","inputs":[],"outputs":[{"name":"","type":"uint256","internalType":"uint256"}],"stateMutability":"view"},{"type":"function","name":"owner","inputs":[],"outputs":[{"name":"","type":"address","internalType":"address"}],"stateMutability":"view"},{"type":"function","name":"pause","inputs":[],"outputs":[],"stateMutability":"nonpayable"},{"type":"function","name":"paused","inputs":[],"outputs":[{"name":"","type":"bool","internalType":"bool"}],"stateMutability":"view"},{"type":"function","name":"payInvoiceERC20","inputs":[{"name":"_payee","type":"address","internalType":"address"},{"name":"_feeAddress","type":"address","internalType":"address"},{"name":"_dueDate","type":"uint40","internalType":"uint40"},{"name":"_amount","type":"uint256","internalType":"uint256"},{"name":"_feeAmount","type":"uint256","internalType":"uint256"},{"name":"_paymentReference","type":"bytes","internalType":"bytes"},{"name":"_shouldPayoutViaRequestNetwork","type":"bool","internalType":"bool"}],"outputs":[],"stateMutability":"nonpayable"},{"type":"function","name":"payOutERC20Invoice","inputs":[{"name":"payoutReferencesArray","type":"bytes[]","internalType":"bytes[]"}],"outputs":[],"stateMutability":"nonpayable"},{"type":"function","name":"paymentMapping","inputs":[{"name":"","type":"bytes","internalType":"bytes"}],"outputs":[{"name":"amount","type":"uint256","internalType":"uint256"},{"name":"feeAmount","type":"uint256","internalType":"uint256"},{"name":"wrapperSharesReceived","type":"uint256","internalType":"uint256"},{"name":"dueDate","type":"uint40","internalType":"uint40"},{"name":"payer","type":"address","internalType":"address"},{"name":"payee","type":"address","internalType":"address"},{"name":"feeAddress","type":"address","internalType":"address"},{"name":"shouldPayoutViaRequestNetwork","type":"bool","internalType":"bool"}],"stateMutability":"view"},{"type":"function","name":"renounceOwnership","inputs":[],"outputs":[],"stateMutability":"nonpayable"},{"type":"function","name":"setContractParameters","inputs":[{"name":"_contractFeeModifier","type":"uint16","internalType":"uint16"},{"name":"_minDueDateParameter","type":"uint256","internalType":"uint256"},{"name":"_maxDueDateParameter","type":"uint256","internalType":"uint256"},{"name":"_minTotalAmountParameter","type":"uint256","internalType":"uint256"},{"name":"_maxPayoutArraySize","type":"uint8","internalType":"uint8"}],"outputs":[],"stateMutability":"nonpayable"},{"type":"function","name":"setERC20FeeProxy","inputs":[{"name":"_ERC20FeeProxyAddress","type":"address","internalType":"address"}],"outputs":[],"stateMutability":"nonpayable"},{"type":"function","name":"transferOwnership","inputs":[{"name":"newOwner","type":"address","internalType":"address"}],"outputs":[],"stateMutability":"nonpayable"},{"type":"function","name":"unpause","inputs":[],"outputs":[],"stateMutability":"nonpayable"},{"type":"function","name":"wrapperAddress","inputs":[],"outputs":[{"name":"","type":"address","internalType":"address"}],"stateMutability":"view"},{"type":"event","name":"ContractParametersUpdatedEvent","inputs":[{"name":"contractFeeModifier","type":"uint16","indexed":false,"internalType":"uint16"},{"name":"minDueDateParameter","type":"uint256","indexed":false,"internalType":"uint256"},{"name":"maxDueDateParameter","type":"uint256","indexed":false,"internalType":"uint256"},{"name":"minTotalAmount","type":"uint256","indexed":false,"internalType":"uint256"},{"name":"maxPayoutArraySize","type":"uint8","indexed":false,"internalType":"uint8"}],"anonymous":false},{"type":"event","name":"InterestPayoutEvent","inputs":[{"name":"tokenAddress","type":"address","indexed":false,"internalType":"address"},{"name":"payee","type":"address","indexed":false,"internalType":"address"},{"name":"interestAmount","type":"uint256","indexed":false,"internalType":"uint256"},{"name":"paymentReference","type":"bytes","indexed":false,"internalType":"bytes"}],"anonymous":false},{"type":"event","name":"OwnershipTransferred","inputs":[{"name":"previousOwner","type":"address","indexed":true,"internalType":"address"},{"name":"newOwner","type":"address","indexed":true,"internalType":"address"}],"anonymous":false},{"type":"event","name":"Paused","inputs":[{"name":"account","type":"address","indexed":false,"internalType":"address"}],"anonymous":false},{"type":"event","name":"PayOutERC20Event","inputs":[{"name":"tokenAddress","type":"address","indexed":false,"internalType":"address"},{"name":"payee","type":"address","indexed":false,"internalType":"address"},{"name":"feeAddress","type":"address","indexed":false,"internalType":"address"},{"name":"amount","type":"uint256","indexed":false,"internalType":"uint256"},{"name":"paymentReference","type":"bytes","indexed":false,"internalType":"bytes"},{"name":"feeAmount","type":"uint256","indexed":false,"internalType":"uint256"}],"anonymous":false},{"type":"event","name":"PaymentERC20Event","inputs":[{"name":"tokenAddress","type":"address","indexed":false,"internalType":"address"},{"name":"payee","type":"address","indexed":false,"internalType":"address"},{"name":"feeAddress","type":"address","indexed":false,"internalType":"address"},{"name":"amount","type":"uint256","indexed":false,"internalType":"uint256"},{"name":"dueDate","type":"uint40","indexed":false,"internalType":"uint40"},{"name":"feeAmount","type":"uint256","indexed":false,"internalType":"uint256"},{"name":"paymentReference","type":"bytes","indexed":false,"internalType":"bytes"}],"anonymous":false},{"type":"event","name":"SetERC20FeeProxyEvent","inputs":[{"name":"ERC20FeeProxyAddress","type":"address","indexed":false,"internalType":"address"}],"anonymous":false},{"type":"event","name":"Unpaused","inputs":[{"name":"account","type":"address","indexed":false,"internalType":"address"}],"anonymous":false},{"type":"error","name":"DueDateNotAllowed","inputs":[]},{"type":"error","name":"InvalidArrayLength","inputs":[]},{"type":"error","name":"InvalidContractFeeModifier","inputs":[]},{"type":"error","name":"InvalidMaxArraySize","inputs":[]},{"type":"error","name":"InvalidMaxDueDate","inputs":[]},{"type":"error","name":"InvalidMinAmount","inputs":[]},{"type":"error","name":"InvalidMinDueDate","inputs":[]},{"type":"error","name":"InvalidTotalAmount","inputs":[]},{"type":"error","name":"NoPrePayment","inputs":[]},{"type":"error","name":"PaymentReferenceInUse","inputs":[]},{"type":"error","name":"ReferenceNotDue","inputs":[]},{"type":"error","name":"ZeroAmount","inputs":[]},{"type":"error","name":"ZeroFeeAddress","inputs":[]},{"type":"error","name":"ZeroPayeeAddress","inputs":[]}],"bytecode":{"object":"0x60e060405261001b61000f610283565b9594909493919361039a565b6100236100f4565b613df2610b4b8239608051818181610f400152818161194e01528181611a7301528181611ae101528181611bdf01528181611c6801528181611c9901528181611cff01528181611db801528181611e0b0152818161224901528181612b2e01528181612b7401528181612bfa01528181612d8b01528181612f670152612f9d015260a051818181610b99015281816110e1015281816118ba0152612c77015260c051818181610a97015281816119ca01528181611a4101528181612b9a01528181612bc801526136ee0152613df290f35b60405190565b601f801991011690565b634e487b7160e01b600052604160045260246000fd5b90610124906100fa565b810190811060018060401b0382111761013c57604052565b610104565b9061015461014d6100f4565b928361011a565b565b600080fd5b60018060a01b031690565b61016f9061015b565b90565b61017b81610166565b0361018257565b600080fd5b9050519061019482610172565b565b61ffff1690565b6101a681610196565b036101ad57565b600080fd5b905051906101bf8261019d565b565b90565b6101cd816101c1565b036101d457565b600080fd5b905051906101e6826101c4565b565b60ff1690565b6101f7816101e8565b036101fe57565b600080fd5b90505190610210826101ee565b565b60e08183031261027e576102298260008301610187565b926102378360208401610187565b9261024581604085016101b2565b9261025382606083016101d9565b9261027b61026484608085016101d9565b936102728160a086016101d9565b9360c001610203565b90565b610156565b6102a161493d8038038061029681610141565b928339810190610212565b90919293949596565b6102b49051610166565b90565b90565b6102ce6102c96102d39261015b565b6102b7565b61015b565b90565b6102df906102ba565b90565b6102eb906102d6565b90565b6102f7906102ba565b90565b610303906102ee565b90565b600080fd5b60e01b90565b9060208282031261032b5761032891600001610187565b90565b610156565b60000190565b61033e6100f4565b3d6000823e3d90fd5b600091031261035257565b610156565b61036090610166565b9052565b151590565b61037290610364565b9052565b91602061039892949361039160408201966000830190610357565b0190610369565b565b94909591936103b5946103ab610577565b939091929361097e565b60c0526103ed60206103d76103d26103cd60c06102aa565b6102e2565b6102fa565b63c55dae63906103e56100f4565b93849261030b565b825281806103fd60048201610330565b03915afa9081156104ea576000916104bc575b5060805260a05261043161042c61042760c06102aa565b6102e2565b6102fa565b63110496e561044060a06102aa565b600192803b156104b7576104686000809461047361045c6100f4565b9788968795869461030b565b845260048401610376565b03925af180156104b257610485575b50565b6104a59060003d81116104ab575b61049d818361011a565b810190610347565b38610482565b503d610493565b610336565b610306565b6104dd915060203d81116104e3575b6104d5818361011a565b810190610311565b38610410565b503d6104cb565b610336565b90565b61050661050161050b926104ef565b6102b7565b6101c1565b90565b61051860016104f2565b90565b60001b90565b9061052e6000199161051b565b9181191691161790565b61054c610547610551926101c1565b6102b7565b6101c1565b90565b90565b9061056c61056761057392610538565b610554565b8254610521565b9055565b61057f6105e1565b61059161058a61050e565b6001610557565b565b60a01b90565b906105a860ff60a01b91610593565b9181191691161790565b6105bb90610364565b90565b90565b906105d66105d16105dd926105b2565b6105be565b8254610599565b9055565b6105e96105f6565b6105f46000806105c1565b565b610606610601610992565b610a1b565b565b9061061d94939291610618610b08565b6107cd565b565b90565b61063661063161063b9261061f565b6102b7565b610196565b90565b90565b61065561065061065a9261063e565b6102b7565b610196565b90565b90565b61067461066f6106799261065d565b6102b7565b6101c1565b90565b90565b61069361068e6106989261067c565b6102b7565b6101c1565b90565b90565b6106b26106ad6106b79261069b565b6102b7565b6101e8565b90565b60a81b90565b906106d061ffff60a81b916106ba565b9181191691161790565b6106ee6106e96106f392610196565b6102b7565b610196565b90565b90565b9061070e610709610715926106da565b6106f6565b82546106c0565b9055565b61072d610728610732926101e8565b6102b7565b6101e8565b90565b90565b9061074d61074861075492610719565b610735565b8254610599565b9055565b61076190610196565b9052565b61076e906101c1565b9052565b61077b906101e8565b9052565b909594926107cb946107ba6107c4926107b06080966107a660a088019c6000890190610758565b6020870190610765565b6040850190610765565b6060830190610765565b0190610772565b565b90919293816107e66107e0611388610622565b91610196565b108015610962575b61094557826108086108026202a300610660565b916101c1565b10610928578361082461081e6301e1338061067f565b916101c1565b1161090b578461083d61083760016104f2565b916101c1565b106108ee5780610856610850600061069e565b916101e8565b146108d1578161086a6108cc9360026106f9565b610875846003610557565b610880856004610557565b61088b866005610557565b610896826002610738565b9293947f7e2c6359e276662df7728b39a0ad6d74d0333c402835ac343a5208bbf5a23d54956108c36100f4565b9586958661077f565b0390a1565b600063f39d15db60e01b8152806108ea60048201610330565b0390fd5b6000639c68554f60e01b81528061090760048201610330565b0390fd5b60006329efbf6360e21b81528061092460048201610330565b0390fd5b600063f57c57d360e01b81528061094160048201610330565b0390fd5b6000637b4a552360e11b81528061095e60048201610330565b0390fd5b5081610978610972612710610641565b91610196565b116107ee565b9061098b94939291610608565b565b600090565b61099a61098d565b503390565b60001c90565b60018060a01b031690565b6109bc6109c19161099f565b6109a5565b90565b6109ce90546109b0565b90565b906109e260018060a01b039161051b565b9181191691161790565b6109f5906102ee565b90565b90565b90610a10610a0b610a17926109ec565b6109f8565b82546109d1565b9055565b610a2560006109c4565b610a308260006109fb565b90610a64610a5e7f8be0079c531659141344cd1fd0a4f28419497f9722a3daafe3b4186f6b6457e0936109ec565b916109ec565b91610a6d6100f4565b80610a7781610330565b0390a3565b60209181520190565b60007f4f776e61626c653a2063616c6c6572206973206e6f7420746865206f776e6572910152565b610ab960208092610a7c565b610ac281610a85565b0190565b610adc9060208101906000818303910152610aad565b90565b15610ae657565b610aee6100f4565b62461bcd60e51b815280610b0460048201610ac6565b0390fd5b610b32610b13610b34565b610b2c610b26610b21610992565b610166565b91610166565b14610adf565b565b610b3c61098d565b50610b4760006109c4565b9056fe60806040526004361015610013575b610ffd565b61001e60003561018d565b80631949b25c1461018857806324c20740146101835780633d1d15bf1461017e5780633f4ba83a1461017957806345107cae14610174578063467786351461016f5780634beb2a1e1461016a5780635738e8181461016557806358911397146101605780635c975abb1461015b578063616212ba146101565780636bbb194b146101515780636e2f87f31461014c578063715018a6146101475780637df8b802146101425780638456cb591461013d5780638c4c7e04146101385780638da5cb5b14610133578063c11e28461461012e578063c825a74114610129578063cdf456e114610124578063ed19fa841461011f5763f2fde38b0361000e57610fca565b610f97565b610f62565b610f01565b610db7565b610d23565b610cec565b610bf0565b610bbb565b610b64565b610b31565b610ab9565b610a60565b610a1b565b6109d0565b61098b565b61087a565b6107bb565b6103d0565b61039d565b610362565b6102ce565b61021e565b60e01c90565b60405190565b600080fd5b600080fd5b60009103126101ae57565b61019e565b1c90565b61ffff1690565b6101ce9060086101d393026101b3565b6101b7565b90565b906101e191546101be565b90565b6101f160026015906101d6565b90565b61ffff1690565b610204906101f4565b9052565b919061021c906000602085019401906101fb565b565b3461024e5761022e3660046101a3565b61024a6102396101e4565b610241610193565b91829182610208565b0390f35b610199565b60018060a01b031690565b61026e90600861027393026101b3565b610253565b90565b90610281915461025e565b90565b6102916002600090610276565b90565b60018060a01b031690565b6102a890610294565b90565b6102b49061029f565b9052565b91906102cc906000602085019401906102ab565b565b346102fe576102de3660046101a3565b6102fa6102e9610284565b6102f1610193565b918291826102b8565b0390f35b610199565b90565b61031690600861031b93026101b3565b610303565b90565b906103299154610306565b90565b610339600460009061031e565b90565b90565b6103489061033c565b9052565b91906103609060006020850194019061033f565b565b34610392576103723660046101a3565b61038e61037d61032c565b610385610193565b9182918261034c565b0390f35b610199565b60000190565b346103cb576103ad3660046101a3565b6103b561101e565b6103bd610193565b806103c781610397565b0390f35b610199565b346103fe576103e03660046101a3565b6103e8611193565b6103f0610193565b806103fa81610397565b0390f35b610199565b600080fd5b600080fd5b600080fd5b601f801991011690565b634e487b7160e01b600052604160045260246000fd5b9061043c90610412565b810190811067ffffffffffffffff82111761045657604052565b61041c565b9061046e610467610193565b9283610432565b565b67ffffffffffffffff811161048e5761048a602091610412565b0190565b61041c565b90826000939282370152565b909291926104b46104af82610470565b61045b565b938185526020850190828401116104d0576104ce92610493565b565b61040d565b9080601f830112156104f3578160206104f09335910161049f565b90565b610408565b9060208282031261052957600082013567ffffffffffffffff81116105245761052192016104d5565b90565b610403565b61019e565b5190565b905090565b60005b83811061054b575050906000910152565b80602091830151818501520161053a565b6105816105789260209261056f8161052e565b94858093610532565b93849101610537565b0190565b90565b6105946105999161033c565b610585565b9052565b6105ad6105b4916020949361055c565b8092610588565b0190565b6105cc6105c3610193565b9283928361059d565b03902090565b6105db916105b8565b90565b60001c90565b6105f06105f5916105de565b610303565b90565b61060290546105e4565b90565b64ffffffffff1690565b61061b610620916105de565b610605565b90565b61062d905461060f565b90565b60281c90565b61064261064791610630565b610253565b90565b6106549054610636565b90565b610663610668916105de565b610253565b90565b6106759054610657565b90565b60a01c90565b60ff1690565b61069061069591610678565b61067e565b90565b6106a29054610684565b90565b6106b09060066105d2565b906106bd600083016105f8565b916106ca600182016105f8565b916106d7600283016105f8565b916106e460038201610623565b916106f16003830161064a565b916106fe6004820161066b565b91610716600561070f81850161066b565b9301610698565b90565b64ffffffffff1690565b61072c90610719565b9052565b151590565b61073e90610730565b9052565b959391989796949290986101008701996000880161075f9161033f565b6020870161076c9161033f565b604086016107799161033f565b6060850161078691610723565b60808401610793916102ab565b60a083016107a0916102ab565b60c082016107ad916102ab565b60e0016107b991610735565b565b346107f5576107f16107d66107d13660046104f8565b6106a5565b946107e8989698949194939293610193565b98899889610742565b0390f35b610199565b600080fd5b600080fd5b909182601f8301121561083e5781359167ffffffffffffffff831161083957602001926020830284011161083457565b6107ff565b6107fa565b610408565b9060208282031261087557600082013567ffffffffffffffff81116108705761086c9201610804565b9091565b610403565b61019e565b346108a95761089361088d366004610843565b90611fe4565b61089b610193565b806108a581610397565b0390f35b610199565b6108b79061033c565b9052565b6108c490610719565b9052565b6108d19061029f565b9052565b6108de90610730565b9052565b9060e080610972936108fc600082015160008601906108ae565b61090e602082015160208601906108ae565b610920604082015160408601906108ae565b610932606082015160608601906108bb565b610944608082015160808601906108c8565b61095660a082015160a08601906108c8565b61096860c082015160c08601906108c8565b01519101906108d5565b565b919061098990600061010085019401906108e2565b565b346109bb576109b76109a66109a13660046104f8565b612199565b6109ae610193565b91829182610974565b0390f35b610199565b6109cd600560009061031e565b90565b34610a00576109e03660046101a3565b6109fc6109eb6109c0565b6109f3610193565b9182918261034c565b0390f35b610199565b9190610a1990600060208501940190610735565b565b34610a4b57610a2b3660046101a3565b610a47610a366121bd565b610a3e610193565b91829182610a05565b0390f35b610199565b610a5d600360009061031e565b90565b34610a9057610a703660046101a3565b610a8c610a7b610a50565b610a83610193565b9182918261034c565b0390f35b610199565b7f000000000000000000000000000000000000000000000000000000000000000090565b34610ae957610ac93660046101a3565b610ae5610ad4610a95565b610adc610193565b918291826102b8565b0390f35b610199565b610af78161029f565b03610afe57565b600080fd5b90503590610b1082610aee565b565b90602082820312610b2c57610b2991600001610b03565b90565b61019e565b34610b5f57610b49610b44366004610b12565b6122bb565b610b51610193565b80610b5b81610397565b0390f35b610199565b34610b9257610b743660046101a3565b610b7c612314565b610b84610193565b80610b8e81610397565b0390f35b610199565b7f000000000000000000000000000000000000000000000000000000000000000090565b34610beb57610bcb3660046101a3565b610be7610bd6610b97565b610bde610193565b918291826102b8565b0390f35b610199565b34610c1e57610c003660046101a3565b610c0861233a565b610c10610193565b80610c1a81610397565b0390f35b610199565b610c2c816101f4565b03610c3357565b600080fd5b90503590610c4582610c23565b565b610c508161033c565b03610c5757565b600080fd5b90503590610c6982610c47565b565b60ff1690565b610c7a81610c6b565b03610c8157565b600080fd5b90503590610c9382610c71565b565b919060a083820312610ce757610cae8160008501610c38565b92610cbc8260208301610c5c565b92610ce4610ccd8460408501610c5c565b93610cdb8160608601610c5c565b93608001610c86565b90565b61019e565b34610d1e57610d08610cff366004610c95565b93929092612702565b610d10610193565b80610d1a81610397565b0390f35b610199565b34610d5357610d333660046101a3565b610d4f610d3e612716565b610d46610193565b918291826102b8565b0390f35b610199565b60ff1690565b610d6e906008610d7393026101b3565b610d58565b90565b90610d819154610d5e565b90565b610d916002601490610d76565b90565b610d9d90610c6b565b9052565b9190610db590600060208501940190610d94565b565b34610de757610dc73660046101a3565b610de3610dd2610d84565b610dda610193565b91829182610da1565b0390f35b610199565b610df581610719565b03610dfc57565b600080fd5b90503590610e0e82610dec565b565b909182601f83011215610e4a5781359167ffffffffffffffff8311610e45576020019260018302840111610e4057565b6107ff565b6107fa565b610408565b610e5881610730565b03610e5f57565b600080fd5b90503590610e7182610e4f565b565b91909160e081840312610efc57610e8d8360008301610b03565b92610e9b8160208401610b03565b92610ea98260408501610e01565b92610eb78360608301610c5c565b92610ec58160808401610c5c565b9260a083013567ffffffffffffffff8111610ef757610ee983610ef4928601610e10565b93909460c001610e64565b90565b610403565b61019e565b34610f3957610f23610f14366004610e73565b96959095949194939293612f3b565b610f2b610193565b80610f3581610397565b0390f35b610199565b7f000000000000000000000000000000000000000000000000000000000000000090565b34610f9257610f723660046101a3565b610f8e610f7d610f3e565b610f85610193565b918291826102b8565b0390f35b610199565b34610fc557610fa73660046101a3565b610faf61304c565b610fb7610193565b80610fc181610397565b0390f35b610199565b34610ff857610fe2610fdd366004610b12565b61314d565b610fea610193565b80610ff481610397565b0390f35b610199565b600080fd5b61100a6131db565b611012611014565b565b61101c613267565b565b611026611002565b565b6110306131db565b6110386110d9565b565b90565b61105161104c61105692610294565b61103a565b610294565b90565b6110629061103d565b90565b61106e90611059565b90565b61107a9061103d565b90565b61108690611071565b90565b600080fd5b60e01b90565b600091031261109f57565b61019e565b9160206110c69294936110bf604082019660008301906102ab565b0190610735565b565b6110d0610193565b3d6000823e3d90fd5b61110a6111057f0000000000000000000000000000000000000000000000000000000000000000611065565b61107d565b634855111e611117612716565b600192803b1561118e5761113f6000809461114a611133610193565b9788968795869461108e565b8452600484016110a4565b03925af180156111895761115c575b50565b61117c9060003d8111611182575b6111748183610432565b810190611094565b38611159565b503d61116a565b6110c8565b611089565b61119b611028565b565b906111af916111aa613321565b611777565b6111b761336f565b565b5090565b90565b6111d46111cf6111d9926111bd565b61103a565b61033c565b90565b6111e86111ed91610678565b610d58565b90565b6111fa90546111dc565b90565b61121161120c61121692610c6b565b61103a565b61033c565b90565b600090565b600161122a910161033c565b90565b634e487b7160e01b600052603260045260246000fd5b600080fd5b600080fd5b600080fd5b903590600160200381360303821215611294570180359067ffffffffffffffff821161128f5760200191600182023603831361128a57565b61124d565b611248565b611243565b908210156112b45760206112b09202810190611252565b9091565b61122d565b9091826112c9816112d093610532565b8093610493565b0190565b6112e590602094936112ec936112b9565b8092610588565b0190565b9091611307906112fe610193565b938493846112d4565b03902090565b9091611318926112f0565b90565b90565b61133261132d61133792610719565b61103a565b61033c565b90565b61134e611349611353926111bd565b61103a565b610719565b90565b1b90565b9190600861137691029161137060001984611356565b92611356565b9181191691161790565b61139461138f6113999261033c565b61103a565b61033c565b90565b90565b91906113b56113b06113bd93611380565b61139c565b90835461135a565b9055565b6113d3916113cd611219565b9161139f565b565b60056000916113e6838083016113c1565b6113f383600183016113c1565b61140083600283016113c1565b8260038201558260048201550155565b634e487b7160e01b600052600060045260246000fd5b9060000361143957611437906113d5565b565b611410565b61144790611071565b90565b9050519061145782610c47565b565b90602082820312611473576114709160000161144a565b90565b61019e565b6040906114a26114a994969593966114986060840198600085019061033f565b60208301906102ab565b01906102ab565b565b6114b49061103d565b90565b6114c0906114ab565b90565b6114cc90611071565b90565b6114d89061103d565b90565b6114e4906114cf565b90565b6114f090611071565b90565b91602061151592949361150e604082019660008301906102ab565b019061033f565b565b634e487b7160e01b600052601160045260246000fd5b61153c6115429193929361033c565b9261033c565b820391821161154d57565b611517565b60a81c90565b61156461156991611552565b6101b7565b90565b6115769054611558565b90565b61158d611588611592926101f4565b61103a565b61033c565b90565b6115a46115aa9193929361033c565b9261033c565b916115b683820261033c565b9281840414901517156115c557565b611517565b90565b6115e16115dc6115e6926115ca565b61103a565b61033c565b90565b634e487b7160e01b600052601260045260246000fd5b61160b6116119161033c565b9161033c565b90811561161c570490565b6115e9565b61162a9061103d565b90565b61163690611621565b90565b61164290611071565b90565b60209181520190565b9190611668816116618161166d95611645565b8095610493565b610412565b0190565b92906116d09698979560a0956116b16116be946116a76116c99761169d60c08b019760008c01906102ab565b60208a01906102ab565b604088019061033f565b858303606087015261164e565b96608083019061033f565b01906102ab565b565b97969461171b60a095611711611728966117076117309b969760208f61170060c082019b60008301906102ab565b01906102ab565b60408d01906102ab565b60608b019061033f565b88830360808a015261164e565b94019061033f565b565b909391611774959361175d61176792611753608086019860008701906102ab565b60208501906102ab565b604083019061033f565b606081850391015261164e565b90565b9190916117858184906111b9565b918261179a61179460006111c0565b9161033c565b148015611fc1575b611fa4576117ae611219565b5b806117c26117bc8661033c565b9161033c565b1015611f9d576117e76117e260066117dc86898691611299565b9161130d565b61131b565b906117f4600083016105f8565b61180761180160006111c0565b9161033c565b14611f805761181860038301610623565b61182a6118244261033c565b9161131e565b118015611f5a575b611f3d578160050161184390610698565b826004016118509061066b565b908360030161185e9061064a565b918460050161186c9061066b565b85600001611879906105f8565b9186600101611887906105f8565b96600201611894906105f8565b60068a8d89906118a392611299565b906118ad9261130d565b60006118b891611426565b7f00000000000000000000000000000000000000000000000000000000000000006118e290611065565b6118eb9061107d565b63ba087652306118fa9061143e565b90306119059061143e565b9361190e610193565b94859361191b859461108e565b8452600484019261192b93611478565b03815a602094600091f18015611f3857611f0c575b506119a960206119776119727f00000000000000000000000000000000000000000000000000000000000000006114b7565b6114c3565b6370a082319061199e6119893061143e565b92611992610193565b9586948593849361108e565b8352600483016102b8565b03915afa908115611f0757600091611ed9575b50611a2560206119f36119ee7f00000000000000000000000000000000000000000000000000000000000000006114b7565b6114c3565b6370a0823190611a1a611a053061143e565b92611a0e610193565b9586948593849361108e565b8352600483016102b8565b03915afa908115611ed457600091611ea6575b50611a6a611a657f00000000000000000000000000000000000000000000000000000000000000006114db565b6114e7565b9063f3fef3a3907f00000000000000000000000000000000000000000000000000000000000000009092803b15611ea157611ab960008094611ac4611aad610193565b9788968795869461108e565b8452600484016114f3565b03925af18015611e9c57611e6f575b50611b3c6020611b0a611b057f00000000000000000000000000000000000000000000000000000000000000006114b7565b6114c3565b6370a0823190611b31611b1c3061143e565b92611b25610193565b9586948593849361108e565b8352600483016102b8565b03915afa908115611e6a57611b77611b708f94611b6990611ba095611b8f95600091611e3c575b5061152d565b889061152d565b8b9061152d565b611b89611b84600261156c565b611579565b90611595565b611b9a6127106115cd565b906115ff565b94611bb4611bae6001610730565b91610730565b14600014611da85789611bd7611bd2611bcd600261066b565b61162d565b611639565b63c219a14d907f000000000000000000000000000000000000000000000000000000000000000091611c0e86958995908d91611299565b918d9589853b15611da357600097611c3a958995611c4594611c2e610193565b9c8d9b8c9a8b9961108e565b895260048901611671565b03925af18015611d9e57611d6c98611cfa928e92611d71575b505b611c94611c8c7f00000000000000000000000000000000000000000000000000000000000000006114b7565b8989916133b4565b611cc57f0000000000000000000000000000000000000000000000000000000000000000949596928d908b91611299565b91927f3c77ae279df37c7ea5dd3a57f101c57dac95417ce9c24279d6ec87d9399c82d797611cf1610193565b978897886116d2565b0390a17f0000000000000000000000000000000000000000000000000000000000000000919091611d64611d30888b8791611299565b907fa5ed23d5ebdea6438acd5b68a3befbb14c431a7a8f221448bfb708ab8a408e9f95611d5b610193565b95869586611732565b0390a161121e565b6117af565b611d919060003d8111611d97575b611d898183610432565b810190611094565b38611c5e565b503d611d7f565b6110c8565b611089565b611cfa90611d6c98611de4611ddc7f00000000000000000000000000000000000000000000000000000000000000006114b7565b8588916133b4565b80611df8611df260006111c0565b9161033c565b03611e03575b611c60565b611e37611e2f7f00000000000000000000000000000000000000000000000000000000000000006114b7565b8683916133b4565b611dfe565b611e5d915060203d8111611e63575b611e558183610432565b810190611459565b38611b63565b503d611e4b565b6110c8565b611e8f9060003d8111611e95575b611e878183610432565b810190611094565b38611ad3565b503d611e7d565b6110c8565b611089565b611ec7915060203d8111611ecd575b611ebf8183610432565b810190611459565b38611a38565b503d611eb5565b6110c8565b611efa915060203d8111611f00575b611ef28183610432565b810190611459565b386119bc565b503d611ee8565b6110c8565b611f2c9060203d8111611f31575b611f248183610432565b810190611459565b611940565b503d611f1a565b6110c8565b6000631db89f5b60e11b815280611f5660048201610397565b0390fd5b50611f6760038301610623565b611f7a611f74600061133a565b91610719565b14611832565b6000632a313f9360e01b815280611f9960048201610397565b0390fd5b5092505050565b6000634ec4810560e11b815280611fbd60048201610397565b0390fd5b5082611fde611fd8611fd360026111f0565b6111fd565b9161033c565b116117a2565b90611fee9161119d565b565b611ffb61010061045b565b90565b600090565b600090565b600090565b600090565b61201a611ff0565b906020808080808080808961202d611ffe565b815201612038611ffe565b815201612043611ffe565b81520161204e612003565b815201612059612008565b815201612064612008565b81520161206f612008565b81520161207a61200d565b81525050565b612088612012565b90565b906120959061033c565b9052565b906120a390610719565b9052565b906120b19061029f565b9052565b906120bf90610730565b9052565b9061218b61218260056120d4611ff0565b946120ed6120e4600083016105f8565b6000880161208b565b6121056120fc600183016105f8565b6020880161208b565b61211d612114600283016105f8565b6040880161208b565b61213561212c60038301610623565b60608801612099565b61214d6121446003830161064a565b608088016120a7565b61216561215c6004830161066b565b60a088016120a7565b61217c61217383830161066b565b60c088016120a7565b01610698565b60e084016120b5565b565b612196906120c3565b90565b6121b06121b5916121a8612080565b5060066105d2565b61218d565b90565b600090565b6121c56121b8565b506121d06000610698565b90565b6121e4906121df6131db565b612236565b565b60001b90565b906121fd60018060a01b03916121e6565b9181191691161790565b61221090611071565b90565b90565b9061222b61222661223292612207565b612213565b82546121ec565b9055565b612241816002612216565b61228061226d7f00000000000000000000000000000000000000000000000000000000000000006114b7565b612277600261066b565b60001991613430565b6122b67fe87b20abc05306d2c168a182a3fbbea47f82ba3e6fb70ee1cafd86603730916f916122ad610193565b918291826102b8565b0390a1565b6122c4906121d3565b565b6122ce6131db565b6122d6612300565b565b6122ec6122e76122f1926111bd565b61103a565b610294565b90565b6122fd906122d8565b90565b61231261230d60006122f4565b6134eb565b565b61231c6122c6565b565b6123266131db565b61232e612330565b565b6123386135ad565b565b61234261231e565b565b90612359949392916123546131db565b612551565b565b90565b61237261236d6123779261235b565b61103a565b6101f4565b90565b61238e612389612393926115ca565b61103a565b6101f4565b90565b90565b6123ad6123a86123b292612396565b61103a565b61033c565b90565b90565b6123cc6123c76123d1926123b5565b61103a565b61033c565b90565b90565b6123eb6123e66123f0926123d4565b61103a565b61033c565b90565b61240761240261240c926111bd565b61103a565b610c6b565b90565b60a81b90565b9061242561ffff60a81b9161240f565b9181191691161790565b61244361243e612448926101f4565b61103a565b6101f4565b90565b90565b9061246361245e61246a9261242f565b61244b565b8254612415565b9055565b9061247b600019916121e6565b9181191691161790565b9061249a6124956124a192611380565b61139c565b825461246e565b9055565b60a01b90565b906124ba60ff60a01b916124a5565b9181191691161790565b6124d86124d36124dd92610c6b565b61103a565b610c6b565b90565b90565b906124f86124f36124ff926124c4565b6124e0565b82546124ab565b9055565b9095949261254f9461253e6125489261253460809661252a60a088019c60008901906101fb565b602087019061033f565b604085019061033f565b606083019061033f565b0190610d94565b565b909192938161256a61256461138861235e565b916101f4565b1080156126e6575b6126c9578261258c6125866202a300612399565b9161033c565b106126ac57836125a86125a26301e133806123b8565b9161033c565b1161268f57846125c16125bb60016123d7565b9161033c565b1061267257806125da6125d460006123f3565b91610c6b565b1461265557816125ee61265093600261244e565b6125f9846003612485565b612604856004612485565b61260f866005612485565b61261a8260026124e3565b9293947f7e2c6359e276662df7728b39a0ad6d74d0333c402835ac343a5208bbf5a23d5495612647610193565b95869586612503565b0390a1565b600063f39d15db60e01b81528061266e60048201610397565b0390fd5b6000639c68554f60e01b81528061268b60048201610397565b0390fd5b60006329efbf6360e21b8152806126a860048201610397565b0390fd5b600063f57c57d360e01b8152806126c560048201610397565b0390fd5b6000637b4a552360e11b8152806126e260048201610397565b0390fd5b50816126fc6126f661271061237a565b916101f4565b11612572565b9061270f94939291612344565b565b600090565b61271e612711565b50612729600061066b565b90565b906127449796959493929161273f613321565b61274e565b61274c61336f565b565b906127669796959493929161276161363b565b612a23565b565b61277761277d9193929361033c565b9261033c565b820180921161278857565b611517565b6127a161279c6127a69261033c565b61103a565b610719565b90565b9160206127cb9294936127c46040820196600083019061033f565b01906102ab565b565b6127d861010061045b565b90565b6127e5905161033c565b90565b6127f29051610719565b90565b9061280564ffffffffff916121e6565b9181191691161790565b61282361281e61282892610719565b61103a565b610719565b90565b90565b9061284361283e61284a9261280f565b61282b565b82546127f5565b9055565b612858905161029f565b90565b60281b90565b9061287865010000000000600160c81b039161285b565b9181191691161790565b9061289761289261289e92612207565b612213565b8254612861565b9055565b6128ac9051610730565b90565b6128b890610730565b90565b90565b906128d36128ce6128da926128af565b6128bb565b82546124ab565b9055565b906129a060e060056129a694612903600082016128fd600088016127db565b90612485565b61291c60018201612916602088016127db565b90612485565b6129356002820161292f604088016127db565b90612485565b61294e60038201612948606088016127e8565b9061282e565b612967600382016129616080880161284e565b90612882565b6129806004820161297a60a0880161284e565b90612216565b61299882820161299260c0880161284e565b90612216565b0192016128a2565b906128be565b565b906129b2916128de565b565b93946129ff612a099298966129f5612a13966129eb612a209d9b976129e160e08c019e60008d01906102ab565b60208b01906102ab565b60408901906102ab565b606087019061033f565b6080850190610723565b60a083019061033f565b60c081850391015261164e565b90565b9392959196949094612a40612a3b600684869161130d565b61131b565b612a4b888690612768565b9088612a60612a5a60006111c0565b9161033c565b14612f1e5786612a81612a7b612a7660006122f4565b61029f565b9161029f565b14612f015787612aa2612a9c612a9760006122f4565b61029f565b9161029f565b14612ee4576000612ab391016105f8565b612ac6612ac060006111c0565b9161033c565b03612ec75780612ae7612ae1612adc60056105f8565b61033c565b9161033c565b10612eaa5788612b1a612b14612b0f612b0a42612b0460036105f8565b90612768565b61278d565b610719565b91610719565b108015612e75575b612e5857612b64612b527f00000000000000000000000000000000000000000000000000000000000000006114b7565b33612b5c3061143e565b908492613689565b612b6c6136d8565b612bc0612b987f00000000000000000000000000000000000000000000000000000000000000006114b7565b7f00000000000000000000000000000000000000000000000000000000000000008491613430565b612bf1612bec7f00000000000000000000000000000000000000000000000000000000000000006114db565b6114e7565b9163f2b9fdb8907f00000000000000000000000000000000000000000000000000000000000000009093803b15612e5357612c4060008094612c4b612c34610193565b9889968795869461108e565b8452600484016114f3565b03925af1918215612e4e57612c6d92612e21575b50612c686136d8565b61152d565b6020612ca0612c9b7f0000000000000000000000000000000000000000000000000000000000000000611065565b61107d565b636e553f659290612ccd6000612cb53061143e565b95612cd8612cc1610193565b9788968795869461108e565b8452600484016127a9565b03925af1908115612e1c57600091612dee575b50879185918a339089928b9495612d006127cd565b976000890190612d0f9161208b565b6020880190612d1d9161208b565b6040870190612d2b9161208b565b6060860190612d3991612099565b6080850190612d47916120a7565b60a0840190612d55916120a7565b60c0830190612d63916120a7565b60e0820190612d71916120b5565b6006828490612d7f9261130d565b90612d89916129a8565b7f000000000000000000000000000000000000000000000000000000000000000093949596929091927f160b9883c8416d313cc749bc5858db361276143105365a035258beace5bf3b3e97612ddc610193565b978897612de997896129b4565b0390a1565b612e0f915060203d8111612e15575b612e078183610432565b810190611459565b38612ceb565b503d612dfd565b6110c8565b612e419060003d8111612e47575b612e398183610432565b810190611094565b38612c5f565b503d612e2f565b6110c8565b611089565b60006354ad112d60e11b815280612e7160048201610397565b0390fd5b5088612ea4612e9e612e99612e9442612e8e60046105f8565b90612768565b61278d565b610719565b91610719565b11612b22565b60006324204a3560e21b815280612ec360048201610397565b0390fd5b6000630a685b0f60e41b815280612ee060048201610397565b0390fd5b600063ffd7845360e01b815280612efd60048201610397565b0390fd5b6000631781d75760e01b815280612f1a60048201610397565b0390fd5b6000631f2a200560e01b815280612f3760048201610397565b0390fd5b90612f4b9796959493929161272c565b565b612f556131db565b612f5d612f5f565b565b612ff8612f8b7f00000000000000000000000000000000000000000000000000000000000000006114b7565b612f93612716565b6020612fc6612fc17f00000000000000000000000000000000000000000000000000000000000000006114b7565b6114c3565b6370a0823190612fed612fd83061143e565b92612fe1610193565b9788948593849361108e565b8352600483016102b8565b03915afa9182156130475761301593600093613017575b506133b4565b565b61303991935060203d8111613040575b6130318183610432565b810190611459565b913861300f565b503d613027565b6110c8565b613054612f4d565b565b613067906130626131db565b61311c565b565b60209181520190565b60207f6464726573730000000000000000000000000000000000000000000000000000917f4f776e61626c653a206e6577206f776e657220697320746865207a65726f206160008201520152565b6130cd6026604092613069565b6130d681613072565b0190565b6130f090602081019060008183039101526130c0565b90565b156130fa57565b613102610193565b62461bcd60e51b815280613118600482016130da565b0390fd5b61314b906131468161313f61313961313460006122f4565b61029f565b9161029f565b14156130f3565b6134eb565b565b61315690613056565b565b60007f4f776e61626c653a2063616c6c6572206973206e6f7420746865206f776e6572910152565b61318c60208092613069565b61319581613158565b0190565b6131af9060208101906000818303910152613180565b90565b156131b957565b6131c1610193565b62461bcd60e51b8152806131d760048201613199565b0390fd5b6132056131e6612716565b6131ff6131f96131f4613793565b61029f565b9161029f565b146131b2565b565b61320f613824565b613217613219565b565b6132246000806128be565b61322c613793565b6132627f5db9ee0a495bf2e6ff9c91a7834c1ba4fdd244a5e8aa4e537bd38aeae4b073aa91613259610193565b918291826102b8565b0390a1565b61326f613207565b565b90565b61328861328361328d92613271565b61103a565b61033c565b90565b61329a6002613274565b90565b60007f5265656e7472616e637947756172643a207265656e7472616e742063616c6c00910152565b6132d2601f602092613069565b6132db8161329d565b0190565b6132f590602081019060008183039101526132c5565b90565b156132ff57565b613307610193565b62461bcd60e51b81528061331d600482016132df565b0390fd5b61334e61332e60016105f8565b61334761334161333c613290565b61033c565b9161033c565b14156132f8565b613360613359613290565b6001612485565b565b61336c60016123d7565b90565b61338161337a613362565b6001612485565b565b63ffffffff1690565b63ffffffff60e01b1690565b6133ac6133a76133b192613383565b61108e565b61338c565b90565b916133f86004926133e96133fd95936133d063a9059cbb613398565b926133d9610193565b96879460208601908152016114f3565b60208201810382520383610432565b613994565b565b613408906123f3565b9052565b91602061342e929493613427604082019660008301906102ab565b01906133ff565b565b909161347160049161346261344863095ea7b3613398565b9186613452610193565b95869460208601908152016114f3565b60208201810382520382610432565b90613486613480828490613a48565b15610730565b613490575b505050565b6134de60046134e3946134d984916134ca6134ae63095ea7b3613398565b916000906134ba610193565b968794602086019081520161340c565b60208201810382520383610432565b613994565b613994565b38808061348b565b6134f5600061066b565b613500826000612216565b9061353461352e7f8be0079c531659141344cd1fd0a4f28419497f9722a3daafe3b4186f6b6457e093612207565b91612207565b9161353d610193565b8061354781610397565b0390a3565b61355461363b565b61355c61355e565b565b61356a600160006128be565b613572613793565b6135a87f62e78cea01bee320cd4e420270b5ea74000d11b0c9f74754ebdbfc544b05a2589161359f610193565b918291826102b8565b0390a1565b6135b561354c565b565b60007f5061757361626c653a2070617573656400000000000000000000000000000000910152565b6135ec6010602092613069565b6135f5816135b7565b0190565b61360f90602081019060008183039101526135df565b90565b1561361957565b613621610193565b62461bcd60e51b815280613637600482016135f9565b0390fd5b61365461364f6136496121bd565b15610730565b613612565b565b6040906136806136879496959396613676606084019860008501906102ab565b60208301906102ab565b019061033f565b565b6136d693916136c26004946136d193946136a66323b872dd613398565b939190916136b2610193565b9788956020870190815201613656565b60208201810382520383610432565b613994565b565b6136e0611219565b5061374960206137176137127f00000000000000000000000000000000000000000000000000000000000000006114b7565b6114c3565b6370a082319061373e6137293061143e565b92613732610193565b9586948593849361108e565b8352600483016102b8565b03915afa90811561378e57600091613760575b5090565b613781915060203d8111613787575b6137798183610432565b810190611459565b3861375c565b503d61376f565b6110c8565b61379b612711565b503390565b60007f5061757361626c653a206e6f7420706175736564000000000000000000000000910152565b6137d56014602092613069565b6137de816137a0565b0190565b6137f890602081019060008183039101526137c8565b90565b1561380257565b61380a610193565b62461bcd60e51b815280613820600482016137e2565b0390fd5b61383461382f6121bd565b6137fb565b565b67ffffffffffffffff811161385457613850602091610412565b0190565b61041c565b9061386b61386683613836565b61045b565b918252565b60007f5361666545524332303a206c6f772d6c6576656c2063616c6c206661696c6564910152565b6138a26020613859565b906138af60208301613870565b565b6138b9613898565b90565b905051906138c982610e4f565b565b906020828203126138e5576138e2916000016138bc565b90565b61019e565b60207f6f74207375636365656400000000000000000000000000000000000000000000917f5361666545524332303a204552433230206f7065726174696f6e20646964206e60008201520152565b613945602a604092613069565b61394e816138ea565b0190565b6139689060208101906000818303910152613938565b90565b1561397257565b61397a610193565b62461bcd60e51b81528061399060048201613952565b0390fd5b6139de916139a46139b3926114c3565b906139ad6138b1565b91613aec565b6139bc8161052e565b6139cf6139c960006111c0565b9161033c565b149081156139e0575b5061396b565b565b6139fb915060206139f08261052e565b8183010191016138cb565b386139d8565b90613a13613a0e83610470565b61045b565b918252565b606090565b3d600014613a3a57613a2e3d613a01565b903d6000602084013e5b565b613a42613a18565b90613a38565b9060008091613a556121b8565b50613a5f846114c3565b9082602082019151925af1613a72613a1d565b81613a9d575b509081613a84575b5090565b613a979150613a92906114c3565b613b0f565b38613a80565b9050613aa88161052e565b613abb613ab560006111c0565b9161033c565b14908115613acb575b5038613a78565b613ae691506020613adb8261052e565b8183010191016138cb565b38613ac4565b90613b0c9291613afa613a18565b5090613b0660006111c0565b91613be6565b90565b613b176121b8565b503b613b2c613b2660006111c0565b9161033c565b1190565b613b3990611071565b90565b60207f722063616c6c0000000000000000000000000000000000000000000000000000917f416464726573733a20696e73756666696369656e742062616c616e636520666f60008201520152565b613b976026604092613069565b613ba081613b3c565b0190565b613bba9060208101906000818303910152613b8a565b90565b15613bc457565b613bcc610193565b62461bcd60e51b815280613be260048201613ba4565b0390fd5b9160008091613c3d9593613bf8613a18565b50613c1f613c0530613b30565b31613c18613c128561033c565b9161033c565b1015613bbd565b8591602082019151925af191613c33613a1d565b9092909192613cc4565b90565b60007f416464726573733a2063616c6c20746f206e6f6e2d636f6e7472616374000000910152565b613c75601d602092613069565b613c7e81613c40565b0190565b613c989060208101906000818303910152613c68565b90565b15613ca257565b613caa610193565b62461bcd60e51b815280613cc060048201613c82565b0390fd5b919290613ccf613a18565b50600014613d155750613ce18261052e565b613cf4613cee60006111c0565b9161033c565b14613cfe575b5090565b613d0a613d0f91613b0f565b613c9b565b38613cfa565b82613d69565b5190565b613d3e613d47602093613d4c93613d3581613d1b565b93848093613069565b95869101610537565b610412565b0190565b613d669160208201916000818403910152613d1f565b90565b90613d738261052e565b613d86613d8060006111c0565b9161033c565b11600014613d975750805190602001fd5b613db890613da3610193565b91829162461bcd60e51b835260048301613d50565b0390fdfea26469706673582212202905c8c9f590b4aa2836bc60d19e1b7163df6118fd56bf4a07d5a38905fa0f9964736f6c634300081a0033","linkReferences":{}},"methodIdentifiers":{"ERC20FeeProxyAddress()":"24c20740","baseAsset()":"cdf456e1","claimBaseAssetBalance()":"ed19fa84","claimCompRewards()":"45107cae","cometAddress()":"6bbb194b","contractFeeModifier()":"1949b25c","getMapping(bytes)":"5738e818","maxDueDateParameter()":"3d1d15bf","maxPayoutArraySize()":"c11e2846","minDueDateParameter()":"616212ba","minTotalAmountParameter()":"58911397","owner()":"8da5cb5b","pause()":"8456cb59","paused()":"5c975abb","payInvoiceERC20(address,address,uint40,uint256,uint256,bytes,bool)":"c825a741","payOutERC20Invoice(bytes[])":"4beb2a1e","paymentMapping(bytes)":"46778635","renounceOwnership()":"715018a6","setContractParameters(uint16,uint256,uint256,uint256,uint8)":"8c4c7e04","setERC20FeeProxy(address)":"6e2f87f3","transferOwnership(address)":"f2fde38b","unpause()":"3f4ba83a","wrapperAddress()":"7df8b802"},"id":31}