{"abi":[{"type":"constructor","inputs":[{"name":"_cometAddress","type":"address","internalType":"address"},{"name":"_wrapperAddress","type":"address","internalType":"address"},{"name":"_contractFeeModifier","type":"uint16","internalType":"uint16"},{"name":"_minDueDateParameter","type":"uint256","internalType":"uint256"},{"name":"_maxDueDateParameter","type":"uint256","internalType":"uint256"},{"name":"_minTotalAmountParameter","type":"uint256","internalType":"uint256"},{"name":"_maxPayoutArraySize","type":"uint8","internalType":"uint8"}],"stateMutability":"nonpayable"},{"type":"function","name":"ERC20FeeProxyAddress","inputs":[],"outputs":[{"name":"","type":"address","internalType":"address"}],"stateMutability":"view"},{"type":"function","name":"baseAsset","inputs":[],"outputs":[{"name":"","type":"address","internalType":"address"}],"stateMutability":"view"},{"type":"function","name":"claimBaseAssetBalance","inputs":[],"outputs":[],"stateMutability":"nonpayable"},{"type":"function","name":"claimCompRewards","inputs":[],"outputs":[],"stateMutability":"nonpayable"},{"type":"function","name":"contractFeeModifier","inputs":[],"outputs":[{"name":"","type":"uint16","internalType":"uint16"}],"stateMutability":"view"},{"type":"function","name":"getMapping","inputs":[{"name":"_paymentReference","type":"bytes","internalType":"bytes"}],"outputs":[{"name":"","type":"tuple","internalType":"struct Paytr.PaymentERC20","components":[{"name":"amount","type":"uint256","internalType":"uint256"},{"name":"feeAmount","type":"uint256","internalType":"uint256"},{"name":"wrapperSharesReceived","type":"uint256","internalType":"uint256"},{"name":"dueDate","type":"uint40","internalType":"uint40"},{"name":"payer","type":"address","internalType":"address"},{"name":"payee","type":"address","internalType":"address"},{"name":"feeAddress","type":"address","internalType":"address"},{"name":"shouldPayoutViaRequestNetwork","type":"bool","internalType":"bool"}]}],"stateMutability":"view"},{"type":"function","name":"maxDueDateParameter","inputs":[],"outputs":[{"name":"","type":"uint256","internalType":"uint256"}],"stateMutability":"view"},{"type":"function","name":"maxPayoutArraySize","inputs":[],"outputs":[{"name":"","type":"uint8","internalType":"uint8"}],"stateMutability":"view"},{"type":"function","name":"minDueDateParameter","inputs":[],"outputs":[{"name":"","type":"uint256","internalType":"uint256"}],"stateMutability":"view"},{"type":"function","name":"minTotalAmountParameter","inputs":[],"outputs":[{"name":"","type":"uint256","internalType":"uint256"}],"stateMutability":"view"},{"type":"function","name":"owner","inputs":[],"outputs":[{"name":"","type":"address","internalType":"address"}],"stateMutability":"view"},{"type":"function","name":"pause","inputs":[],"outputs":[],"stateMutability":"nonpayable"},{"type":"function","name":"paused","inputs":[],"outputs":[{"name":"","type":"bool","internalType":"bool"}],"stateMutability":"view"},{"type":"function","name":"payInvoiceERC20","inputs":[{"name":"_payee","type":"address","internalType":"address"},{"name":"_feeAddress","type":"address","internalType":"address"},{"name":"_dueDate","type":"uint40","internalType":"uint40"},{"name":"_amount","type":"uint256","internalType":"uint256"},{"name":"_feeAmount","type":"uint256","internalType":"uint256"},{"name":"_paymentReference","type":"bytes","internalType":"bytes"},{"name":"_shouldPayoutViaRequestNetwork","type":"bool","internalType":"bool"}],"outputs":[],"stateMutability":"nonpayable"},{"type":"function","name":"payOutERC20Invoice","inputs":[{"name":"payoutReferencesArray","type":"bytes[]","internalType":"bytes[]"}],"outputs":[],"stateMutability":"nonpayable"},{"type":"function","name":"paymentMapping","inputs":[{"name":"","type":"bytes","internalType":"bytes"}],"outputs":[{"name":"amount","type":"uint256","internalType":"uint256"},{"name":"feeAmount","type":"uint256","internalType":"uint256"},{"name":"wrapperSharesReceived","type":"uint256","internalType":"uint256"},{"name":"dueDate","type":"uint40","internalType":"uint40"},{"name":"payer","type":"address","internalType":"address"},{"name":"payee","type":"address","internalType":"address"},{"name":"feeAddress","type":"address","internalType":"address"},{"name":"shouldPayoutViaRequestNetwork","type":"bool","internalType":"bool"}],"stateMutability":"view"},{"type":"function","name":"renounceOwnership","inputs":[],"outputs":[],"stateMutability":"nonpayable"},{"type":"function","name":"setContractParameters","inputs":[{"name":"_contractFeeModifier","type":"uint16","internalType":"uint16"},{"name":"_minDueDateParameter","type":"uint256","internalType":"uint256"},{"name":"_maxDueDateParameter","type":"uint256","internalType":"uint256"},{"name":"_minTotalAmountParameter","type":"uint256","internalType":"uint256"},{"name":"_maxPayoutArraySize","type":"uint8","internalType":"uint8"}],"outputs":[],"stateMutability":"nonpayable"},{"type":"function","name":"setERC20FeeProxy","inputs":[{"name":"_ERC20FeeProxyAddress","type":"address","internalType":"address"}],"outputs":[],"stateMutability":"nonpayable"},{"type":"function","name":"transferOwnership","inputs":[{"name":"newOwner","type":"address","internalType":"address"}],"outputs":[],"stateMutability":"nonpayable"},{"type":"function","name":"unpause","inputs":[],"outputs":[],"stateMutability":"nonpayable"},{"type":"event","name":"ContractParametersUpdatedEvent","inputs":[{"name":"contractFeeModifier","type":"uint16","indexed":false,"internalType":"uint16"},{"name":"minDueDateParameter","type":"uint256","indexed":false,"internalType":"uint256"},{"name":"maxDueDateParameter","type":"uint256","indexed":false,"internalType":"uint256"},{"name":"minTotalAmount","type":"uint256","indexed":false,"internalType":"uint256"},{"name":"maxPayoutArraySize","type":"uint8","indexed":false,"internalType":"uint8"}],"anonymous":false},{"type":"event","name":"InterestPayoutEvent","inputs":[{"name":"tokenAddress","type":"address","indexed":false,"internalType":"address"},{"name":"payee","type":"address","indexed":false,"internalType":"address"},{"name":"interestAmount","type":"uint256","indexed":false,"internalType":"uint256"},{"name":"paymentReference","type":"bytes","indexed":false,"internalType":"bytes"}],"anonymous":false},{"type":"event","name":"OwnershipTransferred","inputs":[{"name":"previousOwner","type":"address","indexed":true,"internalType":"address"},{"name":"newOwner","type":"address","indexed":true,"internalType":"address"}],"anonymous":false},{"type":"event","name":"Paused","inputs":[{"name":"account","type":"address","indexed":false,"internalType":"address"}],"anonymous":false},{"type":"event","name":"PayOutERC20Event","inputs":[{"name":"tokenAddress","type":"address","indexed":false,"internalType":"address"},{"name":"payee","type":"address","indexed":false,"internalType":"address"},{"name":"feeAddress","type":"address","indexed":false,"internalType":"address"},{"name":"amount","type":"uint256","indexed":false,"internalType":"uint256"},{"name":"paymentReference","type":"bytes","indexed":false,"internalType":"bytes"},{"name":"feeAmount","type":"uint256","indexed":false,"internalType":"uint256"}],"anonymous":false},{"type":"event","name":"PaymentERC20Event","inputs":[{"name":"tokenAddress","type":"address","indexed":false,"internalType":"address"},{"name":"payee","type":"address","indexed":false,"internalType":"address"},{"name":"feeAddress","type":"address","indexed":false,"internalType":"address"},{"name":"amount","type":"uint256","indexed":false,"internalType":"uint256"},{"name":"dueDate","type":"uint40","indexed":false,"internalType":"uint40"},{"name":"feeAmount","type":"uint256","indexed":false,"internalType":"uint256"},{"name":"paymentReference","type":"bytes","indexed":false,"internalType":"bytes"}],"anonymous":false},{"type":"event","name":"Unpaused","inputs":[{"name":"account","type":"address","indexed":false,"internalType":"address"}],"anonymous":false},{"type":"event","name":"setERC20FeeProxyEvent","inputs":[{"name":"ERC20FeeProxyAddress","type":"address","indexed":false,"internalType":"address"}],"anonymous":false},{"type":"error","name":"DueDateNotAllowed","inputs":[]},{"type":"error","name":"DueDateNotZero","inputs":[]},{"type":"error","name":"InvalidArrayLength","inputs":[]},{"type":"error","name":"InvalidContractFeeModifier","inputs":[]},{"type":"error","name":"InvalidFeeAmount","inputs":[]},{"type":"error","name":"InvalidFeeAmountMultiplier","inputs":[]},{"type":"error","name":"InvalidMaxArraySize","inputs":[]},{"type":"error","name":"InvalidMaxDueDate","inputs":[]},{"type":"error","name":"InvalidMinAmount","inputs":[]},{"type":"error","name":"InvalidMinDueDate","inputs":[]},{"type":"error","name":"InvalidNewDueDate","inputs":[]},{"type":"error","name":"InvalidTotalAmount","inputs":[]},{"type":"error","name":"NoPrePayment","inputs":[]},{"type":"error","name":"NotAuthorized","inputs":[]},{"type":"error","name":"PaymentReferenceInUse","inputs":[]},{"type":"error","name":"ReferenceNotDue","inputs":[]},{"type":"error","name":"ZeroFeeAddress","inputs":[]},{"type":"error","name":"ZeroPayeeAddress","inputs":[]}],"bytecode":{"object":"0x60e060409080825234620002d55760e0816200221a8038038091620000258285620002da565b833981010312620002d5576200003b8162000314565b906200004a6020820162000314565b918382015161ffff81168103620002d557606083015160808401519360c060a08201519101519060ff82168203620002d5576000958695602087549160048c518094819360018060a01b039c8d92338482167f8be0079c531659141344cd1fd0a4f28419497f9722a3daafe3b4186f6b6457e08480a36001600160a81b0319163360ff60a01b19161790556001805560c081905263c55dae6360e01b8352165afa908115620002cb57889162000286575b506080528760a0526002549360035560045560055560ff60a01b9060a01b169161ffff60a81b9060a81b169062ffffff60a01b191617176002558060c0511692833b1562000282579060448392838751968794859363110496e560e01b8552166004840152600160248401525af18015620002765762000248575b8251611ef090816200032a8239608051818181610209015281816102ab01528181610446015281816104d50152818161056501528181610772015281816108f10152818161092701528181610cfa015281816112500152818161132501528181611400015281816114360152818161149301528181611568015281816115a00152611e7e015260a0518181816105ea0152818161117f0152611777015260c05181818161048501528181610527015281816108a5015281816111d00152818161120b015281816112890152611ded0152f35b6001600160401b0382116200026257508152388062000176565b634e487b7160e01b81526041600452602490fd5b508251903d90823e3d90fd5b8280fd5b90506020813d8211620002c2575b81620002a360209383620002da565b81010312620002be57620002b79062000314565b38620000fb565b8780fd5b3d915062000294565b8a513d8a823e3d90fd5b600080fd5b601f909101601f19168101906001600160401b03821190821017620002fe57604052565b634e487b7160e01b600052604160045260246000fd5b51906001600160a01b0382168203620002d55756fe608080604052600436101561001357600080fd5b600090813560e01c9081631949b25c146118b85750806324c207401461188f5780633d1d15bf146118715780633f4ba83a146117d657806345107cae1461174c57806346778635146116ab5780634beb2a1e14610f8a5780635738e81814610e615780635891139714610e435780635c975abb14610e1e578063616212ba14610e005780636e2f87f314610c92578063715018a614610c385780638456cb5914610bd75780638c4c7e0414610a725780638da5cb5b14610a4b578063c11e284614610a27578063c825a741146102da578063cdf456e114610295578063ed19fa84146101d05763f2fde38b1461010857600080fd5b346101cd5760203660031901126101cd576101216119ff565b610129611a15565b6001600160a01b0390811690811561017957600054826001600160601b0360a01b821617600055167f8be0079c531659141344cd1fd0a4f28419497f9722a3daafe3b4186f6b6457e0600080a380f35b60405162461bcd60e51b815260206004820152602660248201527f4f776e61626c653a206e6577206f776e657220697320746865207a65726f206160448201526564647265737360d01b6064820152608490fd5b80fd5b50346101cd57806003193601126101cd576101e9611a15565b80546040516370a0823160e01b8152306004820152906001600160a01b037f000000000000000000000000000000000000000000000000000000000000000081169116602083602481855afa91821561028a578492610250575b61024d9350611d94565b80f35b91506020833d8211610282575b8161026a60209383611928565b8101031261027d5761024d925191610243565b600080fd5b3d915061025d565b6040513d86823e3d90fd5b50346101cd57806003193601126101cd576040517f00000000000000000000000000000000000000000000000000000000000000006001600160a01b03168152602090f35b50346101cd5760e03660031901126101cd576102f46119ff565b602435906001600160a01b038216820361027d5760443564ffffffffff81168103610a235760a4359067ffffffffffffffff8211610a1f5736602383011215610a1f5767ffffffffffffffff826004013511610a1f57366024836004013584010111610a1f5760c4358015158103610a1b5761036e611ae4565b610376611a9d565b604051836004013560248501823760066004850135820190815281900360200190206103a6608435606435611a6d565b906001600160a01b03861615610a09576001600160a01b038716156109f457546109e25760055481106109d05764ffffffffff6103e560035442611a6d565b1664ffffffffff84161080156109ae575b61099c576040516323b872dd60e01b6020820152336024820152306044820152816064820152606481528060a081011067ffffffffffffffff60a0830111176109865760a08101604052610473907f00000000000000000000000000000000000000000000000000000000000000006001600160a01b0316611b52565b60405163095ea7b360e01b60208201527f00000000000000000000000000000000000000000000000000000000000000006001600160a01b03166024820152604480820183905281526104c7606482611928565b8051600090819060208401827f00000000000000000000000000000000000000000000000000000000000000006001600160a01b03165af1610507611c4a565b81610957575b5080610924575b15610893575b5086610524611dd2565b917f00000000000000000000000000000000000000000000000000000000000000006001600160a01b0316803b1561088f57604051631e573fb760e31b81527f00000000000000000000000000000000000000000000000000000000000000006001600160a01b03166004820152602481019290925282908290604490829084905af180156108845761086c575b50506105c5906105c0611dd2565b611a90565b604051636e553f6560e01b81526004810191909152306024820152906020826044818a7f00000000000000000000000000000000000000000000000000000000000000006001600160a01b03165af1918215610861578792610807575b509464ffffffffff92917f160b9883c8416d313cc749bc5858db361276143105365a035258beace5bf3b3e966040519161065b836118ef565b6064358352608435602084015260408084019190915284861660608401523360808401526001600160a01b0388811660a0850152841660c084015290151560e0830152516005906004870135602488018237602081886004013581016006815203019020825181556020830151600182015560408301516002820155600381018660608501511681549065010000000000600160c81b03608087015160281b169166ffffffffffffff60c81b16171790556004810160018060a01b0360a0850151166001600160601b0360a01b825416179055019060018060a01b0360c08201511682549160e060ff60a01b910151151560a01b16916affffffffffffffffffffff60a81b16171790556040519460018060a01b037f000000000000000000000000000000000000000000000000000000000000000016865260018060a01b0316602086015260018060a01b03166040850152606435606085015216608083015260843560a083015260e060c0830152806004013560e0830152816101009180600401356024820184840137600401358181018301869052601f01601f19168101030190a16001805580f35b929150946020833d602011610859575b8161082460209383611928565b8101031261027d57915191949091907f160b9883c8416d313cc749bc5858db361276143105365a035258beace5bf3b3e610622565b3d9150610817565b6040513d89823e3d90fd5b610875906118db565b6108805786386105b2565b8680fd5b6040513d84823e3d90fd5b8280fd5b60405163095ea7b360e01b60208201527f00000000000000000000000000000000000000000000000000000000000000006001600160a01b031660248201526000604480830191909152815261091e91906108ef90818161190c565b7f00000000000000000000000000000000000000000000000000000000000000006001600160a01b0316611b52565b3861051a565b507f00000000000000000000000000000000000000000000000000000000000000006001600160a01b03163b1515610514565b805180159250821561096c575b50503861050d565b61097f9250602080918301019101611b3a565b3880610964565b634e487b7160e01b600052604160045260246000fd5b6040516354ad112d60e11b8152600490fd5b5064ffffffffff6109c160045442611a6d565b1664ffffffffff8416116103f6565b6040516324204a3560e21b8152600490fd5b604051630a685b0f60e41b8152600490fd5b604051600162287bad60e01b03198152600490fd5b604051631781d75760e01b8152600490fd5b8580fd5b8480fd5b8380fd5b50346101cd57806003193601126101cd57602060ff60025460a01c16604051908152f35b50346101cd57806003193601126101cd57546040516001600160a01b039091168152602090f35b50346101cd5760a03660031901126101cd5761ffff60043581811691828203610a235760243592604435936064356084359260ff841690818503610bd357610ab8611a15565b6113888110908115610bc7575b50610bb557620697808310610ba3576301e133808711610b915760018210610b7f5715610b6d577f7e2c6359e276662df7728b39a0ad6d74d0333c402835ac343a5208bbf5a23d549560a09560ff946002549085600355836004558460055586891b90891b169161ffff60a81b9060a81b169062ffffff891b191617179283600255604051958460a81c168652602086015260408501526060840152831c166080820152a180f35b60405163f39d15db60e01b8152600490fd5b604051639c68554f60e01b8152600490fd5b6040516329efbf6360e21b8152600490fd5b60405163f57c57d360e01b8152600490fd5b604051637b4a552360e11b8152600490fd5b61271091501138610ac5565b8880fd5b50346101cd57806003193601126101cd57610bf0611a15565b610bf8611a9d565b805460ff60a01b1916600160a01b1781556040513381527f62e78cea01bee320cd4e420270b5ea74000d11b0c9f74754ebdbfc544b05a25890602090a180f35b50346101cd57806003193601126101cd57610c51611a15565b600080546001600160a01b0319811682556001600160a01b03167f8be0079c531659141344cd1fd0a4f28419497f9722a3daafe3b4186f6b6457e08280a380f35b50346101cd57602080600319360112610dfc577fc118d94973a304abcd8e14e20e459d7aea61d380847a0070bcdf945a0b4a534190610ccf6119ff565b610cd7611a15565b60018060a01b0380911660025490806001600160601b0360a01b831617600255827f0000000000000000000000000000000000000000000000000000000000000000166040519160008087850192878b63095ea7b360e01b98898752161617928360248701528119604487015260448652610d518661190c565b85519082865af1610d60611c4a565b81610dcc575b5080610dc2575b15610d85575b5050505060025416604051908152a180f35b610db993610db491604051918883015260248201526000604482015260448152610dae8161190c565b82611b52565b611b52565b38808080610d73565b50813b1515610d6d565b80518015925088908315610de4575b50505038610d66565b610df49350820181019101611b3a565b388781610ddb565b5080fd5b50346101cd57806003193601126101cd576020600354604051908152f35b50346101cd57806003193601126101cd5760ff6020915460a01c166040519015158152f35b50346101cd57806003193601126101cd576020600554604051908152f35b50346101cd57610ec3602061010092610e793661199d565b9060e0604051610e88816118ef565b82815282858201528260408201528260608201528260808201528260a08201528260c0820152015281604051938285809451938492016119dc565b8101600681520301902060e060405191610edc836118ef565b8054928381526001820154602082019081526002830154926040830193845260038101546060840164ffffffffff8083168252608086019160018060a01b0397889687809660281c16855260ff60058760048a0154169860a08c01998a5201549b8a8860c08f9d019c168c52019b60a01c1615158b526040519b8c525160208c01525160408b01525116606089015251166080870152511660a0850152511660c083015251151560e0820152f35b50346101cd5760203660031901126101cd576004359067ffffffffffffffff808311610dfc5736602384011215610dfc578260040135116101cd57366024836004013560051b840101116101cd57610fe0611ae4565b8160040135158015611696575b6116845780915b8060040135831061100757506001805580f35b61102361101c84836004013560248501611d3c565b3691611966565b9260405160208186516110398183858b016119dc565b8101600681520301902060405190611050826118ef565b80548083526001820154602084015260028201546040840152600382015464ffffffffff8116606085015260281c6001600160a01b0390811660808501526004830154811660a0808601919091526005939093015490811660c085015290911c60ff16151560e083015215611672574264ffffffffff606083015116116116605760a0810151608082015160c083015183516020808601516040870151929a6001600160a01b03958616979096909594851694169290918a9060059061111e8b60048e013560248f01611d3c565b919082604051938492833781016006815203019020828155826001820155826002820155826003820155826004820155015560405190635d043b2960e11b825260048201523060248201523060448201526020816064818d60018060a01b037f0000000000000000000000000000000000000000000000000000000000000000165af180156116555761162a575b506111b5611e63565b6040516370a0823160e01b81523060048201526020816024817f00000000000000000000000000000000000000000000000000000000000000006001600160a01b03165afa9081156114f2578b916115f8575b507f00000000000000000000000000000000000000000000000000000000000000006001600160a01b03163b156114fd5760405163f3fef3a360e01b81526001600160a01b037f000000000000000000000000000000000000000000000000000000000000000016600482015260248101919091528a8180604481010381837f00000000000000000000000000000000000000000000000000000000000000006001600160a01b03165af180156114f2578b84928e926115de575b50506105c0906105c06112d8946105c0611e63565b9661ffff60025460a81c169488868102048614891517156115ca5760e001518b90151560010361150157506002546001600160a01b0316803b156114fd5760405163c219a14d60e01b81527f00000000000000000000000000000000000000000000000000000000000000006001600160a01b0316600482015260248101859052604481018d905260c06064820152908b90829081838161137c60c482018e611d17565b8960848301528b60a483015203925af180156114f257908b916114da575b50508796959361271093869360017f3c77ae279df37c7ea5dd3a57f101c57dac95417ce9c24279d6ec87d9399c82d794611425886114d29b7fa5ed23d5ebdea6438acd5b68a3befbb14c431a7a8f221448bfb708ab8a408e9f9f5b02048c848060a01b037f000000000000000000000000000000000000000000000000000000000000000016611d94565b019d60405193849360018060a01b037f000000000000000000000000000000000000000000000000000000000000000016855260208501526040840152606083015260c0608083015261147b60c0830188611d17565b9060a08301520390a160405195869560018060a01b037f0000000000000000000000000000000000000000000000000000000000000000168752602087015202046040840152608060608401526080830190611d17565b0390a1610ff4565b6114e3906118db565b6114ee57893861139a565b8980fd5b6040513d8d823e3d90fd5b8a80fd5b9383869360017f3c77ae279df37c7ea5dd3a57f101c57dac95417ce9c24279d6ec87d9399c82d7946114256127106114d29b7fa5ed23d5ebdea6438acd5b68a3befbb14c431a7a8f221448bfb708ab8a408e9f9f9e9d9b8f9061158d90849d888060a01b037f000000000000000000000000000000000000000000000000000000000000000016611d94565b86156113f5576115c5878a888060a01b037f000000000000000000000000000000000000000000000000000000000000000016611d94565b6113f5565b634e487b7160e01b8b52601160045260248bfd5b9092506115eb91506118db565b6114ee57818b8b386112c3565b90506020813d602011611622575b8161161360209383611928565b8101031261027d575138611208565b3d9150611606565b602090813d831161164e575b6116408183611928565b8101031261027d57386111ac565b503d611636565b6040513d8c823e3d90fd5b604051631db89f5b60e11b8152600490fd5b604051632a313f9360e01b8152600490fd5b604051634ec4810560e11b8152600490fd5b5060ff60025460a01c16826004013511610fed565b50346101cd576101006116d560206116c23661199d565b81604051938285809451938492016119dc565b8101600681520301902060ff81549160018101549060028101549060038101549160018060a01b03928391600583600486015416940154956040519889526020890152604088015264ffffffffff8116606088015260281c16608086015260a0850152811660c084015260a01c16151560e0820152f35b50346101cd57806003193601126101cd57611765611a15565b805481906001600160a01b03908116907f000000000000000000000000000000000000000000000000000000000000000016803b156117d25760248392604051948593849263144c5ebf60e31b845260048401525af18015610884576117c9575080f35b61024d906118db565b5050fd5b50346101cd57806003193601126101cd576117ef611a15565b805460ff8160a01c16156118355760ff60a01b191681556040513381527f5db9ee0a495bf2e6ff9c91a7834c1ba4fdd244a5e8aa4e537bd38aeae4b073aa90602090a180f35b60405162461bcd60e51b815260206004820152601460248201527314185d5cd8589b194e881b9bdd081c185d5cd95960621b6044820152606490fd5b50346101cd57806003193601126101cd576020600454604051908152f35b50346101cd57806003193601126101cd576002546040516001600160a01b039091168152602090f35b905034610dfc5781600319360112610dfc5760209061ffff60025460a81c168152f35b67ffffffffffffffff811161098657604052565b610100810190811067ffffffffffffffff82111761098657604052565b6080810190811067ffffffffffffffff82111761098657604052565b90601f8019910116810190811067ffffffffffffffff82111761098657604052565b67ffffffffffffffff811161098657601f01601f191660200190565b9291926119728261194a565b916119806040519384611928565b82948184528183011161027d578281602093846000960137010152565b602060031982011261027d576004359067ffffffffffffffff821161027d578060238301121561027d578160246119d993600401359101611966565b90565b60005b8381106119ef5750506000910152565b81810151838201526020016119df565b600435906001600160a01b038216820361027d57565b6000546001600160a01b03163303611a2957565b606460405162461bcd60e51b815260206004820152602060248201527f4f776e61626c653a2063616c6c6572206973206e6f7420746865206f776e65726044820152fd5b91908201809211611a7a57565b634e487b7160e01b600052601160045260246000fd5b91908203918211611a7a57565b60ff60005460a01c16611aac57565b60405162461bcd60e51b815260206004820152601060248201526f14185d5cd8589b194e881c185d5cd95960821b6044820152606490fd5b600260015414611af5576002600155565b60405162461bcd60e51b815260206004820152601f60248201527f5265656e7472616e637947756172643a207265656e7472616e742063616c6c006044820152606490fd5b9081602091031261027d5751801515810361027d5790565b60408051908101916001600160a01b031667ffffffffffffffff83118284101761098657611bc2926040526000806020958685527f5361666545524332303a206c6f772d6c6576656c2063616c6c206661696c656487860152868151910182855af1611bbc611c4a565b91611c7a565b805190828215928315611c32575b50505015611bdb5750565b6084906040519062461bcd60e51b82526004820152602a60248201527f5361666545524332303a204552433230206f7065726174696f6e20646964206e6044820152691bdd081cdd58d8d9595960b21b6064820152fd5b611c429350820181019101611b3a565b388281611bd0565b3d15611c75573d90611c5b8261194a565b91611c696040519384611928565b82523d6000602084013e565b606090565b91929015611cdc5750815115611c8e575090565b3b15611c975790565b60405162461bcd60e51b815260206004820152601d60248201527f416464726573733a2063616c6c20746f206e6f6e2d636f6e74726163740000006044820152606490fd5b825190915015611cef5750805190602001fd5b60405162461bcd60e51b815260206004820152908190611d13906024830190611d17565b0390fd5b90602091611d30815180928185528580860191016119dc565b601f01601f1916010190565b9190811015611d7e5760051b81013590601e198136030182121561027d57019081359167ffffffffffffffff831161027d57602001823603811361027d579190565b634e487b7160e01b600052603260045260246000fd5b60405163a9059cbb60e01b60208201526001600160a01b03929092166024830152604480830193909352918152611dd091610db4606483611928565b565b6040516370a0823160e01b81523060048201526020816024817f00000000000000000000000000000000000000000000000000000000000000006001600160a01b03165afa908115611e5757600091611e29575090565b906020823d8211611e4f575b81611e4260209383611928565b810103126101cd57505190565b3d9150611e35565b6040513d6000823e3d90fd5b6040516370a0823160e01b81523060048201526020816024817f00000000000000000000000000000000000000000000000000000000000000006001600160a01b03165afa908115611e5757600091611e2957509056fea26469706673582212204e24bcb824fb47c745681f6a73a910ded29d740bff2b6d0a1a6b5fdcdd3fba3664736f6c63430008130033","linkReferences":{}},"methodIdentifiers":{"ERC20FeeProxyAddress()":"24c20740","baseAsset()":"cdf456e1","claimBaseAssetBalance()":"ed19fa84","claimCompRewards()":"45107cae","contractFeeModifier()":"1949b25c","getMapping(bytes)":"5738e818","maxDueDateParameter()":"3d1d15bf","maxPayoutArraySize()":"c11e2846","minDueDateParameter()":"616212ba","minTotalAmountParameter()":"58911397","owner()":"8da5cb5b","pause()":"8456cb59","paused()":"5c975abb","payInvoiceERC20(address,address,uint40,uint256,uint256,bytes,bool)":"c825a741","payOutERC20Invoice(bytes[])":"4beb2a1e","paymentMapping(bytes)":"46778635","renounceOwnership()":"715018a6","setContractParameters(uint16,uint256,uint256,uint256,uint8)":"8c4c7e04","setERC20FeeProxy(address)":"6e2f87f3","transferOwnership(address)":"f2fde38b","unpause()":"3f4ba83a"},"id":30}