{"abi":[{"type":"constructor","inputs":[{"name":"_cometAddress","type":"address","internalType":"address"},{"name":"_wrapperAddress","type":"address","internalType":"address"},{"name":"_contractFeeModifier","type":"uint16","internalType":"uint16"},{"name":"_minDueDateParameter","type":"uint256","internalType":"uint256"},{"name":"_maxDueDateParameter","type":"uint256","internalType":"uint256"},{"name":"_minTotalAmountParameter","type":"uint256","internalType":"uint256"},{"name":"_maxPayoutArraySize","type":"uint8","internalType":"uint8"}],"stateMutability":"nonpayable"},{"type":"function","name":"ERC20FeeProxyAddress","inputs":[],"outputs":[{"name":"","type":"address","internalType":"address"}],"stateMutability":"view"},{"type":"function","name":"baseAsset","inputs":[],"outputs":[{"name":"","type":"address","internalType":"address"}],"stateMutability":"view"},{"type":"function","name":"claimBaseAssetBalance","inputs":[],"outputs":[],"stateMutability":"nonpayable"},{"type":"function","name":"claimCompRewards","inputs":[],"outputs":[],"stateMutability":"nonpayable"},{"type":"function","name":"contractFeeModifier","inputs":[],"outputs":[{"name":"","type":"uint16","internalType":"uint16"}],"stateMutability":"view"},{"type":"function","name":"getMapping","inputs":[{"name":"_paymentReference","type":"bytes","internalType":"bytes"}],"outputs":[{"name":"","type":"tuple","internalType":"struct Paytr.PaymentERC20","components":[{"name":"amount","type":"uint256","internalType":"uint256"},{"name":"feeAmount","type":"uint256","internalType":"uint256"},{"name":"wrapperSharesReceived","type":"uint256","internalType":"uint256"},{"name":"dueDate","type":"uint40","internalType":"uint40"},{"name":"payer","type":"address","internalType":"address"},{"name":"payee","type":"address","internalType":"address"},{"name":"feeAddress","type":"address","internalType":"address"},{"name":"shouldPayoutViaRequestNetwork","type":"bool","internalType":"bool"}]}],"stateMutability":"view"},{"type":"function","name":"maxDueDateParameter","inputs":[],"outputs":[{"name":"","type":"uint256","internalType":"uint256"}],"stateMutability":"view"},{"type":"function","name":"maxPayoutArraySize","inputs":[],"outputs":[{"name":"","type":"uint8","internalType":"uint8"}],"stateMutability":"view"},{"type":"function","name":"minDueDateParameter","inputs":[],"outputs":[{"name":"","type":"uint256","internalType":"uint256"}],"stateMutability":"view"},{"type":"function","name":"minTotalAmountParameter","inputs":[],"outputs":[{"name":"","type":"uint256","internalType":"uint256"}],"stateMutability":"view"},{"type":"function","name":"owner","inputs":[],"outputs":[{"name":"","type":"address","internalType":"address"}],"stateMutability":"view"},{"type":"function","name":"pause","inputs":[],"outputs":[],"stateMutability":"nonpayable"},{"type":"function","name":"paused","inputs":[],"outputs":[{"name":"","type":"bool","internalType":"bool"}],"stateMutability":"view"},{"type":"function","name":"payInvoiceERC20","inputs":[{"name":"_payee","type":"address","internalType":"address"},{"name":"_feeAddress","type":"address","internalType":"address"},{"name":"_dueDate","type":"uint40","internalType":"uint40"},{"name":"_amount","type":"uint256","internalType":"uint256"},{"name":"_feeAmount","type":"uint256","internalType":"uint256"},{"name":"_paymentReference","type":"bytes","internalType":"bytes"},{"name":"_shouldPayoutViaRequestNetwork","type":"bool","internalType":"bool"}],"outputs":[],"stateMutability":"nonpayable"},{"type":"function","name":"payOutERC20Invoice","inputs":[{"name":"payoutReferencesArray","type":"bytes[]","internalType":"bytes[]"}],"outputs":[],"stateMutability":"nonpayable"},{"type":"function","name":"paymentMapping","inputs":[{"name":"","type":"bytes","internalType":"bytes"}],"outputs":[{"name":"amount","type":"uint256","internalType":"uint256"},{"name":"feeAmount","type":"uint256","internalType":"uint256"},{"name":"wrapperSharesReceived","type":"uint256","internalType":"uint256"},{"name":"dueDate","type":"uint40","internalType":"uint40"},{"name":"payer","type":"address","internalType":"address"},{"name":"payee","type":"address","internalType":"address"},{"name":"feeAddress","type":"address","internalType":"address"},{"name":"shouldPayoutViaRequestNetwork","type":"bool","internalType":"bool"}],"stateMutability":"view"},{"type":"function","name":"renounceOwnership","inputs":[],"outputs":[],"stateMutability":"nonpayable"},{"type":"function","name":"setContractParameters","inputs":[{"name":"_contractFeeModifier","type":"uint16","internalType":"uint16"},{"name":"_minDueDateParameter","type":"uint256","internalType":"uint256"},{"name":"_maxDueDateParameter","type":"uint256","internalType":"uint256"},{"name":"_minTotalAmountParameter","type":"uint256","internalType":"uint256"},{"name":"_maxPayoutArraySize","type":"uint8","internalType":"uint8"}],"outputs":[],"stateMutability":"nonpayable"},{"type":"function","name":"setERC20FeeProxy","inputs":[{"name":"_ERC20FeeProxyAddress","type":"address","internalType":"address"}],"outputs":[],"stateMutability":"nonpayable"},{"type":"function","name":"transferOwnership","inputs":[{"name":"newOwner","type":"address","internalType":"address"}],"outputs":[],"stateMutability":"nonpayable"},{"type":"function","name":"unpause","inputs":[],"outputs":[],"stateMutability":"nonpayable"},{"type":"event","name":"ContractParametersUpdatedEvent","inputs":[{"name":"contractFeeModifier","type":"uint16","indexed":false,"internalType":"uint16"},{"name":"minDueDateParameter","type":"uint256","indexed":false,"internalType":"uint256"},{"name":"maxDueDateParameter","type":"uint256","indexed":false,"internalType":"uint256"},{"name":"minTotalAmount","type":"uint256","indexed":false,"internalType":"uint256"},{"name":"maxPayoutArraySize","type":"uint8","indexed":false,"internalType":"uint8"}],"anonymous":false},{"type":"event","name":"InterestPayoutEvent","inputs":[{"name":"tokenAddress","type":"address","indexed":false,"internalType":"address"},{"name":"payee","type":"address","indexed":false,"internalType":"address"},{"name":"interestAmount","type":"uint256","indexed":false,"internalType":"uint256"},{"name":"paymentReference","type":"bytes","indexed":false,"internalType":"bytes"}],"anonymous":false},{"type":"event","name":"OwnershipTransferred","inputs":[{"name":"previousOwner","type":"address","indexed":true,"internalType":"address"},{"name":"newOwner","type":"address","indexed":true,"internalType":"address"}],"anonymous":false},{"type":"event","name":"Paused","inputs":[{"name":"account","type":"address","indexed":false,"internalType":"address"}],"anonymous":false},{"type":"event","name":"PayOutERC20Event","inputs":[{"name":"tokenAddress","type":"address","indexed":false,"internalType":"address"},{"name":"payee","type":"address","indexed":false,"internalType":"address"},{"name":"feeAddress","type":"address","indexed":false,"internalType":"address"},{"name":"amount","type":"uint256","indexed":false,"internalType":"uint256"},{"name":"paymentReference","type":"bytes","indexed":false,"internalType":"bytes"},{"name":"feeAmount","type":"uint256","indexed":false,"internalType":"uint256"}],"anonymous":false},{"type":"event","name":"PaymentERC20Event","inputs":[{"name":"tokenAddress","type":"address","indexed":false,"internalType":"address"},{"name":"payee","type":"address","indexed":false,"internalType":"address"},{"name":"feeAddress","type":"address","indexed":false,"internalType":"address"},{"name":"amount","type":"uint256","indexed":false,"internalType":"uint256"},{"name":"dueDate","type":"uint40","indexed":false,"internalType":"uint40"},{"name":"feeAmount","type":"uint256","indexed":false,"internalType":"uint256"},{"name":"paymentReference","type":"bytes","indexed":false,"internalType":"bytes"}],"anonymous":false},{"type":"event","name":"Unpaused","inputs":[{"name":"account","type":"address","indexed":false,"internalType":"address"}],"anonymous":false},{"type":"event","name":"setERC20FeeProxyEvent","inputs":[{"name":"ERC20FeeProxyAddress","type":"address","indexed":false,"internalType":"address"}],"anonymous":false},{"type":"error","name":"DueDateNotAllowed","inputs":[]},{"type":"error","name":"DueDateNotZero","inputs":[]},{"type":"error","name":"InvalidArrayLength","inputs":[]},{"type":"error","name":"InvalidContractFeeModifier","inputs":[]},{"type":"error","name":"InvalidFeeAmount","inputs":[]},{"type":"error","name":"InvalidFeeAmountMultiplier","inputs":[]},{"type":"error","name":"InvalidMaxArraySize","inputs":[]},{"type":"error","name":"InvalidMaxDueDate","inputs":[]},{"type":"error","name":"InvalidMinAmount","inputs":[]},{"type":"error","name":"InvalidMinDueDate","inputs":[]},{"type":"error","name":"InvalidNewDueDate","inputs":[]},{"type":"error","name":"InvalidTotalAmount","inputs":[]},{"type":"error","name":"NoPrePayment","inputs":[]},{"type":"error","name":"NotAuthorized","inputs":[]},{"type":"error","name":"PaymentReferenceInUse","inputs":[]},{"type":"error","name":"ReferenceNotDue","inputs":[]},{"type":"error","name":"ZeroFeeAddress","inputs":[]},{"type":"error","name":"ZeroPayeeAddress","inputs":[]}],"bytecode":{"object":"0x60e060409080825234620002d55760e081620022a68038038091620000258285620002da565b833981010312620002d5576200003b8162000314565b906200004a6020820162000314565b918382015161ffff81168103620002d557606083015160808401519360c060a08201519101519060ff82168203620002d5576000958695602087549160048c518094819360018060a01b039c8d92338482167f8be0079c531659141344cd1fd0a4f28419497f9722a3daafe3b4186f6b6457e08480a36001600160a81b0319163360ff60a01b19161790556001805560c081905263c55dae6360e01b8352165afa908115620002cb57889162000286575b506080528760a0526002549360035560045560055560ff60a01b9060a01b169161ffff60a81b9060a81b169062ffffff60a01b191617176002558060c0511692833b1562000282579060448392838751968794859363110496e560e01b8552166004840152600160248401525af18015620002765762000248575b8251611f7c90816200032a8239608051818181610209015281816102ab01528181610443015281816104d2015281816105620152818161076f015281816108ee0152818161092401528181610cf7015281816112f60152818161143201528181611478015281816114ae015281816115120152818161156d015281816115b60152611f0a015260a0518181816105e7015281816112240152611862015260c05181818161048201528181610524015281816108a201528181611275015281816112b10152818161132e0152611e790152f35b6001600160401b0382116200026257508152388062000176565b634e487b7160e01b81526041600452602490fd5b508251903d90823e3d90fd5b8280fd5b90506020813d8211620002c2575b81620002a360209383620002da565b81010312620002be57620002b79062000314565b38620000fb565b8780fd5b3d915062000294565b8a513d8a823e3d90fd5b600080fd5b601f909101601f19168101906001600160401b03821190821017620002fe57604052565b634e487b7160e01b600052604160045260246000fd5b51906001600160a01b0382168203620002d55756fe60e080604052600436101561001357600080fd5b600090813560e01c9081631949b25c146119a35750806324c207401461197a5780633d1d15bf1461195c5780633f4ba83a146118c157806345107cae1461183757806346778635146117965780634beb2a1e14610f875780635738e81814610e5e5780635891139714610e405780635c975abb14610e1b578063616212ba14610dfd5780636e2f87f314610c8f578063715018a614610c355780638456cb5914610bd45780638c4c7e0414610a6f5780638da5cb5b14610a48578063c11e284614610a24578063c825a741146102da578063cdf456e114610295578063ed19fa84146101d05763f2fde38b1461010857600080fd5b346101cd5760203660031901126101cd57610121611ae4565b610129611afa565b6001600160a01b0390811690811561017957600054826001600160601b0360a01b821617600055167f8be0079c531659141344cd1fd0a4f28419497f9722a3daafe3b4186f6b6457e0600080a380f35b60405162461bcd60e51b815260206004820152602660248201527f4f776e61626c653a206e6577206f776e657220697320746865207a65726f206160448201526564647265737360d01b6064820152608490fd5b80fd5b50346101cd57806003193601126101cd576101e9611afa565b80546040516370a0823160e01b8152306004820152906001600160a01b037f000000000000000000000000000000000000000000000000000000000000000081169116602083602481855afa91821561028a578492610250575b61024d9350611e20565b80f35b91506020833d8211610282575b8161026a60209383611a10565b8101031261027d5761024d925191610243565b600080fd5b3d915061025d565b6040513d86823e3d90fd5b50346101cd57806003193601126101cd576040517f00000000000000000000000000000000000000000000000000000000000000006001600160a01b03168152602090f35b50346101cd5760e03660031901126101cd576102f4611ae4565b602435906001600160a01b038216820361027d5760443564ffffffffff81168103610a205760a435906001600160401b038211610a1c5736602383011215610a1c576001600160401b03826004013511610a1c57366024836004013584010111610a1c5760c4358015158103610a185761036c611bc9565b610374611b82565b604051836004013560248501823760066004850135820190815281900360200190206103a4608435606435611b52565b906001600160a01b03861615610a06576001600160a01b038716156109f157546109df5760055481106109cd5764ffffffffff6103e360035442611b52565b1664ffffffffff84161080156109ab575b610999576040516323b872dd60e01b6020820152336024820152306044820152816064820152606481528060a08101106001600160401b0360a0830111176109835760a08101604052610470907f00000000000000000000000000000000000000000000000000000000000000006001600160a01b0316611c37565b60405163095ea7b360e01b60208201527f00000000000000000000000000000000000000000000000000000000000000006001600160a01b03166024820152604480820183905281526104c4606482611a10565b8051600090819060208401827f00000000000000000000000000000000000000000000000000000000000000006001600160a01b03165af1610504611d2e565b81610954575b5080610921575b15610890575b5086610521611e5e565b917f00000000000000000000000000000000000000000000000000000000000000006001600160a01b0316803b1561088c57604051631e573fb760e31b81527f00000000000000000000000000000000000000000000000000000000000000006001600160a01b03166004820152602481019290925282908290604490829084905af1801561088157610869575b50506105c2906105bd611e5e565b611b75565b604051636e553f6560e01b81526004810191909152306024820152906020826044818a7f00000000000000000000000000000000000000000000000000000000000000006001600160a01b03165af191821561085e578792610804575b509464ffffffffff92917f160b9883c8416d313cc749bc5858db361276143105365a035258beace5bf3b3e9660405191610658836119d9565b6064358352608435602084015260408084019190915284861660608401523360808401526001600160a01b0388811660a0850152841660c084015290151560e0830152516005906004870135602488018237602081886004013581016006815203019020825181556020830151600182015560408301516002820155600381018660608501511681549065010000000000600160c81b03608087015160281b169166ffffffffffffff60c81b16171790556004810160018060a01b0360a0850151166001600160601b0360a01b825416179055019060018060a01b0360c08201511682549160e060ff60a01b910151151560a01b16916affffffffffffffffffffff60a81b16171790556040519460018060a01b037f000000000000000000000000000000000000000000000000000000000000000016865260018060a01b0316602086015260018060a01b03166040850152606435606085015216608083015260843560a083015260e060c0830152806004013560e0830152816101009180600401356024820184840137600401358181018301869052601f01601f19168101030190a16001805580f35b929150946020833d602011610856575b8161082160209383611a10565b8101031261027d57915191949091907f160b9883c8416d313cc749bc5858db361276143105365a035258beace5bf3b3e61061f565b3d9150610814565b6040513d89823e3d90fd5b610872906119c6565b61087d5786386105af565b8680fd5b6040513d84823e3d90fd5b8280fd5b60405163095ea7b360e01b60208201527f00000000000000000000000000000000000000000000000000000000000000006001600160a01b031660248201526000604480830191909152815261091b91906108ec9081816119f5565b7f00000000000000000000000000000000000000000000000000000000000000006001600160a01b0316611c37565b38610517565b507f00000000000000000000000000000000000000000000000000000000000000006001600160a01b03163b1515610511565b8051801592508215610969575b50503861050a565b61097c9250602080918301019101611c1f565b3880610961565b634e487b7160e01b600052604160045260246000fd5b6040516354ad112d60e11b8152600490fd5b5064ffffffffff6109be60045442611b52565b1664ffffffffff8416116103f4565b6040516324204a3560e21b8152600490fd5b604051630a685b0f60e41b8152600490fd5b604051600162287bad60e01b03198152600490fd5b604051631781d75760e01b8152600490fd5b8580fd5b8480fd5b8380fd5b50346101cd57806003193601126101cd57602060ff60025460a01c16604051908152f35b50346101cd57806003193601126101cd57546040516001600160a01b039091168152602090f35b50346101cd5760a03660031901126101cd5761ffff60043581811691828203610a205760243592604435936064356084359260ff841690818503610bd057610ab5611afa565b6113888110908115610bc4575b50610bb257620697808310610ba0576301e133808711610b8e5760018210610b7c5715610b6a577f7e2c6359e276662df7728b39a0ad6d74d0333c402835ac343a5208bbf5a23d549560a09560ff946002549085600355836004558460055586891b90891b169161ffff60a81b9060a81b169062ffffff891b191617179283600255604051958460a81c168652602086015260408501526060840152831c166080820152a180f35b60405163f39d15db60e01b8152600490fd5b604051639c68554f60e01b8152600490fd5b6040516329efbf6360e21b8152600490fd5b60405163f57c57d360e01b8152600490fd5b604051637b4a552360e11b8152600490fd5b61271091501138610ac2565b8880fd5b50346101cd57806003193601126101cd57610bed611afa565b610bf5611b82565b805460ff60a01b1916600160a01b1781556040513381527f62e78cea01bee320cd4e420270b5ea74000d11b0c9f74754ebdbfc544b05a25890602090a180f35b50346101cd57806003193601126101cd57610c4e611afa565b600080546001600160a01b0319811682556001600160a01b03167f8be0079c531659141344cd1fd0a4f28419497f9722a3daafe3b4186f6b6457e08280a380f35b50346101cd57602080600319360112610df9577fc118d94973a304abcd8e14e20e459d7aea61d380847a0070bcdf945a0b4a534190610ccc611ae4565b610cd4611afa565b60018060a01b0380911660025490806001600160601b0360a01b831617600255827f0000000000000000000000000000000000000000000000000000000000000000166040519160008087850192878b63095ea7b360e01b98898752161617928360248701528119604487015260448652610d4e866119f5565b85519082865af1610d5d611d2e565b81610dc9575b5080610dbf575b15610d82575b5050505060025416604051908152a180f35b610db693610db191604051918883015260248201526000604482015260448152610dab816119f5565b82611c37565b611c37565b38808080610d70565b50813b1515610d6a565b80518015925088908315610de1575b50505038610d63565b610df19350820181019101611c1f565b388781610dd8565b5080fd5b50346101cd57806003193601126101cd576020600354604051908152f35b50346101cd57806003193601126101cd5760ff6020915460a01c166040519015158152f35b50346101cd57806003193601126101cd576020600554604051908152f35b50346101cd57610ec0602061010092610e7636611a83565b9060e0604051610e85816119d9565b82815282858201528260408201528260608201528260808201528260a08201528260c082015201528160405193828580945193849201611ac1565b8101600681520301902060e060405191610ed9836119d9565b8054928381526001820154602082019081526002830154926040830193845260038101546060840164ffffffffff8083168252608086019160018060a01b0397889687809660281c16855260ff60058760048a0154169860a08c01998a5201549b8a8860c08f9d019c168c52019b60a01c1615158b526040519b8c525160208c01525160408b01525116606089015251166080870152511660a0850152511660c083015251151560e0820152f35b50346101cd5760203660031901126101cd576001600160401b03600435116101cd573660236004350112156101cd576001600160401b0360043560040135116101cd573660246004356004013560051b6004350101116101cd57610fe9611bc9565b6004356004013515801561177f575b61176d57805b60043560040135811061101357506001805580f35b60248160051b60043501013560421960043536030181121561088c57600435016024810135906001600160401b038211610a20576044018136038113610a205761105e913691611a4c565b60405160208183516110738183858801611ac1565b81016006815203019020541561175b5760405164ffffffffff6003835161109e818560208801611ac1565b830192600684526020814295030190200154161161174957604051600482516110cb818460208701611ac1565b8201916006835260208160018060a01b03940301902001541691604051600383516110fa818460208801611ac1565b8201916006835260208160018060a01b039403019020015460281c166080526040516005835161112e818460208801611ac1565b8201916006835260208160018060a01b03940301902001541660a052604051602081845161115f8183858901611ac1565b810160068152030190205491600160405160208184516111828183858901611ac1565b600681830152810103019020015492600260405160208185516111a88183858a01611ac1565b600681830152810103019020015486600560405160208187516111ce8183858c01611ac1565b81016006815203019020828155826001820155826002820155826003820155826004820155015560405190635d043b2960e11b825260048201523060248201523060448201526020816064818a60018060a01b037f0000000000000000000000000000000000000000000000000000000000000000165af1801561085e5761171e575b5061125a611eef565b6040516370a0823160e01b81523060048201526020816024817f00000000000000000000000000000000000000000000000000000000000000006001600160a01b03165afa9081156117135788916116e1575b50877f00000000000000000000000000000000000000000000000000000000000000006001600160a01b03163b156101cd5760405163f3fef3a360e01b81526001600160a01b037f000000000000000000000000000000000000000000000000000000000000000016600482015260248101929092528180604481010381837f00000000000000000000000000000000000000000000000000000000000000006001600160a01b03165af18881156116d557879285926116bb575b50506105bd906105bd61137d946105bd611eef565b928360c052600254938061ffff8660a81c1681020461ffff8660a81c1614901517156116a75760ff600560405160208187516113bc8183858c01611ac1565b81016006815203019020015460a01c161560001461159757916080827f3c77ae279df37c7ea5dd3a57f101c57dac95417ce9c24279d6ec87d9399c82d77fa5ed23d5ebdea6438acd5b68a3befbb14c431a7a8f221448bfb708ab8a408e9f97600161ffff9897611457611556988d848060a01b037f000000000000000000000000000000000000000000000000000000000000000016611e20565b8261155e575b61149d6127108b8b60a81c1660c05102048751848060a01b037f000000000000000000000000000000000000000000000000000000000000000016611e20565b019960405191829160018060a01b037f0000000000000000000000000000000000000000000000000000000000000000168352602083015260a05160408301526060948583015260c0868301526114f760c0830188611dfb565b9060a08301520390a161271060405196879660018060a01b037f00000000000000000000000000000000000000000000000000000000000000001688528451602089015260a81c1660c051020460408601528401526080830190611dfb565b0390a1610ffe565b6115928360a051848060a01b037f000000000000000000000000000000000000000000000000000000000000000016611e20565b61145d565b6001600160a01b0384163b1561087d5760405163c219a14d60e01b81527f00000000000000000000000000000000000000000000000000000000000000006001600160a01b03166004820152602481018790526044810183905260c06064820152879081818061160a60c4820189611dfb565b608482018b905260a05160a48301520381836001600160a01b038b165af180156108815761168b575b5050916080611556927f3c77ae279df37c7ea5dd3a57f101c57dac95417ce9c24279d6ec87d9399c82d77fa5ed23d5ebdea6438acd5b68a3befbb14c431a7a8f221448bfb708ab8a408e9f97600161ffff989761145d565b6116999095949293956119c6565b61087d579192908638611633565b634e487b7160e01b87526011600452602487fd5b9092506116c891506119c6565b61087d5784828838611368565b604051903d90823e3d90fd5b90506020813d60201161170b575b816116fc60209383611a10565b8101031261027d5751386112ad565b3d91506116ef565b6040513d8a823e3d90fd5b602090813d8311611742575b6117348183611a10565b8101031261027d5738611251565b503d61172a565b604051631db89f5b60e11b8152600490fd5b604051632a313f9360e01b8152600490fd5b604051634ec4810560e11b8152600490fd5b5060ff60025460a01c166004356004013511610ff8565b50346101cd576101006117c060206117ad36611a83565b8160405193828580945193849201611ac1565b8101600681520301902060ff81549160018101549060028101549060038101549160018060a01b03928391600583600486015416940154956040519889526020890152604088015264ffffffffff8116606088015260281c16608086015260a0850152811660c084015260a01c16151560e0820152f35b50346101cd57806003193601126101cd57611850611afa565b805481906001600160a01b03908116907f000000000000000000000000000000000000000000000000000000000000000016803b156118bd5760248392604051948593849263144c5ebf60e31b845260048401525af18015610881576118b4575080f35b61024d906119c6565b5050fd5b50346101cd57806003193601126101cd576118da611afa565b805460ff8160a01c16156119205760ff60a01b191681556040513381527f5db9ee0a495bf2e6ff9c91a7834c1ba4fdd244a5e8aa4e537bd38aeae4b073aa90602090a180f35b60405162461bcd60e51b815260206004820152601460248201527314185d5cd8589b194e881b9bdd081c185d5cd95960621b6044820152606490fd5b50346101cd57806003193601126101cd576020600454604051908152f35b50346101cd57806003193601126101cd576002546040516001600160a01b039091168152602090f35b905034610df95781600319360112610df95760209061ffff60025460a81c168152f35b6001600160401b03811161098357604052565b61010081019081106001600160401b0382111761098357604052565b608081019081106001600160401b0382111761098357604052565b90601f801991011681019081106001600160401b0382111761098357604052565b6001600160401b03811161098357601f01601f191660200190565b929192611a5882611a31565b91611a666040519384611a10565b82948184528183011161027d578281602093846000960137010152565b602060031982011261027d57600435906001600160401b03821161027d578060238301121561027d57816024611abe93600401359101611a4c565b90565b60005b838110611ad45750506000910152565b8181015183820152602001611ac4565b600435906001600160a01b038216820361027d57565b6000546001600160a01b03163303611b0e57565b606460405162461bcd60e51b815260206004820152602060248201527f4f776e61626c653a2063616c6c6572206973206e6f7420746865206f776e65726044820152fd5b91908201809211611b5f57565b634e487b7160e01b600052601160045260246000fd5b91908203918211611b5f57565b60ff60005460a01c16611b9157565b60405162461bcd60e51b815260206004820152601060248201526f14185d5cd8589b194e881c185d5cd95960821b6044820152606490fd5b600260015414611bda576002600155565b60405162461bcd60e51b815260206004820152601f60248201527f5265656e7472616e637947756172643a207265656e7472616e742063616c6c006044820152606490fd5b9081602091031261027d5751801515810361027d5790565b60408051908101916001600160a01b03166001600160401b0383118284101761098357611ca6926040526000806020958685527f5361666545524332303a206c6f772d6c6576656c2063616c6c206661696c656487860152868151910182855af1611ca0611d2e565b91611d5e565b805190828215928315611d16575b50505015611cbf5750565b6084906040519062461bcd60e51b82526004820152602a60248201527f5361666545524332303a204552433230206f7065726174696f6e20646964206e6044820152691bdd081cdd58d8d9595960b21b6064820152fd5b611d269350820181019101611c1f565b388281611cb4565b3d15611d59573d90611d3f82611a31565b91611d4d6040519384611a10565b82523d6000602084013e565b606090565b91929015611dc05750815115611d72575090565b3b15611d7b5790565b60405162461bcd60e51b815260206004820152601d60248201527f416464726573733a2063616c6c20746f206e6f6e2d636f6e74726163740000006044820152606490fd5b825190915015611dd35750805190602001fd5b60405162461bcd60e51b815260206004820152908190611df7906024830190611dfb565b0390fd5b90602091611e1481518092818552858086019101611ac1565b601f01601f1916010190565b60405163a9059cbb60e01b60208201526001600160a01b03929092166024830152604480830193909352918152611e5c91610db1606483611a10565b565b6040516370a0823160e01b81523060048201526020816024817f00000000000000000000000000000000000000000000000000000000000000006001600160a01b03165afa908115611ee357600091611eb5575090565b906020823d8211611edb575b81611ece60209383611a10565b810103126101cd57505190565b3d9150611ec1565b6040513d6000823e3d90fd5b6040516370a0823160e01b81523060048201526020816024817f00000000000000000000000000000000000000000000000000000000000000006001600160a01b03165afa908115611ee357600091611eb557509056fea26469706673582212205cc35cdce4464dc76c629d82e814fe697a6c8da171e2590cc32023514d29155164736f6c63430008130033","linkReferences":{}},"methodIdentifiers":{"ERC20FeeProxyAddress()":"24c20740","baseAsset()":"cdf456e1","claimBaseAssetBalance()":"ed19fa84","claimCompRewards()":"45107cae","contractFeeModifier()":"1949b25c","getMapping(bytes)":"5738e818","maxDueDateParameter()":"3d1d15bf","maxPayoutArraySize()":"c11e2846","minDueDateParameter()":"616212ba","minTotalAmountParameter()":"58911397","owner()":"8da5cb5b","pause()":"8456cb59","paused()":"5c975abb","payInvoiceERC20(address,address,uint40,uint256,uint256,bytes,bool)":"c825a741","payOutERC20Invoice(bytes[])":"4beb2a1e","paymentMapping(bytes)":"46778635","renounceOwnership()":"715018a6","setContractParameters(uint16,uint256,uint256,uint256,uint8)":"8c4c7e04","setERC20FeeProxy(address)":"6e2f87f3","transferOwnership(address)":"f2fde38b","unpause()":"3f4ba83a"},"id":30}