{"abi":[{"type":"constructor","inputs":[{"name":"_cometAddress","type":"address","internalType":"address"},{"name":"_wrapperAddress","type":"address","internalType":"address"},{"name":"_contractFeeModifier","type":"uint16","internalType":"uint16"},{"name":"_minDueDateParameter","type":"uint256","internalType":"uint256"},{"name":"_maxDueDateParameter","type":"uint256","internalType":"uint256"},{"name":"_minTotalAmountParameter","type":"uint256","internalType":"uint256"},{"name":"_maxPayoutArraySize","type":"uint8","internalType":"uint8"}],"stateMutability":"nonpayable"},{"type":"function","name":"ERC20FeeProxyAddress","inputs":[],"outputs":[{"name":"","type":"address","internalType":"address"}],"stateMutability":"view"},{"type":"function","name":"baseAsset","inputs":[],"outputs":[{"name":"","type":"address","internalType":"address"}],"stateMutability":"view"},{"type":"function","name":"claimBaseAssetBalance","inputs":[],"outputs":[],"stateMutability":"nonpayable"},{"type":"function","name":"claimCompRewards","inputs":[],"outputs":[],"stateMutability":"nonpayable"},{"type":"function","name":"contractFeeModifier","inputs":[],"outputs":[{"name":"","type":"uint16","internalType":"uint16"}],"stateMutability":"view"},{"type":"function","name":"getMapping","inputs":[{"name":"_paymentReference","type":"bytes","internalType":"bytes"}],"outputs":[{"name":"","type":"tuple","internalType":"struct Paytr.PaymentERC20","components":[{"name":"amount","type":"uint256","internalType":"uint256"},{"name":"feeAmount","type":"uint256","internalType":"uint256"},{"name":"wrapperSharesReceived","type":"uint256","internalType":"uint256"},{"name":"dueDate","type":"uint40","internalType":"uint40"},{"name":"payer","type":"address","internalType":"address"},{"name":"payee","type":"address","internalType":"address"},{"name":"feeAddress","type":"address","internalType":"address"},{"name":"shouldPayoutViaRequestNetwork","type":"uint8","internalType":"uint8"}]}],"stateMutability":"view"},{"type":"function","name":"maxDueDateParameter","inputs":[],"outputs":[{"name":"","type":"uint256","internalType":"uint256"}],"stateMutability":"view"},{"type":"function","name":"maxPayoutArraySize","inputs":[],"outputs":[{"name":"","type":"uint8","internalType":"uint8"}],"stateMutability":"view"},{"type":"function","name":"minDueDateParameter","inputs":[],"outputs":[{"name":"","type":"uint256","internalType":"uint256"}],"stateMutability":"view"},{"type":"function","name":"minTotalAmountParameter","inputs":[],"outputs":[{"name":"","type":"uint256","internalType":"uint256"}],"stateMutability":"view"},{"type":"function","name":"owner","inputs":[],"outputs":[{"name":"","type":"address","internalType":"address"}],"stateMutability":"view"},{"type":"function","name":"pause","inputs":[],"outputs":[],"stateMutability":"nonpayable"},{"type":"function","name":"paused","inputs":[],"outputs":[{"name":"","type":"bool","internalType":"bool"}],"stateMutability":"view"},{"type":"function","name":"payInvoiceERC20","inputs":[{"name":"_payee","type":"address","internalType":"address"},{"name":"_feeAddress","type":"address","internalType":"address"},{"name":"_dueDate","type":"uint40","internalType":"uint40"},{"name":"_amount","type":"uint256","internalType":"uint256"},{"name":"_feeAmount","type":"uint256","internalType":"uint256"},{"name":"_paymentReference","type":"bytes","internalType":"bytes"},{"name":"_shouldPayoutViaRequestNetwork","type":"uint8","internalType":"uint8"}],"outputs":[],"stateMutability":"nonpayable"},{"type":"function","name":"payOutERC20Invoice","inputs":[{"name":"payoutReferencesArray","type":"bytes[]","internalType":"bytes[]"}],"outputs":[],"stateMutability":"nonpayable"},{"type":"function","name":"paymentMapping","inputs":[{"name":"","type":"bytes","internalType":"bytes"}],"outputs":[{"name":"amount","type":"uint256","internalType":"uint256"},{"name":"feeAmount","type":"uint256","internalType":"uint256"},{"name":"wrapperSharesReceived","type":"uint256","internalType":"uint256"},{"name":"dueDate","type":"uint40","internalType":"uint40"},{"name":"payer","type":"address","internalType":"address"},{"name":"payee","type":"address","internalType":"address"},{"name":"feeAddress","type":"address","internalType":"address"},{"name":"shouldPayoutViaRequestNetwork","type":"uint8","internalType":"uint8"}],"stateMutability":"view"},{"type":"function","name":"renounceOwnership","inputs":[],"outputs":[],"stateMutability":"nonpayable"},{"type":"function","name":"setContractParameters","inputs":[{"name":"_contractFeeModifier","type":"uint16","internalType":"uint16"},{"name":"_minDueDateParameter","type":"uint256","internalType":"uint256"},{"name":"_maxDueDateParameter","type":"uint256","internalType":"uint256"},{"name":"_minTotalAmountParameter","type":"uint256","internalType":"uint256"},{"name":"_maxPayoutArraySize","type":"uint8","internalType":"uint8"}],"outputs":[],"stateMutability":"nonpayable"},{"type":"function","name":"setERC20FeeProxy","inputs":[{"name":"_ERC20FeeProxyAddress","type":"address","internalType":"address"}],"outputs":[],"stateMutability":"nonpayable"},{"type":"function","name":"transferOwnership","inputs":[{"name":"newOwner","type":"address","internalType":"address"}],"outputs":[],"stateMutability":"nonpayable"},{"type":"function","name":"unpause","inputs":[],"outputs":[],"stateMutability":"nonpayable"},{"type":"event","name":"ContractParametersUpdatedEvent","inputs":[{"name":"contractFeeModifier","type":"uint16","indexed":false,"internalType":"uint16"},{"name":"minDueDateParameter","type":"uint256","indexed":false,"internalType":"uint256"},{"name":"maxDueDateParameter","type":"uint256","indexed":false,"internalType":"uint256"},{"name":"minTotalAmount","type":"uint256","indexed":false,"internalType":"uint256"},{"name":"maxPayoutArraySize","type":"uint8","indexed":false,"internalType":"uint8"}],"anonymous":false},{"type":"event","name":"InterestPayoutEvent","inputs":[{"name":"tokenAddress","type":"address","indexed":false,"internalType":"address"},{"name":"payee","type":"address","indexed":false,"internalType":"address"},{"name":"interestAmount","type":"uint256","indexed":false,"internalType":"uint256"},{"name":"paymentReference","type":"bytes","indexed":false,"internalType":"bytes"}],"anonymous":false},{"type":"event","name":"OwnershipTransferred","inputs":[{"name":"previousOwner","type":"address","indexed":true,"internalType":"address"},{"name":"newOwner","type":"address","indexed":true,"internalType":"address"}],"anonymous":false},{"type":"event","name":"Paused","inputs":[{"name":"account","type":"address","indexed":false,"internalType":"address"}],"anonymous":false},{"type":"event","name":"PayOutERC20Event","inputs":[{"name":"tokenAddress","type":"address","indexed":false,"internalType":"address"},{"name":"payee","type":"address","indexed":false,"internalType":"address"},{"name":"feeAddress","type":"address","indexed":false,"internalType":"address"},{"name":"amount","type":"uint256","indexed":false,"internalType":"uint256"},{"name":"paymentReference","type":"bytes","indexed":false,"internalType":"bytes"},{"name":"feeAmount","type":"uint256","indexed":false,"internalType":"uint256"}],"anonymous":false},{"type":"event","name":"PaymentERC20Event","inputs":[{"name":"tokenAddress","type":"address","indexed":false,"internalType":"address"},{"name":"payee","type":"address","indexed":false,"internalType":"address"},{"name":"feeAddress","type":"address","indexed":false,"internalType":"address"},{"name":"amount","type":"uint256","indexed":false,"internalType":"uint256"},{"name":"dueDate","type":"uint40","indexed":false,"internalType":"uint40"},{"name":"feeAmount","type":"uint256","indexed":false,"internalType":"uint256"},{"name":"paymentReference","type":"bytes","indexed":false,"internalType":"bytes"}],"anonymous":false},{"type":"event","name":"Unpaused","inputs":[{"name":"account","type":"address","indexed":false,"internalType":"address"}],"anonymous":false},{"type":"event","name":"setERC20FeeProxyEvent","inputs":[{"name":"ERC20FeeProxyAddress","type":"address","indexed":false,"internalType":"address"}],"anonymous":false},{"type":"error","name":"DueDateNotAllowed","inputs":[]},{"type":"error","name":"DueDateNotZero","inputs":[]},{"type":"error","name":"InvalidArrayLength","inputs":[]},{"type":"error","name":"InvalidContractFeeModifier","inputs":[]},{"type":"error","name":"InvalidFeeAmount","inputs":[]},{"type":"error","name":"InvalidFeeAmountMultiplier","inputs":[]},{"type":"error","name":"InvalidMaxArraySize","inputs":[]},{"type":"error","name":"InvalidMaxDueDate","inputs":[]},{"type":"error","name":"InvalidMinAmount","inputs":[]},{"type":"error","name":"InvalidMinDueDate","inputs":[]},{"type":"error","name":"InvalidNewDueDate","inputs":[]},{"type":"error","name":"InvalidTotalAmount","inputs":[]},{"type":"error","name":"NoPrePayment","inputs":[]},{"type":"error","name":"NotAuthorized","inputs":[]},{"type":"error","name":"PaymentReferenceInUse","inputs":[]},{"type":"error","name":"ReferenceNotDue","inputs":[]},{"type":"error","name":"ZeroFeeAddress","inputs":[]},{"type":"error","name":"ZeroPayeeAddress","inputs":[]}],"bytecode":{"object":"0x60e060409080825234620002db5760e0816200226b8038038091620000258285620002e0565b833981010312620002db576200003b816200031a565b62000049602083016200031a565b918381015161ffff81168103620002db57606082015160808301519260c060a08201519101519060ff82168203620002db5787946000966020886004815460018060a01b03809b519586948593338482167f8be0079c531659141344cd1fd0a4f28419497f9722a3daafe3b4186f6b6457e08480a36001600160a81b0319163360ff60a01b19161790556001805560c081905263c55dae6360e01b8352165afa908115620002d15788916200028b575b506080528760a0526002549360035560045560055560ff60a01b9060a01b169161ffff60a81b9060a81b169062ffffff60a01b191617176002558060c0511692833b1562000287579060448392838751968794859363110496e560e01b8552166004840152600160248401525af180156200027b576200024d575b8251611f3b9081620003308239608051818181610209015281816102ac015281816105dc0152818161066b015281816106fb0152818161090701528181610a8601528181610abc01528181610cd701528181611123015281816111f901528181611284015281816113270152818161141b01528181611453015281816114bb0152818161158c01526115cd015260a051818181610780015281816110da0152611818015260c05181818161061b015281816106bd01528181610a3a01528181611179015281816111b4015281816112320152611cb10152f35b6001600160401b0382116200026757508152388062000174565b634e487b7160e01b81526041600452602490fd5b508251903d90823e3d90fd5b8280fd5b90506020813d602011620002c8575b81620002a960209383620002e0565b81010312620002c457620002bd906200031a565b38620000f9565b8780fd5b3d91506200029a565b8a513d8a823e3d90fd5b600080fd5b601f909101601f19168101906001600160401b038211908210176200030457604052565b634e487b7160e01b600052604160045260246000fd5b51906001600160a01b0382168203620002db5756fe60e080604052600436101561001357600080fd5b600090813560e01c9081631949b25c146119595750806324c20740146119305780633d1d15bf146119125780633f4ba83a1461187757806345107cae146117ed578063467786351461174e5780634beb2a1e14610f695780635738e81814610e3e5780635891139714610e205780635c975abb14610dfb578063616212ba14610ddd5780636e2f87f314610c6f578063715018a614610c155780638456cb5914610bb4578063887d5d3d1461046f5780638c4c7e04146103265780638da5cb5b146102ff578063c11e2846146102db578063cdf456e114610296578063ed19fa84146101d05763f2fde38b1461010857600080fd5b346101cd5760203660031901126101cd57610121611aa0565b610129611b63565b6001600160a01b0390811690811561017957600054826001600160601b0360a01b821617600055167f8be0079c531659141344cd1fd0a4f28419497f9722a3daafe3b4186f6b6457e0600080a380f35b60405162461bcd60e51b815260206004820152602660248201527f4f776e61626c653a206e6577206f776e657220697320746865207a65726f206160448201526564647265737360d01b6064820152608490fd5b80fd5b50346101cd57806003193601126101cd576101e9611b63565b80546040516370a0823160e01b8152306004820152906001600160a01b037f000000000000000000000000000000000000000000000000000000000000000081169116602083602481855afa91821561028b578492610250575b61024d9350611c11565b80f35b91506020833d602011610283575b8161026b602093836119c9565b8101031261027e5761024d925191610243565b600080fd5b3d915061025e565b6040513d86823e3d90fd5b50346101cd57806003193601126101cd576040517f00000000000000000000000000000000000000000000000000000000000000006001600160a01b03168152602090f35b50346101cd57806003193601126101cd57602060ff60025460a01c16604051908152f35b50346101cd57806003193601126101cd57546040516001600160a01b039091168152602090f35b50346101cd5760a03660031901126101cd5761ffff6004358181169182820361046b5760243592604435936064356084359260ff84169081850361027e5761036c611b63565b611388811090811561045f575b5061044d576301e13380871161043b57600182106104295715610417577f7e2c6359e276662df7728b39a0ad6d74d0333c402835ac343a5208bbf5a23d549560a09560ff946002549085600355836004558460055586891b90891b169161ffff60a81b9060a81b169062ffffff891b191617179283600255604051958460a81c168652602086015260408501526060840152831c166080820152a180f35b60405163f39d15db60e01b8152600490fd5b604051639c68554f60e01b8152600490fd5b6040516329efbf6360e21b8152600490fd5b604051637b4a552360e11b8152600490fd5b61271091501138610379565b8380fd5b50346101cd5760e03660031901126101cd57610489611aa0565b602435906001600160a01b038216820361027e5760443564ffffffffff8116810361046b5760a4359067ffffffffffffffff8211610bb05736602383011215610bb05767ffffffffffffffff826004013511610bb057366024836004013584010111610bb05760c43560ff8116810361027e57610504611bbb565b61050c611c4f565b6040518360040135602485018237600660048501358201908152819003602001902061053c608435606435611b56565b906001600160a01b03861615610b9e576001600160a01b03871615610b895754610b77576005548110610b655764ffffffffff61057b60035442611b56565b1664ffffffffff8416108015610b43575b610b31576040516323b872dd60e01b6020820152336024820152306044820152816064820152606481528060a081011067ffffffffffffffff60a083011117610b1b5760a08101604052610609907f00000000000000000000000000000000000000000000000000000000000000006001600160a01b0316611d40565b60405163095ea7b360e01b60208201527f00000000000000000000000000000000000000000000000000000000000000006001600160a01b031660248201526044808201839052815261065d6064826119c9565b8051600090819060208401827f00000000000000000000000000000000000000000000000000000000000000006001600160a01b03165af161069d611e38565b81610aec575b5080610ab9575b15610a28575b50866106ba611c96565b917f00000000000000000000000000000000000000000000000000000000000000006001600160a01b0316803b15610a2457604051631e573fb760e31b81527f00000000000000000000000000000000000000000000000000000000000000006001600160a01b03166004820152602481019290925282908290604490829084905af18015610a1957610a01575b505061075b90610756611c96565b611b0e565b604051636e553f6560e01b81526004810191909152306024820152906020826044818a7f00000000000000000000000000000000000000000000000000000000000000006001600160a01b03165af19182156109f657879261099c575b509464ffffffffff929160ff7f160b9883c8416d313cc749bc5858db361276143105365a035258beace5bf3b3e97604051926107f384611990565b6064358452608435602085015260408085019190915285871660608501523360808501526001600160a01b0389811660a0860152851660c0850152911660e0830152516005906004870135602488018237602081886004013581016006815203019020825181556020830151600182015560408301516002820155600381018660608501511681549065010000000000600160c81b03608087015160281b169166ffffffffffffff60c81b16171790556004810160018060a01b0360a0850151166001600160601b0360a01b825416179055019060018060a01b0360c08201511682549160e060ff60a01b91015160a01b16916affffffffffffffffffffff60a81b16171790556040519460018060a01b037f000000000000000000000000000000000000000000000000000000000000000016865260018060a01b0316602086015260018060a01b03166040850152606435606085015216608083015260843560a083015260e060c0830152806004013560e0830152816101009180600401356024820184840137600401358181018301869052601f01601f19168101030190a16001805580f35b929150946020833d6020116109ee575b816109b9602093836119c9565b8101031261027e57915191949091907f160b9883c8416d313cc749bc5858db361276143105365a035258beace5bf3b3e6107b8565b3d91506109ac565b6040513d89823e3d90fd5b610a0a9061197c565b610a15578638610748565b8680fd5b6040513d84823e3d90fd5b8280fd5b60405163095ea7b360e01b60208201527f00000000000000000000000000000000000000000000000000000000000000006001600160a01b0316602482015260006044808301919091528152610ab39190610a849081816119ad565b7f00000000000000000000000000000000000000000000000000000000000000006001600160a01b0316611d40565b386106b0565b507f00000000000000000000000000000000000000000000000000000000000000006001600160a01b03163b15156106aa565b8051801592508215610b01575b5050386106a3565b610b149250602080918301019101611d28565b3880610af9565b634e487b7160e01b600052604160045260246000fd5b6040516354ad112d60e11b8152600490fd5b5064ffffffffff610b5660045442611b56565b1664ffffffffff84161161058c565b6040516324204a3560e21b8152600490fd5b604051630a685b0f60e41b8152600490fd5b604051600162287bad60e01b03198152600490fd5b604051631781d75760e01b8152600490fd5b8480fd5b50346101cd57806003193601126101cd57610bcd611b63565b610bd5611c4f565b805460ff60a01b1916600160a01b1781556040513381527f62e78cea01bee320cd4e420270b5ea74000d11b0c9f74754ebdbfc544b05a25890602090a180f35b50346101cd57806003193601126101cd57610c2e611b63565b600080546001600160a01b0319811682556001600160a01b03167f8be0079c531659141344cd1fd0a4f28419497f9722a3daafe3b4186f6b6457e08280a380f35b50346101cd57602080600319360112610dd9577fc118d94973a304abcd8e14e20e459d7aea61d380847a0070bcdf945a0b4a534190610cac611aa0565b610cb4611b63565b60018060a01b0380911660025490806001600160601b0360a01b831617600255827f0000000000000000000000000000000000000000000000000000000000000000166040519160008087850192878b63095ea7b360e01b98898752161617928360248701528119604487015260448652610d2e866119ad565b85519082865af1610d3d611e38565b81610da9575b5080610d9f575b15610d62575b5050505060025416604051908152a180f35b610d9693610d9191604051918883015260248201526000604482015260448152610d8b816119ad565b82611d40565b611d40565b38808080610d50565b50813b1515610d4a565b80518015925088908315610dc1575b50505038610d43565b610dd19350820181019101611d28565b388781610db8565b5080fd5b50346101cd57806003193601126101cd576020600354604051908152f35b50346101cd57806003193601126101cd5760ff6020915460a01c166040519015158152f35b50346101cd57806003193601126101cd576020600554604051908152f35b50346101cd57610ea0602061010092610e5636611a3e565b9060e0604051610e6581611990565b82815282858201528260408201528260608201528260808201528260a08201528260c082015201528160405193828580945193849201611a7d565b8101600681520301902060ff60e060405192610ebb84611990565b805493848152600182015491602082019283526002810154906040830191825260038101549364ffffffffff946060850195808216875260018060a01b0396879586948560808a019560281c1685528b60058760048a0154169860a08c01998a5201549b8a8860c08f9d019c168c52019b60a01c168b526040519c8d525160208d01525160408c0152511660608a015251166080880152511660a0860152511660c0840152511660e0820152f35b50346101cd5760203660031901126101cd5760043567ffffffffffffffff808211610a245736602383011215610a2457816004013511610dd957366024826004013560051b83010111610dd957610fbe611bbb565b8060040135158015611739575b6117275781905b80600401358210610fe557826001805580f35b611001610ffa83836004013560248501611ab6565b3691611a07565b9160405160208185516110178183858a01611a7d565b8101600681520301902092835480156117155760038501546080524264ffffffffff608051161161170357600585015460c05260018060a01b0360048601541690600260018701549601548760056020611079888a6004013560248c01611ab6565b919082604051938492833781016006815203019020828155826001820155826002820155826003820155826004820155015560405190635d043b2960e11b825260048201523060248201523060448201526020816064818b60018060a01b037f0000000000000000000000000000000000000000000000000000000000000000165af180156116cd576116d8575b506040516370a0823160e01b81523060048201526020816024817f00000000000000000000000000000000000000000000000000000000000000006001600160a01b03165afa9081156116cd57889161169b575b506040516370a0823160e01b815230600482015288906020816024817f00000000000000000000000000000000000000000000000000000000000000006001600160a01b03165afa908115610a19578291611666575b507f00000000000000000000000000000000000000000000000000000000000000006001600160a01b03163b15610dd95760405163f3fef3a360e01b81526001600160a01b037f00000000000000000000000000000000000000000000000000000000000000001660048201526024810191909152818180604481010381837f00000000000000000000000000000000000000000000000000000000000000006001600160a01b03165af18015610a1957611652575b50506040516370a0823160e01b81523060048201526020816024817f00000000000000000000000000000000000000000000000000000000000000006001600160a01b03165afa91821561164757839289928b9161160b575b5092610756610756926112d295611b0e565b60a05261ffff60025460a81c169360a0518560a0510204851460a0511517156115f75760c05160a01c60ff161561152d5760025488906001600160a01b0316803b15610dd95760405163c219a14d60e01b81527f00000000000000000000000000000000000000000000000000000000000000006001600160a01b03166004820152602481018690526044810185905260c0606482015290829082908183818e61137f60c483018e611b31565b608483019190915260c0516001600160a01b031660a483015203925af18015610a195761150d575b5050926114a37fa5ed23d5ebdea6438acd5b68a3befbb14c431a7a8f221448bfb708ab8a408e9f9593611505937f3c77ae279df37c7ea5dd3a57f101c57dac95417ce9c24279d6ec87d9399c82d76001612710985b6114408a8a60a0510204838060a01b0360805160281c16848060a01b037f000000000000000000000000000000000000000000000000000000000000000016611c11565b019a604051809160c09560018060a01b037f0000000000000000000000000000000000000000000000000000000000000000168352602083015260018060a01b0360c0511660408301526060948583015260809686889788850152830189611b31565b9060a08301520390a160405196879660018060a01b037f000000000000000000000000000000000000000000000000000000000000000016885260018060a01b0360805160281c16602089015260a05102046040870152850152830190611b31565b0390a1610fd2565b61151b90969495929661197c565b6115295792919387386113a7565b8780fd5b926114a383837f3c77ae279df37c7ea5dd3a57f101c57dac95417ce9c24279d6ec87d9399c82d76001612710986115b1611505987fa5ed23d5ebdea6438acd5b68a3befbb14c431a7a8f221448bfb708ab8a408e9f9c9a848060a01b037f000000000000000000000000000000000000000000000000000000000000000016611c11565b8c156113fc576115f28d838060a01b0360c05116848060a01b037f000000000000000000000000000000000000000000000000000000000000000016611c11565b6113fc565b634e487b7160e01b88526011600452602488fd5b93505090506020823d60201161163f575b81611629602093836119c9565b8101031261027e579051829188916107566112c0565b3d915061161c565b6040513d8b823e3d90fd5b61165b9061197c565b611529578738611267565b9150506020813d602011611693575b81611682602093836119c9565b8101031261027e57889051386111b1565b3d9150611675565b90506020813d6020116116c5575b816116b6602093836119c9565b8101031261027e57513861115b565b3d91506116a9565b6040513d8a823e3d90fd5b602090813d83116116fc575b6116ee81836119c9565b8101031261027e5738611107565b503d6116e4565b604051631db89f5b60e11b8152600490fd5b604051632a313f9360e01b8152600490fd5b604051634ec4810560e11b8152600490fd5b5060ff60025460a01c16816004013511610fcb565b50346101cd57610100611778602061176536611a3e565b8160405193828580945193849201611a7d565b8101600681520301902060ff81549160018101549060028101549060038101549160018060a01b03928391600583600486015416940154956040519889526020890152604088015264ffffffffff8116606088015260281c16608086015260a0850152811660c084015260a01c1660e0820152f35b50346101cd57806003193601126101cd57611806611b63565b805481906001600160a01b03908116907f000000000000000000000000000000000000000000000000000000000000000016803b156118735760248392604051948593849263144c5ebf60e31b845260048401525af18015610a195761186a575080f35b61024d9061197c565b5050fd5b50346101cd57806003193601126101cd57611890611b63565b805460ff8160a01c16156118d65760ff60a01b191681556040513381527f5db9ee0a495bf2e6ff9c91a7834c1ba4fdd244a5e8aa4e537bd38aeae4b073aa90602090a180f35b60405162461bcd60e51b815260206004820152601460248201527314185d5cd8589b194e881b9bdd081c185d5cd95960621b6044820152606490fd5b50346101cd57806003193601126101cd576020600454604051908152f35b50346101cd57806003193601126101cd576002546040516001600160a01b039091168152602090f35b905034610dd95781600319360112610dd95760209061ffff60025460a81c168152f35b67ffffffffffffffff8111610b1b57604052565b610100810190811067ffffffffffffffff821117610b1b57604052565b6080810190811067ffffffffffffffff821117610b1b57604052565b90601f8019910116810190811067ffffffffffffffff821117610b1b57604052565b67ffffffffffffffff8111610b1b57601f01601f191660200190565b929192611a13826119eb565b91611a2160405193846119c9565b82948184528183011161027e578281602093846000960137010152565b602060031982011261027e576004359067ffffffffffffffff821161027e578060238301121561027e57816024611a7a93600401359101611a07565b90565b60005b838110611a905750506000910152565b8181015183820152602001611a80565b600435906001600160a01b038216820361027e57565b9190811015611af85760051b81013590601e198136030182121561027e57019081359167ffffffffffffffff831161027e57602001823603811361027e579190565b634e487b7160e01b600052603260045260246000fd5b91908203918211611b1b57565b634e487b7160e01b600052601160045260246000fd5b90602091611b4a81518092818552858086019101611a7d565b601f01601f1916010190565b91908201809211611b1b57565b6000546001600160a01b03163303611b7757565b606460405162461bcd60e51b815260206004820152602060248201527f4f776e61626c653a2063616c6c6572206973206e6f7420746865206f776e65726044820152fd5b600260015414611bcc576002600155565b60405162461bcd60e51b815260206004820152601f60248201527f5265656e7472616e637947756172643a207265656e7472616e742063616c6c006044820152606490fd5b60405163a9059cbb60e01b60208201526001600160a01b03929092166024830152604480830193909352918152611c4d91610d916064836119c9565b565b60ff60005460a01c16611c5e57565b60405162461bcd60e51b815260206004820152601060248201526f14185d5cd8589b194e881c185d5cd95960821b6044820152606490fd5b6040516370a0823160e01b81523060048201526020816024817f00000000000000000000000000000000000000000000000000000000000000006001600160a01b03165afa908115611d1c57600091611ced575090565b90506020813d602011611d14575b81611d08602093836119c9565b8101031261027e575190565b3d9150611cfb565b6040513d6000823e3d90fd5b9081602091031261027e5751801515810361027e5790565b60408051908101916001600160a01b031667ffffffffffffffff831182841017610b1b57611db0926040526000806020958685527f5361666545524332303a206c6f772d6c6576656c2063616c6c206661696c656487860152868151910182855af1611daa611e38565b91611e68565b805190828215928315611e20575b50505015611dc95750565b6084906040519062461bcd60e51b82526004820152602a60248201527f5361666545524332303a204552433230206f7065726174696f6e20646964206e6044820152691bdd081cdd58d8d9595960b21b6064820152fd5b611e309350820181019101611d28565b388281611dbe565b3d15611e63573d90611e49826119eb565b91611e5760405193846119c9565b82523d6000602084013e565b606090565b91929015611eca5750815115611e7c575090565b3b15611e855790565b60405162461bcd60e51b815260206004820152601d60248201527f416464726573733a2063616c6c20746f206e6f6e2d636f6e74726163740000006044820152606490fd5b825190915015611edd5750805190602001fd5b60405162461bcd60e51b815260206004820152908190611f01906024830190611b31565b0390fdfea2646970667358221220120c82a4b4a1d68d0dbe4bd62a71f25f24eb043bd1e064cf69fd84793c463a1c64736f6c63430008160033","linkReferences":{}},"methodIdentifiers":{"ERC20FeeProxyAddress()":"24c20740","baseAsset()":"cdf456e1","claimBaseAssetBalance()":"ed19fa84","claimCompRewards()":"45107cae","contractFeeModifier()":"1949b25c","getMapping(bytes)":"5738e818","maxDueDateParameter()":"3d1d15bf","maxPayoutArraySize()":"c11e2846","minDueDateParameter()":"616212ba","minTotalAmountParameter()":"58911397","owner()":"8da5cb5b","pause()":"8456cb59","paused()":"5c975abb","payInvoiceERC20(address,address,uint40,uint256,uint256,bytes,uint8)":"887d5d3d","payOutERC20Invoice(bytes[])":"4beb2a1e","paymentMapping(bytes)":"46778635","renounceOwnership()":"715018a6","setContractParameters(uint16,uint256,uint256,uint256,uint8)":"8c4c7e04","setERC20FeeProxy(address)":"6e2f87f3","transferOwnership(address)":"f2fde38b","unpause()":"3f4ba83a"},"id":30}