{
  "contractName": "Paytr",
  "abi": [
    {
      "inputs": [
        {
          "internalType": "address",
          "name": "_cometAddress",
          "type": "address"
        },
        {
          "internalType": "address",
          "name": "_wrapperAddress",
          "type": "address"
        },
        {
          "internalType": "uint16",
          "name": "_feeModifier",
          "type": "uint16"
        },
        {
          "internalType": "uint256",
          "name": "_minDueDateParameter",
          "type": "uint256"
        },
        {
          "internalType": "uint256",
          "name": "_maxDueDateParameter",
          "type": "uint256"
        },
        {
          "internalType": "uint256",
          "name": "_minAmount",
          "type": "uint256"
        },
        {
          "internalType": "uint256",
          "name": "_maxAmount",
          "type": "uint256"
        },
        {
          "internalType": "uint8",
          "name": "_maxPayoutArraySize",
          "type": "uint8"
        }
      ],
      "stateMutability": "nonpayable",
      "type": "constructor"
    },
    {
      "inputs": [],
      "name": "DueDateNotAllowed",
      "type": "error"
    },
    {
      "inputs": [],
      "name": "DueDateNotZero",
      "type": "error"
    },
    {
      "inputs": [],
      "name": "InvalidAmount",
      "type": "error"
    },
    {
      "inputs": [],
      "name": "InvalidArrayLength",
      "type": "error"
    },
    {
      "inputs": [],
      "name": "InvalidFeeModifier",
      "type": "error"
    },
    {
      "inputs": [],
      "name": "InvalidMaxArraySize",
      "type": "error"
    },
    {
      "inputs": [],
      "name": "InvalidMaxDueDate",
      "type": "error"
    },
    {
      "inputs": [],
      "name": "InvalidMinAmount",
      "type": "error"
    },
    {
      "inputs": [],
      "name": "InvalidMinDueDate",
      "type": "error"
    },
    {
      "inputs": [],
      "name": "InvalidNewDueDate",
      "type": "error"
    },
    {
      "inputs": [],
      "name": "NoPrePayment",
      "type": "error"
    },
    {
      "inputs": [],
      "name": "NotAuthorized",
      "type": "error"
    },
    {
      "inputs": [],
      "name": "PaymentReferenceInUse",
      "type": "error"
    },
    {
      "inputs": [],
      "name": "ReferenceNotDue",
      "type": "error"
    },
    {
      "inputs": [],
      "name": "ZeroFeeAddress",
      "type": "error"
    },
    {
      "inputs": [],
      "name": "ZeroPayeeAddress",
      "type": "error"
    },
    {
      "anonymous": false,
      "inputs": [
        {
          "indexed": false,
          "internalType": "uint16",
          "name": "feeModifier",
          "type": "uint16"
        },
        {
          "indexed": false,
          "internalType": "uint256",
          "name": "minDueDateParameter",
          "type": "uint256"
        },
        {
          "indexed": false,
          "internalType": "uint256",
          "name": "maxDueDateParameter",
          "type": "uint256"
        },
        {
          "indexed": false,
          "internalType": "uint256",
          "name": "minAmount",
          "type": "uint256"
        },
        {
          "indexed": false,
          "internalType": "uint256",
          "name": "maxAmount",
          "type": "uint256"
        },
        {
          "indexed": false,
          "internalType": "uint8",
          "name": "maxPayoutArraySize",
          "type": "uint8"
        }
      ],
      "name": "ContractParametersUpdatedEvent",
      "type": "event"
    },
    {
      "anonymous": false,
      "inputs": [
        {
          "indexed": false,
          "internalType": "address",
          "name": "tokenAddress",
          "type": "address"
        },
        {
          "indexed": false,
          "internalType": "address",
          "name": "payee",
          "type": "address"
        },
        {
          "indexed": false,
          "internalType": "uint256",
          "name": "interestAmount",
          "type": "uint256"
        },
        {
          "indexed": false,
          "internalType": "bytes",
          "name": "paymentReference",
          "type": "bytes"
        }
      ],
      "name": "InterestPayoutEvent",
      "type": "event"
    },
    {
      "anonymous": false,
      "inputs": [
        {
          "indexed": true,
          "internalType": "address",
          "name": "previousOwner",
          "type": "address"
        },
        {
          "indexed": true,
          "internalType": "address",
          "name": "newOwner",
          "type": "address"
        }
      ],
      "name": "OwnershipTransferred",
      "type": "event"
    },
    {
      "anonymous": false,
      "inputs": [
        {
          "indexed": false,
          "internalType": "address",
          "name": "account",
          "type": "address"
        }
      ],
      "name": "Paused",
      "type": "event"
    },
    {
      "anonymous": false,
      "inputs": [
        {
          "indexed": false,
          "internalType": "address",
          "name": "tokenAddress",
          "type": "address"
        },
        {
          "indexed": false,
          "internalType": "address",
          "name": "payee",
          "type": "address"
        },
        {
          "indexed": false,
          "internalType": "address",
          "name": "feeAddress",
          "type": "address"
        },
        {
          "indexed": false,
          "internalType": "uint256",
          "name": "amount",
          "type": "uint256"
        },
        {
          "indexed": false,
          "internalType": "bytes",
          "name": "paymentReference",
          "type": "bytes"
        },
        {
          "indexed": false,
          "internalType": "uint256",
          "name": "feeAmount",
          "type": "uint256"
        }
      ],
      "name": "PayOutERC20Event",
      "type": "event"
    },
    {
      "anonymous": false,
      "inputs": [
        {
          "indexed": false,
          "internalType": "address",
          "name": "tokenAddress",
          "type": "address"
        },
        {
          "indexed": false,
          "internalType": "address",
          "name": "payee",
          "type": "address"
        },
        {
          "indexed": false,
          "internalType": "address",
          "name": "feeAddress",
          "type": "address"
        },
        {
          "indexed": false,
          "internalType": "uint256",
          "name": "amount",
          "type": "uint256"
        },
        {
          "indexed": false,
          "internalType": "uint256",
          "name": "dueDate",
          "type": "uint256"
        },
        {
          "indexed": false,
          "internalType": "uint256",
          "name": "feeAmount",
          "type": "uint256"
        },
        {
          "indexed": false,
          "internalType": "bytes",
          "name": "paymentReference",
          "type": "bytes"
        }
      ],
      "name": "PaymentERC20Event",
      "type": "event"
    },
    {
      "anonymous": false,
      "inputs": [
        {
          "indexed": false,
          "internalType": "address",
          "name": "account",
          "type": "address"
        }
      ],
      "name": "Unpaused",
      "type": "event"
    },
    {
      "inputs": [
        {
          "internalType": "address",
          "name": "",
          "type": "address"
        }
      ],
      "name": "allowedRequestNetworkFeeAddresses",
      "outputs": [
        {
          "internalType": "bool",
          "name": "",
          "type": "bool"
        }
      ],
      "stateMutability": "view",
      "type": "function",
      "constant": true
    },
    {
      "inputs": [],
      "name": "owner",
      "outputs": [
        {
          "internalType": "address",
          "name": "",
          "type": "address"
        }
      ],
      "stateMutability": "view",
      "type": "function",
      "constant": true
    },
    {
      "inputs": [],
      "name": "paused",
      "outputs": [
        {
          "internalType": "bool",
          "name": "",
          "type": "bool"
        }
      ],
      "stateMutability": "view",
      "type": "function",
      "constant": true
    },
    {
      "inputs": [
        {
          "internalType": "bytes",
          "name": "",
          "type": "bytes"
        }
      ],
      "name": "paymentMapping",
      "outputs": [
        {
          "internalType": "uint256",
          "name": "amount",
          "type": "uint256"
        },
        {
          "internalType": "uint256",
          "name": "feeAmount",
          "type": "uint256"
        },
        {
          "internalType": "uint256",
          "name": "dueDate",
          "type": "uint256"
        },
        {
          "internalType": "uint256",
          "name": "wrapperSharesReceived",
          "type": "uint256"
        },
        {
          "internalType": "address",
          "name": "payer",
          "type": "address"
        },
        {
          "internalType": "address",
          "name": "payee",
          "type": "address"
        },
        {
          "internalType": "address",
          "name": "feeAddress",
          "type": "address"
        }
      ],
      "stateMutability": "view",
      "type": "function",
      "constant": true
    },
    {
      "inputs": [],
      "name": "renounceOwnership",
      "outputs": [],
      "stateMutability": "nonpayable",
      "type": "function"
    },
    {
      "inputs": [
        {
          "internalType": "address",
          "name": "newOwner",
          "type": "address"
        }
      ],
      "name": "transferOwnership",
      "outputs": [],
      "stateMutability": "nonpayable",
      "type": "function"
    },
    {
      "inputs": [
        {
          "internalType": "address",
          "name": "_payee",
          "type": "address"
        },
        {
          "internalType": "address",
          "name": "_feeAddress",
          "type": "address"
        },
        {
          "internalType": "uint256",
          "name": "_dueDate",
          "type": "uint256"
        },
        {
          "internalType": "uint256",
          "name": "_amount",
          "type": "uint256"
        },
        {
          "internalType": "uint256",
          "name": "_feeAmount",
          "type": "uint256"
        },
        {
          "internalType": "bytes",
          "name": "_paymentReference",
          "type": "bytes"
        }
      ],
      "name": "payInvoiceERC20",
      "outputs": [],
      "stateMutability": "nonpayable",
      "type": "function"
    },
    {
      "inputs": [
        {
          "internalType": "bytes[]",
          "name": "payoutReferencesArray",
          "type": "bytes[]"
        }
      ],
      "name": "payOutERC20Invoice",
      "outputs": [],
      "stateMutability": "nonpayable",
      "type": "function"
    },
    {
      "inputs": [],
      "name": "claimCompRewards",
      "outputs": [],
      "stateMutability": "nonpayable",
      "type": "function"
    },
    {
      "inputs": [],
      "name": "claimBaseAssetBalance",
      "outputs": [],
      "stateMutability": "nonpayable",
      "type": "function"
    },
    {
      "inputs": [
        {
          "internalType": "uint16",
          "name": "_feeModifier",
          "type": "uint16"
        },
        {
          "internalType": "uint256",
          "name": "_minDueDateParameter",
          "type": "uint256"
        },
        {
          "internalType": "uint256",
          "name": "_maxDueDateParameter",
          "type": "uint256"
        },
        {
          "internalType": "uint256",
          "name": "_minAmount",
          "type": "uint256"
        },
        {
          "internalType": "uint256",
          "name": "_maxAmount",
          "type": "uint256"
        },
        {
          "internalType": "uint8",
          "name": "_maxPayoutArraySize",
          "type": "uint8"
        }
      ],
      "name": "setContractParameters",
      "outputs": [],
      "stateMutability": "nonpayable",
      "type": "function"
    },
    {
      "inputs": [
        {
          "internalType": "address",
          "name": "_requestNetworkFeeAddress",
          "type": "address"
        }
      ],
      "name": "addRequestNetworkFeeAddress",
      "outputs": [],
      "stateMutability": "nonpayable",
      "type": "function"
    },
    {
      "inputs": [
        {
          "internalType": "address",
          "name": "_ERC20FeeProxyAddress",
          "type": "address"
        }
      ],
      "name": "setERC20FeeProxy",
      "outputs": [],
      "stateMutability": "nonpayable",
      "type": "function"
    },
    {
      "inputs": [],
      "name": "pause",
      "outputs": [],
      "stateMutability": "nonpayable",
      "type": "function"
    },
    {
      "inputs": [],
      "name": "unpause",
      "outputs": [],
      "stateMutability": "nonpayable",
      "type": "function"
    }
  ],
  "bytecode": "0x60e06040523480156200001157600080fd5b5060405162003b4f38038062003b4f83398181016040528101906200003791906200044d565b620000576200004b6200025f60201b60201c565b6200026760201b60201c565b60008060146101000a81548160ff021916908315150217905550600180819055508773ffffffffffffffffffffffffffffffffffffffff1660c08173ffffffffffffffffffffffffffffffffffffffff168152505060c05173ffffffffffffffffffffffffffffffffffffffff1663c55dae636040518163ffffffff1660e01b8152600401602060405180830381865afa158015620000fa573d6000803e3d6000fd5b505050506040513d601f19601f8201168201806040525081019062000120919062000516565b73ffffffffffffffffffffffffffffffffffffffff1660808173ffffffffffffffffffffffffffffffffffffffff16815250508673ffffffffffffffffffffffffffffffffffffffff1660a08173ffffffffffffffffffffffffffffffffffffffff168152505085600260156101000a81548161ffff021916908361ffff1602179055508460038190555083600481905550826005819055508160068190555080600260146101000a81548160ff021916908360ff16021790555060c05173ffffffffffffffffffffffffffffffffffffffff1663110496e560a05160016040518363ffffffff1660e01b81526004016200021d92919062000576565b600060405180830381600087803b1580156200023857600080fd5b505af11580156200024d573d6000803e3d6000fd5b505050505050505050505050620005a3565b600033905090565b60008060009054906101000a900473ffffffffffffffffffffffffffffffffffffffff169050816000806101000a81548173ffffffffffffffffffffffffffffffffffffffff021916908373ffffffffffffffffffffffffffffffffffffffff1602179055508173ffffffffffffffffffffffffffffffffffffffff168173ffffffffffffffffffffffffffffffffffffffff167f8be0079c531659141344cd1fd0a4f28419497f9722a3daafe3b4186f6b6457e060405160405180910390a35050565b600080fd5b600073ffffffffffffffffffffffffffffffffffffffff82169050919050565b60006200035d8262000330565b9050919050565b6200036f8162000350565b81146200037b57600080fd5b50565b6000815190506200038f8162000364565b92915050565b600061ffff82169050919050565b620003ae8162000395565b8114620003ba57600080fd5b50565b600081519050620003ce81620003a3565b92915050565b6000819050919050565b620003e981620003d4565b8114620003f557600080fd5b50565b6000815190506200040981620003de565b92915050565b600060ff82169050919050565b62000427816200040f565b81146200043357600080fd5b50565b60008151905062000447816200041c565b92915050565b600080600080600080600080610100898b0312156200047157620004706200032b565b5b6000620004818b828c016200037e565b9850506020620004948b828c016200037e565b9750506040620004a78b828c01620003bd565b9650506060620004ba8b828c01620003f8565b9550506080620004cd8b828c01620003f8565b94505060a0620004e08b828c01620003f8565b93505060c0620004f38b828c01620003f8565b92505060e0620005068b828c0162000436565b9150509295985092959890939650565b6000602082840312156200052f576200052e6200032b565b5b60006200053f848285016200037e565b91505092915050565b620005538162000350565b82525050565b60008115159050919050565b620005708162000559565b82525050565b60006040820190506200058d600083018562000548565b6200059c602083018462000565565b9392505050565b60805160a05160c0516134e962000666600039600081816107e20152818161087e015281816113b80152818161142d015281816114c901526115830152600081816102f50152818161073f01526116310152600081816108ba0152818161092f01528181610a9a01528181610b1e01528181610ba101528181610bf401528181610c4101528181610cb401528181610d150152818161136e015281816113e501528181611505015281816118870152818161191301526119ad01526134e96000f3fe608060405234801561001057600080fd5b50600436106100f55760003560e01c8063715018a611610097578063a3e9f0fa11610066578063a3e9f0fa14610204578063a9948c9614610220578063ed19fa8414610250578063f2fde38b1461025a576100f5565b8063715018a6146101b65780638456cb59146101c05780638da5cb5b146101ca57806391045517146101e8576100f5565b806346778635116100d3578063467786351461012a5780634beb2a1e146101605780635c975abb1461017c5780636e2f87f31461019a576100f5565b806339c54161146100fa5780633f4ba83a1461011657806345107cae14610120575b600080fd5b610114600480360381019061010f9190612358565b610276565b005b61011e6102d9565b005b6101286102eb565b005b610144600480360381019061013f91906124cb565b610387565b604051610157979695949392919061253c565b60405180910390f35b61017a6004803603810190610175919061260b565b61043f565b005b610184610d6c565b6040516101919190612673565b60405180910390f35b6101b460048036038101906101af9190612358565b610d82565b005b6101be610dce565b005b6101c8610de2565b005b6101d2610df4565b6040516101df919061268e565b60405180910390f35b61020260048036038101906101fd9190612748565b610e1d565b005b61021e6004803603810190610219919061282b565b61102c565b005b61023a60048036038101906102359190612358565b6118de565b6040516102479190612673565b60405180910390f35b6102586118fe565b005b610274600480360381019061026f9190612358565b6119f3565b005b61027e611a76565b6001600860008373ffffffffffffffffffffffffffffffffffffffff1673ffffffffffffffffffffffffffffffffffffffff16815260200190815260200160002060006101000a81548160ff02191690831515021790555050565b6102e1611a76565b6102e9611af4565b565b6102f3611a76565b7f000000000000000000000000000000000000000000000000000000000000000073ffffffffffffffffffffffffffffffffffffffff1663a262f5f8610337610df4565b6040518263ffffffff1660e01b8152600401610353919061268e565b600060405180830381600087803b15801561036d57600080fd5b505af1158015610381573d6000803e3d6000fd5b50505050565b6007818051602081018201805184825260208301602085012081835280955050505050506000915090508060000154908060010154908060020154908060030154908060040160009054906101000a900473ffffffffffffffffffffffffffffffffffffffff16908060050160009054906101000a900473ffffffffffffffffffffffffffffffffffffffff16908060060160009054906101000a900473ffffffffffffffffffffffffffffffffffffffff16905087565b610447611b56565b60008083839050905060008114806104705750600260149054906101000a900460ff1660ff1681115b156104a7576040517f9d89020a00000000000000000000000000000000000000000000000000000000815260040160405180910390fd5b5b80821015610d5e5760008484848181106104c5576104c46128da565b5b90506020028101906104d79190612918565b8080601f016020809104026020016040519081016040528093929190818152602001838380828437600081840152601f19601f820116905080830192505050505050509050600060078260405161052e91906129ec565b90815260200160405180910390206000015403610577576040517f2a313f9300000000000000000000000000000000000000000000000000000000815260040160405180910390fd5b4260078260405161058891906129ec565b90815260200160405180910390206002015411156105d2576040517f3b713eb600000000000000000000000000000000000000000000000000000000815260040160405180910390fd5b60006007826040516105e491906129ec565b908152602001604051809103902060050160009054906101000a900473ffffffffffffffffffffffffffffffffffffffff169050600060078360405161062a91906129ec565b908152602001604051809103902060040160009054906101000a900473ffffffffffffffffffffffffffffffffffffffff169050600060078460405161067091906129ec565b908152602001604051809103902060060160009054906101000a900473ffffffffffffffffffffffffffffffffffffffff16905060006007856040516106b691906129ec565b908152602001604051809103902060000154905060006007866040516106dc91906129ec565b9081526020016040518091039020600101549050600060078760405161070291906129ec565b9081526020016040518091039020600301549050600060078860405161072891906129ec565b9081526020016040518091039020600001819055507f000000000000000000000000000000000000000000000000000000000000000073ffffffffffffffffffffffffffffffffffffffff1663ba0876528230306040518463ffffffff1660e01b815260040161079a93929190612a03565b6020604051808303816000875af11580156107b9573d6000803e3d6000fd5b505050506040513d601f19601f820116820180604052508101906107dd9190612a4f565b5060007f000000000000000000000000000000000000000000000000000000000000000073ffffffffffffffffffffffffffffffffffffffff166370a08231306040518263ffffffff1660e01b8152600401610839919061268e565b602060405180830381865afa158015610856573d6000803e3d6000fd5b505050506040513d601f19601f8201168201806040525081019061087a9190612a4f565b90507f000000000000000000000000000000000000000000000000000000000000000073ffffffffffffffffffffffffffffffffffffffff1663f3fef3a37f0000000000000000000000000000000000000000000000000000000000000000836040518363ffffffff1660e01b81526004016108f7929190612a7c565b600060405180830381600087803b15801561091157600080fd5b505af1158015610925573d6000803e3d6000fd5b50505050600083857f000000000000000000000000000000000000000000000000000000000000000073ffffffffffffffffffffffffffffffffffffffff166370a08231306040518263ffffffff1660e01b8152600401610986919061268e565b602060405180830381865afa1580156109a3573d6000803e3d6000fd5b505050506040513d601f19601f820116820180604052508101906109c79190612a4f565b6109d19190612ad4565b6109db9190612ad4565b90506000612710600260159054906101000a900461ffff1661ffff1683610a029190612b08565b610a0c9190612b79565b905060011515600860008973ffffffffffffffffffffffffffffffffffffffff1673ffffffffffffffffffffffffffffffffffffffff16815260200190815260200160002060009054906101000a900460ff16151503610b9a57610ade600260009054906101000a900473ffffffffffffffffffffffffffffffffffffffff168688610a989190612baa565b7f000000000000000000000000000000000000000000000000000000000000000073ffffffffffffffffffffffffffffffffffffffff16611ba59092919063ffffffff16565b600260009054906101000a900473ffffffffffffffffffffffffffffffffffffffff1673ffffffffffffffffffffffffffffffffffffffff1663c219a14d7f00000000000000000000000000000000000000000000000000000000000000008b898e8a8d6040518763ffffffff1660e01b8152600401610b6396959493929190612c87565b600060405180830381600087803b158015610b7d57600080fd5b505af1158015610b91573d6000803e3d6000fd5b50505050610c3a565b610be589877f000000000000000000000000000000000000000000000000000000000000000073ffffffffffffffffffffffffffffffffffffffff16611cc29092919063ffffffff16565b60008514610c3957610c3887867f000000000000000000000000000000000000000000000000000000000000000073ffffffffffffffffffffffffffffffffffffffff16611cc29092919063ffffffff16565b5b5b610c8588827f000000000000000000000000000000000000000000000000000000000000000073ffffffffffffffffffffffffffffffffffffffff16611cc29092919063ffffffff16565b8b610c8f90612cef565b9b507f3c77ae279df37c7ea5dd3a57f101c57dac95417ce9c24279d6ec87d9399c82d77f00000000000000000000000000000000000000000000000000000000000000008a89898e8a604051610cea96959493929190612d37565b60405180910390a17fa5ed23d5ebdea6438acd5b68a3befbb14c431a7a8f221448bfb708ab8a408e9f7f000000000000000000000000000000000000000000000000000000000000000089838d604051610d479493929190612d9f565b60405180910390a1505050505050505050506104a8565b5050610d68611d48565b5050565b60008060149054906101000a900460ff16905090565b610d8a611a76565b80600260006101000a81548173ffffffffffffffffffffffffffffffffffffffff021916908373ffffffffffffffffffffffffffffffffffffffff16021790555050565b610dd6611a76565b610de06000611d51565b565b610dea611a76565b610df2611e15565b565b60008060009054906101000a900473ffffffffffffffffffffffffffffffffffffffff16905090565b610e25611a76565b6113888661ffff161080610e3e57506127108661ffff16115b15610e75576040517f2e9ebb9500000000000000000000000000000000000000000000000000000000815260040160405180910390fd5b62069780851015610eb2576040517ff57c57d300000000000000000000000000000000000000000000000000000000815260040160405180910390fd5b6301e13380841115610ef0576040517fa7befd8c00000000000000000000000000000000000000000000000000000000815260040160405180910390fd5b6001831015610f2b576040517f9c68554f00000000000000000000000000000000000000000000000000000000815260040160405180910390fd5b60008160ff1603610f68576040517ff39d15db00000000000000000000000000000000000000000000000000000000815260040160405180910390fd5b85600260156101000a81548161ffff021916908361ffff1602179055508460038190555083600481905550826005819055508160068190555080600260146101000a81548160ff021916908360ff1602179055507fa20f6f1bd973c2c6838ae762fb84fd32c748ca52d7feed804a1e4a1724d7f701600260159054906101000a900461ffff16600354600454600554600654600260149054906101000a900460ff1660405161101c96959493929190612e09565b60405180910390a1505050505050565b611034611b56565b61103c611e78565b600060078383604051611050929190612e8f565b90815260200160405180910390206000015414611099576040517fa685b0f000000000000000000000000000000000000000000000000000000000815260040160405180910390fd5b6005548410806110aa575060065484115b156110e1576040517f2c5211c600000000000000000000000000000000000000000000000000000000815260040160405180910390fd5b3373ffffffffffffffffffffffffffffffffffffffff166007838360405161110a929190612e8f565b908152602001604051809103902060040160009054906101000a900473ffffffffffffffffffffffffffffffffffffffff1673ffffffffffffffffffffffffffffffffffffffff1603611189576040517fa685b0f000000000000000000000000000000000000000000000000000000000815260040160405180910390fd5b8673ffffffffffffffffffffffffffffffffffffffff16600783836040516111b2929190612e8f565b908152602001604051809103902060050160009054906101000a900473ffffffffffffffffffffffffffffffffffffffff1673ffffffffffffffffffffffffffffffffffffffff1603611231576040517fa685b0f000000000000000000000000000000000000000000000000000000000815260040160405180910390fd5b600073ffffffffffffffffffffffffffffffffffffffff168773ffffffffffffffffffffffffffffffffffffffff1603611297576040517f1781d75700000000000000000000000000000000000000000000000000000000815260040160405180910390fd5b600073ffffffffffffffffffffffffffffffffffffffff168673ffffffffffffffffffffffffffffffffffffffff16036112fd576040517fffd7845300000000000000000000000000000000000000000000000000000000815260040160405180910390fd5b6003544261130b9190612baa565b8510806113245750600454426113219190612baa565b85115b1561135b576040517fa95a225a00000000000000000000000000000000000000000000000000000000815260040160405180910390fd5b6113b33330858761136c9190612baa565b7f000000000000000000000000000000000000000000000000000000000000000073ffffffffffffffffffffffffffffffffffffffff16611ec2909392919063ffffffff16565b6114297f000000000000000000000000000000000000000000000000000000000000000084866113e39190612baa565b7f000000000000000000000000000000000000000000000000000000000000000073ffffffffffffffffffffffffffffffffffffffff16611ba59092919063ffffffff16565b60007f000000000000000000000000000000000000000000000000000000000000000073ffffffffffffffffffffffffffffffffffffffff166370a08231306040518263ffffffff1660e01b8152600401611484919061268e565b602060405180830381865afa1580156114a1573d6000803e3d6000fd5b505050506040513d601f19601f820116820180604052508101906114c59190612a4f565b90507f000000000000000000000000000000000000000000000000000000000000000073ffffffffffffffffffffffffffffffffffffffff1663f2b9fdb87f000000000000000000000000000000000000000000000000000000000000000086886115309190612baa565b6040518363ffffffff1660e01b815260040161154d929190612a7c565b600060405180830381600087803b15801561156757600080fd5b505af115801561157b573d6000803e3d6000fd5b5050505060007f000000000000000000000000000000000000000000000000000000000000000073ffffffffffffffffffffffffffffffffffffffff166370a08231306040518263ffffffff1660e01b81526004016115da919061268e565b602060405180830381865afa1580156115f7573d6000803e3d6000fd5b505050506040513d601f19601f8201168201806040525081019061161b9190612a4f565b90506000828261162b9190612ad4565b905060007f000000000000000000000000000000000000000000000000000000000000000073ffffffffffffffffffffffffffffffffffffffff16636e553f6583306040518363ffffffff1660e01b815260040161168a929190612ea8565b6020604051808303816000875af11580156116a9573d6000803e3d6000fd5b505050506040513d601f19601f820116820180604052508101906116cd9190612a4f565b90506040518060e001604052808981526020018881526020018a81526020018281526020013373ffffffffffffffffffffffffffffffffffffffff1681526020018c73ffffffffffffffffffffffffffffffffffffffff1681526020018b73ffffffffffffffffffffffffffffffffffffffff1681525060078787604051611756929190612e8f565b90815260200160405180910390206000820151816000015560208201518160010155604082015181600201556060820151816003015560808201518160040160006101000a81548173ffffffffffffffffffffffffffffffffffffffff021916908373ffffffffffffffffffffffffffffffffffffffff16021790555060a08201518160050160006101000a81548173ffffffffffffffffffffffffffffffffffffffff021916908373ffffffffffffffffffffffffffffffffffffffff16021790555060c08201518160060160006101000a81548173ffffffffffffffffffffffffffffffffffffffff021916908373ffffffffffffffffffffffffffffffffffffffff1602179055509050507f3949326165d95b8a403b9bbb410a566da35367dd971b51a8a331801a571147ed7f00000000000000000000000000000000000000000000000000000000000000008c8c8b8d8c8c8c6040516118c1989796959493929190612efe565b60405180910390a1505050506118d5611d48565b50505050505050565b60086020528060005260406000206000915054906101000a900460ff1681565b611906611a76565b6119f1611911610df4565b7f000000000000000000000000000000000000000000000000000000000000000073ffffffffffffffffffffffffffffffffffffffff166370a08231306040518263ffffffff1660e01b815260040161196a919061268e565b602060405180830381865afa158015611987573d6000803e3d6000fd5b505050506040513d601f19601f820116820180604052508101906119ab9190612a4f565b7f000000000000000000000000000000000000000000000000000000000000000073ffffffffffffffffffffffffffffffffffffffff16611cc29092919063ffffffff16565b565b6119fb611a76565b600073ffffffffffffffffffffffffffffffffffffffff168173ffffffffffffffffffffffffffffffffffffffff1603611a6a576040517f08c379a0000000000000000000000000000000000000000000000000000000008152600401611a6190612ff9565b60405180910390fd5b611a7381611d51565b50565b611a7e611f4b565b73ffffffffffffffffffffffffffffffffffffffff16611a9c610df4565b73ffffffffffffffffffffffffffffffffffffffff1614611af2576040517f08c379a0000000000000000000000000000000000000000000000000000000008152600401611ae990613065565b60405180910390fd5b565b611afc611f53565b60008060146101000a81548160ff0219169083151502179055507f5db9ee0a495bf2e6ff9c91a7834c1ba4fdd244a5e8aa4e537bd38aeae4b073aa611b3f611f4b565b604051611b4c919061268e565b60405180910390a1565b600260015403611b9b576040517f08c379a0000000000000000000000000000000000000000000000000000000008152600401611b92906130d1565b60405180910390fd5b6002600181905550565b600063095ea7b360e01b8383604051602401611bc2929190612a7c565b604051602081830303815290604052907bffffffffffffffffffffffffffffffffffffffffffffffffffffffff19166020820180517bffffffffffffffffffffffffffffffffffffffffffffffffffffffff83818316178352505050509050611c2b8482611f9c565b611cbc57611cb18463095ea7b360e01b856000604051602401611c4f92919061312c565b604051602081830303815290604052907bffffffffffffffffffffffffffffffffffffffffffffffffffffffff19166020820180517bffffffffffffffffffffffffffffffffffffffffffffffffffffffff8381831617835250505050612051565b611cbb8482612051565b5b50505050565b611d438363a9059cbb60e01b8484604051602401611ce1929190612a7c565b604051602081830303815290604052907bffffffffffffffffffffffffffffffffffffffffffffffffffffffff19166020820180517bffffffffffffffffffffffffffffffffffffffffffffffffffffffff8381831617835250505050612051565b505050565b60018081905550565b60008060009054906101000a900473ffffffffffffffffffffffffffffffffffffffff169050816000806101000a81548173ffffffffffffffffffffffffffffffffffffffff021916908373ffffffffffffffffffffffffffffffffffffffff1602179055508173ffffffffffffffffffffffffffffffffffffffff168173ffffffffffffffffffffffffffffffffffffffff167f8be0079c531659141344cd1fd0a4f28419497f9722a3daafe3b4186f6b6457e060405160405180910390a35050565b611e1d611e78565b6001600060146101000a81548160ff0219169083151502179055507f62e78cea01bee320cd4e420270b5ea74000d11b0c9f74754ebdbfc544b05a258611e61611f4b565b604051611e6e919061268e565b60405180910390a1565b611e80610d6c565b15611ec0576040517f08c379a0000000000000000000000000000000000000000000000000000000008152600401611eb7906131a1565b60405180910390fd5b565b611f45846323b872dd60e01b858585604051602401611ee3939291906131c1565b604051602081830303815290604052907bffffffffffffffffffffffffffffffffffffffffffffffffffffffff19166020820180517bffffffffffffffffffffffffffffffffffffffffffffffffffffffff8381831617835250505050612051565b50505050565b600033905090565b611f5b610d6c565b611f9a576040517f08c379a0000000000000000000000000000000000000000000000000000000008152600401611f9190613244565b60405180910390fd5b565b60008060008473ffffffffffffffffffffffffffffffffffffffff1684604051611fc691906129ec565b6000604051808303816000865af19150503d8060008114612003576040519150601f19603f3d011682016040523d82523d6000602084013e612008565b606091505b509150915081801561203657506000815114806120355750808060200190518101906120349190613290565b5b5b8015612047575061204685612119565b5b9250505092915050565b60006120b3826040518060400160405280602081526020017f5361666545524332303a206c6f772d6c6576656c2063616c6c206661696c65648152508573ffffffffffffffffffffffffffffffffffffffff1661213c9092919063ffffffff16565b90506000815114806120d55750808060200190518101906120d49190613290565b5b612114576040517f08c379a000000000000000000000000000000000000000000000000000000000815260040161210b9061332f565b60405180910390fd5b505050565b6000808273ffffffffffffffffffffffffffffffffffffffff163b119050919050565b606061214b8484600085612154565b90509392505050565b606082471015612199576040517f08c379a0000000000000000000000000000000000000000000000000000000008152600401612190906133c1565b60405180910390fd5b6000808673ffffffffffffffffffffffffffffffffffffffff1685876040516121c291906129ec565b60006040518083038185875af1925050503d80600081146121ff576040519150601f19603f3d011682016040523d82523d6000602084013e612204565b606091505b509150915061221587838387612221565b92505050949350505050565b6060831561228357600083510361227b5761223b85612119565b61227a576040517f08c379a00000000000000000000000000000000000000000000000000000000081526004016122719061342d565b60405180910390fd5b5b82905061228e565b61228d8383612296565b5b949350505050565b6000825111156122a95781518083602001fd5b806040517f08c379a00000000000000000000000000000000000000000000000000000000081526004016122dd9190613491565b60405180910390fd5b6000604051905090565b600080fd5b600080fd5b600073ffffffffffffffffffffffffffffffffffffffff82169050919050565b6000612325826122fa565b9050919050565b6123358161231a565b811461234057600080fd5b50565b6000813590506123528161232c565b92915050565b60006020828403121561236e5761236d6122f0565b5b600061237c84828501612343565b91505092915050565b600080fd5b600080fd5b6000601f19601f8301169050919050565b7f4e487b7100000000000000000000000000000000000000000000000000000000600052604160045260246000fd5b6123d88261238f565b810181811067ffffffffffffffff821117156123f7576123f66123a0565b5b80604052505050565b600061240a6122e6565b905061241682826123cf565b919050565b600067ffffffffffffffff821115612436576124356123a0565b5b61243f8261238f565b9050602081019050919050565b82818337600083830152505050565b600061246e6124698461241b565b612400565b90508281526020810184848401111561248a5761248961238a565b5b61249584828561244c565b509392505050565b600082601f8301126124b2576124b1612385565b5b81356124c284826020860161245b565b91505092915050565b6000602082840312156124e1576124e06122f0565b5b600082013567ffffffffffffffff8111156124ff576124fe6122f5565b5b61250b8482850161249d565b91505092915050565b6000819050919050565b61252781612514565b82525050565b6125368161231a565b82525050565b600060e082019050612551600083018a61251e565b61255e602083018961251e565b61256b604083018861251e565b612578606083018761251e565b612585608083018661252d565b61259260a083018561252d565b61259f60c083018461252d565b98975050505050505050565b600080fd5b600080fd5b60008083601f8401126125cb576125ca612385565b5b8235905067ffffffffffffffff8111156125e8576125e76125ab565b5b602083019150836020820283011115612604576126036125b0565b5b9250929050565b60008060208385031215612622576126216122f0565b5b600083013567ffffffffffffffff8111156126405761263f6122f5565b5b61264c858286016125b5565b92509250509250929050565b60008115159050919050565b61266d81612658565b82525050565b60006020820190506126886000830184612664565b92915050565b60006020820190506126a3600083018461252d565b92915050565b600061ffff82169050919050565b6126c0816126a9565b81146126cb57600080fd5b50565b6000813590506126dd816126b7565b92915050565b6126ec81612514565b81146126f757600080fd5b50565b600081359050612709816126e3565b92915050565b600060ff82169050919050565b6127258161270f565b811461273057600080fd5b50565b6000813590506127428161271c565b92915050565b60008060008060008060c08789031215612765576127646122f0565b5b600061277389828a016126ce565b965050602061278489828a016126fa565b955050604061279589828a016126fa565b94505060606127a689828a016126fa565b93505060806127b789828a016126fa565b92505060a06127c889828a01612733565b9150509295509295509295565b60008083601f8401126127eb576127ea612385565b5b8235905067ffffffffffffffff811115612808576128076125ab565b5b602083019150836001820283011115612824576128236125b0565b5b9250929050565b600080600080600080600060c0888a03121561284a576128496122f0565b5b60006128588a828b01612343565b97505060206128698a828b01612343565b965050604061287a8a828b016126fa565b955050606061288b8a828b016126fa565b945050608061289c8a828b016126fa565b93505060a088013567ffffffffffffffff8111156128bd576128bc6122f5565b5b6128c98a828b016127d5565b925092505092959891949750929550565b7f4e487b7100000000000000000000000000000000000000000000000000000000600052603260045260246000fd5b600080fd5b600080fd5b600080fd5b6000808335600160200384360303811261293557612934612909565b5b80840192508235915067ffffffffffffffff8211156129575761295661290e565b5b60208301925060018202360383131561297357612972612913565b5b509250929050565b600081519050919050565b600081905092915050565b60005b838110156129af578082015181840152602081019050612994565b60008484015250505050565b60006129c68261297b565b6129d08185612986565b93506129e0818560208601612991565b80840191505092915050565b60006129f882846129bb565b915081905092915050565b6000606082019050612a18600083018661251e565b612a25602083018561252d565b612a32604083018461252d565b949350505050565b600081519050612a49816126e3565b92915050565b600060208284031215612a6557612a646122f0565b5b6000612a7384828501612a3a565b91505092915050565b6000604082019050612a91600083018561252d565b612a9e602083018461251e565b9392505050565b7f4e487b7100000000000000000000000000000000000000000000000000000000600052601160045260246000fd5b6000612adf82612514565b9150612aea83612514565b9250828203905081811115612b0257612b01612aa5565b5b92915050565b6000612b1382612514565b9150612b1e83612514565b9250828202612b2c81612514565b91508282048414831517612b4357612b42612aa5565b5b5092915050565b7f4e487b7100000000000000000000000000000000000000000000000000000000600052601260045260246000fd5b6000612b8482612514565b9150612b8f83612514565b925082612b9f57612b9e612b4a565b5b828204905092915050565b6000612bb582612514565b9150612bc083612514565b9250828201905080821115612bd857612bd7612aa5565b5b92915050565b6000819050919050565b6000612c03612bfe612bf9846122fa565b612bde565b6122fa565b9050919050565b6000612c1582612be8565b9050919050565b6000612c2782612c0a565b9050919050565b612c3781612c1c565b82525050565b600082825260208201905092915050565b6000612c598261297b565b612c638185612c3d565b9350612c73818560208601612991565b612c7c8161238f565b840191505092915050565b600060c082019050612c9c600083018961252d565b612ca96020830188612c2e565b612cb6604083018761251e565b8181036060830152612cc88186612c4e565b9050612cd7608083018561251e565b612ce460a0830184612c2e565b979650505050505050565b6000612cfa82612514565b91507fffffffffffffffffffffffffffffffffffffffffffffffffffffffffffffffff8203612d2c57612d2b612aa5565b5b600182019050919050565b600060c082019050612d4c600083018961252d565b612d596020830188612c2e565b612d666040830187612c2e565b612d73606083018661251e565b8181036080830152612d858185612c4e565b9050612d9460a083018461251e565b979650505050505050565b6000608082019050612db4600083018761252d565b612dc16020830186612c2e565b612dce604083018561251e565b8181036060830152612de08184612c4e565b905095945050505050565b612df4816126a9565b82525050565b612e038161270f565b82525050565b600060c082019050612e1e6000830189612deb565b612e2b602083018861251e565b612e38604083018761251e565b612e45606083018661251e565b612e52608083018561251e565b612e5f60a0830184612dfa565b979650505050505050565b6000612e768385612986565b9350612e8383858461244c565b82840190509392505050565b6000612e9c828486612e6a565b91508190509392505050565b6000604082019050612ebd600083018561251e565b612eca602083018461252d565b9392505050565b6000612edd8385612c3d565b9350612eea83858461244c565b612ef38361238f565b840190509392505050565b600060e082019050612f13600083018b61252d565b612f20602083018a61252d565b612f2d604083018961252d565b612f3a606083018861251e565b612f47608083018761251e565b612f5460a083018661251e565b81810360c0830152612f67818486612ed1565b90509998505050505050505050565b600082825260208201905092915050565b7f4f776e61626c653a206e6577206f776e657220697320746865207a65726f206160008201527f6464726573730000000000000000000000000000000000000000000000000000602082015250565b6000612fe3602683612f76565b9150612fee82612f87565b604082019050919050565b6000602082019050818103600083015261301281612fd6565b9050919050565b7f4f776e61626c653a2063616c6c6572206973206e6f7420746865206f776e6572600082015250565b600061304f602083612f76565b915061305a82613019565b602082019050919050565b6000602082019050818103600083015261307e81613042565b9050919050565b7f5265656e7472616e637947756172643a207265656e7472616e742063616c6c00600082015250565b60006130bb601f83612f76565b91506130c682613085565b602082019050919050565b600060208201905081810360008301526130ea816130ae565b9050919050565b6000819050919050565b600061311661311161310c846130f1565b612bde565b61270f565b9050919050565b613126816130fb565b82525050565b6000604082019050613141600083018561252d565b61314e602083018461311d565b9392505050565b7f5061757361626c653a2070617573656400000000000000000000000000000000600082015250565b600061318b601083612f76565b915061319682613155565b602082019050919050565b600060208201905081810360008301526131ba8161317e565b9050919050565b60006060820190506131d6600083018661252d565b6131e3602083018561252d565b6131f0604083018461251e565b949350505050565b7f5061757361626c653a206e6f7420706175736564000000000000000000000000600082015250565b600061322e601483612f76565b9150613239826131f8565b602082019050919050565b6000602082019050818103600083015261325d81613221565b9050919050565b61326d81612658565b811461327857600080fd5b50565b60008151905061328a81613264565b92915050565b6000602082840312156132a6576132a56122f0565b5b60006132b48482850161327b565b91505092915050565b7f5361666545524332303a204552433230206f7065726174696f6e20646964206e60008201527f6f74207375636365656400000000000000000000000000000000000000000000602082015250565b6000613319602a83612f76565b9150613324826132bd565b604082019050919050565b600060208201905081810360008301526133488161330c565b9050919050565b7f416464726573733a20696e73756666696369656e742062616c616e636520666f60008201527f722063616c6c0000000000000000000000000000000000000000000000000000602082015250565b60006133ab602683612f76565b91506133b68261334f565b604082019050919050565b600060208201905081810360008301526133da8161339e565b9050919050565b7f416464726573733a2063616c6c20746f206e6f6e2d636f6e7472616374000000600082015250565b6000613417601d83612f76565b9150613422826133e1565b602082019050919050565b600060208201905081810360008301526134468161340a565b9050919050565b600081519050919050565b60006134638261344d565b61346d8185612f76565b935061347d818560208601612991565b6134868161238f565b840191505092915050565b600060208201905081810360008301526134ab8184613458565b90509291505056fea2646970667358221220e887b10afa638d80c442cbd05b4dabc8f2ffd005c0cb50d12411a9f1a55167c164736f6c63430008130033",
  "immutableReferences": {
    "1247": [
      {
        "length": 32,
        "start": 2234
      },
      {
        "length": 32,
        "start": 2351
      },
      {
        "length": 32,
        "start": 2714
      },
      {
        "length": 32,
        "start": 2846
      },
      {
        "length": 32,
        "start": 2977
      },
      {
        "length": 32,
        "start": 3060
      },
      {
        "length": 32,
        "start": 3137
      },
      {
        "length": 32,
        "start": 3252
      },
      {
        "length": 32,
        "start": 3349
      },
      {
        "length": 32,
        "start": 4974
      },
      {
        "length": 32,
        "start": 5093
      },
      {
        "length": 32,
        "start": 5381
      },
      {
        "length": 32,
        "start": 6279
      },
      {
        "length": 32,
        "start": 6419
      },
      {
        "length": 32,
        "start": 6573
      }
    ],
    "1251": [
      {
        "length": 32,
        "start": 757
      },
      {
        "length": 32,
        "start": 1855
      },
      {
        "length": 32,
        "start": 5681
      }
    ],
    "1253": [
      {
        "length": 32,
        "start": 2018
      },
      {
        "length": 32,
        "start": 2174
      },
      {
        "length": 32,
        "start": 5048
      },
      {
        "length": 32,
        "start": 5165
      },
      {
        "length": 32,
        "start": 5321
      },
      {
        "length": 32,
        "start": 5507
      }
    ]
  },
  "source": "// SPDX-License-Identifier: MIT\npragma solidity 0.8.19;\n\nimport \"@openzeppelin/contracts/access/Ownable.sol\";\nimport \"@openzeppelin/contracts/security/ReentrancyGuard.sol\";\nimport \"@openzeppelin/contracts/token/ERC20/utils/SafeERC20.sol\";\nimport \"@openzeppelin/contracts/security/Pausable.sol\";\n\n\ninterface IComet {\n   function supply(address asset, uint amount) external;\n   function withdraw(address asset, uint amount) external;\n   function baseToken() external view returns (address);\n   function allow(address manager, bool isAllowed) external; }\n\ninterface IERC20FeeProxy {\n   function transferFromWithReferenceAndFee(\n       address _tokenAddress,\n       address _to,\n       uint256 _amount,\n       bytes calldata _paymentReference,\n       uint256 _feeAmount,\n       address _feeAddress\n    ) external;\n}\n\ninterface IWrapper {\n   function deposit(uint256 assets, address receiver) external returns (uint256 shares);\n   function redeem(uint256 assets, address receiver, address owner) external returns (uint256 shares);\n   function claimTo(address to) external; }\n\n/**\n* @title   Paytr\n* @notice  Paytr allows you to earn by paying early.\n*/\n\ncontract Paytr is Ownable, Pausable, ReentrancyGuard {\n   using SafeERC20 for IERC20;\n\n   error InvalidAmount();\n   error PaymentReferenceInUse();\n   error NotAuthorized();\n   error ZeroPayeeAddress();\n   error ZeroFeeAddress();\n   error DueDateNotAllowed();\n   error NoPrePayment();\n   error DueDateNotZero();\n   error InvalidNewDueDate();\n   error InvalidArrayLength();\n   error ReferenceNotDue();\n   error InvalidFeeModifier();\n   error InvalidMinDueDate();\n   error InvalidMaxDueDate();\n   error InvalidMinAmount();\n   error InvalidMaxArraySize();\n\n   address immutable baseAsset;\n   address ERC20FeeProxyAddress;\n   address immutable  wrapperAddress;\n   address immutable  cometAddress;\n   uint8 maxPayoutArraySize;\n   uint16 feeModifier;\n   uint256 minDueDateParameter;\n   uint256 maxDueDateParameter;   \n   uint256 minAmount;\n   uint256 maxAmount;\n\n   struct PaymentERC20 {\n       uint256 amount;\n       uint256 feeAmount;\n       uint256 dueDate;\n       uint256 wrapperSharesReceived;\n       address payer;\n       address payee;\n       address feeAddress;\n   }\n\n   constructor(address _cometAddress, address _wrapperAddress, uint16 _feeModifier, uint256 _minDueDateParameter, uint256 _maxDueDateParameter, uint256 _minAmount, uint256 _maxAmount, uint8 _maxPayoutArraySize) {\n       cometAddress = _cometAddress;\n       baseAsset = IComet(cometAddress).baseToken();\n       wrapperAddress = _wrapperAddress;\n       feeModifier = _feeModifier;\n       minDueDateParameter = _minDueDateParameter;\t\n       maxDueDateParameter = _maxDueDateParameter;\n       minAmount = _minAmount;\n       maxAmount = _maxAmount;\n       maxPayoutArraySize = _maxPayoutArraySize;\n       IComet(cometAddress).allow(wrapperAddress, true);\n   }\n\n   event PaymentERC20Event(address tokenAddress, address payee, address feeAddress, uint256 amount, uint256 dueDate, uint256 feeAmount, bytes paymentReference);\n   event PayOutERC20Event(address tokenAddress, address payee, address feeAddress, uint256 amount, bytes paymentReference,uint256 feeAmount);\n   event InterestPayoutEvent(address tokenAddress, address payee, uint256 interestAmount, bytes paymentReference);\n   event ContractParametersUpdatedEvent(uint16 feeModifier, uint256 minDueDateParameter, uint256 maxDueDateParameter, uint256 minAmount, uint256 maxAmount, uint8 maxPayoutArraySize);\n\n   /**\n    * @notice paymentMapping keeps track of the paid invoices.\n  */\n   mapping(bytes => PaymentERC20) public paymentMapping;\n\n   /**\n    * @notice allowedRequestNetworkFeeAddresses makes sure ERC20 payments originating from the Request Network protocol go through the correct ERC20FeeProxy contract.\n       This makes sure Request Network can detect the payment.\n   */\n   mapping(address => bool) public allowedRequestNetworkFeeAddresses;\n\n   /**\n    * @notice modifier only allows payer to use this function.\n    */\n   modifier OnlyPayer(bytes memory _paymentReference) {\n       if(msg.sender != paymentMapping[_paymentReference].payer) revert NotAuthorized();\n       _;\n   }\n\n   /**\n   * @notice Make a payment using an ERC20 token.\n   * @notice This function can't be used while it's paused.\n   * @param _payee The receiver of the payment.\n   * @param _feeAddress When using an additional fee, this is the address that will receive the _feeAmount.\n   * @param _dueDate The due date of the payment, or invoice, in epoch time.\n   * @param _amount The _asset amount in wei.\n   * @param _feeAmount The total _asset fee amount in wei.\n   * @param _paymentReference Reference of the related payment.\n   * @dev Uses modifiers nonReentrant and whenNotPaused.\n   * @dev The parameter _dueDate needs to be inserted in number of days (uint8).\n   */\n\n    function payInvoiceERC20(\n        address _payee,\n        address _feeAddress,\n        uint256 _dueDate,\n        uint256 _amount,\n        uint256 _feeAmount,\n        bytes calldata _paymentReference\n        ) public nonReentrant whenNotPaused {\n\n            if(paymentMapping[_paymentReference].amount != 0) revert PaymentReferenceInUse();\n            if(_amount < minAmount || _amount > maxAmount) revert InvalidAmount();\n            if(paymentMapping[_paymentReference].payer == msg.sender) revert PaymentReferenceInUse();\n            if(paymentMapping[_paymentReference].payee == _payee) revert PaymentReferenceInUse();\n            if(_payee == address(0)) revert ZeroPayeeAddress();\n            if(_feeAddress == address(0)) revert ZeroFeeAddress();\n            if(_dueDate < block.timestamp + minDueDateParameter || _dueDate > block.timestamp + maxDueDateParameter) revert DueDateNotAllowed();            \n\n            IERC20(baseAsset).safeTransferFrom(msg.sender, address(this), _amount + _feeAmount);\n            IERC20(baseAsset).forceApprove(cometAddress, _amount + _feeAmount);\n\n            uint256 cUsdcbalanceBeforeSupply = IERC20(cometAddress).balanceOf(address(this));\n            IComet(cometAddress).supply(baseAsset, _amount + _feeAmount);\n            uint256 cUsdcbalanceAfterSupply = IERC20(cometAddress).balanceOf(address(this));\n            uint256 cUsdcAmountToWrap = cUsdcbalanceAfterSupply - cUsdcbalanceBeforeSupply;         \n\n            uint256 wrappedShares = IWrapper(wrapperAddress).deposit(cUsdcAmountToWrap, address(this));\n\n            paymentMapping[_paymentReference] = PaymentERC20(\n                _amount,\n                _feeAmount,\n                _dueDate,\n                wrappedShares,\n                msg.sender,\n                _payee,\n                _feeAddress     \n            );\n\n            emit PaymentERC20Event(baseAsset, _payee, _feeAddress, _amount, _dueDate, _feeAmount, _paymentReference);         \n    }\n\n    /**                                                                             \n    * @notice Allows the contract to pay payee (principal amount), payer (interest amount) and fee receiver (fee amount).\n    This function cannot be paused.\n    * @param payoutReferencesArray Insert the bytes array of references that need to be paid out.\n    * @dev Uses modifier nonReentrant.\n    **/\n    function payOutERC20Invoice(bytes[] calldata payoutReferencesArray) external nonReentrant {\n\n       uint256 i;\n       uint256 payoutReferencesArrayLength = payoutReferencesArray.length;\n\n       if(payoutReferencesArrayLength == 0 || payoutReferencesArrayLength > maxPayoutArraySize) revert InvalidArrayLength();\n\n       for (; i < payoutReferencesArrayLength;) {\n            bytes memory _paymentReference = payoutReferencesArray[i];\n            if(paymentMapping[_paymentReference].amount == 0) revert NoPrePayment();\n            if(paymentMapping[_paymentReference].dueDate > block.timestamp) revert ReferenceNotDue();\n\n            address payable _payee = payable(paymentMapping[_paymentReference].payee);\n            address payable _payer = payable(paymentMapping[_paymentReference].payer);\n            address payable _feeAddress = payable(paymentMapping[_paymentReference].feeAddress);\n            uint256 _amount = paymentMapping[_paymentReference].amount;\n            uint256 _feeAmount = paymentMapping[_paymentReference].feeAmount;\n            uint256 _wrapperSharesToRedeem = paymentMapping[_paymentReference].wrapperSharesReceived;\n\n            paymentMapping[_paymentReference].amount = 0; //prevents double payout because of the require statement\n\n            //redeem Wrapper shares and receive v3 cTokens\n            IWrapper(wrapperAddress).redeem(_wrapperSharesToRedeem, address(this), address(this));\n\n            //redeem all available v3 cTokens from Compound for baseAsset tokens\n            uint256 cTokensToRedeem = IERC20(cometAddress).balanceOf(address(this));\n            IComet(cometAddress).withdraw(baseAsset, cTokensToRedeem);\n\n            //get new USDC balance\n            uint256 _totalInterestGathered = IERC20(baseAsset).balanceOf(address(this)) - _amount - _feeAmount;\n            uint256 _interestAmount = _totalInterestGathered * feeModifier / 10000;\n\n            if(allowedRequestNetworkFeeAddresses[_feeAddress] == true) {\n                IERC20(baseAsset).forceApprove(ERC20FeeProxyAddress, _amount + _feeAmount);\n\n                IERC20FeeProxy(ERC20FeeProxyAddress).transferFromWithReferenceAndFee(\n                        baseAsset,\n                        _payee,\n                        _amount,\n                        _paymentReference,\n                        _feeAmount,\n                        _feeAddress\n                );\n\n            } else {\n                IERC20(baseAsset).safeTransfer(_payee, _amount);\n                if(_feeAmount != 0) {\n                        IERC20(baseAsset).safeTransfer(_feeAddress, _feeAmount);\n                }\n            }\n\n            IERC20(baseAsset).safeTransfer(_payer, _interestAmount);\n            ++i;\n\n            emit PayOutERC20Event(baseAsset, _payee, _feeAddress, _amount, _paymentReference, _feeAmount);\n            emit InterestPayoutEvent(baseAsset, _payer, _interestAmount, _paymentReference);\n        }\n\n   }\n\n   function claimCompRewards() external onlyOwner {\n       IWrapper(wrapperAddress).claimTo(owner());\n   }\n\n   function claimBaseAssetBalance() external onlyOwner {\n       IERC20(baseAsset).safeTransfer(owner(), IERC20(baseAsset).balanceOf(address(this)));\n   }\n\n   function setContractParameters(uint16 _feeModifier, uint256 _minDueDateParameter, uint256 _maxDueDateParameter, uint256 _minAmount, uint256 _maxAmount, uint8 _maxPayoutArraySize) external onlyOwner {\n         if(_feeModifier < 5000 || _feeModifier > 10000 ) revert InvalidFeeModifier();\n         if(_minDueDateParameter < 5 * 86400) revert InvalidMinDueDate();\n         if(_maxDueDateParameter > 365 * 86400) revert InvalidMaxDueDate();\n         if(_minAmount < 1) revert InvalidMinAmount();\n         if(_maxPayoutArraySize == 0) revert InvalidMaxArraySize();\n         feeModifier = _feeModifier;\n         minDueDateParameter = _minDueDateParameter;\n         maxDueDateParameter = _maxDueDateParameter;\n         minAmount = _minAmount;\n         maxAmount = _maxAmount;\n         maxPayoutArraySize = _maxPayoutArraySize;\n\n         emit ContractParametersUpdatedEvent(feeModifier, minDueDateParameter, maxDueDateParameter, minAmount, maxAmount, maxPayoutArraySize);\n   }\n\n   function addRequestNetworkFeeAddress(address _requestNetworkFeeAddress) external onlyOwner {\n       allowedRequestNetworkFeeAddresses[_requestNetworkFeeAddress] = true;\n   }\n\n   function setERC20FeeProxy(address _ERC20FeeProxyAddress) external onlyOwner {\n       ERC20FeeProxyAddress = _ERC20FeeProxyAddress;\n   }\n\n   function pause() external onlyOwner {\n       _pause();\n   }\n\n   function unpause() external onlyOwner {\n       _unpause();\n   }\n\n}",
  "sourcePath": "/Users/pieterclaesen/blockchain/contracts/contracts/Paytr.sol",
  "compiler": {
    "name": "solc",
    "version": "0.8.19+commit.7dd6d404.Emscripten.clang"
  },
  "schemaVersion": "3.4.14",
  "updatedAt": "2023-10-27T19:07:04.979Z",
  "networkType": "ethereum",
  "devdoc": {
    "events": {
      "Paused(address)": {
        "details": "Emitted when the pause is triggered by `account`."
      },
      "Unpaused(address)": {
        "details": "Emitted when the pause is lifted by `account`."
      }
    },
    "kind": "dev",
    "methods": {
      "owner()": {
        "details": "Returns the address of the current owner."
      },
      "paused()": {
        "details": "Returns true if the contract is paused, and false otherwise."
      },
      "payInvoiceERC20(address,address,uint256,uint256,uint256,bytes)": {
        "details": "Uses modifiers nonReentrant and whenNotPaused.The parameter _dueDate needs to be inserted in number of days (uint8).",
        "params": {
          "_amount": "The _asset amount in wei.",
          "_dueDate": "The due date of the payment, or invoice, in epoch time.",
          "_feeAddress": "When using an additional fee, this is the address that will receive the _feeAmount.",
          "_feeAmount": "The total _asset fee amount in wei.",
          "_payee": "The receiver of the payment.",
          "_paymentReference": "Reference of the related payment."
        }
      },
      "payOutERC20Invoice(bytes[])": {
        "details": "Uses modifier nonReentrant.*",
        "params": {
          "payoutReferencesArray": "Insert the bytes array of references that need to be paid out."
        }
      },
      "renounceOwnership()": {
        "details": "Leaves the contract without owner. It will not be possible to call `onlyOwner` functions. Can only be called by the current owner. NOTE: Renouncing ownership will leave the contract without an owner, thereby disabling any functionality that is only available to the owner."
      },
      "transferOwnership(address)": {
        "details": "Transfers ownership of the contract to a new account (`newOwner`). Can only be called by the current owner."
      }
    },
    "title": "Paytr",
    "version": 1
  },
  "userdoc": {
    "kind": "user",
    "methods": {
      "allowedRequestNetworkFeeAddresses(address)": {
        "notice": "allowedRequestNetworkFeeAddresses makes sure ERC20 payments originating from the Request Network protocol go through the correct ERC20FeeProxy contract. This makes sure Request Network can detect the payment."
      },
      "payInvoiceERC20(address,address,uint256,uint256,uint256,bytes)": {
        "notice": "Make a payment using an ERC20 token.This function can't be used while it's paused."
      },
      "payOutERC20Invoice(bytes[])": {
        "notice": "Allows the contract to pay payee (principal amount), payer (interest amount) and fee receiver (fee amount). This function cannot be paused."
      },
      "paymentMapping(bytes)": {
        "notice": "paymentMapping keeps track of the paid invoices."
      }
    },
    "notice": "Paytr allows you to earn by paying early.",
    "version": 1
  }
}