{
  "contractName": "Paytr",
  "abi": [
    {
      "inputs": [
        {
          "internalType": "address",
          "name": "_cometAddress",
          "type": "address"
        },
        {
          "internalType": "address",
          "name": "_wrapperAddress",
          "type": "address"
        },
        {
          "internalType": "uint16",
          "name": "_feeModifier",
          "type": "uint16"
        },
        {
          "internalType": "uint256",
          "name": "_minDueDateParameter",
          "type": "uint256"
        },
        {
          "internalType": "uint256",
          "name": "_maxDueDateParameter",
          "type": "uint256"
        },
        {
          "internalType": "uint256",
          "name": "_minAmount",
          "type": "uint256"
        },
        {
          "internalType": "uint256",
          "name": "_maxAmount",
          "type": "uint256"
        },
        {
          "internalType": "uint8",
          "name": "_maxPayoutArraySize",
          "type": "uint8"
        }
      ],
      "stateMutability": "nonpayable",
      "type": "constructor"
    },
    {
      "inputs": [],
      "name": "DueDateNotAllowed",
      "type": "error"
    },
    {
      "inputs": [],
      "name": "DueDateNotZero",
      "type": "error"
    },
    {
      "inputs": [],
      "name": "InvalidAmount",
      "type": "error"
    },
    {
      "inputs": [],
      "name": "InvalidArrayLength",
      "type": "error"
    },
    {
      "inputs": [],
      "name": "InvalidFeeModifier",
      "type": "error"
    },
    {
      "inputs": [],
      "name": "InvalidMaxArraySize",
      "type": "error"
    },
    {
      "inputs": [],
      "name": "InvalidMaxDueDate",
      "type": "error"
    },
    {
      "inputs": [],
      "name": "InvalidMinAmount",
      "type": "error"
    },
    {
      "inputs": [],
      "name": "InvalidMinDueDate",
      "type": "error"
    },
    {
      "inputs": [],
      "name": "InvalidNewDueDate",
      "type": "error"
    },
    {
      "inputs": [],
      "name": "NoPrePayment",
      "type": "error"
    },
    {
      "inputs": [],
      "name": "NotAuthorized",
      "type": "error"
    },
    {
      "inputs": [],
      "name": "PaymentReferenceInUse",
      "type": "error"
    },
    {
      "inputs": [],
      "name": "ReferenceNotDue",
      "type": "error"
    },
    {
      "inputs": [],
      "name": "ZeroFeeAddress",
      "type": "error"
    },
    {
      "inputs": [],
      "name": "ZeroPayeeAddress",
      "type": "error"
    },
    {
      "anonymous": false,
      "inputs": [
        {
          "indexed": false,
          "internalType": "uint16",
          "name": "feeModifier",
          "type": "uint16"
        },
        {
          "indexed": false,
          "internalType": "uint256",
          "name": "minDueDateParameter",
          "type": "uint256"
        },
        {
          "indexed": false,
          "internalType": "uint256",
          "name": "maxDueDateParameter",
          "type": "uint256"
        },
        {
          "indexed": false,
          "internalType": "uint256",
          "name": "minAmount",
          "type": "uint256"
        },
        {
          "indexed": false,
          "internalType": "uint256",
          "name": "maxAmount",
          "type": "uint256"
        },
        {
          "indexed": false,
          "internalType": "uint8",
          "name": "maxPayoutArraySize",
          "type": "uint8"
        }
      ],
      "name": "ContractParametersUpdatedEvent",
      "type": "event"
    },
    {
      "anonymous": false,
      "inputs": [
        {
          "indexed": false,
          "internalType": "address",
          "name": "tokenAddress",
          "type": "address"
        },
        {
          "indexed": false,
          "internalType": "address",
          "name": "payee",
          "type": "address"
        },
        {
          "indexed": false,
          "internalType": "uint256",
          "name": "interestAmount",
          "type": "uint256"
        },
        {
          "indexed": false,
          "internalType": "bytes",
          "name": "paymentReference",
          "type": "bytes"
        }
      ],
      "name": "InterestPayoutEvent",
      "type": "event"
    },
    {
      "anonymous": false,
      "inputs": [
        {
          "indexed": true,
          "internalType": "address",
          "name": "previousOwner",
          "type": "address"
        },
        {
          "indexed": true,
          "internalType": "address",
          "name": "newOwner",
          "type": "address"
        }
      ],
      "name": "OwnershipTransferred",
      "type": "event"
    },
    {
      "anonymous": false,
      "inputs": [
        {
          "indexed": false,
          "internalType": "address",
          "name": "account",
          "type": "address"
        }
      ],
      "name": "Paused",
      "type": "event"
    },
    {
      "anonymous": false,
      "inputs": [
        {
          "indexed": false,
          "internalType": "address",
          "name": "tokenAddress",
          "type": "address"
        },
        {
          "indexed": false,
          "internalType": "address",
          "name": "payee",
          "type": "address"
        },
        {
          "indexed": false,
          "internalType": "address",
          "name": "feeAddress",
          "type": "address"
        },
        {
          "indexed": false,
          "internalType": "uint256",
          "name": "amount",
          "type": "uint256"
        },
        {
          "indexed": false,
          "internalType": "bytes",
          "name": "paymentReference",
          "type": "bytes"
        },
        {
          "indexed": false,
          "internalType": "uint256",
          "name": "feeAmount",
          "type": "uint256"
        }
      ],
      "name": "PayOutERC20Event",
      "type": "event"
    },
    {
      "anonymous": false,
      "inputs": [
        {
          "indexed": false,
          "internalType": "address",
          "name": "tokenAddress",
          "type": "address"
        },
        {
          "indexed": false,
          "internalType": "address",
          "name": "payee",
          "type": "address"
        },
        {
          "indexed": false,
          "internalType": "address",
          "name": "feeAddress",
          "type": "address"
        },
        {
          "indexed": false,
          "internalType": "uint256",
          "name": "amount",
          "type": "uint256"
        },
        {
          "indexed": false,
          "internalType": "uint256",
          "name": "dueDate",
          "type": "uint256"
        },
        {
          "indexed": false,
          "internalType": "uint256",
          "name": "feeAmount",
          "type": "uint256"
        },
        {
          "indexed": false,
          "internalType": "bytes",
          "name": "paymentReference",
          "type": "bytes"
        }
      ],
      "name": "PaymentERC20Event",
      "type": "event"
    },
    {
      "anonymous": false,
      "inputs": [
        {
          "indexed": false,
          "internalType": "address",
          "name": "account",
          "type": "address"
        }
      ],
      "name": "Unpaused",
      "type": "event"
    },
    {
      "inputs": [
        {
          "internalType": "address",
          "name": "",
          "type": "address"
        }
      ],
      "name": "allowedRequestNetworkFeeAddresses",
      "outputs": [
        {
          "internalType": "bool",
          "name": "",
          "type": "bool"
        }
      ],
      "stateMutability": "view",
      "type": "function",
      "constant": true
    },
    {
      "inputs": [],
      "name": "feeModifier",
      "outputs": [
        {
          "internalType": "uint16",
          "name": "",
          "type": "uint16"
        }
      ],
      "stateMutability": "view",
      "type": "function",
      "constant": true
    },
    {
      "inputs": [],
      "name": "maxAmount",
      "outputs": [
        {
          "internalType": "uint256",
          "name": "",
          "type": "uint256"
        }
      ],
      "stateMutability": "view",
      "type": "function",
      "constant": true
    },
    {
      "inputs": [],
      "name": "maxDueDateParameter",
      "outputs": [
        {
          "internalType": "uint256",
          "name": "",
          "type": "uint256"
        }
      ],
      "stateMutability": "view",
      "type": "function",
      "constant": true
    },
    {
      "inputs": [],
      "name": "maxPayoutArraySize",
      "outputs": [
        {
          "internalType": "uint8",
          "name": "",
          "type": "uint8"
        }
      ],
      "stateMutability": "view",
      "type": "function",
      "constant": true
    },
    {
      "inputs": [],
      "name": "minAmount",
      "outputs": [
        {
          "internalType": "uint256",
          "name": "",
          "type": "uint256"
        }
      ],
      "stateMutability": "view",
      "type": "function",
      "constant": true
    },
    {
      "inputs": [],
      "name": "minDueDateParameter",
      "outputs": [
        {
          "internalType": "uint256",
          "name": "",
          "type": "uint256"
        }
      ],
      "stateMutability": "view",
      "type": "function",
      "constant": true
    },
    {
      "inputs": [],
      "name": "owner",
      "outputs": [
        {
          "internalType": "address",
          "name": "",
          "type": "address"
        }
      ],
      "stateMutability": "view",
      "type": "function",
      "constant": true
    },
    {
      "inputs": [],
      "name": "paused",
      "outputs": [
        {
          "internalType": "bool",
          "name": "",
          "type": "bool"
        }
      ],
      "stateMutability": "view",
      "type": "function",
      "constant": true
    },
    {
      "inputs": [
        {
          "internalType": "bytes",
          "name": "",
          "type": "bytes"
        }
      ],
      "name": "paymentMapping",
      "outputs": [
        {
          "internalType": "uint256",
          "name": "amount",
          "type": "uint256"
        },
        {
          "internalType": "uint256",
          "name": "feeAmount",
          "type": "uint256"
        },
        {
          "internalType": "uint256",
          "name": "dueDate",
          "type": "uint256"
        },
        {
          "internalType": "uint256",
          "name": "wrapperSharesReceived",
          "type": "uint256"
        },
        {
          "internalType": "address",
          "name": "payer",
          "type": "address"
        },
        {
          "internalType": "address",
          "name": "payee",
          "type": "address"
        },
        {
          "internalType": "address",
          "name": "feeAddress",
          "type": "address"
        }
      ],
      "stateMutability": "view",
      "type": "function",
      "constant": true
    },
    {
      "inputs": [],
      "name": "renounceOwnership",
      "outputs": [],
      "stateMutability": "nonpayable",
      "type": "function"
    },
    {
      "inputs": [
        {
          "internalType": "address",
          "name": "newOwner",
          "type": "address"
        }
      ],
      "name": "transferOwnership",
      "outputs": [],
      "stateMutability": "nonpayable",
      "type": "function"
    },
    {
      "inputs": [
        {
          "internalType": "address",
          "name": "_payee",
          "type": "address"
        },
        {
          "internalType": "address",
          "name": "_feeAddress",
          "type": "address"
        },
        {
          "internalType": "uint256",
          "name": "_dueDate",
          "type": "uint256"
        },
        {
          "internalType": "uint256",
          "name": "_amount",
          "type": "uint256"
        },
        {
          "internalType": "uint256",
          "name": "_feeAmount",
          "type": "uint256"
        },
        {
          "internalType": "bytes",
          "name": "_paymentReference",
          "type": "bytes"
        }
      ],
      "name": "payInvoiceERC20",
      "outputs": [],
      "stateMutability": "nonpayable",
      "type": "function"
    },
    {
      "inputs": [
        {
          "internalType": "bytes[]",
          "name": "payoutReferencesArray",
          "type": "bytes[]"
        }
      ],
      "name": "payOutERC20Invoice",
      "outputs": [],
      "stateMutability": "nonpayable",
      "type": "function"
    },
    {
      "inputs": [],
      "name": "claimCompRewards",
      "outputs": [],
      "stateMutability": "nonpayable",
      "type": "function"
    },
    {
      "inputs": [],
      "name": "claimBaseAssetBalance",
      "outputs": [],
      "stateMutability": "nonpayable",
      "type": "function"
    },
    {
      "inputs": [
        {
          "internalType": "uint16",
          "name": "_feeModifier",
          "type": "uint16"
        },
        {
          "internalType": "uint256",
          "name": "_minDueDateParameter",
          "type": "uint256"
        },
        {
          "internalType": "uint256",
          "name": "_maxDueDateParameter",
          "type": "uint256"
        },
        {
          "internalType": "uint256",
          "name": "_minAmount",
          "type": "uint256"
        },
        {
          "internalType": "uint256",
          "name": "_maxAmount",
          "type": "uint256"
        },
        {
          "internalType": "uint8",
          "name": "_maxPayoutArraySize",
          "type": "uint8"
        }
      ],
      "name": "setContractParameters",
      "outputs": [],
      "stateMutability": "nonpayable",
      "type": "function"
    },
    {
      "inputs": [
        {
          "internalType": "address",
          "name": "_requestNetworkFeeAddress",
          "type": "address"
        }
      ],
      "name": "addRequestNetworkFeeAddress",
      "outputs": [],
      "stateMutability": "nonpayable",
      "type": "function"
    },
    {
      "inputs": [
        {
          "internalType": "address",
          "name": "_ERC20FeeProxyAddress",
          "type": "address"
        }
      ],
      "name": "setERC20FeeProxy",
      "outputs": [],
      "stateMutability": "nonpayable",
      "type": "function"
    },
    {
      "inputs": [],
      "name": "pause",
      "outputs": [],
      "stateMutability": "nonpayable",
      "type": "function"
    },
    {
      "inputs": [],
      "name": "unpause",
      "outputs": [],
      "stateMutability": "nonpayable",
      "type": "function"
    }
  ],
  "bytecode": "0x60e06040523480156200001157600080fd5b5060405162003c2c38038062003c2c83398181016040528101906200003791906200044d565b620000576200004b6200025f60201b60201c565b6200026760201b60201c565b60008060146101000a81548160ff021916908315150217905550600180819055508773ffffffffffffffffffffffffffffffffffffffff1660c08173ffffffffffffffffffffffffffffffffffffffff168152505060c05173ffffffffffffffffffffffffffffffffffffffff1663c55dae636040518163ffffffff1660e01b8152600401602060405180830381865afa158015620000fa573d6000803e3d6000fd5b505050506040513d601f19601f8201168201806040525081019062000120919062000516565b73ffffffffffffffffffffffffffffffffffffffff1660808173ffffffffffffffffffffffffffffffffffffffff16815250508673ffffffffffffffffffffffffffffffffffffffff1660a08173ffffffffffffffffffffffffffffffffffffffff168152505085600260156101000a81548161ffff021916908361ffff1602179055508460038190555083600481905550826005819055508160068190555080600260146101000a81548160ff021916908360ff16021790555060c05173ffffffffffffffffffffffffffffffffffffffff1663110496e560a05160016040518363ffffffff1660e01b81526004016200021d92919062000576565b600060405180830381600087803b1580156200023857600080fd5b505af11580156200024d573d6000803e3d6000fd5b505050505050505050505050620005a3565b600033905090565b60008060009054906101000a900473ffffffffffffffffffffffffffffffffffffffff169050816000806101000a81548173ffffffffffffffffffffffffffffffffffffffff021916908373ffffffffffffffffffffffffffffffffffffffff1602179055508173ffffffffffffffffffffffffffffffffffffffff168173ffffffffffffffffffffffffffffffffffffffff167f8be0079c531659141344cd1fd0a4f28419497f9722a3daafe3b4186f6b6457e060405160405180910390a35050565b600080fd5b600073ffffffffffffffffffffffffffffffffffffffff82169050919050565b60006200035d8262000330565b9050919050565b6200036f8162000350565b81146200037b57600080fd5b50565b6000815190506200038f8162000364565b92915050565b600061ffff82169050919050565b620003ae8162000395565b8114620003ba57600080fd5b50565b600081519050620003ce81620003a3565b92915050565b6000819050919050565b620003e981620003d4565b8114620003f557600080fd5b50565b6000815190506200040981620003de565b92915050565b600060ff82169050919050565b62000427816200040f565b81146200043357600080fd5b50565b60008151905062000447816200041c565b92915050565b600080600080600080600080610100898b0312156200047157620004706200032b565b5b6000620004818b828c016200037e565b9850506020620004948b828c016200037e565b9750506040620004a78b828c01620003bd565b9650506060620004ba8b828c01620003f8565b9550506080620004cd8b828c01620003f8565b94505060a0620004e08b828c01620003f8565b93505060c0620004f38b828c01620003f8565b92505060e0620005068b828c0162000436565b9150509295985092959890939650565b6000602082840312156200052f576200052e6200032b565b5b60006200053f848285016200037e565b91505092915050565b620005538162000350565b82525050565b60008115159050919050565b620005708162000559565b82525050565b60006040820190506200058d600083018562000548565b6200059c602083018462000565565b9392505050565b60805160a05160c0516135c662000666600039600081816108970152818161093301528181611479015281816114ee0152818161158a0152611644015260008181610405015281816107f401526116f201526000818161096f015281816109e401528181610b4f01528181610bd301528181610c5601528181610ca901528181610cf601528181610d6301528181610dc40152818161142f015281816114a6015281816115c601528181611948015281816119e70152611a8101526135c66000f3fe608060405234801561001057600080fd5b50600436106101375760003560e01c80636e2f87f3116100b85780639b2cb5d81161007c5780639b2cb5d8146102be578063a3e9f0fa146102dc578063a9948c96146102f8578063c11e284614610328578063ed19fa8414610346578063f2fde38b1461035057610137565b80636e2f87f314610254578063715018a6146102705780638456cb591461027a5780638da5cb5b1461028457806391045517146102a257610137565b806346778635116100ff57806346778635146101a85780634beb2a1e146101de5780635c975abb146101fa5780635f48f39314610218578063616212ba1461023657610137565b80631c18bcb21461013c57806339c541611461015a5780633d1d15bf146101765780633f4ba83a1461019457806345107cae1461019e575b600080fd5b61014461036c565b60405161015191906123d7565b60405180910390f35b610174600480360381019061016f9190612464565b610380565b005b61017e6103e3565b60405161018b91906124aa565b60405180910390f35b61019c6103e9565b005b6101a66103fb565b005b6101c260048036038101906101bd919061260b565b610497565b6040516101d59796959493929190612663565b60405180910390f35b6101f860048036038101906101f39190612732565b61054f565b005b610202610e1b565b60405161020f919061279a565b60405180910390f35b610220610e31565b60405161022d91906124aa565b60405180910390f35b61023e610e37565b60405161024b91906124aa565b60405180910390f35b61026e60048036038101906102699190612464565b610e3d565b005b610278610e89565b005b610282610e9d565b005b61028c610eaf565b60405161029991906127b5565b60405180910390f35b6102bc60048036038101906102b79190612861565b610ed8565b005b6102c66110e7565b6040516102d391906124aa565b60405180910390f35b6102f660048036038101906102f19190612944565b6110ed565b005b610312600480360381019061030d9190612464565b61199f565b60405161031f919061279a565b60405180910390f35b6103306119bf565b60405161033d9190612a02565b60405180910390f35b61034e6119d2565b005b61036a60048036038101906103659190612464565b611ac7565b005b600260159054906101000a900461ffff1681565b610388611b4a565b6001600860008373ffffffffffffffffffffffffffffffffffffffff1673ffffffffffffffffffffffffffffffffffffffff16815260200190815260200160002060006101000a81548160ff02191690831515021790555050565b60045481565b6103f1611b4a565b6103f9611bc8565b565b610403611b4a565b7f000000000000000000000000000000000000000000000000000000000000000073ffffffffffffffffffffffffffffffffffffffff1663a262f5f8610447610eaf565b6040518263ffffffff1660e01b815260040161046391906127b5565b600060405180830381600087803b15801561047d57600080fd5b505af1158015610491573d6000803e3d6000fd5b50505050565b6007818051602081018201805184825260208301602085012081835280955050505050506000915090508060000154908060010154908060020154908060030154908060040160009054906101000a900473ffffffffffffffffffffffffffffffffffffffff16908060050160009054906101000a900473ffffffffffffffffffffffffffffffffffffffff16908060060160009054906101000a900473ffffffffffffffffffffffffffffffffffffffff16905087565b610557611c2a565b60008083839050905060008114806105805750600260149054906101000a900460ff1660ff1681115b156105b7576040517f9d89020a00000000000000000000000000000000000000000000000000000000815260040160405180910390fd5b5b80821015610e0d5760008484848181106105d5576105d4612a1d565b5b90506020028101906105e79190612a5b565b8080601f016020809104026020016040519081016040528093929190818152602001838380828437600081840152601f19601f820116905080830192505050505050509050600060078260405161063e9190612b2f565b90815260200160405180910390206000015403610687576040517f2a313f9300000000000000000000000000000000000000000000000000000000815260040160405180910390fd5b60006007826040516106999190612b2f565b908152602001604051809103902060050160009054906101000a900473ffffffffffffffffffffffffffffffffffffffff16905060006007836040516106df9190612b2f565b908152602001604051809103902060040160009054906101000a900473ffffffffffffffffffffffffffffffffffffffff16905060006007846040516107259190612b2f565b908152602001604051809103902060060160009054906101000a900473ffffffffffffffffffffffffffffffffffffffff169050600060078560405161076b9190612b2f565b908152602001604051809103902060000154905060006007866040516107919190612b2f565b908152602001604051809103902060010154905060006007876040516107b79190612b2f565b908152602001604051809103902060030154905060006007886040516107dd9190612b2f565b9081526020016040518091039020600001819055507f000000000000000000000000000000000000000000000000000000000000000073ffffffffffffffffffffffffffffffffffffffff1663ba0876528230306040518463ffffffff1660e01b815260040161084f93929190612b46565b6020604051808303816000875af115801561086e573d6000803e3d6000fd5b505050506040513d601f19601f820116820180604052508101906108929190612b92565b5060007f000000000000000000000000000000000000000000000000000000000000000073ffffffffffffffffffffffffffffffffffffffff166370a08231306040518263ffffffff1660e01b81526004016108ee91906127b5565b602060405180830381865afa15801561090b573d6000803e3d6000fd5b505050506040513d601f19601f8201168201806040525081019061092f9190612b92565b90507f000000000000000000000000000000000000000000000000000000000000000073ffffffffffffffffffffffffffffffffffffffff1663f3fef3a37f0000000000000000000000000000000000000000000000000000000000000000836040518363ffffffff1660e01b81526004016109ac929190612bbf565b600060405180830381600087803b1580156109c657600080fd5b505af11580156109da573d6000803e3d6000fd5b50505050600083857f000000000000000000000000000000000000000000000000000000000000000073ffffffffffffffffffffffffffffffffffffffff166370a08231306040518263ffffffff1660e01b8152600401610a3b91906127b5565b602060405180830381865afa158015610a58573d6000803e3d6000fd5b505050506040513d601f19601f82011682018060405250810190610a7c9190612b92565b610a869190612c17565b610a909190612c17565b90506000612710600260159054906101000a900461ffff1661ffff1683610ab79190612c4b565b610ac19190612cbc565b905060011515600860008973ffffffffffffffffffffffffffffffffffffffff1673ffffffffffffffffffffffffffffffffffffffff16815260200190815260200160002060009054906101000a900460ff16151503610c4f57610b93600260009054906101000a900473ffffffffffffffffffffffffffffffffffffffff168688610b4d9190612ced565b7f000000000000000000000000000000000000000000000000000000000000000073ffffffffffffffffffffffffffffffffffffffff16611c799092919063ffffffff16565b600260009054906101000a900473ffffffffffffffffffffffffffffffffffffffff1673ffffffffffffffffffffffffffffffffffffffff1663c219a14d7f00000000000000000000000000000000000000000000000000000000000000008b898e8a8d6040518763ffffffff1660e01b8152600401610c1896959493929190612dca565b600060405180830381600087803b158015610c3257600080fd5b505af1158015610c46573d6000803e3d6000fd5b50505050610cef565b610c9a89877f000000000000000000000000000000000000000000000000000000000000000073ffffffffffffffffffffffffffffffffffffffff16611d969092919063ffffffff16565b60008514610cee57610ced87867f000000000000000000000000000000000000000000000000000000000000000073ffffffffffffffffffffffffffffffffffffffff16611d969092919063ffffffff16565b5b5b610d3a88827f000000000000000000000000000000000000000000000000000000000000000073ffffffffffffffffffffffffffffffffffffffff16611d969092919063ffffffff16565b8b6001019b507f3c77ae279df37c7ea5dd3a57f101c57dac95417ce9c24279d6ec87d9399c82d77f00000000000000000000000000000000000000000000000000000000000000008a89898e8a604051610d9996959493929190612e32565b60405180910390a17fa5ed23d5ebdea6438acd5b68a3befbb14c431a7a8f221448bfb708ab8a408e9f7f000000000000000000000000000000000000000000000000000000000000000089838d604051610df69493929190612e9a565b60405180910390a1505050505050505050506105b8565b5050610e17611e1c565b5050565b60008060149054906101000a900460ff16905090565b60065481565b60035481565b610e45611b4a565b80600260006101000a81548173ffffffffffffffffffffffffffffffffffffffff021916908373ffffffffffffffffffffffffffffffffffffffff16021790555050565b610e91611b4a565b610e9b6000611e25565b565b610ea5611b4a565b610ead611ee9565b565b60008060009054906101000a900473ffffffffffffffffffffffffffffffffffffffff16905090565b610ee0611b4a565b6113888661ffff161080610ef957506127108661ffff16115b15610f30576040517f2e9ebb9500000000000000000000000000000000000000000000000000000000815260040160405180910390fd5b62069780851015610f6d576040517ff57c57d300000000000000000000000000000000000000000000000000000000815260040160405180910390fd5b6301e13380841115610fab576040517fa7befd8c00000000000000000000000000000000000000000000000000000000815260040160405180910390fd5b6001831015610fe6576040517f9c68554f00000000000000000000000000000000000000000000000000000000815260040160405180910390fd5b60008160ff1603611023576040517ff39d15db00000000000000000000000000000000000000000000000000000000815260040160405180910390fd5b85600260156101000a81548161ffff021916908361ffff1602179055508460038190555083600481905550826005819055508160068190555080600260146101000a81548160ff021916908360ff1602179055507fa20f6f1bd973c2c6838ae762fb84fd32c748ca52d7feed804a1e4a1724d7f701600260159054906101000a900461ffff16600354600454600554600654600260149054906101000a900460ff166040516110d796959493929190612ee6565b60405180910390a1505050505050565b60055481565b6110f5611c2a565b6110fd611f4c565b600060078383604051611111929190612f6c565b9081526020016040518091039020600001541461115a576040517fa685b0f000000000000000000000000000000000000000000000000000000000815260040160405180910390fd5b60055484108061116b575060065484115b156111a2576040517f2c5211c600000000000000000000000000000000000000000000000000000000815260040160405180910390fd5b3373ffffffffffffffffffffffffffffffffffffffff16600783836040516111cb929190612f6c565b908152602001604051809103902060040160009054906101000a900473ffffffffffffffffffffffffffffffffffffffff1673ffffffffffffffffffffffffffffffffffffffff160361124a576040517fa685b0f000000000000000000000000000000000000000000000000000000000815260040160405180910390fd5b8673ffffffffffffffffffffffffffffffffffffffff1660078383604051611273929190612f6c565b908152602001604051809103902060050160009054906101000a900473ffffffffffffffffffffffffffffffffffffffff1673ffffffffffffffffffffffffffffffffffffffff16036112f2576040517fa685b0f000000000000000000000000000000000000000000000000000000000815260040160405180910390fd5b600073ffffffffffffffffffffffffffffffffffffffff168773ffffffffffffffffffffffffffffffffffffffff1603611358576040517f1781d75700000000000000000000000000000000000000000000000000000000815260040160405180910390fd5b600073ffffffffffffffffffffffffffffffffffffffff168673ffffffffffffffffffffffffffffffffffffffff16036113be576040517fffd7845300000000000000000000000000000000000000000000000000000000815260040160405180910390fd5b600354426113cc9190612ced565b8510806113e55750600454426113e29190612ced565b85115b1561141c576040517fa95a225a00000000000000000000000000000000000000000000000000000000815260040160405180910390fd5b6114743330858761142d9190612ced565b7f000000000000000000000000000000000000000000000000000000000000000073ffffffffffffffffffffffffffffffffffffffff16611f96909392919063ffffffff16565b6114ea7f000000000000000000000000000000000000000000000000000000000000000084866114a49190612ced565b7f000000000000000000000000000000000000000000000000000000000000000073ffffffffffffffffffffffffffffffffffffffff16611c799092919063ffffffff16565b60007f000000000000000000000000000000000000000000000000000000000000000073ffffffffffffffffffffffffffffffffffffffff166370a08231306040518263ffffffff1660e01b815260040161154591906127b5565b602060405180830381865afa158015611562573d6000803e3d6000fd5b505050506040513d601f19601f820116820180604052508101906115869190612b92565b90507f000000000000000000000000000000000000000000000000000000000000000073ffffffffffffffffffffffffffffffffffffffff1663f2b9fdb87f000000000000000000000000000000000000000000000000000000000000000086886115f19190612ced565b6040518363ffffffff1660e01b815260040161160e929190612bbf565b600060405180830381600087803b15801561162857600080fd5b505af115801561163c573d6000803e3d6000fd5b5050505060007f000000000000000000000000000000000000000000000000000000000000000073ffffffffffffffffffffffffffffffffffffffff166370a08231306040518263ffffffff1660e01b815260040161169b91906127b5565b602060405180830381865afa1580156116b8573d6000803e3d6000fd5b505050506040513d601f19601f820116820180604052508101906116dc9190612b92565b9050600082826116ec9190612c17565b905060007f000000000000000000000000000000000000000000000000000000000000000073ffffffffffffffffffffffffffffffffffffffff16636e553f6583306040518363ffffffff1660e01b815260040161174b929190612f85565b6020604051808303816000875af115801561176a573d6000803e3d6000fd5b505050506040513d601f19601f8201168201806040525081019061178e9190612b92565b90506040518060e001604052808981526020018881526020018a81526020018281526020013373ffffffffffffffffffffffffffffffffffffffff1681526020018c73ffffffffffffffffffffffffffffffffffffffff1681526020018b73ffffffffffffffffffffffffffffffffffffffff1681525060078787604051611817929190612f6c565b90815260200160405180910390206000820151816000015560208201518160010155604082015181600201556060820151816003015560808201518160040160006101000a81548173ffffffffffffffffffffffffffffffffffffffff021916908373ffffffffffffffffffffffffffffffffffffffff16021790555060a08201518160050160006101000a81548173ffffffffffffffffffffffffffffffffffffffff021916908373ffffffffffffffffffffffffffffffffffffffff16021790555060c08201518160060160006101000a81548173ffffffffffffffffffffffffffffffffffffffff021916908373ffffffffffffffffffffffffffffffffffffffff1602179055509050507f3949326165d95b8a403b9bbb410a566da35367dd971b51a8a331801a571147ed7f00000000000000000000000000000000000000000000000000000000000000008c8c8b8d8c8c8c604051611982989796959493929190612fdb565b60405180910390a150505050611996611e1c565b50505050505050565b60086020528060005260406000206000915054906101000a900460ff1681565b600260149054906101000a900460ff1681565b6119da611b4a565b611ac56119e5610eaf565b7f000000000000000000000000000000000000000000000000000000000000000073ffffffffffffffffffffffffffffffffffffffff166370a08231306040518263ffffffff1660e01b8152600401611a3e91906127b5565b602060405180830381865afa158015611a5b573d6000803e3d6000fd5b505050506040513d601f19601f82011682018060405250810190611a7f9190612b92565b7f000000000000000000000000000000000000000000000000000000000000000073ffffffffffffffffffffffffffffffffffffffff16611d969092919063ffffffff16565b565b611acf611b4a565b600073ffffffffffffffffffffffffffffffffffffffff168173ffffffffffffffffffffffffffffffffffffffff1603611b3e576040517f08c379a0000000000000000000000000000000000000000000000000000000008152600401611b35906130d6565b60405180910390fd5b611b4781611e25565b50565b611b5261201f565b73ffffffffffffffffffffffffffffffffffffffff16611b70610eaf565b73ffffffffffffffffffffffffffffffffffffffff1614611bc6576040517f08c379a0000000000000000000000000000000000000000000000000000000008152600401611bbd90613142565b60405180910390fd5b565b611bd0612027565b60008060146101000a81548160ff0219169083151502179055507f5db9ee0a495bf2e6ff9c91a7834c1ba4fdd244a5e8aa4e537bd38aeae4b073aa611c1361201f565b604051611c2091906127b5565b60405180910390a1565b600260015403611c6f576040517f08c379a0000000000000000000000000000000000000000000000000000000008152600401611c66906131ae565b60405180910390fd5b6002600181905550565b600063095ea7b360e01b8383604051602401611c96929190612bbf565b604051602081830303815290604052907bffffffffffffffffffffffffffffffffffffffffffffffffffffffff19166020820180517bffffffffffffffffffffffffffffffffffffffffffffffffffffffff83818316178352505050509050611cff8482612070565b611d9057611d858463095ea7b360e01b856000604051602401611d23929190613209565b604051602081830303815290604052907bffffffffffffffffffffffffffffffffffffffffffffffffffffffff19166020820180517bffffffffffffffffffffffffffffffffffffffffffffffffffffffff8381831617835250505050612125565b611d8f8482612125565b5b50505050565b611e178363a9059cbb60e01b8484604051602401611db5929190612bbf565b604051602081830303815290604052907bffffffffffffffffffffffffffffffffffffffffffffffffffffffff19166020820180517bffffffffffffffffffffffffffffffffffffffffffffffffffffffff8381831617835250505050612125565b505050565b60018081905550565b60008060009054906101000a900473ffffffffffffffffffffffffffffffffffffffff169050816000806101000a81548173ffffffffffffffffffffffffffffffffffffffff021916908373ffffffffffffffffffffffffffffffffffffffff1602179055508173ffffffffffffffffffffffffffffffffffffffff168173ffffffffffffffffffffffffffffffffffffffff167f8be0079c531659141344cd1fd0a4f28419497f9722a3daafe3b4186f6b6457e060405160405180910390a35050565b611ef1611f4c565b6001600060146101000a81548160ff0219169083151502179055507f62e78cea01bee320cd4e420270b5ea74000d11b0c9f74754ebdbfc544b05a258611f3561201f565b604051611f4291906127b5565b60405180910390a1565b611f54610e1b565b15611f94576040517f08c379a0000000000000000000000000000000000000000000000000000000008152600401611f8b9061327e565b60405180910390fd5b565b612019846323b872dd60e01b858585604051602401611fb79392919061329e565b604051602081830303815290604052907bffffffffffffffffffffffffffffffffffffffffffffffffffffffff19166020820180517bffffffffffffffffffffffffffffffffffffffffffffffffffffffff8381831617835250505050612125565b50505050565b600033905090565b61202f610e1b565b61206e576040517f08c379a000000000000000000000000000000000000000000000000000000000815260040161206590613321565b60405180910390fd5b565b60008060008473ffffffffffffffffffffffffffffffffffffffff168460405161209a9190612b2f565b6000604051808303816000865af19150503d80600081146120d7576040519150601f19603f3d011682016040523d82523d6000602084013e6120dc565b606091505b509150915081801561210a5750600081511480612109575080806020019051810190612108919061336d565b5b5b801561211b575061211a856121ed565b5b9250505092915050565b6000612187826040518060400160405280602081526020017f5361666545524332303a206c6f772d6c6576656c2063616c6c206661696c65648152508573ffffffffffffffffffffffffffffffffffffffff166122109092919063ffffffff16565b90506000815114806121a95750808060200190518101906121a8919061336d565b5b6121e8576040517f08c379a00000000000000000000000000000000000000000000000000000000081526004016121df9061340c565b60405180910390fd5b505050565b6000808273ffffffffffffffffffffffffffffffffffffffff163b119050919050565b606061221f8484600085612228565b90509392505050565b60608247101561226d576040517f08c379a00000000000000000000000000000000000000000000000000000000081526004016122649061349e565b60405180910390fd5b6000808673ffffffffffffffffffffffffffffffffffffffff1685876040516122969190612b2f565b60006040518083038185875af1925050503d80600081146122d3576040519150601f19603f3d011682016040523d82523d6000602084013e6122d8565b606091505b50915091506122e9878383876122f5565b92505050949350505050565b6060831561235757600083510361234f5761230f856121ed565b61234e576040517f08c379a00000000000000000000000000000000000000000000000000000000081526004016123459061350a565b60405180910390fd5b5b829050612362565b612361838361236a565b5b949350505050565b60008251111561237d5781518083602001fd5b806040517f08c379a00000000000000000000000000000000000000000000000000000000081526004016123b1919061356e565b60405180910390fd5b600061ffff82169050919050565b6123d1816123ba565b82525050565b60006020820190506123ec60008301846123c8565b92915050565b6000604051905090565b600080fd5b600080fd5b600073ffffffffffffffffffffffffffffffffffffffff82169050919050565b600061243182612406565b9050919050565b61244181612426565b811461244c57600080fd5b50565b60008135905061245e81612438565b92915050565b60006020828403121561247a576124796123fc565b5b60006124888482850161244f565b91505092915050565b6000819050919050565b6124a481612491565b82525050565b60006020820190506124bf600083018461249b565b92915050565b600080fd5b600080fd5b6000601f19601f8301169050919050565b7f4e487b7100000000000000000000000000000000000000000000000000000000600052604160045260246000fd5b612518826124cf565b810181811067ffffffffffffffff82111715612537576125366124e0565b5b80604052505050565b600061254a6123f2565b9050612556828261250f565b919050565b600067ffffffffffffffff821115612576576125756124e0565b5b61257f826124cf565b9050602081019050919050565b82818337600083830152505050565b60006125ae6125a98461255b565b612540565b9050828152602081018484840111156125ca576125c96124ca565b5b6125d584828561258c565b509392505050565b600082601f8301126125f2576125f16124c5565b5b813561260284826020860161259b565b91505092915050565b600060208284031215612621576126206123fc565b5b600082013567ffffffffffffffff81111561263f5761263e612401565b5b61264b848285016125dd565b91505092915050565b61265d81612426565b82525050565b600060e082019050612678600083018a61249b565b612685602083018961249b565b612692604083018861249b565b61269f606083018761249b565b6126ac6080830186612654565b6126b960a0830185612654565b6126c660c0830184612654565b98975050505050505050565b600080fd5b600080fd5b60008083601f8401126126f2576126f16124c5565b5b8235905067ffffffffffffffff81111561270f5761270e6126d2565b5b60208301915083602082028301111561272b5761272a6126d7565b5b9250929050565b60008060208385031215612749576127486123fc565b5b600083013567ffffffffffffffff81111561276757612766612401565b5b612773858286016126dc565b92509250509250929050565b60008115159050919050565b6127948161277f565b82525050565b60006020820190506127af600083018461278b565b92915050565b60006020820190506127ca6000830184612654565b92915050565b6127d9816123ba565b81146127e457600080fd5b50565b6000813590506127f6816127d0565b92915050565b61280581612491565b811461281057600080fd5b50565b600081359050612822816127fc565b92915050565b600060ff82169050919050565b61283e81612828565b811461284957600080fd5b50565b60008135905061285b81612835565b92915050565b60008060008060008060c0878903121561287e5761287d6123fc565b5b600061288c89828a016127e7565b965050602061289d89828a01612813565b95505060406128ae89828a01612813565b94505060606128bf89828a01612813565b93505060806128d089828a01612813565b92505060a06128e189828a0161284c565b9150509295509295509295565b60008083601f840112612904576129036124c5565b5b8235905067ffffffffffffffff811115612921576129206126d2565b5b60208301915083600182028301111561293d5761293c6126d7565b5b9250929050565b600080600080600080600060c0888a031215612963576129626123fc565b5b60006129718a828b0161244f565b97505060206129828a828b0161244f565b96505060406129938a828b01612813565b95505060606129a48a828b01612813565b94505060806129b58a828b01612813565b93505060a088013567ffffffffffffffff8111156129d6576129d5612401565b5b6129e28a828b016128ee565b925092505092959891949750929550565b6129fc81612828565b82525050565b6000602082019050612a1760008301846129f3565b92915050565b7f4e487b7100000000000000000000000000000000000000000000000000000000600052603260045260246000fd5b600080fd5b600080fd5b600080fd5b60008083356001602003843603038112612a7857612a77612a4c565b5b80840192508235915067ffffffffffffffff821115612a9a57612a99612a51565b5b602083019250600182023603831315612ab657612ab5612a56565b5b509250929050565b600081519050919050565b600081905092915050565b60005b83811015612af2578082015181840152602081019050612ad7565b60008484015250505050565b6000612b0982612abe565b612b138185612ac9565b9350612b23818560208601612ad4565b80840191505092915050565b6000612b3b8284612afe565b915081905092915050565b6000606082019050612b5b600083018661249b565b612b686020830185612654565b612b756040830184612654565b949350505050565b600081519050612b8c816127fc565b92915050565b600060208284031215612ba857612ba76123fc565b5b6000612bb684828501612b7d565b91505092915050565b6000604082019050612bd46000830185612654565b612be1602083018461249b565b9392505050565b7f4e487b7100000000000000000000000000000000000000000000000000000000600052601160045260246000fd5b6000612c2282612491565b9150612c2d83612491565b9250828203905081811115612c4557612c44612be8565b5b92915050565b6000612c5682612491565b9150612c6183612491565b9250828202612c6f81612491565b91508282048414831517612c8657612c85612be8565b5b5092915050565b7f4e487b7100000000000000000000000000000000000000000000000000000000600052601260045260246000fd5b6000612cc782612491565b9150612cd283612491565b925082612ce257612ce1612c8d565b5b828204905092915050565b6000612cf882612491565b9150612d0383612491565b9250828201905080821115612d1b57612d1a612be8565b5b92915050565b6000819050919050565b6000612d46612d41612d3c84612406565b612d21565b612406565b9050919050565b6000612d5882612d2b565b9050919050565b6000612d6a82612d4d565b9050919050565b612d7a81612d5f565b82525050565b600082825260208201905092915050565b6000612d9c82612abe565b612da68185612d80565b9350612db6818560208601612ad4565b612dbf816124cf565b840191505092915050565b600060c082019050612ddf6000830189612654565b612dec6020830188612d71565b612df9604083018761249b565b8181036060830152612e0b8186612d91565b9050612e1a608083018561249b565b612e2760a0830184612d71565b979650505050505050565b600060c082019050612e476000830189612654565b612e546020830188612d71565b612e616040830187612d71565b612e6e606083018661249b565b8181036080830152612e808185612d91565b9050612e8f60a083018461249b565b979650505050505050565b6000608082019050612eaf6000830187612654565b612ebc6020830186612d71565b612ec9604083018561249b565b8181036060830152612edb8184612d91565b905095945050505050565b600060c082019050612efb60008301896123c8565b612f08602083018861249b565b612f15604083018761249b565b612f22606083018661249b565b612f2f608083018561249b565b612f3c60a08301846129f3565b979650505050505050565b6000612f538385612ac9565b9350612f6083858461258c565b82840190509392505050565b6000612f79828486612f47565b91508190509392505050565b6000604082019050612f9a600083018561249b565b612fa76020830184612654565b9392505050565b6000612fba8385612d80565b9350612fc783858461258c565b612fd0836124cf565b840190509392505050565b600060e082019050612ff0600083018b612654565b612ffd602083018a612654565b61300a6040830189612654565b613017606083018861249b565b613024608083018761249b565b61303160a083018661249b565b81810360c0830152613044818486612fae565b90509998505050505050505050565b600082825260208201905092915050565b7f4f776e61626c653a206e6577206f776e657220697320746865207a65726f206160008201527f6464726573730000000000000000000000000000000000000000000000000000602082015250565b60006130c0602683613053565b91506130cb82613064565b604082019050919050565b600060208201905081810360008301526130ef816130b3565b9050919050565b7f4f776e61626c653a2063616c6c6572206973206e6f7420746865206f776e6572600082015250565b600061312c602083613053565b9150613137826130f6565b602082019050919050565b6000602082019050818103600083015261315b8161311f565b9050919050565b7f5265656e7472616e637947756172643a207265656e7472616e742063616c6c00600082015250565b6000613198601f83613053565b91506131a382613162565b602082019050919050565b600060208201905081810360008301526131c78161318b565b9050919050565b6000819050919050565b60006131f36131ee6131e9846131ce565b612d21565b612828565b9050919050565b613203816131d8565b82525050565b600060408201905061321e6000830185612654565b61322b60208301846131fa565b9392505050565b7f5061757361626c653a2070617573656400000000000000000000000000000000600082015250565b6000613268601083613053565b915061327382613232565b602082019050919050565b600060208201905081810360008301526132978161325b565b9050919050565b60006060820190506132b36000830186612654565b6132c06020830185612654565b6132cd604083018461249b565b949350505050565b7f5061757361626c653a206e6f7420706175736564000000000000000000000000600082015250565b600061330b601483613053565b9150613316826132d5565b602082019050919050565b6000602082019050818103600083015261333a816132fe565b9050919050565b61334a8161277f565b811461335557600080fd5b50565b60008151905061336781613341565b92915050565b600060208284031215613383576133826123fc565b5b600061339184828501613358565b91505092915050565b7f5361666545524332303a204552433230206f7065726174696f6e20646964206e60008201527f6f74207375636365656400000000000000000000000000000000000000000000602082015250565b60006133f6602a83613053565b91506134018261339a565b604082019050919050565b60006020820190508181036000830152613425816133e9565b9050919050565b7f416464726573733a20696e73756666696369656e742062616c616e636520666f60008201527f722063616c6c0000000000000000000000000000000000000000000000000000602082015250565b6000613488602683613053565b91506134938261342c565b604082019050919050565b600060208201905081810360008301526134b78161347b565b9050919050565b7f416464726573733a2063616c6c20746f206e6f6e2d636f6e7472616374000000600082015250565b60006134f4601d83613053565b91506134ff826134be565b602082019050919050565b60006020820190508181036000830152613523816134e7565b9050919050565b600081519050919050565b60006135408261352a565b61354a8185613053565b935061355a818560208601612ad4565b613563816124cf565b840191505092915050565b600060208201905081810360008301526135888184613535565b90509291505056fea2646970667358221220db7256c73ad14a30fad331fa7c66a69d1acddb41d94531297a5eea28a7d2241464736f6c63430008130033",
  "immutableReferences": {
    "1280": [
      {
        "length": 32,
        "start": 2415
      },
      {
        "length": 32,
        "start": 2532
      },
      {
        "length": 32,
        "start": 2895
      },
      {
        "length": 32,
        "start": 3027
      },
      {
        "length": 32,
        "start": 3158
      },
      {
        "length": 32,
        "start": 3241
      },
      {
        "length": 32,
        "start": 3318
      },
      {
        "length": 32,
        "start": 3427
      },
      {
        "length": 32,
        "start": 3524
      },
      {
        "length": 32,
        "start": 5167
      },
      {
        "length": 32,
        "start": 5286
      },
      {
        "length": 32,
        "start": 5574
      },
      {
        "length": 32,
        "start": 6472
      },
      {
        "length": 32,
        "start": 6631
      },
      {
        "length": 32,
        "start": 6785
      }
    ],
    "1284": [
      {
        "length": 32,
        "start": 1029
      },
      {
        "length": 32,
        "start": 2036
      },
      {
        "length": 32,
        "start": 5874
      }
    ],
    "1286": [
      {
        "length": 32,
        "start": 2199
      },
      {
        "length": 32,
        "start": 2355
      },
      {
        "length": 32,
        "start": 5241
      },
      {
        "length": 32,
        "start": 5358
      },
      {
        "length": 32,
        "start": 5514
      },
      {
        "length": 32,
        "start": 5700
      }
    ]
  },
  "source": "// SPDX-License-Identifier: MIT\r\npragma solidity 0.8.19;\r\n\r\nimport \"@openzeppelin/contracts/access/Ownable.sol\";\r\nimport \"@openzeppelin/contracts/security/ReentrancyGuard.sol\";\r\nimport \"@openzeppelin/contracts/token/ERC20/utils/SafeERC20.sol\";\r\nimport \"@openzeppelin/contracts/security/Pausable.sol\";\r\n\r\n\r\ninterface IComet {\r\n   function supply(address asset, uint amount) external;\r\n   function withdraw(address asset, uint amount) external;\r\n   function baseToken() external view returns (address);\r\n   function allow(address manager, bool isAllowed) external; }\r\n\r\ninterface IERC20FeeProxy {\r\n   function transferFromWithReferenceAndFee(\r\n       address _tokenAddress,\r\n       address _to,\r\n       uint256 _amount,\r\n       bytes calldata _paymentReference,\r\n       uint256 _feeAmount,\r\n       address _feeAddress\r\n    ) external;\r\n}\r\n\r\ninterface IWrapper {\r\n   function deposit(uint256 assets, address receiver) external returns (uint256 shares);\r\n   function redeem(uint256 assets, address receiver, address owner) external returns (uint256 shares);\r\n   function claimTo(address to) external; }\r\n\r\n/**\r\n* @title   Paytr\r\n* @notice  Paytr allows you to earn by paying early.\r\n*/\r\n\r\ncontract Paytr is Ownable, Pausable, ReentrancyGuard {\r\n   using SafeERC20 for IERC20;\r\n\r\n   error InvalidAmount();\r\n   error PaymentReferenceInUse();\r\n   error NotAuthorized();\r\n   error ZeroPayeeAddress();\r\n   error ZeroFeeAddress();\r\n   error DueDateNotAllowed();\r\n   error NoPrePayment();\r\n   error DueDateNotZero();\r\n   error InvalidNewDueDate();\r\n   error InvalidArrayLength();\r\n   error ReferenceNotDue();\r\n   error InvalidFeeModifier();\r\n   error InvalidMinDueDate();\r\n   error InvalidMaxDueDate();\r\n   error InvalidMinAmount();\r\n   error InvalidMaxArraySize();\r\n\r\n   address immutable baseAsset;\r\n   address ERC20FeeProxyAddress;\r\n   address immutable  wrapperAddress;\r\n   address immutable  cometAddress;\r\n   uint8 public maxPayoutArraySize;\r\n   uint16 public feeModifier;\r\n   uint256 public minDueDateParameter;\r\n   uint256 public maxDueDateParameter;   \r\n   uint256 public minAmount;\r\n   uint256 public maxAmount;\r\n\r\n   struct PaymentERC20 {\r\n       uint256 amount;\r\n       uint256 feeAmount;\r\n       uint256 dueDate;\r\n       uint256 wrapperSharesReceived;\r\n       address payer;\r\n       address payee;\r\n       address feeAddress;\r\n   }\r\n\r\n   constructor(address _cometAddress, address _wrapperAddress, uint16 _feeModifier, uint256 _minDueDateParameter, uint256 _maxDueDateParameter, uint256 _minAmount, uint256 _maxAmount, uint8 _maxPayoutArraySize) {\r\n       cometAddress = _cometAddress;\r\n       baseAsset = IComet(cometAddress).baseToken();\r\n       wrapperAddress = _wrapperAddress;\r\n       feeModifier = _feeModifier;\r\n       minDueDateParameter = _minDueDateParameter;\t\r\n       maxDueDateParameter = _maxDueDateParameter;\r\n       minAmount = _minAmount;\r\n       maxAmount = _maxAmount;\r\n       maxPayoutArraySize = _maxPayoutArraySize;\r\n       IComet(cometAddress).allow(wrapperAddress, true);\r\n   }\r\n\r\n   event PaymentERC20Event(address tokenAddress, address payee, address feeAddress, uint256 amount, uint256 dueDate, uint256 feeAmount, bytes paymentReference);\r\n   event PayOutERC20Event(address tokenAddress, address payee, address feeAddress, uint256 amount, bytes paymentReference,uint256 feeAmount);\r\n   event InterestPayoutEvent(address tokenAddress, address payee, uint256 interestAmount, bytes paymentReference);\r\n   event ContractParametersUpdatedEvent(uint16 feeModifier, uint256 minDueDateParameter, uint256 maxDueDateParameter, uint256 minAmount, uint256 maxAmount, uint8 maxPayoutArraySize);\r\n\r\n   /**\r\n    * @notice paymentMapping keeps track of the paid invoices.\r\n  */\r\n   mapping(bytes => PaymentERC20) public paymentMapping;\r\n\r\n   /**\r\n    * @notice allowedRequestNetworkFeeAddresses makes sure ERC20 payments originating from the Request Network protocol go through the correct ERC20FeeProxy contract.\r\n       This makes sure Request Network can detect the payment.\r\n   */\r\n   mapping(address => bool) public allowedRequestNetworkFeeAddresses;\r\n\r\n   /**\r\n    * @notice modifier only allows payer to use this function.\r\n    */\r\n   modifier OnlyPayer(bytes memory _paymentReference) {\r\n       if(msg.sender != paymentMapping[_paymentReference].payer) revert NotAuthorized();\r\n       _;\r\n   }\r\n\r\n   /**\r\n   * @notice Make a payment using an ERC20 token.\r\n   * @notice This function can't be used while it's paused.\r\n   * @param _payee The receiver of the payment.\r\n   * @param _feeAddress When using an additional fee, this is the address that will receive the _feeAmount.\r\n   * @param _dueDate The due date of the payment, or invoice, in epoch time.\r\n   * @param _amount The _asset amount in wei.\r\n   * @param _feeAmount The total _asset fee amount in wei.\r\n   * @param _paymentReference Reference of the related payment.\r\n   * @dev Uses modifiers nonReentrant and whenNotPaused.\r\n   * @dev The parameter _dueDate needs to be inserted in number of days (uint8).\r\n   */\r\n\r\n    function payInvoiceERC20(\r\n        address _payee,\r\n        address _feeAddress,\r\n        uint256 _dueDate,\r\n        uint256 _amount,\r\n        uint256 _feeAmount,\r\n        bytes calldata _paymentReference\r\n        ) public nonReentrant whenNotPaused {\r\n\r\n            if(paymentMapping[_paymentReference].amount != 0) revert PaymentReferenceInUse();\r\n            if(_amount < minAmount || _amount > maxAmount) revert InvalidAmount();\r\n            if(paymentMapping[_paymentReference].payer == msg.sender) revert PaymentReferenceInUse();\r\n            if(paymentMapping[_paymentReference].payee == _payee) revert PaymentReferenceInUse();\r\n            if(_payee == address(0)) revert ZeroPayeeAddress();\r\n            if(_feeAddress == address(0)) revert ZeroFeeAddress();\r\n            if(_dueDate < block.timestamp + minDueDateParameter || _dueDate > block.timestamp + maxDueDateParameter) revert DueDateNotAllowed();            \r\n\r\n            IERC20(baseAsset).safeTransferFrom(msg.sender, address(this), _amount + _feeAmount);\r\n            IERC20(baseAsset).forceApprove(cometAddress, _amount + _feeAmount);\r\n\r\n            uint256 cUsdcbalanceBeforeSupply = IERC20(cometAddress).balanceOf(address(this));\r\n            IComet(cometAddress).supply(baseAsset, _amount + _feeAmount);\r\n            uint256 cUsdcbalanceAfterSupply = IERC20(cometAddress).balanceOf(address(this));\r\n            uint256 cUsdcAmountToWrap = cUsdcbalanceAfterSupply - cUsdcbalanceBeforeSupply;         \r\n\r\n            uint256 wrappedShares = IWrapper(wrapperAddress).deposit(cUsdcAmountToWrap, address(this));\r\n\r\n            paymentMapping[_paymentReference] = PaymentERC20(\r\n                _amount,\r\n                _feeAmount,\r\n                _dueDate,\r\n                wrappedShares,\r\n                msg.sender,\r\n                _payee,\r\n                _feeAddress     \r\n            );\r\n\r\n            emit PaymentERC20Event(baseAsset, _payee, _feeAddress, _amount, _dueDate, _feeAmount, _paymentReference);         \r\n    }\r\n\r\n    /**                                                                             \r\n    * @notice Allows the contract to pay payee (principal amount), payer (interest amount) and fee receiver (fee amount).\r\n    This function cannot be paused.\r\n    * @param payoutReferencesArray Insert the bytes array of references that need to be paid out.\r\n    * @dev Uses modifier nonReentrant.\r\n    **/\r\n    function payOutERC20Invoice(bytes[] calldata payoutReferencesArray) external nonReentrant {\r\n\r\n       uint256 i;\r\n       uint256 payoutReferencesArrayLength = payoutReferencesArray.length;\r\n\r\n       if(payoutReferencesArrayLength == 0 || payoutReferencesArrayLength > maxPayoutArraySize) revert InvalidArrayLength();\r\n\r\n       for (; i < payoutReferencesArrayLength;) {\r\n            bytes memory _paymentReference = payoutReferencesArray[i];\r\n            if(paymentMapping[_paymentReference].amount == 0) revert NoPrePayment();\r\n            //if(paymentMapping[_paymentReference].dueDate > block.timestamp) revert ReferenceNotDue();\r\n\r\n            address payable _payee = payable(paymentMapping[_paymentReference].payee);\r\n            address payable _payer = payable(paymentMapping[_paymentReference].payer);\r\n            address payable _feeAddress = payable(paymentMapping[_paymentReference].feeAddress);\r\n            uint256 _amount = paymentMapping[_paymentReference].amount;\r\n            uint256 _feeAmount = paymentMapping[_paymentReference].feeAmount;\r\n            uint256 _wrapperSharesToRedeem = paymentMapping[_paymentReference].wrapperSharesReceived;\r\n\r\n            paymentMapping[_paymentReference].amount = 0; //prevents double payout because of the require statement\r\n\r\n            //redeem Wrapper shares and receive v3 cTokens\r\n            IWrapper(wrapperAddress).redeem(_wrapperSharesToRedeem, address(this), address(this));\r\n\r\n            //redeem all available v3 cTokens from Compound for baseAsset tokens\r\n            uint256 cTokensToRedeem = IERC20(cometAddress).balanceOf(address(this));\r\n            IComet(cometAddress).withdraw(baseAsset, cTokensToRedeem);\r\n\r\n            //get new USDC balance\r\n            uint256 _totalInterestGathered = IERC20(baseAsset).balanceOf(address(this)) - _amount - _feeAmount;\r\n            uint256 _interestAmount = _totalInterestGathered * feeModifier / 10000;\r\n\r\n            if(allowedRequestNetworkFeeAddresses[_feeAddress] == true) {\r\n                IERC20(baseAsset).forceApprove(ERC20FeeProxyAddress, _amount + _feeAmount);\r\n\r\n                IERC20FeeProxy(ERC20FeeProxyAddress).transferFromWithReferenceAndFee(\r\n                        baseAsset,\r\n                        _payee,\r\n                        _amount,\r\n                        _paymentReference,\r\n                        _feeAmount,\r\n                        _feeAddress\r\n                );\r\n\r\n            } else {\r\n                IERC20(baseAsset).safeTransfer(_payee, _amount);\r\n                if(_feeAmount != 0) {\r\n                        IERC20(baseAsset).safeTransfer(_feeAddress, _feeAmount);\r\n                }\r\n            }\r\n\r\n            IERC20(baseAsset).safeTransfer(_payer, _interestAmount);\r\n            unchecked {\r\n                ++i;\r\n            }\r\n            \r\n\r\n            emit PayOutERC20Event(baseAsset, _payee, _feeAddress, _amount, _paymentReference, _feeAmount);\r\n            emit InterestPayoutEvent(baseAsset, _payer, _interestAmount, _paymentReference);\r\n        }\r\n\r\n   }\r\n\r\n   function claimCompRewards() external onlyOwner {\r\n       IWrapper(wrapperAddress).claimTo(owner());\r\n   }\r\n\r\n   function claimBaseAssetBalance() external onlyOwner {\r\n       IERC20(baseAsset).safeTransfer(owner(), IERC20(baseAsset).balanceOf(address(this)));\r\n   }\r\n\r\n   function setContractParameters(uint16 _feeModifier, uint256 _minDueDateParameter, uint256 _maxDueDateParameter, uint256 _minAmount, uint256 _maxAmount, uint8 _maxPayoutArraySize) external onlyOwner {\r\n         if(_feeModifier < 5000 || _feeModifier > 10000 ) revert InvalidFeeModifier();\r\n         if(_minDueDateParameter < 5 * 86400) revert InvalidMinDueDate();\r\n         if(_maxDueDateParameter > 365 * 86400) revert InvalidMaxDueDate();\r\n         if(_minAmount < 1) revert InvalidMinAmount();\r\n         if(_maxPayoutArraySize == 0) revert InvalidMaxArraySize();\r\n         feeModifier = _feeModifier;\r\n         minDueDateParameter = _minDueDateParameter;\r\n         maxDueDateParameter = _maxDueDateParameter;\r\n         minAmount = _minAmount;\r\n         maxAmount = _maxAmount;\r\n         maxPayoutArraySize = _maxPayoutArraySize;\r\n\r\n         emit ContractParametersUpdatedEvent(feeModifier, minDueDateParameter, maxDueDateParameter, minAmount, maxAmount, maxPayoutArraySize);\r\n   }\r\n\r\n   function addRequestNetworkFeeAddress(address _requestNetworkFeeAddress) external onlyOwner {\r\n       allowedRequestNetworkFeeAddresses[_requestNetworkFeeAddress] = true;\r\n   }\r\n\r\n   function setERC20FeeProxy(address _ERC20FeeProxyAddress) external onlyOwner {\r\n       ERC20FeeProxyAddress = _ERC20FeeProxyAddress;\r\n   }\r\n\r\n   function pause() external onlyOwner {\r\n       _pause();\r\n   }\r\n\r\n   function unpause() external onlyOwner {\r\n       _unpause();\r\n   }\r\n\r\n}",
  "sourcePath": "C:\\block\\contracts\\contracts\\Paytr.sol",
  "compiler": {
    "name": "solc",
    "version": "0.8.19+commit.7dd6d404.Emscripten.clang"
  },
  "schemaVersion": "3.4.14",
  "updatedAt": "2023-11-03T09:22:05.251Z",
  "networkType": "ethereum",
  "devdoc": {
    "events": {
      "Paused(address)": {
        "details": "Emitted when the pause is triggered by `account`."
      },
      "Unpaused(address)": {
        "details": "Emitted when the pause is lifted by `account`."
      }
    },
    "kind": "dev",
    "methods": {
      "owner()": {
        "details": "Returns the address of the current owner."
      },
      "paused()": {
        "details": "Returns true if the contract is paused, and false otherwise."
      },
      "payInvoiceERC20(address,address,uint256,uint256,uint256,bytes)": {
        "details": "Uses modifiers nonReentrant and whenNotPaused.The parameter _dueDate needs to be inserted in number of days (uint8).",
        "params": {
          "_amount": "The _asset amount in wei.",
          "_dueDate": "The due date of the payment, or invoice, in epoch time.",
          "_feeAddress": "When using an additional fee, this is the address that will receive the _feeAmount.",
          "_feeAmount": "The total _asset fee amount in wei.",
          "_payee": "The receiver of the payment.",
          "_paymentReference": "Reference of the related payment."
        }
      },
      "payOutERC20Invoice(bytes[])": {
        "details": "Uses modifier nonReentrant.*",
        "params": {
          "payoutReferencesArray": "Insert the bytes array of references that need to be paid out."
        }
      },
      "renounceOwnership()": {
        "details": "Leaves the contract without owner. It will not be possible to call `onlyOwner` functions. Can only be called by the current owner. NOTE: Renouncing ownership will leave the contract without an owner, thereby disabling any functionality that is only available to the owner."
      },
      "transferOwnership(address)": {
        "details": "Transfers ownership of the contract to a new account (`newOwner`). Can only be called by the current owner."
      }
    },
    "title": "Paytr",
    "version": 1
  },
  "userdoc": {
    "kind": "user",
    "methods": {
      "allowedRequestNetworkFeeAddresses(address)": {
        "notice": "allowedRequestNetworkFeeAddresses makes sure ERC20 payments originating from the Request Network protocol go through the correct ERC20FeeProxy contract. This makes sure Request Network can detect the payment."
      },
      "payInvoiceERC20(address,address,uint256,uint256,uint256,bytes)": {
        "notice": "Make a payment using an ERC20 token.This function can't be used while it's paused."
      },
      "payOutERC20Invoice(bytes[])": {
        "notice": "Allows the contract to pay payee (principal amount), payer (interest amount) and fee receiver (fee amount). This function cannot be paused."
      },
      "paymentMapping(bytes)": {
        "notice": "paymentMapping keeps track of the paid invoices."
      }
    },
    "notice": "Paytr allows you to earn by paying early.",
    "version": 1
  }
}