{
  "contractName": "Paytr",
  "abi": [
    {
      "inputs": [
        {
          "internalType": "address",
          "name": "_gelatoAddress",
          "type": "address"
        },
        {
          "internalType": "address",
          "name": "_cometAddress",
          "type": "address"
        },
        {
          "internalType": "uint8",
          "name": "_decimals",
          "type": "uint8"
        },
        {
          "internalType": "address",
          "name": "_ERC20FeeProxyAddress",
          "type": "address"
        }
      ],
      "stateMutability": "nonpayable",
      "type": "constructor"
    },
    {
      "anonymous": false,
      "inputs": [
        {
          "indexed": false,
          "internalType": "address",
          "name": "payer",
          "type": "address"
        },
        {
          "indexed": false,
          "internalType": "address",
          "name": "payee",
          "type": "address"
        },
        {
          "indexed": false,
          "internalType": "bytes",
          "name": "paymentReference",
          "type": "bytes"
        },
        {
          "indexed": false,
          "internalType": "uint256",
          "name": "dueDate",
          "type": "uint256"
        }
      ],
      "name": "DueDateUpdatedEvent",
      "type": "event"
    },
    {
      "anonymous": false,
      "inputs": [
        {
          "indexed": true,
          "internalType": "address",
          "name": "previousOwner",
          "type": "address"
        },
        {
          "indexed": true,
          "internalType": "address",
          "name": "newOwner",
          "type": "address"
        }
      ],
      "name": "OwnershipTransferred",
      "type": "event"
    },
    {
      "anonymous": false,
      "inputs": [
        {
          "indexed": false,
          "internalType": "address",
          "name": "account",
          "type": "address"
        }
      ],
      "name": "Paused",
      "type": "event"
    },
    {
      "anonymous": false,
      "inputs": [
        {
          "indexed": false,
          "internalType": "address",
          "name": "tokenAddress",
          "type": "address"
        },
        {
          "indexed": false,
          "internalType": "address",
          "name": "payee",
          "type": "address"
        },
        {
          "indexed": false,
          "internalType": "uint256",
          "name": "amount",
          "type": "uint256"
        },
        {
          "indexed": false,
          "internalType": "bytes",
          "name": "paymentReference",
          "type": "bytes"
        },
        {
          "indexed": false,
          "internalType": "uint256",
          "name": "feeAmount",
          "type": "uint256"
        },
        {
          "indexed": false,
          "internalType": "address",
          "name": "feeAddress",
          "type": "address"
        }
      ],
      "name": "PayOutERC20Event",
      "type": "event"
    },
    {
      "anonymous": false,
      "inputs": [
        {
          "indexed": false,
          "internalType": "uint256",
          "name": "amount",
          "type": "uint256"
        },
        {
          "indexed": false,
          "internalType": "uint256",
          "name": "dueDate",
          "type": "uint256"
        },
        {
          "indexed": false,
          "internalType": "address",
          "name": "payee",
          "type": "address"
        },
        {
          "indexed": false,
          "internalType": "address",
          "name": "tokenAddress",
          "type": "address"
        },
        {
          "indexed": false,
          "internalType": "bytes",
          "name": "paymentReference",
          "type": "bytes"
        }
      ],
      "name": "PaymentERC20Event",
      "type": "event"
    },
    {
      "anonymous": false,
      "inputs": [
        {
          "indexed": false,
          "internalType": "uint256",
          "name": "amount",
          "type": "uint256"
        },
        {
          "indexed": false,
          "internalType": "uint256",
          "name": "dueDate",
          "type": "uint256"
        },
        {
          "indexed": false,
          "internalType": "address",
          "name": "payee",
          "type": "address"
        },
        {
          "indexed": false,
          "internalType": "address",
          "name": "tokenAddress",
          "type": "address"
        },
        {
          "indexed": false,
          "internalType": "address",
          "name": "feeAddress",
          "type": "address"
        },
        {
          "indexed": false,
          "internalType": "bytes",
          "name": "paymentReference",
          "type": "bytes"
        },
        {
          "indexed": false,
          "internalType": "uint256",
          "name": "feeAmount",
          "type": "uint256"
        }
      ],
      "name": "PaymentERC20EventWithFee",
      "type": "event"
    },
    {
      "anonymous": false,
      "inputs": [
        {
          "indexed": false,
          "internalType": "address",
          "name": "account",
          "type": "address"
        }
      ],
      "name": "Unpaused",
      "type": "event"
    },
    {
      "inputs": [],
      "name": "ERC20FeeProxyAddress",
      "outputs": [
        {
          "internalType": "address",
          "name": "",
          "type": "address"
        }
      ],
      "stateMutability": "view",
      "type": "function",
      "constant": true
    },
    {
      "inputs": [
        {
          "internalType": "address",
          "name": "",
          "type": "address"
        }
      ],
      "name": "allowedCometInfo",
      "outputs": [
        {
          "internalType": "bool",
          "name": "allowed",
          "type": "bool"
        },
        {
          "internalType": "uint8",
          "name": "decimals",
          "type": "uint8"
        }
      ],
      "stateMutability": "view",
      "type": "function",
      "constant": true
    },
    {
      "inputs": [
        {
          "internalType": "address",
          "name": "",
          "type": "address"
        }
      ],
      "name": "allowedRequestNetworkFeeAddresses",
      "outputs": [
        {
          "internalType": "bool",
          "name": "",
          "type": "bool"
        }
      ],
      "stateMutability": "view",
      "type": "function",
      "constant": true
    },
    {
      "inputs": [],
      "name": "gelatoAddress",
      "outputs": [
        {
          "internalType": "address",
          "name": "",
          "type": "address"
        }
      ],
      "stateMutability": "view",
      "type": "function",
      "constant": true
    },
    {
      "inputs": [],
      "name": "owner",
      "outputs": [
        {
          "internalType": "address",
          "name": "",
          "type": "address"
        }
      ],
      "stateMutability": "view",
      "type": "function",
      "constant": true
    },
    {
      "inputs": [],
      "name": "paused",
      "outputs": [
        {
          "internalType": "bool",
          "name": "",
          "type": "bool"
        }
      ],
      "stateMutability": "view",
      "type": "function",
      "constant": true
    },
    {
      "inputs": [
        {
          "internalType": "bytes",
          "name": "",
          "type": "bytes"
        }
      ],
      "name": "paymentMapping",
      "outputs": [
        {
          "internalType": "uint256",
          "name": "amount",
          "type": "uint256"
        },
        {
          "internalType": "uint256",
          "name": "feeAmount",
          "type": "uint256"
        },
        {
          "internalType": "uint256",
          "name": "dueDate",
          "type": "uint256"
        },
        {
          "internalType": "address",
          "name": "payer",
          "type": "address"
        },
        {
          "internalType": "address",
          "name": "payee",
          "type": "address"
        },
        {
          "internalType": "address",
          "name": "asset",
          "type": "address"
        },
        {
          "internalType": "address",
          "name": "cometAddress",
          "type": "address"
        },
        {
          "internalType": "address",
          "name": "feeAddress",
          "type": "address"
        }
      ],
      "stateMutability": "view",
      "type": "function",
      "constant": true
    },
    {
      "inputs": [],
      "name": "renounceOwnership",
      "outputs": [],
      "stateMutability": "nonpayable",
      "type": "function"
    },
    {
      "inputs": [
        {
          "internalType": "address",
          "name": "newOwner",
          "type": "address"
        }
      ],
      "name": "transferOwnership",
      "outputs": [],
      "stateMutability": "nonpayable",
      "type": "function"
    },
    {
      "inputs": [
        {
          "internalType": "address",
          "name": "_asset",
          "type": "address"
        },
        {
          "internalType": "address",
          "name": "_payee",
          "type": "address"
        },
        {
          "internalType": "uint8",
          "name": "_dueDate",
          "type": "uint8"
        },
        {
          "internalType": "uint256",
          "name": "_amount",
          "type": "uint256"
        },
        {
          "internalType": "bytes",
          "name": "_paymentReference",
          "type": "bytes"
        },
        {
          "internalType": "address",
          "name": "_cometAddress",
          "type": "address"
        }
      ],
      "name": "payInvoiceERC20",
      "outputs": [],
      "stateMutability": "nonpayable",
      "type": "function"
    },
    {
      "inputs": [
        {
          "internalType": "address",
          "name": "_asset",
          "type": "address"
        },
        {
          "internalType": "address",
          "name": "_payee",
          "type": "address"
        },
        {
          "internalType": "address",
          "name": "_feeAddress",
          "type": "address"
        },
        {
          "internalType": "uint8",
          "name": "_dueDate",
          "type": "uint8"
        },
        {
          "internalType": "uint256",
          "name": "_amount",
          "type": "uint256"
        },
        {
          "internalType": "uint256",
          "name": "_feeAmount",
          "type": "uint256"
        },
        {
          "internalType": "bytes",
          "name": "_paymentReference",
          "type": "bytes"
        },
        {
          "internalType": "address",
          "name": "_cometAddress",
          "type": "address"
        }
      ],
      "name": "payInvoiceERC20WithFee",
      "outputs": [],
      "stateMutability": "nonpayable",
      "type": "function"
    },
    {
      "inputs": [
        {
          "internalType": "bytes",
          "name": "_paymentReference",
          "type": "bytes"
        },
        {
          "internalType": "uint256",
          "name": "_dueDateUpdated",
          "type": "uint256"
        }
      ],
      "name": "updateDueDate",
      "outputs": [],
      "stateMutability": "nonpayable",
      "type": "function"
    },
    {
      "inputs": [
        {
          "components": [
            {
              "internalType": "uint256",
              "name": "amount",
              "type": "uint256"
            },
            {
              "internalType": "uint256",
              "name": "interestAmount",
              "type": "uint256"
            },
            {
              "internalType": "uint256",
              "name": "feeAmount",
              "type": "uint256"
            },
            {
              "internalType": "address",
              "name": "payer",
              "type": "address"
            },
            {
              "internalType": "address",
              "name": "payee",
              "type": "address"
            },
            {
              "internalType": "address",
              "name": "asset",
              "type": "address"
            },
            {
              "internalType": "address",
              "name": "cometAddress",
              "type": "address"
            },
            {
              "internalType": "address",
              "name": "feeAddress",
              "type": "address"
            },
            {
              "internalType": "bytes",
              "name": "paymentReference",
              "type": "bytes"
            }
          ],
          "internalType": "struct Paytr.RedeemDataERC20[]",
          "name": "redeemData",
          "type": "tuple[]"
        },
        {
          "components": [
            {
              "internalType": "address",
              "name": "asset",
              "type": "address"
            },
            {
              "internalType": "address",
              "name": "cometAddress",
              "type": "address"
            },
            {
              "internalType": "uint256",
              "name": "amount",
              "type": "uint256"
            }
          ],
          "internalType": "struct Paytr.totalPerAssetToRedeem[]",
          "name": "assetsToRedeem",
          "type": "tuple[]"
        }
      ],
      "name": "payOutERC20Invoice",
      "outputs": [],
      "stateMutability": "nonpayable",
      "type": "function"
    },
    {
      "inputs": [
        {
          "internalType": "address",
          "name": "_cometAddress",
          "type": "address"
        }
      ],
      "name": "claimCompRewards",
      "outputs": [],
      "stateMutability": "nonpayable",
      "type": "function"
    },
    {
      "inputs": [
        {
          "internalType": "address",
          "name": "_cometAddressToAdd",
          "type": "address"
        },
        {
          "internalType": "uint8",
          "name": "_decimals",
          "type": "uint8"
        }
      ],
      "name": "addCometAddress",
      "outputs": [],
      "stateMutability": "nonpayable",
      "type": "function"
    },
    {
      "inputs": [
        {
          "internalType": "address",
          "name": "_requestNetworkFeeAddress",
          "type": "address"
        }
      ],
      "name": "addRequestNetworkFeeAddress",
      "outputs": [],
      "stateMutability": "nonpayable",
      "type": "function"
    },
    {
      "inputs": [
        {
          "internalType": "address",
          "name": "_gelatoAddress",
          "type": "address"
        }
      ],
      "name": "setGelatoAddress",
      "outputs": [],
      "stateMutability": "nonpayable",
      "type": "function"
    },
    {
      "inputs": [
        {
          "internalType": "address",
          "name": "_ERC20FeeProxyAddress",
          "type": "address"
        }
      ],
      "name": "setERC20FeeProxy",
      "outputs": [],
      "stateMutability": "nonpayable",
      "type": "function"
    },
    {
      "inputs": [],
      "name": "pause",
      "outputs": [],
      "stateMutability": "nonpayable",
      "type": "function"
    },
    {
      "inputs": [],
      "name": "unpause",
      "outputs": [],
      "stateMutability": "nonpayable",
      "type": "function"
    }
  ],
  "bytecode": "0x60806040523480156200001157600080fd5b506040516200494438038062004944833981810160405281019062000037919062000316565b620000576200004b620001a260201b60201c565b620001aa60201b60201c565b60008060146101000a81548160ff0219169083151502179055506001808190555083600360006101000a81548173ffffffffffffffffffffffffffffffffffffffff021916908373ffffffffffffffffffffffffffffffffffffffff16021790555060405180604001604052806001151581526020018360ff16815250600560008573ffffffffffffffffffffffffffffffffffffffff1673ffffffffffffffffffffffffffffffffffffffff16815260200190815260200160002060008201518160000160006101000a81548160ff02191690831515021790555060208201518160000160016101000a81548160ff021916908360ff16021790555090505080600260006101000a81548173ffffffffffffffffffffffffffffffffffffffff021916908373ffffffffffffffffffffffffffffffffffffffff1602179055505050505062000388565b600033905090565b60008060009054906101000a900473ffffffffffffffffffffffffffffffffffffffff169050816000806101000a81548173ffffffffffffffffffffffffffffffffffffffff021916908373ffffffffffffffffffffffffffffffffffffffff1602179055508173ffffffffffffffffffffffffffffffffffffffff168173ffffffffffffffffffffffffffffffffffffffff167f8be0079c531659141344cd1fd0a4f28419497f9722a3daafe3b4186f6b6457e060405160405180910390a35050565b600080fd5b600073ffffffffffffffffffffffffffffffffffffffff82169050919050565b6000620002a08262000273565b9050919050565b620002b28162000293565b8114620002be57600080fd5b50565b600081519050620002d281620002a7565b92915050565b600060ff82169050919050565b620002f081620002d8565b8114620002fc57600080fd5b50565b6000815190506200031081620002e5565b92915050565b600080600080608085870312156200033357620003326200026e565b5b60006200034387828801620002c1565b94505060206200035687828801620002c1565b93505060406200036987828801620002ff565b92505060606200037c87828801620002c1565b91505092959194509250565b6145ac80620003986000396000f3fe608060405234801561001057600080fd5b506004361061012c5760003560e01c80635c975abb116100ad5780639359e7b4116100715780639359e7b4146102d7578063a7ae7168146102f3578063a9948c961461030f578063e6153f0f1461033f578063f2fde38b1461035b5761012c565b80635c975abb1461026b5780636e2f87f314610289578063715018a6146102a55780638456cb59146102af5780638da5cb5b146102b95761012c565b806339c54161116100f457806339c54161146101d65780633c9c35ee146101f25780633e0121051461020e5780633f4ba83a1461022a57806346778635146102345761012c565b806324c2074014610131578063270f78901461014f5780632b730d9b146101805780632cc9c9641461019c5780633573153b146101ba575b600080fd5b610139610377565b6040516101469190612c3d565b60405180910390f35b61016960048036038101906101649190612c98565b61039d565b604051610177929190612cfc565b60405180910390f35b61019a60048036038101906101959190612d51565b6103db565b005b6101a4610485565b6040516101b19190612c3d565b60405180910390f35b6101d460048036038101906101cf9190612e4c565b6104ab565b005b6101f060048036038101906101eb9190612c98565b610c83565b005b61020c60048036038101906102079190612f59565b610ce6565b005b61022860048036038101906102239190612c98565b611413565b005b610232611539565b005b61024e60048036038101906102499190613149565b61154b565b6040516102629897969594939291906131a1565b60405180910390f35b610273611649565b604051610280919061321f565b60405180910390f35b6102a3600480360381019061029e9190612c98565b61165f565b005b6102ad6116ab565b005b6102b76116bf565b005b6102c16116d1565b6040516102ce9190612c3d565b60405180910390f35b6102f160048036038101906102ec919061323a565b6116fa565b005b61030d6004803603810190610308919061329a565b611a1d565b005b61032960048036038101906103249190612c98565b61221b565b604051610336919061321f565b60405180910390f35b61035960048036038101906103549190612c98565b61223b565b005b61037560048036038101906103709190612c98565b612287565b005b600260009054906101000a900473ffffffffffffffffffffffffffffffffffffffff1681565b60056020528060005260406000206000915090508060000160009054906101000a900460ff16908060000160019054906101000a900460ff16905082565b6103e361230a565b60405180604001604052806001151581526020018260ff16815250600560008473ffffffffffffffffffffffffffffffffffffffff1673ffffffffffffffffffffffffffffffffffffffff16815260200190815260200160002060008201518160000160006101000a81548160ff02191690831515021790555060208201518160000160016101000a81548160ff021916908360ff1602179055509050505050565b600360009054906101000a900473ffffffffffffffffffffffffffffffffffffffff1681565b600360009054906101000a900473ffffffffffffffffffffffffffffffffffffffff1673ffffffffffffffffffffffffffffffffffffffff163373ffffffffffffffffffffffffffffffffffffffff161480610539575061050a6116d1565b73ffffffffffffffffffffffffffffffffffffffff163373ffffffffffffffffffffffffffffffffffffffff16145b610578576040517f08c379a000000000000000000000000000000000000000000000000000000000815260040161056f906133cd565b60405180910390fd5b610580612388565b6000848490501180156105965750600082829050115b6105d5576040517f08c379a00000000000000000000000000000000000000000000000000000000081526004016105cc90613439565b60405180910390fd5b6105df82826123d7565b6000808585905090505b80821015610b4e57600086868481811061060657610605613459565b5b90506020028101906106189190613497565b80610100019061062891906134c0565b8080601f016020809104026020016040519081016040528093929190818152602001838380828437600081840152601f19601f820116905080830192505050505050509050600087878581811061068257610681613459565b5b90506020028101906106949190613497565b60800160208101906106a69190612c98565b905060008888868181106106bd576106bc613459565b5b90506020028101906106cf9190613497565b60600160208101906106e19190612c98565b905060008989878181106106f8576106f7613459565b5b905060200281019061070a9190613497565b60e001602081019061071c9190612c98565b905060008a8a8881811061073357610732613459565b5b90506020028101906107459190613497565b60a00160208101906107579190612c98565b905060008b8b8981811061076e5761076d613459565b5b90506020028101906107809190613497565b60000135905060008c8c8a81811061079b5761079a613459565b5b90506020028101906107ad9190613497565b60400135905060006127106123288f8f8d8181106107ce576107cd613459565b5b90506020028101906107e09190613497565b602001356107ee9190613552565b6107f891906135c3565b9050600060048960405161080c9190613665565b9081526020016040518091039020600001819055506004886040516108319190613665565b9081526020016040518091039020600080820160009055600182016000905560028201600090556003820160006101000a81549073ffffffffffffffffffffffffffffffffffffffff02191690556004820160006101000a81549073ffffffffffffffffffffffffffffffffffffffff02191690556005820160006101000a81549073ffffffffffffffffffffffffffffffffffffffff02191690556006820160006101000a81549073ffffffffffffffffffffffffffffffffffffffff02191690556007820160006101000a81549073ffffffffffffffffffffffffffffffffffffffff0219169055505060011515600660008773ffffffffffffffffffffffffffffffffffffffff1673ffffffffffffffffffffffffffffffffffffffff16815260200190815260200160002060009054906101000a900460ff16151503610a69576109cd600260009054906101000a900473ffffffffffffffffffffffffffffffffffffffff1683856109a7919061367c565b8673ffffffffffffffffffffffffffffffffffffffff166124dd9092919063ffffffff16565b600260009054906101000a900473ffffffffffffffffffffffffffffffffffffffff1673ffffffffffffffffffffffffffffffffffffffff1663c219a14d8589868c878b6040518763ffffffff1660e01b8152600401610a3296959493929190613759565b600060405180830381600087803b158015610a4c57600080fd5b505af1158015610a60573d6000803e3d6000fd5b50505050610ac9565b610a9487848673ffffffffffffffffffffffffffffffffffffffff1661262c9092919063ffffffff16565b60008214610ac857610ac785838673ffffffffffffffffffffffffffffffffffffffff1661262c9092919063ffffffff16565b5b5b610af486828673ffffffffffffffffffffffffffffffffffffffff1661262c9092919063ffffffff16565b89610afe906137c1565b99507f2d0e52fa86cff57c78a87757e8890fe1595f2eba4e0449ea8fa316cd248795498488858b868a604051610b3996959493929190613759565b60405180910390a150505050505050506105e9565b60005b84849050811015610c72576000858583818110610b7157610b70613459565b5b9050606002016000016020810190610b899190612c98565b73ffffffffffffffffffffffffffffffffffffffff166370a08231306040518263ffffffff1660e01b8152600401610bc19190612c3d565b602060405180830381865afa158015610bde573d6000803e3d6000fd5b505050506040513d601f19601f82011682018060405250810190610c02919061381e565b9050610c60610c0f6116d1565b82888886818110610c2357610c22613459565b5b9050606002016000016020810190610c3b9190612c98565b73ffffffffffffffffffffffffffffffffffffffff1661262c9092919063ffffffff16565b81610c6a906137c1565b915050610b51565b505050610c7d6126b2565b50505050565b610c8b61230a565b6001600660008373ffffffffffffffffffffffffffffffffffffffff1673ffffffffffffffffffffffffffffffffffffffff16815260200190815260200160002060006101000a81548160ff02191690831515021790555050565b82828080601f016020809104026020016040519081016040528093929190818152602001838380828437600081840152601f19601f820116905080830192505050505050506000600482604051610d3d9190613665565b90815260200160405180910390206000015414610d8f576040517f08c379a0000000000000000000000000000000000000000000000000000000008152600401610d8690613897565b60405180910390fd5b610d97612388565b610d9f6126bb565b60008503610de2576040517f08c379a0000000000000000000000000000000000000000000000000000000008152600401610dd990613903565b60405180910390fd5b60011515600560008473ffffffffffffffffffffffffffffffffffffffff1673ffffffffffffffffffffffffffffffffffffffff16815260200190815260200160002060000160009054906101000a900460ff16151514610e78576040517f08c379a0000000000000000000000000000000000000000000000000000000008152600401610e6f9061396f565b60405180910390fd5b8773ffffffffffffffffffffffffffffffffffffffff168273ffffffffffffffffffffffffffffffffffffffff1663c55dae636040518163ffffffff1660e01b8152600401602060405180830381865afa158015610eda573d6000803e3d6000fd5b505050506040513d601f19601f82011682018060405250810190610efe91906139a4565b73ffffffffffffffffffffffffffffffffffffffff1614610f54576040517f08c379a0000000000000000000000000000000000000000000000000000000008152600401610f4b90613a1d565b60405180910390fd5b600073ffffffffffffffffffffffffffffffffffffffff168773ffffffffffffffffffffffffffffffffffffffff1603610fc3576040517f08c379a0000000000000000000000000000000000000000000000000000000008152600401610fba90613a89565b60405180910390fd5b60008060008860ff1603610fdd578760ff16915081611003565b620151808860ff16610fef9190613ab8565b62ffffff1642610fff919061367c565b9150815b506006600560008673ffffffffffffffffffffffffffffffffffffffff1673ffffffffffffffffffffffffffffffffffffffff16815260200190815260200160002060000160019054906101000a900460ff1660ff161461106f5767016345785d8a0000905080611077565b620186a09050805b506110a53330898d73ffffffffffffffffffffffffffffffffffffffff16612705909392919063ffffffff16565b6110d084888c73ffffffffffffffffffffffffffffffffffffffff166124dd9092919063ffffffff16565b611104336110dc6116d1565b838d73ffffffffffffffffffffffffffffffffffffffff16612705909392919063ffffffff16565b8373ffffffffffffffffffffffffffffffffffffffff1663f2b9fdb88b896040518363ffffffff1660e01b815260040161113f929190613af5565b600060405180830381600087803b15801561115957600080fd5b505af115801561116d573d6000803e3d6000fd5b50505050604051806101000160405280888152602001600081526020018381526020013373ffffffffffffffffffffffffffffffffffffffff1681526020018a73ffffffffffffffffffffffffffffffffffffffff1681526020018b73ffffffffffffffffffffffffffffffffffffffff1681526020018573ffffffffffffffffffffffffffffffffffffffff1681526020013373ffffffffffffffffffffffffffffffffffffffff168152506004878760405161122c929190613b43565b908152602001604051809103902060008201518160000155602082015181600101556040820151816002015560608201518160030160006101000a81548173ffffffffffffffffffffffffffffffffffffffff021916908373ffffffffffffffffffffffffffffffffffffffff16021790555060808201518160040160006101000a81548173ffffffffffffffffffffffffffffffffffffffff021916908373ffffffffffffffffffffffffffffffffffffffff16021790555060a08201518160050160006101000a81548173ffffffffffffffffffffffffffffffffffffffff021916908373ffffffffffffffffffffffffffffffffffffffff16021790555060c08201518160060160006101000a81548173ffffffffffffffffffffffffffffffffffffffff021916908373ffffffffffffffffffffffffffffffffffffffff16021790555060e08201518160070160006101000a81548173ffffffffffffffffffffffffffffffffffffffff021916908373ffffffffffffffffffffffffffffffffffffffff1602179055509050507f72198219aea4671d3018a8f3f8780c97d78f51149bb18295724a937ccf52398287838b8d8a8a6040516113f796959493929190613b89565b60405180910390a150506114096126b2565b5050505050505050565b61141b61230a565b8073ffffffffffffffffffffffffffffffffffffffff1663b7034f7e823060016040518463ffffffff1660e01b815260040161145993929190613be5565b600060405180830381600087803b15801561147357600080fd5b505af1158015611487573d6000803e3d6000fd5b505050506115366114966116d1565b8273ffffffffffffffffffffffffffffffffffffffff166370a08231306040518263ffffffff1660e01b81526004016114cf9190612c3d565b602060405180830381865afa1580156114ec573d6000803e3d6000fd5b505050506040513d601f19601f82011682018060405250810190611510919061381e565b8373ffffffffffffffffffffffffffffffffffffffff1661262c9092919063ffffffff16565b50565b61154161230a565b61154961278e565b565b6004818051602081018201805184825260208301602085012081835280955050505050506000915090508060000154908060010154908060020154908060030160009054906101000a900473ffffffffffffffffffffffffffffffffffffffff16908060040160009054906101000a900473ffffffffffffffffffffffffffffffffffffffff16908060050160009054906101000a900473ffffffffffffffffffffffffffffffffffffffff16908060060160009054906101000a900473ffffffffffffffffffffffffffffffffffffffff16908060070160009054906101000a900473ffffffffffffffffffffffffffffffffffffffff16905088565b60008060149054906101000a900460ff16905090565b61166761230a565b80600260006101000a81548173ffffffffffffffffffffffffffffffffffffffff021916908373ffffffffffffffffffffffffffffffffffffffff16021790555050565b6116b361230a565b6116bd60006127f0565b565b6116c761230a565b6116cf6128b4565b565b60008060009054906101000a900473ffffffffffffffffffffffffffffffffffffffff16905090565b82828080601f016020809104026020016040519081016040528093929190818152602001838380828437600081840152601f19601f8201169050808301925050505050505060006004826040516117519190613665565b908152602001604051809103902060000154116117a3576040517f08c379a000000000000000000000000000000000000000000000000000000000815260040161179a90613c68565b60405180910390fd5b83838080601f016020809104026020016040519081016040528093929190818152602001838380828437600081840152601f19601f820116905080830192505050505050506004816040516117f89190613665565b908152602001604051809103902060030160009054906101000a900473ffffffffffffffffffffffffffffffffffffffff1673ffffffffffffffffffffffffffffffffffffffff163373ffffffffffffffffffffffffffffffffffffffff1614611897576040517f08c379a000000000000000000000000000000000000000000000000000000000815260040161188e90613cd4565b60405180910390fd5b61189f612388565b6118a76126bb565b6000600486866040516118bb929190613b43565b9081526020016040518091039020600201541461190d576040517f08c379a000000000000000000000000000000000000000000000000000000000815260040161190490613d66565b60405180910390fd5b620151804261191c919061367c565b83101561195e576040517f08c379a000000000000000000000000000000000000000000000000000000000815260040161195590613df8565b60405180910390fd5b8260048686604051611971929190613b43565b90815260200160405180910390206002018190555060006004868660405161199a929190613b43565b908152602001604051809103902060040160009054906101000a900473ffffffffffffffffffffffffffffffffffffffff1690507f6319a20e65431ca4d6ef3707f86cd051713a4cb3c9d1cc11e9c2a73802b7ac8f3382888888604051611a05959493929190613e18565b60405180910390a150611a166126b2565b5050505050565b82828080601f016020809104026020016040519081016040528093929190818152602001838380828437600081840152601f19601f820116905080830192505050505050506000600482604051611a749190613665565b90815260200160405180910390206000015414611ac6576040517f08c379a0000000000000000000000000000000000000000000000000000000008152600401611abd90613897565b60405180910390fd5b611ace612388565b611ad66126bb565b60008603611b19576040517f08c379a0000000000000000000000000000000000000000000000000000000008152600401611b1090613903565b60405180910390fd5b60011515600560008473ffffffffffffffffffffffffffffffffffffffff1673ffffffffffffffffffffffffffffffffffffffff16815260200190815260200160002060000160009054906101000a900460ff16151514611baf576040517f08c379a0000000000000000000000000000000000000000000000000000000008152600401611ba69061396f565b60405180910390fd5b8973ffffffffffffffffffffffffffffffffffffffff168273ffffffffffffffffffffffffffffffffffffffff1663c55dae636040518163ffffffff1660e01b8152600401602060405180830381865afa158015611c11573d6000803e3d6000fd5b505050506040513d601f19601f82011682018060405250810190611c3591906139a4565b73ffffffffffffffffffffffffffffffffffffffff1614611c8b576040517f08c379a0000000000000000000000000000000000000000000000000000000008152600401611c8290613a1d565b60405180910390fd5b600073ffffffffffffffffffffffffffffffffffffffff168973ffffffffffffffffffffffffffffffffffffffff1603611cfa576040517f08c379a0000000000000000000000000000000000000000000000000000000008152600401611cf190613a89565b60405180910390fd5b600073ffffffffffffffffffffffffffffffffffffffff168873ffffffffffffffffffffffffffffffffffffffff1603611d69576040517f08c379a0000000000000000000000000000000000000000000000000000000008152600401611d6090613eb2565b60405180910390fd5b60008503611dac576040517f08c379a0000000000000000000000000000000000000000000000000000000008152600401611da390613f1e565b60405180910390fd5b60008060008960ff1603611dc6578860ff16915081611de5565b600189611dd39190613f3e565b60ff1642611de1919061367c565b9150815b506006600560008673ffffffffffffffffffffffffffffffffffffffff1673ffffffffffffffffffffffffffffffffffffffff16815260200190815260200160002060000160019054906101000a900460ff1660ff1614611e515767016345785d8a0000905080611e59565b620186a09050805b50611e923330898b611e6b919061367c565b8f73ffffffffffffffffffffffffffffffffffffffff16612705909392919063ffffffff16565b611ec884888a611ea2919061367c565b8e73ffffffffffffffffffffffffffffffffffffffff166124dd9092919063ffffffff16565b611efc33611ed46116d1565b838f73ffffffffffffffffffffffffffffffffffffffff16612705909392919063ffffffff16565b8373ffffffffffffffffffffffffffffffffffffffff1663f2b9fdb88d898b611f25919061367c565b6040518363ffffffff1660e01b8152600401611f42929190613af5565b600060405180830381600087803b158015611f5c57600080fd5b505af1158015611f70573d6000803e3d6000fd5b505050506040518061010001604052808981526020018881526020018381526020013373ffffffffffffffffffffffffffffffffffffffff1681526020018c73ffffffffffffffffffffffffffffffffffffffff1681526020018d73ffffffffffffffffffffffffffffffffffffffff1681526020018573ffffffffffffffffffffffffffffffffffffffff1681526020018b73ffffffffffffffffffffffffffffffffffffffff168152506004878760405161202e929190613b43565b908152602001604051809103902060008201518160000155602082015181600101556040820151816002015560608201518160030160006101000a81548173ffffffffffffffffffffffffffffffffffffffff021916908373ffffffffffffffffffffffffffffffffffffffff16021790555060808201518160040160006101000a81548173ffffffffffffffffffffffffffffffffffffffff021916908373ffffffffffffffffffffffffffffffffffffffff16021790555060a08201518160050160006101000a81548173ffffffffffffffffffffffffffffffffffffffff021916908373ffffffffffffffffffffffffffffffffffffffff16021790555060c08201518160060160006101000a81548173ffffffffffffffffffffffffffffffffffffffff021916908373ffffffffffffffffffffffffffffffffffffffff16021790555060e08201518160070160006101000a81548173ffffffffffffffffffffffffffffffffffffffff021916908373ffffffffffffffffffffffffffffffffffffffff1602179055509050507fde507a16a47fd15de6928e2ff8c9775b357ad98a47bbe8e30b4a3a9022450da288838d8f8e8b8b8e6040516121fd989796959493929190613f7b565b60405180910390a1505061220f6126b2565b50505050505050505050565b60066020528060005260406000206000915054906101000a900460ff1681565b61224361230a565b80600360006101000a81548173ffffffffffffffffffffffffffffffffffffffff021916908373ffffffffffffffffffffffffffffffffffffffff16021790555050565b61228f61230a565b600073ffffffffffffffffffffffffffffffffffffffff168173ffffffffffffffffffffffffffffffffffffffff16036122fe576040517f08c379a00000000000000000000000000000000000000000000000000000000081526004016122f590614065565b60405180910390fd5b612307816127f0565b50565b612312612917565b73ffffffffffffffffffffffffffffffffffffffff166123306116d1565b73ffffffffffffffffffffffffffffffffffffffff1614612386576040517f08c379a000000000000000000000000000000000000000000000000000000000815260040161237d906140d1565b60405180910390fd5b565b6002600154036123cd576040517f08c379a00000000000000000000000000000000000000000000000000000000081526004016123c49061413d565b60405180910390fd5b6002600181905550565b6000808383905090505b808210156124d7578383838181106123fc576123fb613459565b5b90506060020160200160208101906124149190612c98565b73ffffffffffffffffffffffffffffffffffffffff1663f3fef3a385858581811061244257612441613459565b5b905060600201600001602081019061245a9190612c98565b86868681811061246d5761246c613459565b5b905060600201604001356040518363ffffffff1660e01b8152600401612494929190613af5565b600060405180830381600087803b1580156124ae57600080fd5b505af11580156124c2573d6000803e3d6000fd5b50505050816124d0906137c1565b91506123e1565b50505050565b6000811480612567575060008373ffffffffffffffffffffffffffffffffffffffff1663dd62ed3e30856040518363ffffffff1660e01b815260040161252492919061415d565b602060405180830381865afa158015612541573d6000803e3d6000fd5b505050506040513d601f19601f82011682018060405250810190612565919061381e565b145b6125a6576040517f08c379a000000000000000000000000000000000000000000000000000000000815260040161259d906141f8565b60405180910390fd5b6126278363095ea7b360e01b84846040516024016125c5929190613af5565b604051602081830303815290604052907bffffffffffffffffffffffffffffffffffffffffffffffffffffffff19166020820180517bffffffffffffffffffffffffffffffffffffffffffffffffffffffff838183161783525050505061291f565b505050565b6126ad8363a9059cbb60e01b848460405160240161264b929190613af5565b604051602081830303815290604052907bffffffffffffffffffffffffffffffffffffffffffffffffffffffff19166020820180517bffffffffffffffffffffffffffffffffffffffffffffffffffffffff838183161783525050505061291f565b505050565b60018081905550565b6126c3611649565b15612703576040517f08c379a00000000000000000000000000000000000000000000000000000000081526004016126fa90614264565b60405180910390fd5b565b612788846323b872dd60e01b85858560405160240161272693929190614284565b604051602081830303815290604052907bffffffffffffffffffffffffffffffffffffffffffffffffffffffff19166020820180517bffffffffffffffffffffffffffffffffffffffffffffffffffffffff838183161783525050505061291f565b50505050565b6127966129e6565b60008060146101000a81548160ff0219169083151502179055507f5db9ee0a495bf2e6ff9c91a7834c1ba4fdd244a5e8aa4e537bd38aeae4b073aa6127d9612917565b6040516127e69190612c3d565b60405180910390a1565b60008060009054906101000a900473ffffffffffffffffffffffffffffffffffffffff169050816000806101000a81548173ffffffffffffffffffffffffffffffffffffffff021916908373ffffffffffffffffffffffffffffffffffffffff1602179055508173ffffffffffffffffffffffffffffffffffffffff168173ffffffffffffffffffffffffffffffffffffffff167f8be0079c531659141344cd1fd0a4f28419497f9722a3daafe3b4186f6b6457e060405160405180910390a35050565b6128bc6126bb565b6001600060146101000a81548160ff0219169083151502179055507f62e78cea01bee320cd4e420270b5ea74000d11b0c9f74754ebdbfc544b05a258612900612917565b60405161290d9190612c3d565b60405180910390a1565b600033905090565b6000612981826040518060400160405280602081526020017f5361666545524332303a206c6f772d6c6576656c2063616c6c206661696c65648152508573ffffffffffffffffffffffffffffffffffffffff16612a2f9092919063ffffffff16565b90506000815111156129e157808060200190518101906129a191906142e7565b6129e0576040517f08c379a00000000000000000000000000000000000000000000000000000000081526004016129d790614386565b60405180910390fd5b5b505050565b6129ee611649565b612a2d576040517f08c379a0000000000000000000000000000000000000000000000000000000008152600401612a24906143f2565b60405180910390fd5b565b6060612a3e8484600085612a47565b90509392505050565b606082471015612a8c576040517f08c379a0000000000000000000000000000000000000000000000000000000008152600401612a8390614484565b60405180910390fd5b6000808673ffffffffffffffffffffffffffffffffffffffff168587604051612ab59190613665565b60006040518083038185875af1925050503d8060008114612af2576040519150601f19603f3d011682016040523d82523d6000602084013e612af7565b606091505b5091509150612b0887838387612b14565b92505050949350505050565b60608315612b76576000835103612b6e57612b2e85612b89565b612b6d576040517f08c379a0000000000000000000000000000000000000000000000000000000008152600401612b64906144f0565b60405180910390fd5b5b829050612b81565b612b808383612bac565b5b949350505050565b6000808273ffffffffffffffffffffffffffffffffffffffff163b119050919050565b600082511115612bbf5781518083602001fd5b806040517f08c379a0000000000000000000000000000000000000000000000000000000008152600401612bf39190614554565b60405180910390fd5b600073ffffffffffffffffffffffffffffffffffffffff82169050919050565b6000612c2782612bfc565b9050919050565b612c3781612c1c565b82525050565b6000602082019050612c526000830184612c2e565b92915050565b6000604051905090565b600080fd5b600080fd5b612c7581612c1c565b8114612c8057600080fd5b50565b600081359050612c9281612c6c565b92915050565b600060208284031215612cae57612cad612c62565b5b6000612cbc84828501612c83565b91505092915050565b60008115159050919050565b612cda81612cc5565b82525050565b600060ff82169050919050565b612cf681612ce0565b82525050565b6000604082019050612d116000830185612cd1565b612d1e6020830184612ced565b9392505050565b612d2e81612ce0565b8114612d3957600080fd5b50565b600081359050612d4b81612d25565b92915050565b60008060408385031215612d6857612d67612c62565b5b6000612d7685828601612c83565b9250506020612d8785828601612d3c565b9150509250929050565b600080fd5b600080fd5b600080fd5b60008083601f840112612db657612db5612d91565b5b8235905067ffffffffffffffff811115612dd357612dd2612d96565b5b602083019150836020820283011115612def57612dee612d9b565b5b9250929050565b60008083601f840112612e0c57612e0b612d91565b5b8235905067ffffffffffffffff811115612e2957612e28612d96565b5b602083019150836060820283011115612e4557612e44612d9b565b5b9250929050565b60008060008060408587031215612e6657612e65612c62565b5b600085013567ffffffffffffffff811115612e8457612e83612c67565b5b612e9087828801612da0565b9450945050602085013567ffffffffffffffff811115612eb357612eb2612c67565b5b612ebf87828801612df6565b925092505092959194509250565b6000819050919050565b612ee081612ecd565b8114612eeb57600080fd5b50565b600081359050612efd81612ed7565b92915050565b60008083601f840112612f1957612f18612d91565b5b8235905067ffffffffffffffff811115612f3657612f35612d96565b5b602083019150836001820283011115612f5257612f51612d9b565b5b9250929050565b600080600080600080600060c0888a031215612f7857612f77612c62565b5b6000612f868a828b01612c83565b9750506020612f978a828b01612c83565b9650506040612fa88a828b01612d3c565b9550506060612fb98a828b01612eee565b945050608088013567ffffffffffffffff811115612fda57612fd9612c67565b5b612fe68a828b01612f03565b935093505060a0612ff98a828b01612c83565b91505092959891949750929550565b600080fd5b6000601f19601f8301169050919050565b7f4e487b7100000000000000000000000000000000000000000000000000000000600052604160045260246000fd5b6130568261300d565b810181811067ffffffffffffffff821117156130755761307461301e565b5b80604052505050565b6000613088612c58565b9050613094828261304d565b919050565b600067ffffffffffffffff8211156130b4576130b361301e565b5b6130bd8261300d565b9050602081019050919050565b82818337600083830152505050565b60006130ec6130e784613099565b61307e565b90508281526020810184848401111561310857613107613008565b5b6131138482856130ca565b509392505050565b600082601f8301126131305761312f612d91565b5b81356131408482602086016130d9565b91505092915050565b60006020828403121561315f5761315e612c62565b5b600082013567ffffffffffffffff81111561317d5761317c612c67565b5b6131898482850161311b565b91505092915050565b61319b81612ecd565b82525050565b6000610100820190506131b7600083018b613192565b6131c4602083018a613192565b6131d16040830189613192565b6131de6060830188612c2e565b6131eb6080830187612c2e565b6131f860a0830186612c2e565b61320560c0830185612c2e565b61321260e0830184612c2e565b9998505050505050505050565b60006020820190506132346000830184612cd1565b92915050565b60008060006040848603121561325357613252612c62565b5b600084013567ffffffffffffffff81111561327157613270612c67565b5b61327d86828701612f03565b9350935050602061329086828701612eee565b9150509250925092565b60008060008060008060008060006101008a8c0312156132bd576132bc612c62565b5b60006132cb8c828d01612c83565b99505060206132dc8c828d01612c83565b98505060406132ed8c828d01612c83565b97505060606132fe8c828d01612d3c565b965050608061330f8c828d01612eee565b95505060a06133208c828d01612eee565b94505060c08a013567ffffffffffffffff81111561334157613340612c67565b5b61334d8c828d01612f03565b935093505060e06133608c828d01612c83565b9150509295985092959850929598565b600082825260208201905092915050565b7f4f6e6c792047656c61746f206f72206f776e6572000000000000000000000000600082015250565b60006133b7601483613370565b91506133c282613381565b602082019050919050565b600060208201905081810360008301526133e6816133aa565b9050919050565b7f4e6f207061796d656e747320746f2072656465656d0000000000000000000000600082015250565b6000613423601583613370565b915061342e826133ed565b602082019050919050565b6000602082019050818103600083015261345281613416565b9050919050565b7f4e487b7100000000000000000000000000000000000000000000000000000000600052603260045260246000fd5b600080fd5b600080fd5b600080fd5b600082356001610120038336030381126134b4576134b3613488565b5b80830191505092915050565b600080833560016020038436030381126134dd576134dc613488565b5b80840192508235915067ffffffffffffffff8211156134ff576134fe61348d565b5b60208301925060018202360383131561351b5761351a613492565b5b509250929050565b7f4e487b7100000000000000000000000000000000000000000000000000000000600052601160045260246000fd5b600061355d82612ecd565b915061356883612ecd565b925082820261357681612ecd565b9150828204841483151761358d5761358c613523565b5b5092915050565b7f4e487b7100000000000000000000000000000000000000000000000000000000600052601260045260246000fd5b60006135ce82612ecd565b91506135d983612ecd565b9250826135e9576135e8613594565b5b828204905092915050565b600081519050919050565b600081905092915050565b60005b8381101561362857808201518184015260208101905061360d565b60008484015250505050565b600061363f826135f4565b61364981856135ff565b935061365981856020860161360a565b80840191505092915050565b60006136718284613634565b915081905092915050565b600061368782612ecd565b915061369283612ecd565b92508282019050808211156136aa576136a9613523565b5b92915050565b6000819050919050565b60006136d56136d06136cb84612bfc565b6136b0565b612bfc565b9050919050565b60006136e7826136ba565b9050919050565b60006136f9826136dc565b9050919050565b613709816136ee565b82525050565b600082825260208201905092915050565b600061372b826135f4565b613735818561370f565b935061374581856020860161360a565b61374e8161300d565b840191505092915050565b600060c08201905061376e6000830189612c2e565b61377b6020830188613700565b6137886040830187613192565b818103606083015261379a8186613720565b90506137a96080830185613192565b6137b660a0830184613700565b979650505050505050565b60006137cc82612ecd565b91507fffffffffffffffffffffffffffffffffffffffffffffffffffffffffffffffff82036137fe576137fd613523565b5b600182019050919050565b60008151905061381881612ed7565b92915050565b60006020828403121561383457613833612c62565b5b600061384284828501613809565b91505092915050565b7f5061796d656e74207265666572656e636520616c726561647920757365640000600082015250565b6000613881601e83613370565b915061388c8261384b565b602082019050919050565b600060208201905081810360008301526138b081613874565b9050919050565b7f3020416d6f756e74000000000000000000000000000000000000000000000000600082015250565b60006138ed600883613370565b91506138f8826138b7565b602082019050919050565b6000602082019050818103600083015261391c816138e0565b9050919050565b7f496e76616c696420436f6d657420616464726573730000000000000000000000600082015250565b6000613959601583613370565b915061396482613923565b602082019050919050565b600060208201905081810360008301526139888161394c565b9050919050565b60008151905061399e81612c6c565b92915050565b6000602082840312156139ba576139b9612c62565b5b60006139c88482850161398f565b91505092915050565b7f496e76616c696420617373657400000000000000000000000000000000000000600082015250565b6000613a07600d83613370565b9150613a12826139d1565b602082019050919050565b60006020820190508181036000830152613a36816139fa565b9050919050565b7f5061796565206973203020616464726573730000000000000000000000000000600082015250565b6000613a73601283613370565b9150613a7e82613a3d565b602082019050919050565b60006020820190508181036000830152613aa281613a66565b9050919050565b600062ffffff82169050919050565b6000613ac382613aa9565b9150613ace83613aa9565b9250828202613adc81613aa9565b9150808214613aee57613aed613523565b5b5092915050565b6000604082019050613b0a6000830185612c2e565b613b176020830184613192565b9392505050565b6000613b2a83856135ff565b9350613b378385846130ca565b82840190509392505050565b6000613b50828486613b1e565b91508190509392505050565b6000613b68838561370f565b9350613b758385846130ca565b613b7e8361300d565b840190509392505050565b600060a082019050613b9e6000830189613192565b613bab6020830188613192565b613bb86040830187612c2e565b613bc56060830186612c2e565b8181036080830152613bd8818486613b5c565b9050979650505050505050565b6000606082019050613bfa6000830186612c2e565b613c076020830185612c2e565b613c146040830184612cd1565b949350505050565b7f4e6f207072657061796d656e7420666f756e6400000000000000000000000000600082015250565b6000613c52601383613370565b9150613c5d82613c1c565b602082019050919050565b60006020820190508181036000830152613c8181613c45565b9050919050565b7f4e6f7420417574686f72697a6564000000000000000000000000000000000000600082015250565b6000613cbe600e83613370565b9150613cc982613c88565b602082019050919050565b60006020820190508181036000830152613ced81613cb1565b9050919050565b7f596f7572207061796d656e74207265666572656e636520616c7265616479206860008201527f617320612064756520646174652061737369676e656400000000000000000000602082015250565b6000613d50603683613370565b9150613d5b82613cf4565b604082019050919050565b60006020820190508181036000830152613d7f81613d43565b9050919050565b7f4e6577206475652064617465206e6565647320746f206265203e20626c6f636b60008201527f2e74696d657374616d70202b2031206461790000000000000000000000000000602082015250565b6000613de2603283613370565b9150613ded82613d86565b604082019050919050565b60006020820190508181036000830152613e1181613dd5565b9050919050565b6000608082019050613e2d6000830188612c2e565b613e3a6020830187612c2e565b8181036040830152613e4d818587613b5c565b9050613e5c6060830184613192565b9695505050505050565b7f4665652061646472657373206973203020616464726573730000000000000000600082015250565b6000613e9c601883613370565b9150613ea782613e66565b602082019050919050565b60006020820190508181036000830152613ecb81613e8f565b9050919050565b7f302046656520616d6f756e740000000000000000000000000000000000000000600082015250565b6000613f08600c83613370565b9150613f1382613ed2565b602082019050919050565b60006020820190508181036000830152613f3781613efb565b9050919050565b6000613f4982612ce0565b9150613f5483612ce0565b9250828202613f6281612ce0565b9150808214613f7457613f73613523565b5b5092915050565b600060e082019050613f90600083018b613192565b613f9d602083018a613192565b613faa6040830189612c2e565b613fb76060830188612c2e565b613fc46080830187612c2e565b81810360a0830152613fd7818587613b5c565b9050613fe660c0830184613192565b9998505050505050505050565b7f4f776e61626c653a206e6577206f776e657220697320746865207a65726f206160008201527f6464726573730000000000000000000000000000000000000000000000000000602082015250565b600061404f602683613370565b915061405a82613ff3565b604082019050919050565b6000602082019050818103600083015261407e81614042565b9050919050565b7f4f776e61626c653a2063616c6c6572206973206e6f7420746865206f776e6572600082015250565b60006140bb602083613370565b91506140c682614085565b602082019050919050565b600060208201905081810360008301526140ea816140ae565b9050919050565b7f5265656e7472616e637947756172643a207265656e7472616e742063616c6c00600082015250565b6000614127601f83613370565b9150614132826140f1565b602082019050919050565b600060208201905081810360008301526141568161411a565b9050919050565b60006040820190506141726000830185612c2e565b61417f6020830184612c2e565b9392505050565b7f5361666545524332303a20617070726f76652066726f6d206e6f6e2d7a65726f60008201527f20746f206e6f6e2d7a65726f20616c6c6f77616e636500000000000000000000602082015250565b60006141e2603683613370565b91506141ed82614186565b604082019050919050565b60006020820190508181036000830152614211816141d5565b9050919050565b7f5061757361626c653a2070617573656400000000000000000000000000000000600082015250565b600061424e601083613370565b915061425982614218565b602082019050919050565b6000602082019050818103600083015261427d81614241565b9050919050565b60006060820190506142996000830186612c2e565b6142a66020830185612c2e565b6142b36040830184613192565b949350505050565b6142c481612cc5565b81146142cf57600080fd5b50565b6000815190506142e1816142bb565b92915050565b6000602082840312156142fd576142fc612c62565b5b600061430b848285016142d2565b91505092915050565b7f5361666545524332303a204552433230206f7065726174696f6e20646964206e60008201527f6f74207375636365656400000000000000000000000000000000000000000000602082015250565b6000614370602a83613370565b915061437b82614314565b604082019050919050565b6000602082019050818103600083015261439f81614363565b9050919050565b7f5061757361626c653a206e6f7420706175736564000000000000000000000000600082015250565b60006143dc601483613370565b91506143e7826143a6565b602082019050919050565b6000602082019050818103600083015261440b816143cf565b9050919050565b7f416464726573733a20696e73756666696369656e742062616c616e636520666f60008201527f722063616c6c0000000000000000000000000000000000000000000000000000602082015250565b600061446e602683613370565b915061447982614412565b604082019050919050565b6000602082019050818103600083015261449d81614461565b9050919050565b7f416464726573733a2063616c6c20746f206e6f6e2d636f6e7472616374000000600082015250565b60006144da601d83613370565b91506144e5826144a4565b602082019050919050565b60006020820190508181036000830152614509816144cd565b9050919050565b600081519050919050565b600061452682614510565b6145308185613370565b935061454081856020860161360a565b6145498161300d565b840191505092915050565b6000602082019050818103600083015261456e818461451b565b90509291505056fea264697066735822122051f62119b6f54deb44ddece0fdd4eb11a78f3912c8632e27b171760f85fc834664736f6c63430008130033",
  "immutableReferences": {},
  "source": "// SPDX-License-Identifier: MIT\npragma solidity >=0.8.0 <0.9.0;\n\nimport \"@openzeppelin/contracts/access/Ownable.sol\";\nimport \"@openzeppelin/contracts/security/ReentrancyGuard.sol\";\nimport \"@openzeppelin/contracts/token/ERC20/Utils/SafeERC20.sol\";\n//import \"https://github.com/OpenZeppelin/openzeppelin-contracts/blob/master/contracts/token/ERC20/utils/SafeERC20.sol\";\nimport \"@openzeppelin/contracts/security/Pausable.sol\";\n\n\ninterface IComet {\n    function supply(address asset, uint amount) external;\n    function withdraw(address asset, uint amount) external;\n    function baseToken() external view returns (address);\n}\n\ninterface ICometRewards {\n  function claim(address comet, address src, bool shouldAccrue) external;\n}\n\ninterface IERC20FeeProxy {\n    function transferFromWithReferenceAndFee(\n        address _tokenAddress,\n        address _to,\n        uint256 _amount,\n        bytes calldata _paymentReference,\n        uint256 _feeAmount,\n        address _feeAddress\n    ) external;\n}\n\n/**\n * @title   Paytr\n * @notice  Paytr allows you to receive yield by making early payments.\n * @dev     All string parameters will change to bytes.\n */\n\ncontract Paytr is Ownable, Pausable, ReentrancyGuard {\n    using SafeERC20 for IERC20;\n\n    address public ERC20FeeProxyAddress;\n    address public gelatoAddress;\n\n    constructor(address _gelatoAddress, address _cometAddress, uint8 _decimals, address _ERC20FeeProxyAddress) {\n        gelatoAddress = _gelatoAddress; //Polygon + Mumbai msg.sender Gelato address = 0x83C766237dD04EB47F62784218839F892A691E84\n        allowedCometInfo[_cometAddress] = CometInfo(true, _decimals); //Comet Mumbai cUSDCv3 address = 0xF09F0369aB0a875254fB565E52226c88f10Bc839, USDC uses 6 decimals\n        ERC20FeeProxyAddress = _ERC20FeeProxyAddress; //Mumbai ERC20FeeProxyAddress (Request Network) = 0x131eb294E3803F23dc2882AB795631A12D1d8929\n    }\n\n    event PaymentERC20Event(uint256 amount, uint256 dueDate, address payee, address tokenAddress, bytes paymentReference);\n    event PaymentERC20EventWithFee(uint256 amount, uint256 dueDate, address payee, address tokenAddress, address feeAddress, bytes paymentReference, uint256 feeAmount);\n    event PayOutERC20Event(address tokenAddress, address payee, uint256 amount, bytes paymentReference,  uint256 feeAmount, address feeAddress);\n    event DueDateUpdatedEvent(address payer, address payee, bytes paymentReference, uint256 dueDate);    \n    \n    struct PaymentERC20 {\n        uint256 amount;\n        uint256 feeAmount;\n        uint256 dueDate;\n        address payer;\n        address payee;\n        address asset;\n        address cometAddress;\n        address feeAddress;       \n    }\n\n    struct RedeemDataERC20 {\n        uint256 amount;\n        uint256 interestAmount;\n        uint256 feeAmount;\n        address payer;\n        address payee;\n        address asset;\n        address cometAddress;\n        address feeAddress;\n        bytes paymentReference;   \n    }\n\n    struct totalPerAssetToRedeem {        \n        address asset;\n        address cometAddress;\n        uint256 amount;        \n    }\n\n    struct CometInfo {\n        bool allowed;\n        uint8 decimals;\n    }\n\n    /**\n     * @notice paymentMapping keeps track of the paid invoices. The mapping uses keyType string (the payment reference of the invoice) \n        and valueType struct InvoiceERC20.\n     */   \n    mapping(bytes => PaymentERC20) public paymentMapping;\n\n    /**\n     * @notice allowedCometAddresses keeps track of the allowed Comet addresses for Compound Finance + the number of decimals, to make sure no malicious Comet contracts can be used\n        while making a payment.\n    */\n    mapping(address => CometInfo) public allowedCometInfo;\n\n    /**\n     * @notice allowedRequestNetworkFeeAddresses makes sure ERC20 payments originating from the Request Network protocol go through the correct ERC20FeeProxy contract.\n        This makes sure Request Network can detect the payment.\n        See function payOutERC20Invoice in this contract for more details.\n    */\n    mapping(address => bool) public allowedRequestNetworkFeeAddresses;\n  \n    /**\n     * @notice modifier checks if invoice hasn't been paid already, to prevent double payments.\n     */\n    modifier IsNotPaid(bytes memory _paymentReference) {\n        require(paymentMapping[_paymentReference].amount == 0, \"Payment reference already used\");\n        _;\n    }\n\n    /**\n    * @notice modifier checks if payment is present in contract.\n    */\n    modifier IsInContract(bytes memory _paymentReference) {       \n        require(paymentMapping[_paymentReference].amount > 0, \"No prepayment found\");\n        _;\n    }\n\n    /**\n     * @notice modifier only allows payer to use this function.\n     */\n    modifier OnlyPayer(bytes memory _paymentReference) {\n        require(msg.sender == paymentMapping[_paymentReference].payer, \"Not Authorized\");\n        _;\n    }\n\n    /**\n     * @notice modifier only allows the Gelato smart contract or the contract owner to use this function. Gelato offers a dedicated msg.sender per account.\n     This ensures the integrity of the off-chain computation callData.\n     */\n    modifier onlyGelatoOrOwner {\n        require(msg.sender == gelatoAddress || msg.sender == owner(), \"Only Gelato or owner\");\n        _;\n    }\n\n    /**\n    * @notice Make a payment using an ERC20 token.\n    * @notice This function can't be used while it's paused.\n    * @param _asset Make sure the ERC20 token (base currency, USDC for example) is supported by Compound Finance V3. Using unsupported assets will result in an error.\n    * @param _payee The receiver of the payment.\n    * @param _dueDate The due date of the payment, or invoice, in days.\n    * @param _amount The _asset amount in wei (10 USDC = 10**6 for example). Double check the number of decimals for each ERC20 token before paying the invoice.\n    * @param _paymentReference Reference of the related payment.  \n    * @param _cometAddress The address of the Comet contract you want to call. Check https://docs.compound.finance/#networks to get the correct contract address.\n    * @dev Uses modifier IsNotPaid, nonReentrant and whenNotPaused.\n    * @dev The parameter _dueDate needs to be inserted in number of days (uint8).\n    * @dev The parameter _amount needs be inserted in wei. Double check the decimal input for each token.\n    */\n\n    function payInvoiceERC20(\n        address _asset, //address base token, like USDC\n        address _payee,\n        uint8 _dueDate,\n        uint256 _amount,\n        bytes calldata _paymentReference,\n        address _cometAddress\n        ) public IsNotPaid(_paymentReference) nonReentrant whenNotPaused {\n\n            require(_amount != 0, \"0 Amount\");\n            require(allowedCometInfo[_cometAddress].allowed == true, \"Invalid Comet address\"); //prevents the use of malicious Comet contracts\n            require(IComet(_cometAddress).baseToken() == _asset, \"Invalid asset\"); //requires the use of the correct base asset for the Comet address\n            require(_payee != address(0), \"Payee is 0 address\");\n\n            uint256 dueDate;\n            uint256 baseFee;\n\n            _dueDate != 0 ? dueDate = block.timestamp + _dueDate * 1 days : dueDate = _dueDate;\n            allowedCometInfo[_cometAddress].decimals == 6 ? baseFee = 10**5 : baseFee = 10**17;\n\n            IERC20(_asset).safeTransferFrom(msg.sender, address(this), _amount);                \n            IERC20(_asset).safeApprove(_cometAddress, _amount);\n            IERC20(_asset).safeTransferFrom(msg.sender, owner(), baseFee);\n\n            IComet(_cometAddress).supply(_asset, _amount);\n\n            paymentMapping[_paymentReference] = PaymentERC20(\n                _amount,\n                0,\n                dueDate,\n                msg.sender,\n                _payee,  \n                _asset,\n                _cometAddress,\n                msg.sender        \n            );\n            \n            emit PaymentERC20Event(_amount, dueDate, _payee, _asset, _paymentReference);            \n        }\n    /**\n    * @notice Make a payment using an ERC20 token.\n    * @notice This function can't be used while it's paused.\n    * @param _asset Make sure the ERC20 token (base currency, USDC for example) is supported by Compound Finance V3. Using unsupported assets will result in an error.\n    * @param _payee The receiver of the payment.\n    * @param _feeAddress When using an additional fee, this is the address that will receive the feeAmount. Requires msg.sender address when param _feeAmount == 0.\n    * @param _dueDate The due date of the payment, or invoice, in days\n    * @param _amount The _asset amount in wei (10 USDC = 10**6 for example). Double check the number of decimals for each ERC20 token before paying the invoice.\n    * @param _feeAmount The total _asset fee amount in wei.\n    * @param _paymentReference Reference of the related payment.  \n    * @param _cometAddress The address of the Comet contract you want to call. Check https://docs.compound.finance/#networks to get the correct contract address.\n    * @dev Uses modifier IsNotPaid, nonReentrant and whenNotPaused.\n    * @dev The parameter _dueDate needs to be inserted in number of days (uint8).\n    * @dev The parameters _amount and _feeAmount need be inserted in wei. Double check the decimal input for each token.\n    */\n\n    function payInvoiceERC20WithFee(\n        address _asset, //address base token, like USDC\n        address _payee,\n        address _feeAddress,\n        uint8 _dueDate,\n        uint256 _amount,\n        uint256 _feeAmount,\n        bytes calldata _paymentReference,\n        address _cometAddress\n        ) public IsNotPaid(_paymentReference) nonReentrant whenNotPaused {\n\n            require(_amount != 0, \"0 Amount\");\n            require(allowedCometInfo[_cometAddress].allowed == true, \"Invalid Comet address\"); //prevents the use of malicious Comet contracts\n            require(IComet(_cometAddress).baseToken() == _asset, \"Invalid asset\"); //requires the use of the correct base asset for the Comet address\n            require(_payee != address(0), \"Payee is 0 address\");\n            require(_feeAddress != address(0), \"Fee address is 0 address\");\n            require(_feeAmount != 0, \"0 Fee amount\");\n\n            uint256 dueDate;\n            uint256 baseFee;\n\n            _dueDate != 0 ? dueDate = block.timestamp + _dueDate * 1 seconds : dueDate = _dueDate;\n            allowedCometInfo[_cometAddress].decimals == 6 ? baseFee = 10**5 : baseFee = 10**17;\n\n            IERC20(_asset).safeTransferFrom(msg.sender, address(this), _amount + _feeAmount);          \n            IERC20(_asset).safeApprove(_cometAddress, _amount + _feeAmount);\n            IERC20(_asset).safeTransferFrom(msg.sender, owner(), baseFee);\n\n            IComet(_cometAddress).supply(_asset, _amount + _feeAmount);\n\n            paymentMapping[_paymentReference] = PaymentERC20(\n                _amount,\n                _feeAmount,\n                dueDate,\n                msg.sender,\n                _payee,  \n                _asset,\n                _cometAddress,\n                _feeAddress        \n            );\n            \n            emit PaymentERC20EventWithFee(_amount, dueDate, _payee, _asset, _feeAddress, _paymentReference, _feeAmount);            \n        }\n\n    /**\n    @notice This function allows the payer to update the due date of the payment. This is only possible when the initial payment had a '0' dueDate,\n    for example when using the Paytr contract for escrow or crowdfunding. Updating the due date means releasing the funds.\n    @param _paymentReference Input the paymentReference in bytes.\n    @param _dueDateUpdated Input the due date in Epoch time.    \n     */    \n    \n    function updateDueDate(bytes calldata _paymentReference, uint256 _dueDateUpdated) public IsInContract(_paymentReference) OnlyPayer(_paymentReference) nonReentrant whenNotPaused {\n        require(paymentMapping[_paymentReference].dueDate == 0, \"Your payment reference already has a due date assigned\");\n        require(_dueDateUpdated >= block.timestamp + 1 days, \"New due date needs to be > block.timestamp + 1 day\");\n        paymentMapping[_paymentReference].dueDate = _dueDateUpdated;\n        address _payee = paymentMapping[_paymentReference].payee;\n\n        emit DueDateUpdatedEvent(msg.sender, _payee, _paymentReference, _dueDateUpdated);\n    }\n\n     /**\n     *\n     @notice Private function \n     @dev Handles the redeeming of the asset from Compound Finance\n    */\n    function redeemFundsERC20(totalPerAssetToRedeem[] calldata assetsToRedeem) private {\n        uint i;\n        uint assetsToRedeemLength = assetsToRedeem.length;\n\n        for (;i < assetsToRedeemLength;) {\n            IComet(assetsToRedeem[i].cometAddress).withdraw(assetsToRedeem[i].asset, assetsToRedeem[i].amount);\n            ++i;\n        }\n    }\n\n     /**\n    * @notice Allows the contract to pay payee (principal amount), payer (interest amount) and fee receiver (fee amount).\n    This function cannot be paused.\n    * @dev Uses modifiers onlyGelatoOrOwner. \n    **/\n    function payOutERC20Invoice(RedeemDataERC20[] calldata redeemData, totalPerAssetToRedeem[] calldata assetsToRedeem ) public onlyGelatoOrOwner nonReentrant {  \n\n        require(redeemData.length > 0 && assetsToRedeem.length > 0, \"No payments to redeem\");        \n        redeemFundsERC20(assetsToRedeem);\n\n        uint256 i;\n        uint256 redeemDataLength = redeemData.length;\n\n        for (; i < redeemDataLength;) {\n            bytes memory _paymentReference = redeemData[i].paymentReference;\n            address payable _payee = payable(redeemData[i].payee);\n            address payable _payer = payable(redeemData[i].payer);\n            address payable _feeAddress = payable(redeemData[i].feeAddress);\n            address _asset = redeemData[i].asset;            \n            uint256 _amount = redeemData[i].amount;\n            uint256 _feeAmount = redeemData[i].feeAmount;\n            uint256 _interestAmount = redeemData[i].interestAmount * 9000 / 10000;\n            \n            /*\n            Update state before transferring funds\n            */\n            paymentMapping[_paymentReference].amount = 0;\n            delete paymentMapping[_paymentReference];\n            \n            /*\n            Transfer funds to payer, payee and feeAddress. Payments originating from Request Network call the ERC20FeeProxy contract.\n            The Request Network payments are detected by checking the _feeAddress parameter.\n            */\n            if(allowedRequestNetworkFeeAddresses[_feeAddress] == true) {\n                IERC20(_asset).safeApprove(ERC20FeeProxyAddress, _amount + _feeAmount);\n\n                IERC20FeeProxy(ERC20FeeProxyAddress).transferFromWithReferenceAndFee(\n                    _asset,\n                    _payee,\n                    _amount,\n                    _paymentReference,\n                    _feeAmount,\n                    _feeAddress\n                );\n            \n            } else {\n                IERC20(_asset).safeTransfer(_payee, _amount);\n                if(_feeAmount != 0) {\n                    IERC20(_asset).safeTransfer(_feeAddress, _feeAmount);\n                }\n            }\n            \n            IERC20(_asset).safeTransfer(_payer, _interestAmount);\n            ++i; \n\n            emit PayOutERC20Event(_asset, _payee, _amount, _paymentReference, _feeAmount, _feeAddress);           \n        }\n        //transfer total fee amount to contract owner\n        uint256 j;\n        for (;j < assetsToRedeem.length;) {\n            uint256 _balanceAfterRedeeming = IERC20(assetsToRedeem[j].asset).balanceOf(address(this));\n            IERC20(assetsToRedeem[j].asset).safeTransfer(owner(), _balanceAfterRedeeming);\n            ++j;\n        }      \n    }\n\n    function claimCompRewards(address _cometAddress) public onlyOwner {\n        ICometRewards(_cometAddress).claim(_cometAddress, address(this), true);\n        IERC20(_cometAddress).safeTransfer(owner(), IERC20(_cometAddress).balanceOf(address(this)));\n    }\n\n    function addCometAddress(address _cometAddressToAdd, uint8 _decimals) public onlyOwner {\n        allowedCometInfo[_cometAddressToAdd] = CometInfo(\n            true,\n            _decimals\n        );\n    }\n\n    function addRequestNetworkFeeAddress(address _requestNetworkFeeAddress) public onlyOwner {\n        allowedRequestNetworkFeeAddresses[_requestNetworkFeeAddress] = true;\n    }\n\n    function setGelatoAddress(address _gelatoAddress) public onlyOwner {\n        gelatoAddress = _gelatoAddress;\n    }\n\n    function setERC20FeeProxy(address _ERC20FeeProxyAddress) public onlyOwner {\n        ERC20FeeProxyAddress = _ERC20FeeProxyAddress;\n    }\n\n    function pause() public onlyOwner {\n        _pause();\n    }\n\n    function unpause() public onlyOwner {\n        _unpause();\n    }\n\n}",
  "sourcePath": "/Users/pieterclaesen/blockchain/contracts/contracts/Paytr.sol",
  "compiler": {
    "name": "solc",
    "version": "0.8.19+commit.7dd6d404.Emscripten.clang"
  },
  "schemaVersion": "3.4.13",
  "updatedAt": "2023-05-06T13:21:43.529Z",
  "networkType": "ethereum",
  "devdoc": {
    "details": "All string parameters will change to bytes.",
    "events": {
      "Paused(address)": {
        "details": "Emitted when the pause is triggered by `account`."
      },
      "Unpaused(address)": {
        "details": "Emitted when the pause is lifted by `account`."
      }
    },
    "kind": "dev",
    "methods": {
      "owner()": {
        "details": "Returns the address of the current owner."
      },
      "paused()": {
        "details": "Returns true if the contract is paused, and false otherwise."
      },
      "payInvoiceERC20(address,address,uint8,uint256,bytes,address)": {
        "details": "Uses modifier IsNotPaid, nonReentrant and whenNotPaused.The parameter _dueDate needs to be inserted in number of days (uint8).The parameter _amount needs be inserted in wei. Double check the decimal input for each token.",
        "params": {
          "_amount": "The _asset amount in wei (10 USDC = 10**6 for example). Double check the number of decimals for each ERC20 token before paying the invoice.",
          "_asset": "Make sure the ERC20 token (base currency, USDC for example) is supported by Compound Finance V3. Using unsupported assets will result in an error.",
          "_cometAddress": "The address of the Comet contract you want to call. Check https://docs.compound.finance/#networks to get the correct contract address.",
          "_dueDate": "The due date of the payment, or invoice, in days.",
          "_payee": "The receiver of the payment.",
          "_paymentReference": "Reference of the related payment.  "
        }
      },
      "payInvoiceERC20WithFee(address,address,address,uint8,uint256,uint256,bytes,address)": {
        "details": "Uses modifier IsNotPaid, nonReentrant and whenNotPaused.The parameter _dueDate needs to be inserted in number of days (uint8).The parameters _amount and _feeAmount need be inserted in wei. Double check the decimal input for each token.",
        "params": {
          "_amount": "The _asset amount in wei (10 USDC = 10**6 for example). Double check the number of decimals for each ERC20 token before paying the invoice.",
          "_asset": "Make sure the ERC20 token (base currency, USDC for example) is supported by Compound Finance V3. Using unsupported assets will result in an error.",
          "_cometAddress": "The address of the Comet contract you want to call. Check https://docs.compound.finance/#networks to get the correct contract address.",
          "_dueDate": "The due date of the payment, or invoice, in days",
          "_feeAddress": "When using an additional fee, this is the address that will receive the feeAmount. Requires msg.sender address when param _feeAmount == 0.",
          "_feeAmount": "The total _asset fee amount in wei.",
          "_payee": "The receiver of the payment.",
          "_paymentReference": "Reference of the related payment.  "
        }
      },
      "payOutERC20Invoice((uint256,uint256,uint256,address,address,address,address,address,bytes)[],(address,address,uint256)[])": {
        "details": "Uses modifiers onlyGelatoOrOwner. *"
      },
      "renounceOwnership()": {
        "details": "Leaves the contract without owner. It will not be possible to call `onlyOwner` functions anymore. Can only be called by the current owner. NOTE: Renouncing ownership will leave the contract without an owner, thereby removing any functionality that is only available to the owner."
      },
      "transferOwnership(address)": {
        "details": "Transfers ownership of the contract to a new account (`newOwner`). Can only be called by the current owner."
      },
      "updateDueDate(bytes,uint256)": {
        "params": {
          "_dueDateUpdated": "Input the due date in Epoch time.    ",
          "_paymentReference": "Input the paymentReference in bytes."
        }
      }
    },
    "title": "Paytr",
    "version": 1
  },
  "userdoc": {
    "kind": "user",
    "methods": {
      "allowedCometInfo(address)": {
        "notice": "allowedCometAddresses keeps track of the allowed Comet addresses for Compound Finance + the number of decimals, to make sure no malicious Comet contracts can be used while making a payment."
      },
      "allowedRequestNetworkFeeAddresses(address)": {
        "notice": "allowedRequestNetworkFeeAddresses makes sure ERC20 payments originating from the Request Network protocol go through the correct ERC20FeeProxy contract. This makes sure Request Network can detect the payment. See function payOutERC20Invoice in this contract for more details."
      },
      "payInvoiceERC20(address,address,uint8,uint256,bytes,address)": {
        "notice": "Make a payment using an ERC20 token.This function can't be used while it's paused."
      },
      "payInvoiceERC20WithFee(address,address,address,uint8,uint256,uint256,bytes,address)": {
        "notice": "Make a payment using an ERC20 token.This function can't be used while it's paused."
      },
      "payOutERC20Invoice((uint256,uint256,uint256,address,address,address,address,address,bytes)[],(address,address,uint256)[])": {
        "notice": "Allows the contract to pay payee (principal amount), payer (interest amount) and fee receiver (fee amount). This function cannot be paused."
      },
      "paymentMapping(bytes)": {
        "notice": "paymentMapping keeps track of the paid invoices. The mapping uses keyType string (the payment reference of the invoice)  and valueType struct InvoiceERC20."
      },
      "updateDueDate(bytes,uint256)": {
        "notice": "This function allows the payer to update the due date of the payment. This is only possible when the initial payment had a '0' dueDate, for example when using the Paytr contract for escrow or crowdfunding. Updating the due date means releasing the funds."
      }
    },
    "notice": "Paytr allows you to receive yield by making early payments.",
    "version": 1
  }
}