{
  "contractName": "Paytr",
  "abi": [
    {
      "inputs": [
        {
          "internalType": "address",
          "name": "_cometAddress",
          "type": "address"
        },
        {
          "internalType": "address",
          "name": "_wrapperAddress",
          "type": "address"
        },
        {
          "internalType": "uint16",
          "name": "_feeModifier",
          "type": "uint16"
        },
        {
          "internalType": "uint256",
          "name": "_minDueDateParameter",
          "type": "uint256"
        },
        {
          "internalType": "uint256",
          "name": "_maxDueDateParameter",
          "type": "uint256"
        },
        {
          "internalType": "uint256",
          "name": "_minAmount",
          "type": "uint256"
        },
        {
          "internalType": "uint256",
          "name": "_maxAmount",
          "type": "uint256"
        },
        {
          "internalType": "uint8",
          "name": "_maxPayoutArraySize",
          "type": "uint8"
        }
      ],
      "stateMutability": "nonpayable",
      "type": "constructor"
    },
    {
      "inputs": [],
      "name": "DueDateNotAllowed",
      "type": "error"
    },
    {
      "inputs": [],
      "name": "DueDateNotZero",
      "type": "error"
    },
    {
      "inputs": [],
      "name": "InvalidAmount",
      "type": "error"
    },
    {
      "inputs": [],
      "name": "InvalidArrayLength",
      "type": "error"
    },
    {
      "inputs": [],
      "name": "InvalidFeeModifier",
      "type": "error"
    },
    {
      "inputs": [],
      "name": "InvalidMaxArraySize",
      "type": "error"
    },
    {
      "inputs": [],
      "name": "InvalidMaxDueDate",
      "type": "error"
    },
    {
      "inputs": [],
      "name": "InvalidMinAmount",
      "type": "error"
    },
    {
      "inputs": [],
      "name": "InvalidMinDueDate",
      "type": "error"
    },
    {
      "inputs": [],
      "name": "InvalidNewDueDate",
      "type": "error"
    },
    {
      "inputs": [],
      "name": "NoPrePayment",
      "type": "error"
    },
    {
      "inputs": [],
      "name": "NotAuthorized",
      "type": "error"
    },
    {
      "inputs": [],
      "name": "PaymentReferenceInUse",
      "type": "error"
    },
    {
      "inputs": [],
      "name": "ReferenceNotDue",
      "type": "error"
    },
    {
      "inputs": [],
      "name": "ZeroFeeAddress",
      "type": "error"
    },
    {
      "inputs": [],
      "name": "ZeroPayeeAddress",
      "type": "error"
    },
    {
      "anonymous": false,
      "inputs": [
        {
          "indexed": false,
          "internalType": "uint16",
          "name": "feeModifier",
          "type": "uint16"
        },
        {
          "indexed": false,
          "internalType": "uint256",
          "name": "minDueDateParameter",
          "type": "uint256"
        },
        {
          "indexed": false,
          "internalType": "uint256",
          "name": "maxDueDateParameter",
          "type": "uint256"
        },
        {
          "indexed": false,
          "internalType": "uint256",
          "name": "minAmount",
          "type": "uint256"
        },
        {
          "indexed": false,
          "internalType": "uint256",
          "name": "maxAmount",
          "type": "uint256"
        },
        {
          "indexed": false,
          "internalType": "uint8",
          "name": "maxPayoutArraySize",
          "type": "uint8"
        }
      ],
      "name": "ContractParametersUpdatedEvent",
      "type": "event"
    },
    {
      "anonymous": false,
      "inputs": [
        {
          "indexed": false,
          "internalType": "address",
          "name": "tokenAddress",
          "type": "address"
        },
        {
          "indexed": false,
          "internalType": "address",
          "name": "payee",
          "type": "address"
        },
        {
          "indexed": false,
          "internalType": "uint256",
          "name": "interestAmount",
          "type": "uint256"
        },
        {
          "indexed": false,
          "internalType": "bytes",
          "name": "paymentReference",
          "type": "bytes"
        }
      ],
      "name": "InterestPayoutEvent",
      "type": "event"
    },
    {
      "anonymous": false,
      "inputs": [
        {
          "indexed": true,
          "internalType": "address",
          "name": "previousOwner",
          "type": "address"
        },
        {
          "indexed": true,
          "internalType": "address",
          "name": "newOwner",
          "type": "address"
        }
      ],
      "name": "OwnershipTransferred",
      "type": "event"
    },
    {
      "anonymous": false,
      "inputs": [
        {
          "indexed": false,
          "internalType": "address",
          "name": "account",
          "type": "address"
        }
      ],
      "name": "Paused",
      "type": "event"
    },
    {
      "anonymous": false,
      "inputs": [
        {
          "indexed": false,
          "internalType": "address",
          "name": "tokenAddress",
          "type": "address"
        },
        {
          "indexed": false,
          "internalType": "address",
          "name": "payee",
          "type": "address"
        },
        {
          "indexed": false,
          "internalType": "address",
          "name": "feeAddress",
          "type": "address"
        },
        {
          "indexed": false,
          "internalType": "uint256",
          "name": "amount",
          "type": "uint256"
        },
        {
          "indexed": false,
          "internalType": "bytes",
          "name": "paymentReference",
          "type": "bytes"
        },
        {
          "indexed": false,
          "internalType": "uint256",
          "name": "feeAmount",
          "type": "uint256"
        }
      ],
      "name": "PayOutERC20Event",
      "type": "event"
    },
    {
      "anonymous": false,
      "inputs": [
        {
          "indexed": false,
          "internalType": "address",
          "name": "tokenAddress",
          "type": "address"
        },
        {
          "indexed": false,
          "internalType": "address",
          "name": "payee",
          "type": "address"
        },
        {
          "indexed": false,
          "internalType": "address",
          "name": "feeAddress",
          "type": "address"
        },
        {
          "indexed": false,
          "internalType": "uint256",
          "name": "amount",
          "type": "uint256"
        },
        {
          "indexed": false,
          "internalType": "uint256",
          "name": "dueDate",
          "type": "uint256"
        },
        {
          "indexed": false,
          "internalType": "uint256",
          "name": "feeAmount",
          "type": "uint256"
        },
        {
          "indexed": false,
          "internalType": "bytes",
          "name": "paymentReference",
          "type": "bytes"
        }
      ],
      "name": "PaymentERC20Event",
      "type": "event"
    },
    {
      "anonymous": false,
      "inputs": [
        {
          "indexed": false,
          "internalType": "address",
          "name": "account",
          "type": "address"
        }
      ],
      "name": "Unpaused",
      "type": "event"
    },
    {
      "inputs": [
        {
          "internalType": "address",
          "name": "",
          "type": "address"
        }
      ],
      "name": "allowedRequestNetworkFeeAddresses",
      "outputs": [
        {
          "internalType": "bool",
          "name": "",
          "type": "bool"
        }
      ],
      "stateMutability": "view",
      "type": "function"
    },
    {
      "inputs": [],
      "name": "owner",
      "outputs": [
        {
          "internalType": "address",
          "name": "",
          "type": "address"
        }
      ],
      "stateMutability": "view",
      "type": "function"
    },
    {
      "inputs": [],
      "name": "paused",
      "outputs": [
        {
          "internalType": "bool",
          "name": "",
          "type": "bool"
        }
      ],
      "stateMutability": "view",
      "type": "function"
    },
    {
      "inputs": [
        {
          "internalType": "bytes",
          "name": "",
          "type": "bytes"
        }
      ],
      "name": "paymentMapping",
      "outputs": [
        {
          "internalType": "uint256",
          "name": "amount",
          "type": "uint256"
        },
        {
          "internalType": "uint256",
          "name": "feeAmount",
          "type": "uint256"
        },
        {
          "internalType": "uint256",
          "name": "dueDate",
          "type": "uint256"
        },
        {
          "internalType": "uint256",
          "name": "wrapperSharesReceived",
          "type": "uint256"
        },
        {
          "internalType": "address",
          "name": "payer",
          "type": "address"
        },
        {
          "internalType": "address",
          "name": "payee",
          "type": "address"
        },
        {
          "internalType": "address",
          "name": "feeAddress",
          "type": "address"
        }
      ],
      "stateMutability": "view",
      "type": "function"
    },
    {
      "inputs": [],
      "name": "renounceOwnership",
      "outputs": [],
      "stateMutability": "nonpayable",
      "type": "function"
    },
    {
      "inputs": [
        {
          "internalType": "address",
          "name": "newOwner",
          "type": "address"
        }
      ],
      "name": "transferOwnership",
      "outputs": [],
      "stateMutability": "nonpayable",
      "type": "function"
    },
    {
      "inputs": [
        {
          "internalType": "address",
          "name": "_payee",
          "type": "address"
        },
        {
          "internalType": "address",
          "name": "_feeAddress",
          "type": "address"
        },
        {
          "internalType": "uint256",
          "name": "_dueDate",
          "type": "uint256"
        },
        {
          "internalType": "uint256",
          "name": "_amount",
          "type": "uint256"
        },
        {
          "internalType": "uint256",
          "name": "_feeAmount",
          "type": "uint256"
        },
        {
          "internalType": "bytes",
          "name": "_paymentReference",
          "type": "bytes"
        }
      ],
      "name": "payInvoiceERC20",
      "outputs": [],
      "stateMutability": "nonpayable",
      "type": "function"
    },
    {
      "inputs": [
        {
          "internalType": "bytes[]",
          "name": "payoutReferencesArray",
          "type": "bytes[]"
        }
      ],
      "name": "payOutERC20Invoice",
      "outputs": [],
      "stateMutability": "nonpayable",
      "type": "function"
    },
    {
      "inputs": [],
      "name": "claimCompRewards",
      "outputs": [],
      "stateMutability": "nonpayable",
      "type": "function"
    },
    {
      "inputs": [],
      "name": "claimBaseAssetBalance",
      "outputs": [],
      "stateMutability": "nonpayable",
      "type": "function"
    },
    {
      "inputs": [
        {
          "internalType": "uint16",
          "name": "_feeModifier",
          "type": "uint16"
        },
        {
          "internalType": "uint256",
          "name": "_minDueDateParameter",
          "type": "uint256"
        },
        {
          "internalType": "uint256",
          "name": "_maxDueDateParameter",
          "type": "uint256"
        },
        {
          "internalType": "uint256",
          "name": "_minAmount",
          "type": "uint256"
        },
        {
          "internalType": "uint256",
          "name": "_maxAmount",
          "type": "uint256"
        },
        {
          "internalType": "uint8",
          "name": "_maxPayoutArraySize",
          "type": "uint8"
        }
      ],
      "name": "setContractParameters",
      "outputs": [],
      "stateMutability": "nonpayable",
      "type": "function"
    },
    {
      "inputs": [
        {
          "internalType": "address",
          "name": "_requestNetworkFeeAddress",
          "type": "address"
        }
      ],
      "name": "addRequestNetworkFeeAddress",
      "outputs": [],
      "stateMutability": "nonpayable",
      "type": "function"
    },
    {
      "inputs": [
        {
          "internalType": "address",
          "name": "_ERC20FeeProxyAddress",
          "type": "address"
        }
      ],
      "name": "setERC20FeeProxy",
      "outputs": [],
      "stateMutability": "nonpayable",
      "type": "function"
    },
    {
      "inputs": [],
      "name": "pause",
      "outputs": [],
      "stateMutability": "nonpayable",
      "type": "function"
    },
    {
      "inputs": [],
      "name": "unpause",
      "outputs": [],
      "stateMutability": "nonpayable",
      "type": "function"
    }
  ],
  "bytecode": "0x60e060405234801562000010575f80fd5b5060405162003c0a38038062003c0a833981810160405281019062000036919062000432565b620000566200004a6200025660201b60201c565b6200025d60201b60201c565b5f8060146101000a81548160ff021916908315150217905550600180819055508773ffffffffffffffffffffffffffffffffffffffff1660c08173ffffffffffffffffffffffffffffffffffffffff168152505060c05173ffffffffffffffffffffffffffffffffffffffff1663c55dae636040518163ffffffff1660e01b8152600401602060405180830381865afa158015620000f6573d5f803e3d5ffd5b505050506040513d601f19601f820116820180604052508101906200011c9190620004f6565b73ffffffffffffffffffffffffffffffffffffffff1660808173ffffffffffffffffffffffffffffffffffffffff16815250508673ffffffffffffffffffffffffffffffffffffffff1660a08173ffffffffffffffffffffffffffffffffffffffff168152505085600260156101000a81548161ffff021916908361ffff1602179055508460038190555083600481905550826005819055508160068190555080600260146101000a81548160ff021916908360ff16021790555060c05173ffffffffffffffffffffffffffffffffffffffff1663110496e560a05160016040518363ffffffff1660e01b81526004016200021992919062000553565b5f604051808303815f87803b15801562000231575f80fd5b505af115801562000244573d5f803e3d5ffd5b5050505050505050505050506200057e565b5f33905090565b5f805f9054906101000a900473ffffffffffffffffffffffffffffffffffffffff169050815f806101000a81548173ffffffffffffffffffffffffffffffffffffffff021916908373ffffffffffffffffffffffffffffffffffffffff1602179055508173ffffffffffffffffffffffffffffffffffffffff168173ffffffffffffffffffffffffffffffffffffffff167f8be0079c531659141344cd1fd0a4f28419497f9722a3daafe3b4186f6b6457e060405160405180910390a35050565b5f80fd5b5f73ffffffffffffffffffffffffffffffffffffffff82169050919050565b5f6200034d8262000322565b9050919050565b6200035f8162000341565b81146200036a575f80fd5b50565b5f815190506200037d8162000354565b92915050565b5f61ffff82169050919050565b6200039b8162000383565b8114620003a6575f80fd5b50565b5f81519050620003b98162000390565b92915050565b5f819050919050565b620003d381620003bf565b8114620003de575f80fd5b50565b5f81519050620003f181620003c8565b92915050565b5f60ff82169050919050565b6200040e81620003f7565b811462000419575f80fd5b50565b5f815190506200042c8162000403565b92915050565b5f805f805f805f80610100898b0312156200045257620004516200031e565b5b5f620004618b828c016200036d565b9850506020620004748b828c016200036d565b9750506040620004878b828c01620003a9565b96505060606200049a8b828c01620003e1565b9550506080620004ad8b828c01620003e1565b94505060a0620004c08b828c01620003e1565b93505060c0620004d38b828c01620003e1565b92505060e0620004e68b828c016200041c565b9150509295985092959890939650565b5f602082840312156200050e576200050d6200031e565b5b5f6200051d848285016200036d565b91505092915050565b620005318162000341565b82525050565b5f8115159050919050565b6200054d8162000537565b82525050565b5f604082019050620005685f83018562000526565b62000577602083018462000542565b9392505050565b60805160a05160c0516135ce6200063c5f395f81816107bc0152818161085601528181611365015281816113d901528181611473015261152701525f81816102ef0152818161071d01526115d101525f81816108920152818161090001528181610a5a01528181610add01528181610b5b01528181610bad01528181610bfa01528181610c6d01528181610cce0152818161131b01528181611392015281816114af0152818161181f015281816118a8015261194001526135ce5ff3fe608060405234801561000f575f80fd5b50600436106100f3575f3560e01c8063715018a611610095578063a3e9f0fa11610064578063a3e9f0fa14610201578063a9948c961461021d578063ed19fa841461024d578063f2fde38b14610257576100f3565b8063715018a6146101b35780638456cb59146101bd5780638da5cb5b146101c757806391045517146101e5576100f3565b806346778635116100d157806346778635146101275780634beb2a1e1461015d5780635c975abb146101795780636e2f87f314610197576100f3565b806339c54161146100f75780633f4ba83a1461011357806345107cae1461011d575b5f80fd5b610111600480360381019061010c9190612415565b610273565b005b61011b6102d3565b005b6101256102e5565b005b610141600480360381019061013c919061257c565b61037c565b60405161015497969594939291906125ea565b60405180910390f35b610177600480360381019061017291906126b4565b61042f565b005b610181610d25565b60405161018e9190612719565b60405180910390f35b6101b160048036038101906101ac9190612415565b610d3a565b005b6101bb610d85565b005b6101c5610d98565b005b6101cf610daa565b6040516101dc9190612732565b60405180910390f35b6101ff60048036038101906101fa91906127e2565b610dd1565b005b61021b600480360381019061021691906128c0565b610fdf565b005b61023760048036038101906102329190612415565b611876565b6040516102449190612719565b60405180910390f35b610255611893565b005b610271600480360381019061026c9190612415565b611986565b005b61027b611a08565b600160085f8373ffffffffffffffffffffffffffffffffffffffff1673ffffffffffffffffffffffffffffffffffffffff1681526020019081526020015f205f6101000a81548160ff02191690831515021790555050565b6102db611a08565b6102e3611a86565b565b6102ed611a08565b7f000000000000000000000000000000000000000000000000000000000000000073ffffffffffffffffffffffffffffffffffffffff1663a262f5f8610331610daa565b6040518263ffffffff1660e01b815260040161034d9190612732565b5f604051808303815f87803b158015610364575f80fd5b505af1158015610376573d5f803e3d5ffd5b50505050565b6007818051602081018201805184825260208301602085012081835280955050505050505f91509050805f015490806001015490806002015490806003015490806004015f9054906101000a900473ffffffffffffffffffffffffffffffffffffffff1690806005015f9054906101000a900473ffffffffffffffffffffffffffffffffffffffff1690806006015f9054906101000a900473ffffffffffffffffffffffffffffffffffffffff16905087565b610437611ae7565b5f808383905090505f81148061045e5750600260149054906101000a900460ff1660ff1681115b15610495576040517f9d89020a00000000000000000000000000000000000000000000000000000000815260040160405180910390fd5b5b80821015610d17575f8484848181106104b2576104b161296a565b5b90506020028101906104c491906129a3565b8080601f0160208091040260200160405190810160405280939291908181526020018383808284375f81840152601f19601f8201169050808301925050505050505090505f6007826040516105199190612a71565b90815260200160405180910390205f015403610561576040517f2a313f9300000000000000000000000000000000000000000000000000000000815260040160405180910390fd5b426007826040516105729190612a71565b90815260200160405180910390206002015411156105bc576040517f3b713eb600000000000000000000000000000000000000000000000000000000815260040160405180910390fd5b5f6007826040516105cd9190612a71565b90815260200160405180910390206005015f9054906101000a900473ffffffffffffffffffffffffffffffffffffffff1690505f6007836040516106119190612a71565b90815260200160405180910390206004015f9054906101000a900473ffffffffffffffffffffffffffffffffffffffff1690505f6007846040516106559190612a71565b90815260200160405180910390206006015f9054906101000a900473ffffffffffffffffffffffffffffffffffffffff1690505f6007856040516106999190612a71565b90815260200160405180910390205f015490505f6007866040516106bd9190612a71565b90815260200160405180910390206001015490505f6007876040516106e29190612a71565b90815260200160405180910390206003015490505f6007886040516107079190612a71565b90815260200160405180910390205f01819055507f000000000000000000000000000000000000000000000000000000000000000073ffffffffffffffffffffffffffffffffffffffff1663ba0876528230306040518463ffffffff1660e01b815260040161077893929190612a87565b6020604051808303815f875af1158015610794573d5f803e3d5ffd5b505050506040513d601f19601f820116820180604052508101906107b89190612ad0565b505f7f000000000000000000000000000000000000000000000000000000000000000073ffffffffffffffffffffffffffffffffffffffff166370a08231306040518263ffffffff1660e01b81526004016108139190612732565b602060405180830381865afa15801561082e573d5f803e3d5ffd5b505050506040513d601f19601f820116820180604052508101906108529190612ad0565b90507f000000000000000000000000000000000000000000000000000000000000000073ffffffffffffffffffffffffffffffffffffffff1663f3fef3a37f0000000000000000000000000000000000000000000000000000000000000000836040518363ffffffff1660e01b81526004016108cf929190612afb565b5f604051808303815f87803b1580156108e6575f80fd5b505af11580156108f8573d5f803e3d5ffd5b505050505f847f000000000000000000000000000000000000000000000000000000000000000073ffffffffffffffffffffffffffffffffffffffff166370a08231306040518263ffffffff1660e01b81526004016109579190612732565b602060405180830381865afa158015610972573d5f803e3d5ffd5b505050506040513d601f19601f820116820180604052508101906109969190612ad0565b6109a09190612b4f565b90505f612710600260159054906101000a900461ffff1661ffff16836109c69190612b82565b6109d09190612bf0565b90506001151560085f8973ffffffffffffffffffffffffffffffffffffffff1673ffffffffffffffffffffffffffffffffffffffff1681526020019081526020015f205f9054906101000a900460ff16151503610b5457610a9e60025f9054906101000a900473ffffffffffffffffffffffffffffffffffffffff168688610a589190612c20565b7f000000000000000000000000000000000000000000000000000000000000000073ffffffffffffffffffffffffffffffffffffffff16611b369092919063ffffffff16565b60025f9054906101000a900473ffffffffffffffffffffffffffffffffffffffff1673ffffffffffffffffffffffffffffffffffffffff1663c219a14d7f00000000000000000000000000000000000000000000000000000000000000008b898e8a8d6040518763ffffffff1660e01b8152600401610b2296959493929190612cf6565b5f604051808303815f87803b158015610b39575f80fd5b505af1158015610b4b573d5f803e3d5ffd5b50505050610bf3565b610b9f89877f000000000000000000000000000000000000000000000000000000000000000073ffffffffffffffffffffffffffffffffffffffff16611c819092919063ffffffff16565b5f8514610bf257610bf187867f000000000000000000000000000000000000000000000000000000000000000073ffffffffffffffffffffffffffffffffffffffff16611c819092919063ffffffff16565b5b5b610c3e88827f000000000000000000000000000000000000000000000000000000000000000073ffffffffffffffffffffffffffffffffffffffff16611c819092919063ffffffff16565b8b610c4890612d5c565b9b507f3c77ae279df37c7ea5dd3a57f101c57dac95417ce9c24279d6ec87d9399c82d77f00000000000000000000000000000000000000000000000000000000000000008a89898e8a604051610ca396959493929190612da3565b60405180910390a17fa5ed23d5ebdea6438acd5b68a3befbb14c431a7a8f221448bfb708ab8a408e9f7f000000000000000000000000000000000000000000000000000000000000000089838d604051610d009493929190612e09565b60405180910390a150505050505050505050610496565b5050610d21611d07565b5050565b5f8060149054906101000a900460ff16905090565b610d42611a08565b8060025f6101000a81548173ffffffffffffffffffffffffffffffffffffffff021916908373ffffffffffffffffffffffffffffffffffffffff16021790555050565b610d8d611a08565b610d965f611d10565b565b610da0611a08565b610da8611dd1565b565b5f805f9054906101000a900473ffffffffffffffffffffffffffffffffffffffff16905090565b610dd9611a08565b6113888661ffff161080610df257506127108661ffff16115b15610e29576040517f2e9ebb9500000000000000000000000000000000000000000000000000000000815260040160405180910390fd5b62069780851015610e66576040517ff57c57d300000000000000000000000000000000000000000000000000000000815260040160405180910390fd5b6301e13380841115610ea4576040517fa7befd8c00000000000000000000000000000000000000000000000000000000815260040160405180910390fd5b6001831015610edf576040517f9c68554f00000000000000000000000000000000000000000000000000000000815260040160405180910390fd5b5f8160ff1603610f1b576040517ff39d15db00000000000000000000000000000000000000000000000000000000815260040160405180910390fd5b85600260156101000a81548161ffff021916908361ffff1602179055508460038190555083600481905550826005819055508160068190555080600260146101000a81548160ff021916908360ff1602179055507fa20f6f1bd973c2c6838ae762fb84fd32c748ca52d7feed804a1e4a1724d7f701600260159054906101000a900461ffff16600354600454600554600654600260149054906101000a900460ff16604051610fcf96959493929190612e71565b60405180910390a1505050505050565b610fe7611ae7565b610fef611e33565b5f60078383604051611002929190612ef4565b90815260200160405180910390205f01541461104a576040517fa685b0f000000000000000000000000000000000000000000000000000000000815260040160405180910390fd5b60055484108061105b575060065484115b15611092576040517f2c5211c600000000000000000000000000000000000000000000000000000000815260040160405180910390fd5b3373ffffffffffffffffffffffffffffffffffffffff16600783836040516110bb929190612ef4565b90815260200160405180910390206004015f9054906101000a900473ffffffffffffffffffffffffffffffffffffffff1673ffffffffffffffffffffffffffffffffffffffff1603611139576040517fa685b0f000000000000000000000000000000000000000000000000000000000815260040160405180910390fd5b8673ffffffffffffffffffffffffffffffffffffffff1660078383604051611162929190612ef4565b90815260200160405180910390206005015f9054906101000a900473ffffffffffffffffffffffffffffffffffffffff1673ffffffffffffffffffffffffffffffffffffffff16036111e0576040517fa685b0f000000000000000000000000000000000000000000000000000000000815260040160405180910390fd5b5f73ffffffffffffffffffffffffffffffffffffffff168773ffffffffffffffffffffffffffffffffffffffff1603611245576040517f1781d75700000000000000000000000000000000000000000000000000000000815260040160405180910390fd5b5f73ffffffffffffffffffffffffffffffffffffffff168673ffffffffffffffffffffffffffffffffffffffff16036112aa576040517fffd7845300000000000000000000000000000000000000000000000000000000815260040160405180910390fd5b600354426112b89190612c20565b8510806112d15750600454426112ce9190612c20565b85115b15611308576040517fa95a225a00000000000000000000000000000000000000000000000000000000815260040160405180910390fd5b611360333085876113199190612c20565b7f000000000000000000000000000000000000000000000000000000000000000073ffffffffffffffffffffffffffffffffffffffff16611e7d909392919063ffffffff16565b6113d67f000000000000000000000000000000000000000000000000000000000000000084866113909190612c20565b7f000000000000000000000000000000000000000000000000000000000000000073ffffffffffffffffffffffffffffffffffffffff16611f069092919063ffffffff16565b5f7f000000000000000000000000000000000000000000000000000000000000000073ffffffffffffffffffffffffffffffffffffffff166370a08231306040518263ffffffff1660e01b81526004016114309190612732565b602060405180830381865afa15801561144b573d5f803e3d5ffd5b505050506040513d601f19601f8201168201806040525081019061146f9190612ad0565b90507f000000000000000000000000000000000000000000000000000000000000000073ffffffffffffffffffffffffffffffffffffffff1663f2b9fdb87f000000000000000000000000000000000000000000000000000000000000000086886114da9190612c20565b6040518363ffffffff1660e01b81526004016114f7929190612afb565b5f604051808303815f87803b15801561150e575f80fd5b505af1158015611520573d5f803e3d5ffd5b505050505f7f000000000000000000000000000000000000000000000000000000000000000073ffffffffffffffffffffffffffffffffffffffff166370a08231306040518263ffffffff1660e01b815260040161157e9190612732565b602060405180830381865afa158015611599573d5f803e3d5ffd5b505050506040513d601f19601f820116820180604052508101906115bd9190612ad0565b90505f82826115cc9190612b4f565b90505f7f000000000000000000000000000000000000000000000000000000000000000073ffffffffffffffffffffffffffffffffffffffff16636e553f6583306040518363ffffffff1660e01b815260040161162a929190612f0c565b6020604051808303815f875af1158015611646573d5f803e3d5ffd5b505050506040513d601f19601f8201168201806040525081019061166a9190612ad0565b90506040518060e001604052808981526020018881526020018a81526020018281526020013373ffffffffffffffffffffffffffffffffffffffff1681526020018c73ffffffffffffffffffffffffffffffffffffffff1681526020018b73ffffffffffffffffffffffffffffffffffffffff16815250600787876040516116f3929190612ef4565b90815260200160405180910390205f820151815f01556020820151816001015560408201518160020155606082015181600301556080820151816004015f6101000a81548173ffffffffffffffffffffffffffffffffffffffff021916908373ffffffffffffffffffffffffffffffffffffffff16021790555060a0820151816005015f6101000a81548173ffffffffffffffffffffffffffffffffffffffff021916908373ffffffffffffffffffffffffffffffffffffffff16021790555060c0820151816006015f6101000a81548173ffffffffffffffffffffffffffffffffffffffff021916908373ffffffffffffffffffffffffffffffffffffffff1602179055509050507f3949326165d95b8a403b9bbb410a566da35367dd971b51a8a331801a571147ed7f00000000000000000000000000000000000000000000000000000000000000008c8c8b8d8c8c8c604051611859989796959493929190612f5f565b60405180910390a15050505061186d611d07565b50505050505050565b6008602052805f5260405f205f915054906101000a900460ff1681565b61189b611a08565b6119846118a6610daa565b7f000000000000000000000000000000000000000000000000000000000000000073ffffffffffffffffffffffffffffffffffffffff166370a08231306040518263ffffffff1660e01b81526004016118ff9190612732565b602060405180830381865afa15801561191a573d5f803e3d5ffd5b505050506040513d601f19601f8201168201806040525081019061193e9190612ad0565b7f000000000000000000000000000000000000000000000000000000000000000073ffffffffffffffffffffffffffffffffffffffff16611c819092919063ffffffff16565b565b61198e611a08565b5f73ffffffffffffffffffffffffffffffffffffffff168173ffffffffffffffffffffffffffffffffffffffff16036119fc576040517f08c379a00000000000000000000000000000000000000000000000000000000081526004016119f390613055565b60405180910390fd5b611a0581611d10565b50565b611a10612021565b73ffffffffffffffffffffffffffffffffffffffff16611a2e610daa565b73ffffffffffffffffffffffffffffffffffffffff1614611a84576040517f08c379a0000000000000000000000000000000000000000000000000000000008152600401611a7b906130bd565b60405180910390fd5b565b611a8e612028565b5f8060146101000a81548160ff0219169083151502179055507f5db9ee0a495bf2e6ff9c91a7834c1ba4fdd244a5e8aa4e537bd38aeae4b073aa611ad0612021565b604051611add9190612732565b60405180910390a1565b600260015403611b2c576040517f08c379a0000000000000000000000000000000000000000000000000000000008152600401611b2390613125565b60405180910390fd5b6002600181905550565b5f811480611bbc57505f8373ffffffffffffffffffffffffffffffffffffffff1663dd62ed3e30856040518363ffffffff1660e01b8152600401611b7b929190613143565b602060405180830381865afa158015611b96573d5f803e3d5ffd5b505050506040513d601f19601f82011682018060405250810190611bba9190612ad0565b145b611bfb576040517f08c379a0000000000000000000000000000000000000000000000000000000008152600401611bf2906131da565b60405180910390fd5b611c7c8363095ea7b360e01b8484604051602401611c1a929190612afb565b604051602081830303815290604052907bffffffffffffffffffffffffffffffffffffffffffffffffffffffff19166020820180517bffffffffffffffffffffffffffffffffffffffffffffffffffffffff8381831617835250505050612071565b505050565b611d028363a9059cbb60e01b8484604051602401611ca0929190612afb565b604051602081830303815290604052907bffffffffffffffffffffffffffffffffffffffffffffffffffffffff19166020820180517bffffffffffffffffffffffffffffffffffffffffffffffffffffffff8381831617835250505050612071565b505050565b60018081905550565b5f805f9054906101000a900473ffffffffffffffffffffffffffffffffffffffff169050815f806101000a81548173ffffffffffffffffffffffffffffffffffffffff021916908373ffffffffffffffffffffffffffffffffffffffff1602179055508173ffffffffffffffffffffffffffffffffffffffff168173ffffffffffffffffffffffffffffffffffffffff167f8be0079c531659141344cd1fd0a4f28419497f9722a3daafe3b4186f6b6457e060405160405180910390a35050565b611dd9611e33565b60015f60146101000a81548160ff0219169083151502179055507f62e78cea01bee320cd4e420270b5ea74000d11b0c9f74754ebdbfc544b05a258611e1c612021565b604051611e299190612732565b60405180910390a1565b611e3b610d25565b15611e7b576040517f08c379a0000000000000000000000000000000000000000000000000000000008152600401611e7290613242565b60405180910390fd5b565b611f00846323b872dd60e01b858585604051602401611e9e93929190613260565b604051602081830303815290604052907bffffffffffffffffffffffffffffffffffffffffffffffffffffffff19166020820180517bffffffffffffffffffffffffffffffffffffffffffffffffffffffff8381831617835250505050612071565b50505050565b5f63095ea7b360e01b8383604051602401611f22929190612afb565b604051602081830303815290604052907bffffffffffffffffffffffffffffffffffffffffffffffffffffffff19166020820180517bffffffffffffffffffffffffffffffffffffffffffffffffffffffff83818316178352505050509050611f8b8482612137565b61201b576120108463095ea7b360e01b855f604051602401611fae9291906132ce565b604051602081830303815290604052907bffffffffffffffffffffffffffffffffffffffffffffffffffffffff19166020820180517bffffffffffffffffffffffffffffffffffffffffffffffffffffffff8381831617835250505050612071565b61201a8482612071565b5b50505050565b5f33905090565b612030610d25565b61206f576040517f08c379a00000000000000000000000000000000000000000000000000000000081526004016120669061333f565b60405180910390fd5b565b5f6120d2826040518060400160405280602081526020017f5361666545524332303a206c6f772d6c6576656c2063616c6c206661696c65648152508573ffffffffffffffffffffffffffffffffffffffff166121e59092919063ffffffff16565b90505f815114806120f35750808060200190518101906120f29190613387565b5b612132576040517f08c379a000000000000000000000000000000000000000000000000000000000815260040161212990613422565b60405180910390fd5b505050565b5f805f8473ffffffffffffffffffffffffffffffffffffffff168460405161215f9190612a71565b5f604051808303815f865af19150503d805f8114612198576040519150601f19603f3d011682016040523d82523d5f602084013e61219d565b606091505b50915091508180156121ca57505f815114806121c95750808060200190518101906121c89190613387565b5b5b80156121db57506121da856121fc565b5b9250505092915050565b60606121f384845f8561221e565b90509392505050565b5f808273ffffffffffffffffffffffffffffffffffffffff163b119050919050565b606082471015612263576040517f08c379a000000000000000000000000000000000000000000000000000000000815260040161225a906134b0565b60405180910390fd5b5f808673ffffffffffffffffffffffffffffffffffffffff16858760405161228b9190612a71565b5f6040518083038185875af1925050503d805f81146122c5576040519150601f19603f3d011682016040523d82523d5f602084013e6122ca565b606091505b50915091506122db878383876122e7565b92505050949350505050565b60608315612348575f83510361234057612300856121fc565b61233f576040517f08c379a000000000000000000000000000000000000000000000000000000000815260040161233690613518565b60405180910390fd5b5b829050612353565b612352838361235b565b5b949350505050565b5f8251111561236d5781518083602001fd5b806040517f08c379a00000000000000000000000000000000000000000000000000000000081526004016123a19190613578565b60405180910390fd5b5f604051905090565b5f80fd5b5f80fd5b5f73ffffffffffffffffffffffffffffffffffffffff82169050919050565b5f6123e4826123bb565b9050919050565b6123f4816123da565b81146123fe575f80fd5b50565b5f8135905061240f816123eb565b92915050565b5f6020828403121561242a576124296123b3565b5b5f61243784828501612401565b91505092915050565b5f80fd5b5f80fd5b5f601f19601f8301169050919050565b7f4e487b71000000000000000000000000000000000000000000000000000000005f52604160045260245ffd5b61248e82612448565b810181811067ffffffffffffffff821117156124ad576124ac612458565b5b80604052505050565b5f6124bf6123aa565b90506124cb8282612485565b919050565b5f67ffffffffffffffff8211156124ea576124e9612458565b5b6124f382612448565b9050602081019050919050565b828183375f83830152505050565b5f61252061251b846124d0565b6124b6565b90508281526020810184848401111561253c5761253b612444565b5b612547848285612500565b509392505050565b5f82601f83011261256357612562612440565b5b813561257384826020860161250e565b91505092915050565b5f60208284031215612591576125906123b3565b5b5f82013567ffffffffffffffff8111156125ae576125ad6123b7565b5b6125ba8482850161254f565b91505092915050565b5f819050919050565b6125d5816125c3565b82525050565b6125e4816123da565b82525050565b5f60e0820190506125fd5f83018a6125cc565b61260a60208301896125cc565b61261760408301886125cc565b61262460608301876125cc565b61263160808301866125db565b61263e60a08301856125db565b61264b60c08301846125db565b98975050505050505050565b5f80fd5b5f80fd5b5f8083601f84011261267457612673612440565b5b8235905067ffffffffffffffff81111561269157612690612657565b5b6020830191508360208202830111156126ad576126ac61265b565b5b9250929050565b5f80602083850312156126ca576126c96123b3565b5b5f83013567ffffffffffffffff8111156126e7576126e66123b7565b5b6126f38582860161265f565b92509250509250929050565b5f8115159050919050565b612713816126ff565b82525050565b5f60208201905061272c5f83018461270a565b92915050565b5f6020820190506127455f8301846125db565b92915050565b5f61ffff82169050919050565b6127618161274b565b811461276b575f80fd5b50565b5f8135905061277c81612758565b92915050565b61278b816125c3565b8114612795575f80fd5b50565b5f813590506127a681612782565b92915050565b5f60ff82169050919050565b6127c1816127ac565b81146127cb575f80fd5b50565b5f813590506127dc816127b8565b92915050565b5f805f805f8060c087890312156127fc576127fb6123b3565b5b5f61280989828a0161276e565b965050602061281a89828a01612798565b955050604061282b89828a01612798565b945050606061283c89828a01612798565b935050608061284d89828a01612798565b92505060a061285e89828a016127ce565b9150509295509295509295565b5f8083601f8401126128805761287f612440565b5b8235905067ffffffffffffffff81111561289d5761289c612657565b5b6020830191508360018202830111156128b9576128b861265b565b5b9250929050565b5f805f805f805f60c0888a0312156128db576128da6123b3565b5b5f6128e88a828b01612401565b97505060206128f98a828b01612401565b965050604061290a8a828b01612798565b955050606061291b8a828b01612798565b945050608061292c8a828b01612798565b93505060a088013567ffffffffffffffff81111561294d5761294c6123b7565b5b6129598a828b0161286b565b925092505092959891949750929550565b7f4e487b71000000000000000000000000000000000000000000000000000000005f52603260045260245ffd5b5f80fd5b5f80fd5b5f80fd5b5f80833560016020038436030381126129bf576129be612997565b5b80840192508235915067ffffffffffffffff8211156129e1576129e061299b565b5b6020830192506001820236038313156129fd576129fc61299f565b5b509250929050565b5f81519050919050565b5f81905092915050565b5f5b83811015612a36578082015181840152602081019050612a1b565b5f8484015250505050565b5f612a4b82612a05565b612a558185612a0f565b9350612a65818560208601612a19565b80840191505092915050565b5f612a7c8284612a41565b915081905092915050565b5f606082019050612a9a5f8301866125cc565b612aa760208301856125db565b612ab460408301846125db565b949350505050565b5f81519050612aca81612782565b92915050565b5f60208284031215612ae557612ae46123b3565b5b5f612af284828501612abc565b91505092915050565b5f604082019050612b0e5f8301856125db565b612b1b60208301846125cc565b9392505050565b7f4e487b71000000000000000000000000000000000000000000000000000000005f52601160045260245ffd5b5f612b59826125c3565b9150612b64836125c3565b9250828203905081811115612b7c57612b7b612b22565b5b92915050565b5f612b8c826125c3565b9150612b97836125c3565b9250828202612ba5816125c3565b91508282048414831517612bbc57612bbb612b22565b5b5092915050565b7f4e487b71000000000000000000000000000000000000000000000000000000005f52601260045260245ffd5b5f612bfa826125c3565b9150612c05836125c3565b925082612c1557612c14612bc3565b5b828204905092915050565b5f612c2a826125c3565b9150612c35836125c3565b9250828201905080821115612c4d57612c4c612b22565b5b92915050565b5f819050919050565b5f612c76612c71612c6c846123bb565b612c53565b6123bb565b9050919050565b5f612c8782612c5c565b9050919050565b5f612c9882612c7d565b9050919050565b612ca881612c8e565b82525050565b5f82825260208201905092915050565b5f612cc882612a05565b612cd28185612cae565b9350612ce2818560208601612a19565b612ceb81612448565b840191505092915050565b5f60c082019050612d095f8301896125db565b612d166020830188612c9f565b612d2360408301876125cc565b8181036060830152612d358186612cbe565b9050612d4460808301856125cc565b612d5160a0830184612c9f565b979650505050505050565b5f612d66826125c3565b91507fffffffffffffffffffffffffffffffffffffffffffffffffffffffffffffffff8203612d9857612d97612b22565b5b600182019050919050565b5f60c082019050612db65f8301896125db565b612dc36020830188612c9f565b612dd06040830187612c9f565b612ddd60608301866125cc565b8181036080830152612def8185612cbe565b9050612dfe60a08301846125cc565b979650505050505050565b5f608082019050612e1c5f8301876125db565b612e296020830186612c9f565b612e3660408301856125cc565b8181036060830152612e488184612cbe565b905095945050505050565b612e5c8161274b565b82525050565b612e6b816127ac565b82525050565b5f60c082019050612e845f830189612e53565b612e9160208301886125cc565b612e9e60408301876125cc565b612eab60608301866125cc565b612eb860808301856125cc565b612ec560a0830184612e62565b979650505050505050565b5f612edb8385612a0f565b9350612ee8838584612500565b82840190509392505050565b5f612f00828486612ed0565b91508190509392505050565b5f604082019050612f1f5f8301856125cc565b612f2c60208301846125db565b9392505050565b5f612f3e8385612cae565b9350612f4b838584612500565b612f5483612448565b840190509392505050565b5f60e082019050612f725f83018b6125db565b612f7f602083018a6125db565b612f8c60408301896125db565b612f9960608301886125cc565b612fa660808301876125cc565b612fb360a08301866125cc565b81810360c0830152612fc6818486612f33565b90509998505050505050505050565b5f82825260208201905092915050565b7f4f776e61626c653a206e6577206f776e657220697320746865207a65726f20615f8201527f6464726573730000000000000000000000000000000000000000000000000000602082015250565b5f61303f602683612fd5565b915061304a82612fe5565b604082019050919050565b5f6020820190508181035f83015261306c81613033565b9050919050565b7f4f776e61626c653a2063616c6c6572206973206e6f7420746865206f776e65725f82015250565b5f6130a7602083612fd5565b91506130b282613073565b602082019050919050565b5f6020820190508181035f8301526130d48161309b565b9050919050565b7f5265656e7472616e637947756172643a207265656e7472616e742063616c6c005f82015250565b5f61310f601f83612fd5565b915061311a826130db565b602082019050919050565b5f6020820190508181035f83015261313c81613103565b9050919050565b5f6040820190506131565f8301856125db565b61316360208301846125db565b9392505050565b7f5361666545524332303a20617070726f76652066726f6d206e6f6e2d7a65726f5f8201527f20746f206e6f6e2d7a65726f20616c6c6f77616e636500000000000000000000602082015250565b5f6131c4603683612fd5565b91506131cf8261316a565b604082019050919050565b5f6020820190508181035f8301526131f1816131b8565b9050919050565b7f5061757361626c653a20706175736564000000000000000000000000000000005f82015250565b5f61322c601083612fd5565b9150613237826131f8565b602082019050919050565b5f6020820190508181035f83015261325981613220565b9050919050565b5f6060820190506132735f8301866125db565b61328060208301856125db565b61328d60408301846125cc565b949350505050565b5f819050919050565b5f6132b86132b36132ae84613295565b612c53565b6127ac565b9050919050565b6132c88161329e565b82525050565b5f6040820190506132e15f8301856125db565b6132ee60208301846132bf565b9392505050565b7f5061757361626c653a206e6f74207061757365640000000000000000000000005f82015250565b5f613329601483612fd5565b9150613334826132f5565b602082019050919050565b5f6020820190508181035f8301526133568161331d565b9050919050565b613366816126ff565b8114613370575f80fd5b50565b5f815190506133818161335d565b92915050565b5f6020828403121561339c5761339b6123b3565b5b5f6133a984828501613373565b91505092915050565b7f5361666545524332303a204552433230206f7065726174696f6e20646964206e5f8201527f6f74207375636365656400000000000000000000000000000000000000000000602082015250565b5f61340c602a83612fd5565b9150613417826133b2565b604082019050919050565b5f6020820190508181035f83015261343981613400565b9050919050565b7f416464726573733a20696e73756666696369656e742062616c616e636520666f5f8201527f722063616c6c0000000000000000000000000000000000000000000000000000602082015250565b5f61349a602683612fd5565b91506134a582613440565b604082019050919050565b5f6020820190508181035f8301526134c78161348e565b9050919050565b7f416464726573733a2063616c6c20746f206e6f6e2d636f6e74726163740000005f82015250565b5f613502601d83612fd5565b915061350d826134ce565b602082019050919050565b5f6020820190508181035f83015261352f816134f6565b9050919050565b5f81519050919050565b5f61354a82613536565b6135548185612fd5565b9350613564818560208601612a19565b61356d81612448565b840191505092915050565b5f6020820190508181035f8301526135908184613540565b90509291505056fea2646970667358221220df24f4eb0ed116735b78bba3fe89599a8f5cd7bbf252855015b1868734f145df64736f6c63430008150033",
  "immutableReferences": {
    "1280": [
      {
        "length": 32,
        "start": 2194
      },
      {
        "length": 32,
        "start": 2304
      },
      {
        "length": 32,
        "start": 2650
      },
      {
        "length": 32,
        "start": 2781
      },
      {
        "length": 32,
        "start": 2907
      },
      {
        "length": 32,
        "start": 2989
      },
      {
        "length": 32,
        "start": 3066
      },
      {
        "length": 32,
        "start": 3181
      },
      {
        "length": 32,
        "start": 3278
      },
      {
        "length": 32,
        "start": 4891
      },
      {
        "length": 32,
        "start": 5010
      },
      {
        "length": 32,
        "start": 5295
      },
      {
        "length": 32,
        "start": 6175
      },
      {
        "length": 32,
        "start": 6312
      },
      {
        "length": 32,
        "start": 6464
      }
    ],
    "1284": [
      {
        "length": 32,
        "start": 751
      },
      {
        "length": 32,
        "start": 1821
      },
      {
        "length": 32,
        "start": 5585
      }
    ],
    "1286": [
      {
        "length": 32,
        "start": 1980
      },
      {
        "length": 32,
        "start": 2134
      },
      {
        "length": 32,
        "start": 4965
      },
      {
        "length": 32,
        "start": 5081
      },
      {
        "length": 32,
        "start": 5235
      },
      {
        "length": 32,
        "start": 5415
      }
    ]
  },
  "source": "// SPDX-License-Identifier: MIT\npragma solidity >=0.8.0 <0.9.0;\n\nimport \"@openzeppelin/contracts/access/Ownable.sol\";\nimport \"@openzeppelin/contracts/security/ReentrancyGuard.sol\";\nimport \"@openzeppelin/contracts/token/ERC20/utils/SafeERC20.sol\";\nimport \"@openzeppelin/contracts/security/Pausable.sol\";\n\n\ninterface IComet {\n   function supply(address asset, uint amount) external;\n   function withdraw(address asset, uint amount) external;\n   function baseToken() external view returns (address);\n   function allow(address manager, bool isAllowed) external; }\n\ninterface IERC20FeeProxy {\n   function transferFromWithReferenceAndFee(\n       address _tokenAddress,\n       address _to,\n       uint256 _amount,\n       bytes calldata _paymentReference,\n       uint256 _feeAmount,\n       address _feeAddress\n    ) external;\n}\n\ninterface IWrapper {\n   function deposit(uint256 assets, address receiver) external returns (uint256 shares);\n   function redeem(uint256 assets, address receiver, address owner) external returns (uint256 shares);\n   function claimTo(address to) external; }\n\n/**\n* @title   Paytr\n* @notice  Paytr allows you to earn by paying early.\n*/\n\ncontract Paytr is Ownable, Pausable, ReentrancyGuard {\n   using SafeERC20 for IERC20;\n\n   error InvalidAmount();\n   error PaymentReferenceInUse();\n   error NotAuthorized();\n   error ZeroPayeeAddress();\n   error ZeroFeeAddress();\n   error DueDateNotAllowed();\n   error NoPrePayment();\n   error DueDateNotZero();\n   error InvalidNewDueDate();\n   error InvalidArrayLength();\n   error ReferenceNotDue();\n   error InvalidFeeModifier();\n   error InvalidMinDueDate();\n   error InvalidMaxDueDate();\n   error InvalidMinAmount();\n   error InvalidMaxArraySize();\n\n   address immutable baseAsset;\n   address ERC20FeeProxyAddress;\n   address immutable  wrapperAddress;\n   address immutable  cometAddress;\n   uint8 maxPayoutArraySize;\n   uint16 feeModifier;\n   uint256 minDueDateParameter;\n   uint256 maxDueDateParameter;   \n   uint256 minAmount;\n   uint256 maxAmount;\n\n   struct PaymentERC20 {\n       uint256 amount;\n       uint256 feeAmount;\n       uint256 dueDate;\n       uint256 wrapperSharesReceived;\n       address payer;\n       address payee;\n       address feeAddress;\n   }\n\n   constructor(address _cometAddress, address _wrapperAddress, uint16 _feeModifier, uint256 _minDueDateParameter, uint256 _maxDueDateParameter, uint256 _minAmount, uint256 _maxAmount, uint8 _maxPayoutArraySize) {\n       cometAddress = _cometAddress;\n       baseAsset = IComet(cometAddress).baseToken();\n       wrapperAddress = _wrapperAddress;\n       feeModifier = _feeModifier;\n       minDueDateParameter = _minDueDateParameter;\t\n       maxDueDateParameter = _maxDueDateParameter;\n       minAmount = _minAmount;\n       maxAmount = _maxAmount;\n       maxPayoutArraySize = _maxPayoutArraySize;\n       IComet(cometAddress).allow(wrapperAddress, true);\n   }\n\n   event PaymentERC20Event(address tokenAddress, address payee, address feeAddress, uint256 amount, uint256 dueDate, uint256 feeAmount, bytes paymentReference);\n   event PayOutERC20Event(address tokenAddress, address payee, address feeAddress, uint256 amount, bytes paymentReference,uint256 feeAmount);\n   event InterestPayoutEvent(address tokenAddress, address payee, uint256 interestAmount, bytes paymentReference);\n   event ContractParametersUpdatedEvent(uint16 feeModifier, uint256 minDueDateParameter, uint256 maxDueDateParameter, uint256 minAmount, uint256 maxAmount, uint8 maxPayoutArraySize);\n\n   /**\n    * @notice paymentMapping keeps track of the paid invoices.\n  */\n   mapping(bytes => PaymentERC20) public paymentMapping;\n\n   /**\n    * @notice allowedRequestNetworkFeeAddresses makes sure ERC20 payments originating from the Request Network protocol go through the correct ERC20FeeProxy contract.\n       This makes sure Request Network can detect the payment.\n   */\n   mapping(address => bool) public allowedRequestNetworkFeeAddresses;\n\n   /**\n    * @notice modifier only allows payer to use this function.\n    */\n   modifier OnlyPayer(bytes memory _paymentReference) {\n       if(msg.sender != paymentMapping[_paymentReference].payer) revert NotAuthorized();\n       _;\n   }\n\n   /**\n   * @notice Make a payment using an ERC20 token.\n   * @notice This function can't be used while it's paused.\n   * @param _payee The receiver of the payment.\n   * @param _feeAddress When using an additional fee, this is the address that will receive the _feeAmount.\n   * @param _dueDate The due date of the payment, or invoice, in epoch time.\n   * @param _amount The _asset amount in wei.\n   * @param _feeAmount The total _asset fee amount in wei.\n   * @param _paymentReference Reference of the related payment.\n   * @dev Uses modifiers nonReentrant and whenNotPaused.\n   * @dev The parameter _dueDate needs to be inserted in number of days (uint8).\n   */\n\n    function payInvoiceERC20(\n        address _payee,\n        address _feeAddress,\n        uint256 _dueDate,\n        uint256 _amount,\n        uint256 _feeAmount,\n        bytes calldata _paymentReference\n        ) public nonReentrant whenNotPaused {\n\n            if(paymentMapping[_paymentReference].amount != 0) revert PaymentReferenceInUse();\n            if(_amount < minAmount || _amount > maxAmount) revert InvalidAmount();\n            if(paymentMapping[_paymentReference].payer == msg.sender) revert PaymentReferenceInUse();\n            if(paymentMapping[_paymentReference].payee == _payee) revert PaymentReferenceInUse();\n            if(_payee == address(0)) revert ZeroPayeeAddress();\n            if(_feeAddress == address(0)) revert ZeroFeeAddress();\n            if(_dueDate < block.timestamp + minDueDateParameter || _dueDate > block.timestamp + maxDueDateParameter) revert DueDateNotAllowed();            \n\n            IERC20(baseAsset).safeTransferFrom(msg.sender, address(this), _amount + _feeAmount);\n            IERC20(baseAsset).forceApprove(cometAddress, _amount + _feeAmount);\n\n            uint256 cUsdcbalanceBeforeSupply = IERC20(cometAddress).balanceOf(address(this));\n            IComet(cometAddress).supply(baseAsset, _amount + _feeAmount);\n            uint256 cUsdcbalanceAfterSupply = IERC20(cometAddress).balanceOf(address(this));\n            uint256 cUsdcAmountToWrap = cUsdcbalanceAfterSupply - cUsdcbalanceBeforeSupply;         \n\n            uint256 wrappedShares = IWrapper(wrapperAddress).deposit(cUsdcAmountToWrap, address(this));\n\n            paymentMapping[_paymentReference] = PaymentERC20(\n                _amount,\n                _feeAmount,\n                _dueDate,\n                wrappedShares,\n                msg.sender,\n                _payee,\n                _feeAddress     \n            );\n\n            emit PaymentERC20Event(baseAsset, _payee, _feeAddress, _amount, _dueDate, _feeAmount, _paymentReference);         \n    }\n\n    /**                                                                             \n    * @notice Allows the contract to pay payee (principal amount), payer (interest amount) and fee receiver (fee amount).\n    This function cannot be paused.\n    * @param payoutReferencesArray Insert the bytes array of references that need to be paid out.\n    * @dev Uses modifier nonReentrant.\n    **/\n    function payOutERC20Invoice(bytes[] calldata payoutReferencesArray) external nonReentrant {\n\n       uint256 i;\n       uint256 payoutReferencesArrayLength = payoutReferencesArray.length;\n\n       if(payoutReferencesArrayLength == 0 || payoutReferencesArrayLength > maxPayoutArraySize) revert InvalidArrayLength();\n\n       for (; i < payoutReferencesArrayLength;) {\n            bytes memory _paymentReference = payoutReferencesArray[i];\n            if(paymentMapping[_paymentReference].amount == 0) revert NoPrePayment();\n            if(paymentMapping[_paymentReference].dueDate > block.timestamp) revert ReferenceNotDue();\n\n            address payable _payee = payable(paymentMapping[_paymentReference].payee);\n            address payable _payer = payable(paymentMapping[_paymentReference].payer);\n            address payable _feeAddress = payable(paymentMapping[_paymentReference].feeAddress);\n            uint256 _amount = paymentMapping[_paymentReference].amount;\n            uint256 _feeAmount = paymentMapping[_paymentReference].feeAmount;\n            uint256 _wrapperSharesToRedeem = paymentMapping[_paymentReference].wrapperSharesReceived;\n\n            paymentMapping[_paymentReference].amount = 0; //prevents double payout because of the require statement\n\n            //redeem Wrapper shares and receive v3 cTokens\n            IWrapper(wrapperAddress).redeem(_wrapperSharesToRedeem, address(this), address(this));\n\n            //redeem all available v3 cTokens from Compound for baseAsset tokens\n            uint256 cTokensToRedeem = IERC20(cometAddress).balanceOf(address(this));\n            IComet(cometAddress).withdraw(baseAsset, cTokensToRedeem);\n\n            //get new USDC balance\n            uint256 _totalInterestGathered = IERC20(baseAsset).balanceOf(address(this)) - _amount;\n            uint256 _interestAmount = _totalInterestGathered * feeModifier / 10000;\n\n            if(allowedRequestNetworkFeeAddresses[_feeAddress] == true) {\n                IERC20(baseAsset).safeApprove(ERC20FeeProxyAddress, _amount + _feeAmount);\n\n                IERC20FeeProxy(ERC20FeeProxyAddress).transferFromWithReferenceAndFee(\n                        baseAsset,\n                        _payee,\n                        _amount,\n                        _paymentReference,\n                        _feeAmount,\n                        _feeAddress\n                );\n\n            } else {\n                IERC20(baseAsset).safeTransfer(_payee, _amount);\n                if(_feeAmount != 0) {\n                        IERC20(baseAsset).safeTransfer(_feeAddress, _feeAmount);\n                }\n            }\n\n            IERC20(baseAsset).safeTransfer(_payer, _interestAmount);\n            ++i;\n\n            emit PayOutERC20Event(baseAsset, _payee, _feeAddress, _amount, _paymentReference, _feeAmount);\n            emit InterestPayoutEvent(baseAsset, _payer, _interestAmount, _paymentReference);\n        }\n\n   }\n\n   function claimCompRewards() external onlyOwner {\n       IWrapper(wrapperAddress).claimTo(owner());\n   }\n\n   function claimBaseAssetBalance() external onlyOwner {\n       IERC20(baseAsset).safeTransfer(owner(), IERC20(baseAsset).balanceOf(address(this)));\n   }\n\n   function setContractParameters(uint16 _feeModifier, uint256 _minDueDateParameter, uint256 _maxDueDateParameter, uint256 _minAmount, uint256 _maxAmount, uint8 _maxPayoutArraySize) external onlyOwner {\n         if(_feeModifier < 5000 || _feeModifier > 10000 ) revert InvalidFeeModifier();\n         if(_minDueDateParameter < 5 * 86400) revert InvalidMinDueDate();\n         if(_maxDueDateParameter > 365 * 86400) revert InvalidMaxDueDate();\n         if(_minAmount < 1) revert InvalidMinAmount();\n         if(_maxPayoutArraySize == 0) revert InvalidMaxArraySize();\n         feeModifier = _feeModifier;\n         minDueDateParameter = _minDueDateParameter;\n         maxDueDateParameter = _maxDueDateParameter;\n         minAmount = _minAmount;\n         maxAmount = _maxAmount;\n         maxPayoutArraySize = _maxPayoutArraySize;\n\n         emit ContractParametersUpdatedEvent(feeModifier, minDueDateParameter, maxDueDateParameter, minAmount, maxAmount, maxPayoutArraySize);\n   }\n\n   function addRequestNetworkFeeAddress(address _requestNetworkFeeAddress) external onlyOwner {\n       allowedRequestNetworkFeeAddresses[_requestNetworkFeeAddress] = true;\n   }\n\n   function setERC20FeeProxy(address _ERC20FeeProxyAddress) external onlyOwner {\n       ERC20FeeProxyAddress = _ERC20FeeProxyAddress;\n   }\n\n   function pause() external onlyOwner {\n       _pause();\n   }\n\n   function unpause() external onlyOwner {\n       _unpause();\n   }\n\n}",
  "sourcePath": "/Users/pieterclaesen/blockchain/contract/contracts/contracts/Paytr.sol",
  "compiler": {
    "name": "solc",
    "version": "0.8.21+commit.d9974bed.Emscripten.clang"
  },
  "schemaVersion": "3.4.14",
  "updatedAt": "2023-09-01T14:51:23.888Z",
  "devdoc": {
    "events": {
      "Paused(address)": {
        "details": "Emitted when the pause is triggered by `account`."
      },
      "Unpaused(address)": {
        "details": "Emitted when the pause is lifted by `account`."
      }
    },
    "kind": "dev",
    "methods": {
      "owner()": {
        "details": "Returns the address of the current owner."
      },
      "paused()": {
        "details": "Returns true if the contract is paused, and false otherwise."
      },
      "payInvoiceERC20(address,address,uint256,uint256,uint256,bytes)": {
        "details": "Uses modifiers nonReentrant and whenNotPaused.The parameter _dueDate needs to be inserted in number of days (uint8).",
        "params": {
          "_amount": "The _asset amount in wei.",
          "_dueDate": "The due date of the payment, or invoice, in epoch time.",
          "_feeAddress": "When using an additional fee, this is the address that will receive the _feeAmount.",
          "_feeAmount": "The total _asset fee amount in wei.",
          "_payee": "The receiver of the payment.",
          "_paymentReference": "Reference of the related payment."
        }
      },
      "payOutERC20Invoice(bytes[])": {
        "details": "Uses modifier nonReentrant.*",
        "params": {
          "payoutReferencesArray": "Insert the bytes array of references that need to be paid out."
        }
      },
      "renounceOwnership()": {
        "details": "Leaves the contract without owner. It will not be possible to call `onlyOwner` functions. Can only be called by the current owner. NOTE: Renouncing ownership will leave the contract without an owner, thereby disabling any functionality that is only available to the owner."
      },
      "transferOwnership(address)": {
        "details": "Transfers ownership of the contract to a new account (`newOwner`). Can only be called by the current owner."
      }
    },
    "title": "Paytr",
    "version": 1
  },
  "userdoc": {
    "kind": "user",
    "methods": {
      "allowedRequestNetworkFeeAddresses(address)": {
        "notice": "allowedRequestNetworkFeeAddresses makes sure ERC20 payments originating from the Request Network protocol go through the correct ERC20FeeProxy contract. This makes sure Request Network can detect the payment."
      },
      "payInvoiceERC20(address,address,uint256,uint256,uint256,bytes)": {
        "notice": "Make a payment using an ERC20 token.This function can't be used while it's paused."
      },
      "payOutERC20Invoice(bytes[])": {
        "notice": "Allows the contract to pay payee (principal amount), payer (interest amount) and fee receiver (fee amount). This function cannot be paused."
      },
      "paymentMapping(bytes)": {
        "notice": "paymentMapping keeps track of the paid invoices."
      }
    },
    "notice": "Paytr allows you to earn by paying early.",
    "version": 1
  }
}