{
  "contractName": "Paytr",
  "abi": [
    {
      "inputs": [
        {
          "internalType": "address",
          "name": "_cometAddress",
          "type": "address"
        },
        {
          "internalType": "address",
          "name": "_wrapperAddress",
          "type": "address"
        },
        {
          "internalType": "uint16",
          "name": "_feeModifier",
          "type": "uint16"
        },
        {
          "internalType": "uint256",
          "name": "_minDueDateParameter",
          "type": "uint256"
        },
        {
          "internalType": "uint256",
          "name": "_maxDueDateParameter",
          "type": "uint256"
        },
        {
          "internalType": "uint256",
          "name": "_minAmountParameter",
          "type": "uint256"
        },
        {
          "internalType": "uint256",
          "name": "_maxAmountParameter",
          "type": "uint256"
        },
        {
          "internalType": "uint8",
          "name": "_maxPayoutArraySize",
          "type": "uint8"
        }
      ],
      "stateMutability": "nonpayable",
      "type": "constructor"
    },
    {
      "inputs": [],
      "name": "DueDateNotAllowed",
      "type": "error"
    },
    {
      "inputs": [],
      "name": "DueDateNotZero",
      "type": "error"
    },
    {
      "inputs": [],
      "name": "InvalidAmount",
      "type": "error"
    },
    {
      "inputs": [],
      "name": "InvalidArrayLength",
      "type": "error"
    },
    {
      "inputs": [],
      "name": "InvalidFeeModifier",
      "type": "error"
    },
    {
      "inputs": [],
      "name": "InvalidMaxArraySize",
      "type": "error"
    },
    {
      "inputs": [],
      "name": "InvalidMaxDueDate",
      "type": "error"
    },
    {
      "inputs": [],
      "name": "InvalidMinAmount",
      "type": "error"
    },
    {
      "inputs": [],
      "name": "InvalidMinDueDate",
      "type": "error"
    },
    {
      "inputs": [],
      "name": "InvalidNewDueDate",
      "type": "error"
    },
    {
      "inputs": [],
      "name": "NoPrePayment",
      "type": "error"
    },
    {
      "inputs": [],
      "name": "NotAuthorized",
      "type": "error"
    },
    {
      "inputs": [],
      "name": "PaymentReferenceInUse",
      "type": "error"
    },
    {
      "inputs": [],
      "name": "ReferenceNotDue",
      "type": "error"
    },
    {
      "inputs": [],
      "name": "ZeroFeeAddress",
      "type": "error"
    },
    {
      "inputs": [],
      "name": "ZeroPayeeAddress",
      "type": "error"
    },
    {
      "anonymous": false,
      "inputs": [
        {
          "indexed": false,
          "internalType": "uint16",
          "name": "feeModifier",
          "type": "uint16"
        },
        {
          "indexed": false,
          "internalType": "uint256",
          "name": "minDueDateParameter",
          "type": "uint256"
        },
        {
          "indexed": false,
          "internalType": "uint256",
          "name": "maxDueDateParameter",
          "type": "uint256"
        },
        {
          "indexed": false,
          "internalType": "uint256",
          "name": "minAmount",
          "type": "uint256"
        },
        {
          "indexed": false,
          "internalType": "uint256",
          "name": "maxAmount",
          "type": "uint256"
        },
        {
          "indexed": false,
          "internalType": "uint8",
          "name": "maxPayoutArraySize",
          "type": "uint8"
        }
      ],
      "name": "ContractParametersUpdatedEvent",
      "type": "event"
    },
    {
      "anonymous": false,
      "inputs": [
        {
          "indexed": false,
          "internalType": "address",
          "name": "tokenAddress",
          "type": "address"
        },
        {
          "indexed": false,
          "internalType": "address",
          "name": "payee",
          "type": "address"
        },
        {
          "indexed": false,
          "internalType": "uint256",
          "name": "interestAmount",
          "type": "uint256"
        },
        {
          "indexed": false,
          "internalType": "bytes",
          "name": "paymentReference",
          "type": "bytes"
        }
      ],
      "name": "InterestPayoutEvent",
      "type": "event"
    },
    {
      "anonymous": false,
      "inputs": [
        {
          "indexed": true,
          "internalType": "address",
          "name": "previousOwner",
          "type": "address"
        },
        {
          "indexed": true,
          "internalType": "address",
          "name": "newOwner",
          "type": "address"
        }
      ],
      "name": "OwnershipTransferred",
      "type": "event"
    },
    {
      "anonymous": false,
      "inputs": [
        {
          "indexed": false,
          "internalType": "address",
          "name": "account",
          "type": "address"
        }
      ],
      "name": "Paused",
      "type": "event"
    },
    {
      "anonymous": false,
      "inputs": [
        {
          "indexed": false,
          "internalType": "address",
          "name": "tokenAddress",
          "type": "address"
        },
        {
          "indexed": false,
          "internalType": "address",
          "name": "payee",
          "type": "address"
        },
        {
          "indexed": false,
          "internalType": "address",
          "name": "feeAddress",
          "type": "address"
        },
        {
          "indexed": false,
          "internalType": "uint256",
          "name": "amount",
          "type": "uint256"
        },
        {
          "indexed": false,
          "internalType": "bytes",
          "name": "paymentReference",
          "type": "bytes"
        },
        {
          "indexed": false,
          "internalType": "uint256",
          "name": "feeAmount",
          "type": "uint256"
        }
      ],
      "name": "PayOutERC20Event",
      "type": "event"
    },
    {
      "anonymous": false,
      "inputs": [
        {
          "indexed": false,
          "internalType": "address",
          "name": "tokenAddress",
          "type": "address"
        },
        {
          "indexed": false,
          "internalType": "address",
          "name": "payee",
          "type": "address"
        },
        {
          "indexed": false,
          "internalType": "address",
          "name": "feeAddress",
          "type": "address"
        },
        {
          "indexed": false,
          "internalType": "uint256",
          "name": "amount",
          "type": "uint256"
        },
        {
          "indexed": false,
          "internalType": "uint256",
          "name": "dueDate",
          "type": "uint256"
        },
        {
          "indexed": false,
          "internalType": "uint256",
          "name": "feeAmount",
          "type": "uint256"
        },
        {
          "indexed": false,
          "internalType": "bytes",
          "name": "paymentReference",
          "type": "bytes"
        }
      ],
      "name": "PaymentERC20Event",
      "type": "event"
    },
    {
      "anonymous": false,
      "inputs": [
        {
          "indexed": false,
          "internalType": "address",
          "name": "account",
          "type": "address"
        }
      ],
      "name": "Unpaused",
      "type": "event"
    },
    {
      "inputs": [
        {
          "internalType": "address",
          "name": "",
          "type": "address"
        }
      ],
      "name": "allowedRequestNetworkFeeAddresses",
      "outputs": [
        {
          "internalType": "bool",
          "name": "",
          "type": "bool"
        }
      ],
      "stateMutability": "view",
      "type": "function"
    },
    {
      "inputs": [],
      "name": "feeModifier",
      "outputs": [
        {
          "internalType": "uint16",
          "name": "",
          "type": "uint16"
        }
      ],
      "stateMutability": "view",
      "type": "function"
    },
    {
      "inputs": [],
      "name": "maxAmountParameter",
      "outputs": [
        {
          "internalType": "uint256",
          "name": "",
          "type": "uint256"
        }
      ],
      "stateMutability": "view",
      "type": "function"
    },
    {
      "inputs": [],
      "name": "maxDueDateParameter",
      "outputs": [
        {
          "internalType": "uint256",
          "name": "",
          "type": "uint256"
        }
      ],
      "stateMutability": "view",
      "type": "function"
    },
    {
      "inputs": [],
      "name": "maxPayoutArraySize",
      "outputs": [
        {
          "internalType": "uint8",
          "name": "",
          "type": "uint8"
        }
      ],
      "stateMutability": "view",
      "type": "function"
    },
    {
      "inputs": [],
      "name": "minAmountParameter",
      "outputs": [
        {
          "internalType": "uint256",
          "name": "",
          "type": "uint256"
        }
      ],
      "stateMutability": "view",
      "type": "function"
    },
    {
      "inputs": [],
      "name": "minDueDateParameter",
      "outputs": [
        {
          "internalType": "uint256",
          "name": "",
          "type": "uint256"
        }
      ],
      "stateMutability": "view",
      "type": "function"
    },
    {
      "inputs": [],
      "name": "owner",
      "outputs": [
        {
          "internalType": "address",
          "name": "",
          "type": "address"
        }
      ],
      "stateMutability": "view",
      "type": "function"
    },
    {
      "inputs": [],
      "name": "paused",
      "outputs": [
        {
          "internalType": "bool",
          "name": "",
          "type": "bool"
        }
      ],
      "stateMutability": "view",
      "type": "function"
    },
    {
      "inputs": [
        {
          "internalType": "bytes",
          "name": "",
          "type": "bytes"
        }
      ],
      "name": "paymentMapping",
      "outputs": [
        {
          "internalType": "uint256",
          "name": "amount",
          "type": "uint256"
        },
        {
          "internalType": "uint256",
          "name": "feeAmount",
          "type": "uint256"
        },
        {
          "internalType": "uint256",
          "name": "dueDate",
          "type": "uint256"
        },
        {
          "internalType": "uint256",
          "name": "wrapperSharesReceived",
          "type": "uint256"
        },
        {
          "internalType": "address",
          "name": "payer",
          "type": "address"
        },
        {
          "internalType": "address",
          "name": "payee",
          "type": "address"
        },
        {
          "internalType": "address",
          "name": "feeAddress",
          "type": "address"
        }
      ],
      "stateMutability": "view",
      "type": "function"
    },
    {
      "inputs": [],
      "name": "renounceOwnership",
      "outputs": [],
      "stateMutability": "nonpayable",
      "type": "function"
    },
    {
      "inputs": [
        {
          "internalType": "address",
          "name": "newOwner",
          "type": "address"
        }
      ],
      "name": "transferOwnership",
      "outputs": [],
      "stateMutability": "nonpayable",
      "type": "function"
    },
    {
      "inputs": [
        {
          "internalType": "address",
          "name": "_payee",
          "type": "address"
        },
        {
          "internalType": "address",
          "name": "_feeAddress",
          "type": "address"
        },
        {
          "internalType": "uint256",
          "name": "_dueDate",
          "type": "uint256"
        },
        {
          "internalType": "uint256",
          "name": "_amount",
          "type": "uint256"
        },
        {
          "internalType": "uint256",
          "name": "_feeAmount",
          "type": "uint256"
        },
        {
          "internalType": "bytes",
          "name": "_paymentReference",
          "type": "bytes"
        }
      ],
      "name": "payInvoiceERC20",
      "outputs": [],
      "stateMutability": "nonpayable",
      "type": "function"
    },
    {
      "inputs": [
        {
          "internalType": "bytes[]",
          "name": "payoutReferencesArray",
          "type": "bytes[]"
        }
      ],
      "name": "payOutERC20Invoice",
      "outputs": [],
      "stateMutability": "nonpayable",
      "type": "function"
    },
    {
      "inputs": [],
      "name": "claimCompRewards",
      "outputs": [],
      "stateMutability": "nonpayable",
      "type": "function"
    },
    {
      "inputs": [],
      "name": "claimBaseAssetBalance",
      "outputs": [],
      "stateMutability": "nonpayable",
      "type": "function"
    },
    {
      "inputs": [
        {
          "internalType": "uint16",
          "name": "_feeModifier",
          "type": "uint16"
        },
        {
          "internalType": "uint256",
          "name": "_minDueDateParameter",
          "type": "uint256"
        },
        {
          "internalType": "uint256",
          "name": "_maxDueDateParameter",
          "type": "uint256"
        },
        {
          "internalType": "uint256",
          "name": "_minAmountParameter",
          "type": "uint256"
        },
        {
          "internalType": "uint256",
          "name": "_maxAmountParameter",
          "type": "uint256"
        },
        {
          "internalType": "uint8",
          "name": "_maxPayoutArraySize",
          "type": "uint8"
        }
      ],
      "name": "setContractParameters",
      "outputs": [],
      "stateMutability": "nonpayable",
      "type": "function"
    },
    {
      "inputs": [
        {
          "internalType": "address",
          "name": "_requestNetworkFeeAddress",
          "type": "address"
        }
      ],
      "name": "addRequestNetworkFeeAddress",
      "outputs": [],
      "stateMutability": "nonpayable",
      "type": "function"
    },
    {
      "inputs": [
        {
          "internalType": "address",
          "name": "_ERC20FeeProxyAddress",
          "type": "address"
        }
      ],
      "name": "setERC20FeeProxy",
      "outputs": [],
      "stateMutability": "nonpayable",
      "type": "function"
    },
    {
      "inputs": [],
      "name": "pause",
      "outputs": [],
      "stateMutability": "nonpayable",
      "type": "function"
    },
    {
      "inputs": [],
      "name": "unpause",
      "outputs": [],
      "stateMutability": "nonpayable",
      "type": "function"
    }
  ],
  "bytecode": "0x60e06040523480156200001157600080fd5b5060405162003cfb38038062003cfb83398181016040528101906200003791906200044d565b620000576200004b6200025f60201b60201c565b6200026760201b60201c565b60008060146101000a81548160ff021916908315150217905550600180819055508773ffffffffffffffffffffffffffffffffffffffff1660c08173ffffffffffffffffffffffffffffffffffffffff168152505060c05173ffffffffffffffffffffffffffffffffffffffff1663c55dae636040518163ffffffff1660e01b8152600401602060405180830381865afa158015620000fa573d6000803e3d6000fd5b505050506040513d601f19601f8201168201806040525081019062000120919062000516565b73ffffffffffffffffffffffffffffffffffffffff1660808173ffffffffffffffffffffffffffffffffffffffff16815250508673ffffffffffffffffffffffffffffffffffffffff1660a08173ffffffffffffffffffffffffffffffffffffffff168152505085600260156101000a81548161ffff021916908361ffff1602179055508460038190555083600481905550826005819055508160068190555080600260146101000a81548160ff021916908360ff16021790555060c05173ffffffffffffffffffffffffffffffffffffffff1663110496e560a05160016040518363ffffffff1660e01b81526004016200021d92919062000576565b600060405180830381600087803b1580156200023857600080fd5b505af11580156200024d573d6000803e3d6000fd5b505050505050505050505050620005a3565b600033905090565b60008060009054906101000a900473ffffffffffffffffffffffffffffffffffffffff169050816000806101000a81548173ffffffffffffffffffffffffffffffffffffffff021916908373ffffffffffffffffffffffffffffffffffffffff1602179055508173ffffffffffffffffffffffffffffffffffffffff168173ffffffffffffffffffffffffffffffffffffffff167f8be0079c531659141344cd1fd0a4f28419497f9722a3daafe3b4186f6b6457e060405160405180910390a35050565b600080fd5b600073ffffffffffffffffffffffffffffffffffffffff82169050919050565b60006200035d8262000330565b9050919050565b6200036f8162000350565b81146200037b57600080fd5b50565b6000815190506200038f8162000364565b92915050565b600061ffff82169050919050565b620003ae8162000395565b8114620003ba57600080fd5b50565b600081519050620003ce81620003a3565b92915050565b6000819050919050565b620003e981620003d4565b8114620003f557600080fd5b50565b6000815190506200040981620003de565b92915050565b600060ff82169050919050565b62000427816200040f565b81146200043357600080fd5b50565b60008151905062000447816200041c565b92915050565b600080600080600080600080610100898b0312156200047157620004706200032b565b5b6000620004818b828c016200037e565b9850506020620004948b828c016200037e565b9750506040620004a78b828c01620003bd565b9650506060620004ba8b828c01620003f8565b9550506080620004cd8b828c01620003f8565b94505060a0620004e08b828c01620003f8565b93505060c0620004f38b828c01620003f8565b92505060e0620005068b828c0162000436565b9150509295985092959890939650565b6000602082840312156200052f576200052e6200032b565b5b60006200053f848285016200037e565b91505092915050565b620005538162000350565b82525050565b60008115159050919050565b620005708162000559565b82525050565b60006040820190506200058d600083018562000548565b6200059c602083018462000565565b9392505050565b60805160a05160c05161369562000666600039600081816108e701528181610983015281816114c301528181611538015281816115d4015261168e01526000818161040501528181610840015261173c0152600081816109bf01528181610a3401528181610b9f01528181610c2301528181610ca601528181610cf901528181610d4601528181610db301528181610e1401528181611479015281816114f0015281816116100152818161199201528181611a370152611ad101526136956000f3fe608060405234801561001057600080fd5b50600436106101375760003560e01c80636e2f87f3116100b8578063a3e9f0fa1161007c578063a3e9f0fa146102be578063a9948c96146102da578063c11e28461461030a578063c7c65cf514610328578063ed19fa8414610346578063f2fde38b1461035057610137565b80636e2f87f314610254578063715018a6146102705780638456cb591461027a5780638da5cb5b1461028457806391045517146102a257610137565b806346778635116100ff57806346778635146101a85780634beb2a1e146101de578063500c060e146101fa5780635c975abb14610218578063616212ba1461023657610137565b80631c18bcb21461013c57806339c541611461015a5780633d1d15bf146101765780633f4ba83a1461019457806345107cae1461019e575b600080fd5b61014461036c565b60405161015191906124a6565b60405180910390f35b610174600480360381019061016f9190612533565b610380565b005b61017e6103e3565b60405161018b9190612579565b60405180910390f35b61019c6103e9565b005b6101a66103fb565b005b6101c260048036038101906101bd91906126da565b610497565b6040516101d59796959493929190612732565b60405180910390f35b6101f860048036038101906101f39190612801565b61054f565b005b610202610e6b565b60405161020f9190612579565b60405180910390f35b610220610e71565b60405161022d9190612869565b60405180910390f35b61023e610e87565b60405161024b9190612579565b60405180910390f35b61026e60048036038101906102699190612533565b610e8d565b005b610278610ed9565b005b610282610eed565b005b61028c610eff565b6040516102999190612884565b60405180910390f35b6102bc60048036038101906102b79190612930565b610f28565b005b6102d860048036038101906102d39190612a13565b611137565b005b6102f460048036038101906102ef9190612533565b6119e9565b6040516103019190612869565b60405180910390f35b610312611a09565b60405161031f9190612ad1565b60405180910390f35b610330611a1c565b60405161033d9190612579565b60405180910390f35b61034e611a22565b005b61036a60048036038101906103659190612533565b611b17565b005b600260159054906101000a900461ffff1681565b610388611b9a565b6001600860008373ffffffffffffffffffffffffffffffffffffffff1673ffffffffffffffffffffffffffffffffffffffff16815260200190815260200160002060006101000a81548160ff02191690831515021790555050565b60045481565b6103f1611b9a565b6103f9611c18565b565b610403611b9a565b7f000000000000000000000000000000000000000000000000000000000000000073ffffffffffffffffffffffffffffffffffffffff1663a262f5f8610447610eff565b6040518263ffffffff1660e01b81526004016104639190612884565b600060405180830381600087803b15801561047d57600080fd5b505af1158015610491573d6000803e3d6000fd5b50505050565b6007818051602081018201805184825260208301602085012081835280955050505050506000915090508060000154908060010154908060020154908060030154908060040160009054906101000a900473ffffffffffffffffffffffffffffffffffffffff16908060050160009054906101000a900473ffffffffffffffffffffffffffffffffffffffff16908060060160009054906101000a900473ffffffffffffffffffffffffffffffffffffffff16905087565b610557611c7a565b61055f61240a565b600083839050905060008114806105875750600260149054906101000a900460ff1660ff1681115b156105be576040517f9d89020a00000000000000000000000000000000000000000000000000000000815260040160405180910390fd5b60005b81811015610e5c5760008585838181106105de576105dd612aec565b5b90506020028101906105f09190612b2a565b8080601f016020809104026020016040519081016040528093929190818152602001838380828437600081840152601f19601f8201169050808301925050505050505090506007816040516106459190612bfe565b90815260200160405180910390206040518060e0016040529081600082015481526020016001820154815260200160028201548152602001600382015481526020016004820160009054906101000a900473ffffffffffffffffffffffffffffffffffffffff1673ffffffffffffffffffffffffffffffffffffffff1673ffffffffffffffffffffffffffffffffffffffff1681526020016005820160009054906101000a900473ffffffffffffffffffffffffffffffffffffffff1673ffffffffffffffffffffffffffffffffffffffff1673ffffffffffffffffffffffffffffffffffffffff1681526020016006820160009054906101000a900473ffffffffffffffffffffffffffffffffffffffff1673ffffffffffffffffffffffffffffffffffffffff1673ffffffffffffffffffffffffffffffffffffffff1681525050935060008460000151036107c8576040517f2a313f9300000000000000000000000000000000000000000000000000000000815260040160405180910390fd5b4284604001511115610806576040517f3b713eb600000000000000000000000000000000000000000000000000000000815260040160405180910390fd5b60008460a00151905060008560800151905060008660c00151905060008760000151905060008860200151905060008960000181815250507f000000000000000000000000000000000000000000000000000000000000000073ffffffffffffffffffffffffffffffffffffffff1663ba0876528a6060015130306040518463ffffffff1660e01b815260040161089f93929190612c15565b6020604051808303816000875af11580156108be573d6000803e3d6000fd5b505050506040513d601f19601f820116820180604052508101906108e29190612c61565b5060007f000000000000000000000000000000000000000000000000000000000000000073ffffffffffffffffffffffffffffffffffffffff166370a08231306040518263ffffffff1660e01b815260040161093e9190612884565b602060405180830381865afa15801561095b573d6000803e3d6000fd5b505050506040513d601f19601f8201168201806040525081019061097f9190612c61565b90507f000000000000000000000000000000000000000000000000000000000000000073ffffffffffffffffffffffffffffffffffffffff1663f3fef3a37f0000000000000000000000000000000000000000000000000000000000000000836040518363ffffffff1660e01b81526004016109fc929190612c8e565b600060405180830381600087803b158015610a1657600080fd5b505af1158015610a2a573d6000803e3d6000fd5b50505050600082847f000000000000000000000000000000000000000000000000000000000000000073ffffffffffffffffffffffffffffffffffffffff166370a08231306040518263ffffffff1660e01b8152600401610a8b9190612884565b602060405180830381865afa158015610aa8573d6000803e3d6000fd5b505050506040513d601f19601f82011682018060405250810190610acc9190612c61565b610ad69190612ce6565b610ae09190612ce6565b90506000612710600260159054906101000a900461ffff1661ffff1683610b079190612d1a565b610b119190612d8b565b905060011515600860008873ffffffffffffffffffffffffffffffffffffffff1673ffffffffffffffffffffffffffffffffffffffff16815260200190815260200160002060009054906101000a900460ff16151503610c9f57610be3600260009054906101000a900473ffffffffffffffffffffffffffffffffffffffff168587610b9d9190612dbc565b7f000000000000000000000000000000000000000000000000000000000000000073ffffffffffffffffffffffffffffffffffffffff16611cc99092919063ffffffff16565b600260009054906101000a900473ffffffffffffffffffffffffffffffffffffffff1673ffffffffffffffffffffffffffffffffffffffff1663c219a14d7f00000000000000000000000000000000000000000000000000000000000000008a888d898c6040518763ffffffff1660e01b8152600401610c6896959493929190612e99565b600060405180830381600087803b158015610c8257600080fd5b505af1158015610c96573d6000803e3d6000fd5b50505050610d3f565b610cea88867f000000000000000000000000000000000000000000000000000000000000000073ffffffffffffffffffffffffffffffffffffffff16611de69092919063ffffffff16565b60008414610d3e57610d3d86857f000000000000000000000000000000000000000000000000000000000000000073ffffffffffffffffffffffffffffffffffffffff16611de69092919063ffffffff16565b5b5b610d8a87827f000000000000000000000000000000000000000000000000000000000000000073ffffffffffffffffffffffffffffffffffffffff16611de69092919063ffffffff16565b8960010199507f3c77ae279df37c7ea5dd3a57f101c57dac95417ce9c24279d6ec87d9399c82d77f00000000000000000000000000000000000000000000000000000000000000008988888d89604051610de996959493929190612f01565b60405180910390a17fa5ed23d5ebdea6438acd5b68a3befbb14c431a7a8f221448bfb708ab8a408e9f7f000000000000000000000000000000000000000000000000000000000000000088838c604051610e469493929190612f69565b60405180910390a15050505050505050506105c1565b505050610e67611e6c565b5050565b60065481565b60008060149054906101000a900460ff16905090565b60035481565b610e95611b9a565b80600260006101000a81548173ffffffffffffffffffffffffffffffffffffffff021916908373ffffffffffffffffffffffffffffffffffffffff16021790555050565b610ee1611b9a565b610eeb6000611e75565b565b610ef5611b9a565b610efd611f39565b565b60008060009054906101000a900473ffffffffffffffffffffffffffffffffffffffff16905090565b610f30611b9a565b6113888661ffff161080610f4957506127108661ffff16115b15610f80576040517f2e9ebb9500000000000000000000000000000000000000000000000000000000815260040160405180910390fd5b62069780851015610fbd576040517ff57c57d300000000000000000000000000000000000000000000000000000000815260040160405180910390fd5b6301e13380841115610ffb576040517fa7befd8c00000000000000000000000000000000000000000000000000000000815260040160405180910390fd5b6001831015611036576040517f9c68554f00000000000000000000000000000000000000000000000000000000815260040160405180910390fd5b60008160ff1603611073576040517ff39d15db00000000000000000000000000000000000000000000000000000000815260040160405180910390fd5b85600260156101000a81548161ffff021916908361ffff1602179055508460038190555083600481905550826005819055508160068190555080600260146101000a81548160ff021916908360ff1602179055507fa20f6f1bd973c2c6838ae762fb84fd32c748ca52d7feed804a1e4a1724d7f701600260159054906101000a900461ffff16600354600454600554600654600260149054906101000a900460ff1660405161112796959493929190612fb5565b60405180910390a1505050505050565b61113f611c7a565b611147611f9c565b60006007838360405161115b92919061303b565b908152602001604051809103902060000154146111a4576040517fa685b0f000000000000000000000000000000000000000000000000000000000815260040160405180910390fd5b6005548410806111b5575060065484115b156111ec576040517f2c5211c600000000000000000000000000000000000000000000000000000000815260040160405180910390fd5b3373ffffffffffffffffffffffffffffffffffffffff166007838360405161121592919061303b565b908152602001604051809103902060040160009054906101000a900473ffffffffffffffffffffffffffffffffffffffff1673ffffffffffffffffffffffffffffffffffffffff1603611294576040517fa685b0f000000000000000000000000000000000000000000000000000000000815260040160405180910390fd5b8673ffffffffffffffffffffffffffffffffffffffff16600783836040516112bd92919061303b565b908152602001604051809103902060050160009054906101000a900473ffffffffffffffffffffffffffffffffffffffff1673ffffffffffffffffffffffffffffffffffffffff160361133c576040517fa685b0f000000000000000000000000000000000000000000000000000000000815260040160405180910390fd5b600073ffffffffffffffffffffffffffffffffffffffff168773ffffffffffffffffffffffffffffffffffffffff16036113a2576040517f1781d75700000000000000000000000000000000000000000000000000000000815260040160405180910390fd5b600073ffffffffffffffffffffffffffffffffffffffff168673ffffffffffffffffffffffffffffffffffffffff1603611408576040517fffd7845300000000000000000000000000000000000000000000000000000000815260040160405180910390fd5b600354426114169190612dbc565b85108061142f57506004544261142c9190612dbc565b85115b15611466576040517fa95a225a00000000000000000000000000000000000000000000000000000000815260040160405180910390fd5b6114be333085876114779190612dbc565b7f000000000000000000000000000000000000000000000000000000000000000073ffffffffffffffffffffffffffffffffffffffff16611fe6909392919063ffffffff16565b6115347f000000000000000000000000000000000000000000000000000000000000000084866114ee9190612dbc565b7f000000000000000000000000000000000000000000000000000000000000000073ffffffffffffffffffffffffffffffffffffffff16611cc99092919063ffffffff16565b60007f000000000000000000000000000000000000000000000000000000000000000073ffffffffffffffffffffffffffffffffffffffff166370a08231306040518263ffffffff1660e01b815260040161158f9190612884565b602060405180830381865afa1580156115ac573d6000803e3d6000fd5b505050506040513d601f19601f820116820180604052508101906115d09190612c61565b90507f000000000000000000000000000000000000000000000000000000000000000073ffffffffffffffffffffffffffffffffffffffff1663f2b9fdb87f0000000000000000000000000000000000000000000000000000000000000000868861163b9190612dbc565b6040518363ffffffff1660e01b8152600401611658929190612c8e565b600060405180830381600087803b15801561167257600080fd5b505af1158015611686573d6000803e3d6000fd5b5050505060007f000000000000000000000000000000000000000000000000000000000000000073ffffffffffffffffffffffffffffffffffffffff166370a08231306040518263ffffffff1660e01b81526004016116e59190612884565b602060405180830381865afa158015611702573d6000803e3d6000fd5b505050506040513d601f19601f820116820180604052508101906117269190612c61565b9050600082826117369190612ce6565b905060007f000000000000000000000000000000000000000000000000000000000000000073ffffffffffffffffffffffffffffffffffffffff16636e553f6583306040518363ffffffff1660e01b8152600401611795929190613054565b6020604051808303816000875af11580156117b4573d6000803e3d6000fd5b505050506040513d601f19601f820116820180604052508101906117d89190612c61565b90506040518060e001604052808981526020018881526020018a81526020018281526020013373ffffffffffffffffffffffffffffffffffffffff1681526020018c73ffffffffffffffffffffffffffffffffffffffff1681526020018b73ffffffffffffffffffffffffffffffffffffffff168152506007878760405161186192919061303b565b90815260200160405180910390206000820151816000015560208201518160010155604082015181600201556060820151816003015560808201518160040160006101000a81548173ffffffffffffffffffffffffffffffffffffffff021916908373ffffffffffffffffffffffffffffffffffffffff16021790555060a08201518160050160006101000a81548173ffffffffffffffffffffffffffffffffffffffff021916908373ffffffffffffffffffffffffffffffffffffffff16021790555060c08201518160060160006101000a81548173ffffffffffffffffffffffffffffffffffffffff021916908373ffffffffffffffffffffffffffffffffffffffff1602179055509050507f3949326165d95b8a403b9bbb410a566da35367dd971b51a8a331801a571147ed7f00000000000000000000000000000000000000000000000000000000000000008c8c8b8d8c8c8c6040516119cc9897969594939291906130aa565b60405180910390a1505050506119e0611e6c565b50505050505050565b60086020528060005260406000206000915054906101000a900460ff1681565b600260149054906101000a900460ff1681565b60055481565b611a2a611b9a565b611b15611a35610eff565b7f000000000000000000000000000000000000000000000000000000000000000073ffffffffffffffffffffffffffffffffffffffff166370a08231306040518263ffffffff1660e01b8152600401611a8e9190612884565b602060405180830381865afa158015611aab573d6000803e3d6000fd5b505050506040513d601f19601f82011682018060405250810190611acf9190612c61565b7f000000000000000000000000000000000000000000000000000000000000000073ffffffffffffffffffffffffffffffffffffffff16611de69092919063ffffffff16565b565b611b1f611b9a565b600073ffffffffffffffffffffffffffffffffffffffff168173ffffffffffffffffffffffffffffffffffffffff1603611b8e576040517f08c379a0000000000000000000000000000000000000000000000000000000008152600401611b85906131a5565b60405180910390fd5b611b9781611e75565b50565b611ba261206f565b73ffffffffffffffffffffffffffffffffffffffff16611bc0610eff565b73ffffffffffffffffffffffffffffffffffffffff1614611c16576040517f08c379a0000000000000000000000000000000000000000000000000000000008152600401611c0d90613211565b60405180910390fd5b565b611c20612077565b60008060146101000a81548160ff0219169083151502179055507f5db9ee0a495bf2e6ff9c91a7834c1ba4fdd244a5e8aa4e537bd38aeae4b073aa611c6361206f565b604051611c709190612884565b60405180910390a1565b600260015403611cbf576040517f08c379a0000000000000000000000000000000000000000000000000000000008152600401611cb69061327d565b60405180910390fd5b6002600181905550565b600063095ea7b360e01b8383604051602401611ce6929190612c8e565b604051602081830303815290604052907bffffffffffffffffffffffffffffffffffffffffffffffffffffffff19166020820180517bffffffffffffffffffffffffffffffffffffffffffffffffffffffff83818316178352505050509050611d4f84826120c0565b611de057611dd58463095ea7b360e01b856000604051602401611d739291906132d8565b604051602081830303815290604052907bffffffffffffffffffffffffffffffffffffffffffffffffffffffff19166020820180517bffffffffffffffffffffffffffffffffffffffffffffffffffffffff8381831617835250505050612175565b611ddf8482612175565b5b50505050565b611e678363a9059cbb60e01b8484604051602401611e05929190612c8e565b604051602081830303815290604052907bffffffffffffffffffffffffffffffffffffffffffffffffffffffff19166020820180517bffffffffffffffffffffffffffffffffffffffffffffffffffffffff8381831617835250505050612175565b505050565b60018081905550565b60008060009054906101000a900473ffffffffffffffffffffffffffffffffffffffff169050816000806101000a81548173ffffffffffffffffffffffffffffffffffffffff021916908373ffffffffffffffffffffffffffffffffffffffff1602179055508173ffffffffffffffffffffffffffffffffffffffff168173ffffffffffffffffffffffffffffffffffffffff167f8be0079c531659141344cd1fd0a4f28419497f9722a3daafe3b4186f6b6457e060405160405180910390a35050565b611f41611f9c565b6001600060146101000a81548160ff0219169083151502179055507f62e78cea01bee320cd4e420270b5ea74000d11b0c9f74754ebdbfc544b05a258611f8561206f565b604051611f929190612884565b60405180910390a1565b611fa4610e71565b15611fe4576040517f08c379a0000000000000000000000000000000000000000000000000000000008152600401611fdb9061334d565b60405180910390fd5b565b612069846323b872dd60e01b8585856040516024016120079392919061336d565b604051602081830303815290604052907bffffffffffffffffffffffffffffffffffffffffffffffffffffffff19166020820180517bffffffffffffffffffffffffffffffffffffffffffffffffffffffff8381831617835250505050612175565b50505050565b600033905090565b61207f610e71565b6120be576040517f08c379a00000000000000000000000000000000000000000000000000000000081526004016120b5906133f0565b60405180910390fd5b565b60008060008473ffffffffffffffffffffffffffffffffffffffff16846040516120ea9190612bfe565b6000604051808303816000865af19150503d8060008114612127576040519150601f19603f3d011682016040523d82523d6000602084013e61212c565b606091505b509150915081801561215a5750600081511480612159575080806020019051810190612158919061343c565b5b5b801561216b575061216a8561223d565b5b9250505092915050565b60006121d7826040518060400160405280602081526020017f5361666545524332303a206c6f772d6c6576656c2063616c6c206661696c65648152508573ffffffffffffffffffffffffffffffffffffffff166122609092919063ffffffff16565b90506000815114806121f95750808060200190518101906121f8919061343c565b5b612238576040517f08c379a000000000000000000000000000000000000000000000000000000000815260040161222f906134db565b60405180910390fd5b505050565b6000808273ffffffffffffffffffffffffffffffffffffffff163b119050919050565b606061226f8484600085612278565b90509392505050565b6060824710156122bd576040517f08c379a00000000000000000000000000000000000000000000000000000000081526004016122b49061356d565b60405180910390fd5b6000808673ffffffffffffffffffffffffffffffffffffffff1685876040516122e69190612bfe565b60006040518083038185875af1925050503d8060008114612323576040519150601f19603f3d011682016040523d82523d6000602084013e612328565b606091505b509150915061233987838387612345565b92505050949350505050565b606083156123a757600083510361239f5761235f8561223d565b61239e576040517f08c379a0000000000000000000000000000000000000000000000000000000008152600401612395906135d9565b60405180910390fd5b5b8290506123b2565b6123b183836123ba565b5b949350505050565b6000825111156123cd5781518083602001fd5b806040517f08c379a0000000000000000000000000000000000000000000000000000000008152600401612401919061363d565b60405180910390fd5b6040518060e0016040528060008152602001600081526020016000815260200160008152602001600073ffffffffffffffffffffffffffffffffffffffff168152602001600073ffffffffffffffffffffffffffffffffffffffff168152602001600073ffffffffffffffffffffffffffffffffffffffff1681525090565b600061ffff82169050919050565b6124a081612489565b82525050565b60006020820190506124bb6000830184612497565b92915050565b6000604051905090565b600080fd5b600080fd5b600073ffffffffffffffffffffffffffffffffffffffff82169050919050565b6000612500826124d5565b9050919050565b612510816124f5565b811461251b57600080fd5b50565b60008135905061252d81612507565b92915050565b600060208284031215612549576125486124cb565b5b60006125578482850161251e565b91505092915050565b6000819050919050565b61257381612560565b82525050565b600060208201905061258e600083018461256a565b92915050565b600080fd5b600080fd5b6000601f19601f8301169050919050565b7f4e487b7100000000000000000000000000000000000000000000000000000000600052604160045260246000fd5b6125e78261259e565b810181811067ffffffffffffffff82111715612606576126056125af565b5b80604052505050565b60006126196124c1565b905061262582826125de565b919050565b600067ffffffffffffffff821115612645576126446125af565b5b61264e8261259e565b9050602081019050919050565b82818337600083830152505050565b600061267d6126788461262a565b61260f565b90508281526020810184848401111561269957612698612599565b5b6126a484828561265b565b509392505050565b600082601f8301126126c1576126c0612594565b5b81356126d184826020860161266a565b91505092915050565b6000602082840312156126f0576126ef6124cb565b5b600082013567ffffffffffffffff81111561270e5761270d6124d0565b5b61271a848285016126ac565b91505092915050565b61272c816124f5565b82525050565b600060e082019050612747600083018a61256a565b612754602083018961256a565b612761604083018861256a565b61276e606083018761256a565b61277b6080830186612723565b61278860a0830185612723565b61279560c0830184612723565b98975050505050505050565b600080fd5b600080fd5b60008083601f8401126127c1576127c0612594565b5b8235905067ffffffffffffffff8111156127de576127dd6127a1565b5b6020830191508360208202830111156127fa576127f96127a6565b5b9250929050565b60008060208385031215612818576128176124cb565b5b600083013567ffffffffffffffff811115612836576128356124d0565b5b612842858286016127ab565b92509250509250929050565b60008115159050919050565b6128638161284e565b82525050565b600060208201905061287e600083018461285a565b92915050565b60006020820190506128996000830184612723565b92915050565b6128a881612489565b81146128b357600080fd5b50565b6000813590506128c58161289f565b92915050565b6128d481612560565b81146128df57600080fd5b50565b6000813590506128f1816128cb565b92915050565b600060ff82169050919050565b61290d816128f7565b811461291857600080fd5b50565b60008135905061292a81612904565b92915050565b60008060008060008060c0878903121561294d5761294c6124cb565b5b600061295b89828a016128b6565b965050602061296c89828a016128e2565b955050604061297d89828a016128e2565b945050606061298e89828a016128e2565b935050608061299f89828a016128e2565b92505060a06129b089828a0161291b565b9150509295509295509295565b60008083601f8401126129d3576129d2612594565b5b8235905067ffffffffffffffff8111156129f0576129ef6127a1565b5b602083019150836001820283011115612a0c57612a0b6127a6565b5b9250929050565b600080600080600080600060c0888a031215612a3257612a316124cb565b5b6000612a408a828b0161251e565b9750506020612a518a828b0161251e565b9650506040612a628a828b016128e2565b9550506060612a738a828b016128e2565b9450506080612a848a828b016128e2565b93505060a088013567ffffffffffffffff811115612aa557612aa46124d0565b5b612ab18a828b016129bd565b925092505092959891949750929550565b612acb816128f7565b82525050565b6000602082019050612ae66000830184612ac2565b92915050565b7f4e487b7100000000000000000000000000000000000000000000000000000000600052603260045260246000fd5b600080fd5b600080fd5b600080fd5b60008083356001602003843603038112612b4757612b46612b1b565b5b80840192508235915067ffffffffffffffff821115612b6957612b68612b20565b5b602083019250600182023603831315612b8557612b84612b25565b5b509250929050565b600081519050919050565b600081905092915050565b60005b83811015612bc1578082015181840152602081019050612ba6565b60008484015250505050565b6000612bd882612b8d565b612be28185612b98565b9350612bf2818560208601612ba3565b80840191505092915050565b6000612c0a8284612bcd565b915081905092915050565b6000606082019050612c2a600083018661256a565b612c376020830185612723565b612c446040830184612723565b949350505050565b600081519050612c5b816128cb565b92915050565b600060208284031215612c7757612c766124cb565b5b6000612c8584828501612c4c565b91505092915050565b6000604082019050612ca36000830185612723565b612cb0602083018461256a565b9392505050565b7f4e487b7100000000000000000000000000000000000000000000000000000000600052601160045260246000fd5b6000612cf182612560565b9150612cfc83612560565b9250828203905081811115612d1457612d13612cb7565b5b92915050565b6000612d2582612560565b9150612d3083612560565b9250828202612d3e81612560565b91508282048414831517612d5557612d54612cb7565b5b5092915050565b7f4e487b7100000000000000000000000000000000000000000000000000000000600052601260045260246000fd5b6000612d9682612560565b9150612da183612560565b925082612db157612db0612d5c565b5b828204905092915050565b6000612dc782612560565b9150612dd283612560565b9250828201905080821115612dea57612de9612cb7565b5b92915050565b6000819050919050565b6000612e15612e10612e0b846124d5565b612df0565b6124d5565b9050919050565b6000612e2782612dfa565b9050919050565b6000612e3982612e1c565b9050919050565b612e4981612e2e565b82525050565b600082825260208201905092915050565b6000612e6b82612b8d565b612e758185612e4f565b9350612e85818560208601612ba3565b612e8e8161259e565b840191505092915050565b600060c082019050612eae6000830189612723565b612ebb6020830188612e40565b612ec8604083018761256a565b8181036060830152612eda8186612e60565b9050612ee9608083018561256a565b612ef660a0830184612e40565b979650505050505050565b600060c082019050612f166000830189612723565b612f236020830188612e40565b612f306040830187612e40565b612f3d606083018661256a565b8181036080830152612f4f8185612e60565b9050612f5e60a083018461256a565b979650505050505050565b6000608082019050612f7e6000830187612723565b612f8b6020830186612e40565b612f98604083018561256a565b8181036060830152612faa8184612e60565b905095945050505050565b600060c082019050612fca6000830189612497565b612fd7602083018861256a565b612fe4604083018761256a565b612ff1606083018661256a565b612ffe608083018561256a565b61300b60a0830184612ac2565b979650505050505050565b60006130228385612b98565b935061302f83858461265b565b82840190509392505050565b6000613048828486613016565b91508190509392505050565b6000604082019050613069600083018561256a565b6130766020830184612723565b9392505050565b60006130898385612e4f565b935061309683858461265b565b61309f8361259e565b840190509392505050565b600060e0820190506130bf600083018b612723565b6130cc602083018a612723565b6130d96040830189612723565b6130e6606083018861256a565b6130f3608083018761256a565b61310060a083018661256a565b81810360c083015261311381848661307d565b90509998505050505050505050565b600082825260208201905092915050565b7f4f776e61626c653a206e6577206f776e657220697320746865207a65726f206160008201527f6464726573730000000000000000000000000000000000000000000000000000602082015250565b600061318f602683613122565b915061319a82613133565b604082019050919050565b600060208201905081810360008301526131be81613182565b9050919050565b7f4f776e61626c653a2063616c6c6572206973206e6f7420746865206f776e6572600082015250565b60006131fb602083613122565b9150613206826131c5565b602082019050919050565b6000602082019050818103600083015261322a816131ee565b9050919050565b7f5265656e7472616e637947756172643a207265656e7472616e742063616c6c00600082015250565b6000613267601f83613122565b915061327282613231565b602082019050919050565b600060208201905081810360008301526132968161325a565b9050919050565b6000819050919050565b60006132c26132bd6132b88461329d565b612df0565b6128f7565b9050919050565b6132d2816132a7565b82525050565b60006040820190506132ed6000830185612723565b6132fa60208301846132c9565b9392505050565b7f5061757361626c653a2070617573656400000000000000000000000000000000600082015250565b6000613337601083613122565b915061334282613301565b602082019050919050565b600060208201905081810360008301526133668161332a565b9050919050565b60006060820190506133826000830186612723565b61338f6020830185612723565b61339c604083018461256a565b949350505050565b7f5061757361626c653a206e6f7420706175736564000000000000000000000000600082015250565b60006133da601483613122565b91506133e5826133a4565b602082019050919050565b60006020820190508181036000830152613409816133cd565b9050919050565b6134198161284e565b811461342457600080fd5b50565b60008151905061343681613410565b92915050565b600060208284031215613452576134516124cb565b5b600061346084828501613427565b91505092915050565b7f5361666545524332303a204552433230206f7065726174696f6e20646964206e60008201527f6f74207375636365656400000000000000000000000000000000000000000000602082015250565b60006134c5602a83613122565b91506134d082613469565b604082019050919050565b600060208201905081810360008301526134f4816134b8565b9050919050565b7f416464726573733a20696e73756666696369656e742062616c616e636520666f60008201527f722063616c6c0000000000000000000000000000000000000000000000000000602082015250565b6000613557602683613122565b9150613562826134fb565b604082019050919050565b600060208201905081810360008301526135868161354a565b9050919050565b7f416464726573733a2063616c6c20746f206e6f6e2d636f6e7472616374000000600082015250565b60006135c3601d83613122565b91506135ce8261358d565b602082019050919050565b600060208201905081810360008301526135f2816135b6565b9050919050565b600081519050919050565b600061360f826135f9565b6136198185613122565b9350613629818560208601612ba3565b6136328161259e565b840191505092915050565b600060208201905081810360008301526136578184613604565b90509291505056fea2646970667358221220bf4ae9340d2d3da18db05f184b336ff5a8aebf579250dc4a330265e9712ade7f64736f6c63430008130033",
  "immutableReferences": {
    "1247": [
      {
        "length": 32,
        "start": 2495
      },
      {
        "length": 32,
        "start": 2612
      },
      {
        "length": 32,
        "start": 2975
      },
      {
        "length": 32,
        "start": 3107
      },
      {
        "length": 32,
        "start": 3238
      },
      {
        "length": 32,
        "start": 3321
      },
      {
        "length": 32,
        "start": 3398
      },
      {
        "length": 32,
        "start": 3507
      },
      {
        "length": 32,
        "start": 3604
      },
      {
        "length": 32,
        "start": 5241
      },
      {
        "length": 32,
        "start": 5360
      },
      {
        "length": 32,
        "start": 5648
      },
      {
        "length": 32,
        "start": 6546
      },
      {
        "length": 32,
        "start": 6711
      },
      {
        "length": 32,
        "start": 6865
      }
    ],
    "1251": [
      {
        "length": 32,
        "start": 1029
      },
      {
        "length": 32,
        "start": 2112
      },
      {
        "length": 32,
        "start": 5948
      }
    ],
    "1253": [
      {
        "length": 32,
        "start": 2279
      },
      {
        "length": 32,
        "start": 2435
      },
      {
        "length": 32,
        "start": 5315
      },
      {
        "length": 32,
        "start": 5432
      },
      {
        "length": 32,
        "start": 5588
      },
      {
        "length": 32,
        "start": 5774
      }
    ]
  },
  "source": "// SPDX-License-Identifier: MIT\npragma solidity 0.8.19;\n\nimport \"@openzeppelin/contracts/access/Ownable.sol\";\nimport \"@openzeppelin/contracts/security/ReentrancyGuard.sol\";\nimport \"@openzeppelin/contracts/token/ERC20/utils/SafeERC20.sol\";\nimport \"@openzeppelin/contracts/security/Pausable.sol\";\n\n\ninterface IComet {\n   function supply(address asset, uint amount) external;\n   function withdraw(address asset, uint amount) external;\n   function baseToken() external view returns (address);\n   function allow(address manager, bool isAllowed) external; }\n\ninterface IERC20FeeProxy {\n   function transferFromWithReferenceAndFee(\n       address _tokenAddress,\n       address _to,\n       uint256 _amount,\n       bytes calldata _paymentReference,\n       uint256 _feeAmount,\n       address _feeAddress\n    ) external;\n}\n\ninterface IWrapper {\n   function deposit(uint256 assets, address receiver) external returns (uint256 shares);\n   function redeem(uint256 assets, address receiver, address owner) external returns (uint256 shares);\n   function claimTo(address to) external; }\n\n/// @title   Paytr\n/// @notice  Paytr allows you to earn by paying early.\n\ncontract Paytr is Ownable, Pausable, ReentrancyGuard {\n   using SafeERC20 for IERC20;\n\n   error InvalidAmount();\n   error PaymentReferenceInUse();\n   error NotAuthorized();\n   error ZeroPayeeAddress();\n   error ZeroFeeAddress();\n   error DueDateNotAllowed();\n   error NoPrePayment();\n   error DueDateNotZero();\n   error InvalidNewDueDate();\n   error InvalidArrayLength();\n   error ReferenceNotDue();\n   error InvalidFeeModifier();\n   error InvalidMinDueDate();\n   error InvalidMaxDueDate();\n   error InvalidMinAmount();\n   error InvalidMaxArraySize();\n\n   address immutable baseAsset;\n   address ERC20FeeProxyAddress;\n   address immutable wrapperAddress;\n   address immutable cometAddress;\n   uint8 public maxPayoutArraySize;\n   uint16 public feeModifier;\n   uint256 public minDueDateParameter;\n   uint256 public maxDueDateParameter;   \n   uint256 public minAmountParameter;\n   uint256 public maxAmountParameter;\n\n   struct PaymentERC20 {\n       uint256 amount;\n       uint256 feeAmount;\n       uint256 dueDate;\n       uint256 wrapperSharesReceived;\n       address payer;\n       address payee;\n       address feeAddress;\n    }\n\n    constructor(address _cometAddress, address _wrapperAddress, uint16 _feeModifier, uint256 _minDueDateParameter, uint256 _maxDueDateParameter, uint256 _minAmountParameter, uint256 _maxAmountParameter, uint8 _maxPayoutArraySize) {\n       cometAddress = _cometAddress;\n       baseAsset = IComet(cometAddress).baseToken();\n       wrapperAddress = _wrapperAddress;\n       feeModifier = _feeModifier;\n       minDueDateParameter = _minDueDateParameter;\t\n       maxDueDateParameter = _maxDueDateParameter;\n       minAmountParameter = _minAmountParameter;\n       maxAmountParameter = _maxAmountParameter;\n       maxPayoutArraySize = _maxPayoutArraySize;\n       IComet(cometAddress).allow(wrapperAddress, true);\n    }\n\n    event PaymentERC20Event(address tokenAddress, address payee, address feeAddress, uint256 amount, uint256 dueDate, uint256 feeAmount, bytes paymentReference);\n    event PayOutERC20Event(address tokenAddress, address payee, address feeAddress, uint256 amount, bytes paymentReference, uint256 feeAmount);\n    event InterestPayoutEvent(address tokenAddress, address payee, uint256 interestAmount, bytes paymentReference);\n    event ContractParametersUpdatedEvent(uint16 feeModifier, uint256 minDueDateParameter, uint256 maxDueDateParameter, uint256 minAmount, uint256 maxAmount, uint8 maxPayoutArraySize);\n\n    /// @notice paymentMapping keeps track of the paid invoices.\n    mapping(bytes => PaymentERC20) public paymentMapping;\n\n    /// @notice allowedRequestNetworkFeeAddresses makes sure ERC20 payments originating from the Request Network protocol go through the correct ERC20FeeProxy contract.\n    /// @notice This makes sure Request Network can detect the payment.\n    mapping(address => bool) public allowedRequestNetworkFeeAddresses;\n\n    /// @notice modifier only allows payer to use this function.\n    modifier OnlyPayer(bytes memory _paymentReference) {\n       if(msg.sender != paymentMapping[_paymentReference].payer) revert NotAuthorized();\n       _;\n    }\n\n    /// @notice Make a payment using an ERC20 token.\n    /// @notice This function can't be used while it's paused.\n    /// @param _payee The receiver of the payment.\n    /// @param _feeAddress When using an additional fee, this is the address that will receive the _feeAmount.\n    /// @param _dueDate The due date of the payment, or invoice, in epoch time.\n    /// @param _amount The _asset amount in wei.\n    /// @param _feeAmount The total _asset fee amount in wei.\n    /// @param _paymentReference Reference of the related payment.\n    /// @dev Uses modifiers nonReentrant and whenNotPaused.\n    /// @dev The parameter _dueDate needs to be inserted in epoch time.\n\n    function payInvoiceERC20(\n        address _payee,\n        address _feeAddress,\n        uint256 _dueDate,\n        uint256 _amount,\n        uint256 _feeAmount,\n        bytes calldata _paymentReference\n        ) public nonReentrant whenNotPaused {\n\n            if(paymentMapping[_paymentReference].amount != 0) revert PaymentReferenceInUse();\n            if(_amount < minAmountParameter || _amount > maxAmountParameter) revert InvalidAmount();\n            if(paymentMapping[_paymentReference].payer == msg.sender) revert PaymentReferenceInUse();\n            if(paymentMapping[_paymentReference].payee == _payee) revert PaymentReferenceInUse();\n            if(_payee == address(0)) revert ZeroPayeeAddress();\n            if(_feeAddress == address(0)) revert ZeroFeeAddress();\n            if(_dueDate < block.timestamp + minDueDateParameter || _dueDate > block.timestamp + maxDueDateParameter) revert DueDateNotAllowed();            \n\n            IERC20(baseAsset).safeTransferFrom(msg.sender, address(this), _amount + _feeAmount);\n            IERC20(baseAsset).forceApprove(cometAddress, _amount + _feeAmount);\n\n            uint256 cUsdcbalanceBeforeSupply = IERC20(cometAddress).balanceOf(address(this));\n            IComet(cometAddress).supply(baseAsset, _amount + _feeAmount);\n            uint256 cUsdcbalanceAfterSupply = IERC20(cometAddress).balanceOf(address(this));\n            uint256 cUsdcAmountToWrap = cUsdcbalanceAfterSupply - cUsdcbalanceBeforeSupply;         \n\n            uint256 wrappedShares = IWrapper(wrapperAddress).deposit(cUsdcAmountToWrap, address(this));\n\n            paymentMapping[_paymentReference] = PaymentERC20(\n                _amount,\n                _feeAmount,\n                _dueDate,\n                wrappedShares,\n                msg.sender,\n                _payee,\n                _feeAddress     \n            );\n\n        emit PaymentERC20Event(baseAsset, _payee, _feeAddress, _amount, _dueDate, _feeAmount, _paymentReference);         \n    }\n\n    /// @notice Allows the contract to pay payee (principal amount), payer (interest amount) and fee receiver (fee amount).\n    /// @notice This function cannot be paused.\n    /// @param payoutReferencesArray Insert the bytes array of references that need to be paid out.\n    /// @dev Uses modifier nonReentrant.\n    function payOutERC20Invoice(bytes[] calldata payoutReferencesArray) external nonReentrant {\n\n        PaymentERC20 memory paymentERC20;\n        uint256 payoutReferencesArrayLength = payoutReferencesArray.length;       \n\n        if(payoutReferencesArrayLength == 0 || payoutReferencesArrayLength > maxPayoutArraySize) revert InvalidArrayLength();\n\n        for (uint256 i; i < payoutReferencesArrayLength;) {\n            bytes memory _paymentReference = payoutReferencesArray[i];\n            paymentERC20 = paymentMapping[_paymentReference];\n            if(paymentERC20.amount == 0) revert NoPrePayment();\n            if(paymentERC20.dueDate > block.timestamp) revert ReferenceNotDue();\n\n            address payable _payee = payable(paymentERC20.payee);\n            address payable _payer = payable(paymentERC20.payer);\n            address payable _feeAddress = payable(paymentERC20.feeAddress);\n            uint256 _amount = paymentERC20.amount;\n            uint256 _feeAmount = paymentERC20.feeAmount;\n\n            paymentERC20.amount = 0; //prevents double payout because of the require statement\n\n            //redeem Wrapper shares and receive v3 cTokens\n            IWrapper(wrapperAddress).redeem(paymentERC20.wrapperSharesReceived, address(this), address(this));\n\n            //redeem all available v3 cTokens from Compound for baseAsset tokens\n            uint256 cTokensToRedeem = IERC20(cometAddress).balanceOf(address(this));\n            IComet(cometAddress).withdraw(baseAsset, cTokensToRedeem);\n\n            //get new USDC balance\n            uint256 _totalInterestGathered = IERC20(baseAsset).balanceOf(address(this)) - _amount - _feeAmount;\n            uint256 _interestAmount = _totalInterestGathered * feeModifier / 10000;\n\n            if(allowedRequestNetworkFeeAddresses[_feeAddress] == true) {\n                IERC20(baseAsset).forceApprove(ERC20FeeProxyAddress, _amount + _feeAmount);\n\n                IERC20FeeProxy(ERC20FeeProxyAddress).transferFromWithReferenceAndFee(\n                        baseAsset,\n                        _payee,\n                        _amount,\n                        _paymentReference,\n                        _feeAmount,\n                        _feeAddress\n                );\n\n            } else {\n                IERC20(baseAsset).safeTransfer(_payee, _amount);\n                if(_feeAmount != 0) {\n                        IERC20(baseAsset).safeTransfer(_feeAddress, _feeAmount);\n                }\n            }\n\n            IERC20(baseAsset).safeTransfer(_payer, _interestAmount);\n            unchecked {\n                ++i;\n            }\n            \n            emit PayOutERC20Event(baseAsset, _payee, _feeAddress, _amount, _paymentReference, _feeAmount);\n            emit InterestPayoutEvent(baseAsset, _payer, _interestAmount, _paymentReference);\n        }\n\n    }\n\n    function claimCompRewards() external onlyOwner {\n        IWrapper(wrapperAddress).claimTo(owner());\n    }\n\n    function claimBaseAssetBalance() external onlyOwner {\n        IERC20(baseAsset).safeTransfer(owner(), IERC20(baseAsset).balanceOf(address(this)));\n    }\n\n    function setContractParameters(uint16 _feeModifier, uint256 _minDueDateParameter, uint256 _maxDueDateParameter, uint256 _minAmountParameter, uint256 _maxAmountParameter, uint8 _maxPayoutArraySize) external onlyOwner {\n        if(_feeModifier < 5000 || _feeModifier > 10000 ) revert InvalidFeeModifier();\n        if(_minDueDateParameter < 5 * 86400) revert InvalidMinDueDate();\n        if(_maxDueDateParameter > 365 * 86400) revert InvalidMaxDueDate();\n        if(_minAmountParameter < 1) revert InvalidMinAmount();\n        if(_maxPayoutArraySize == 0) revert InvalidMaxArraySize();\n        feeModifier = _feeModifier;\n        minDueDateParameter = _minDueDateParameter;\n        maxDueDateParameter = _maxDueDateParameter;\n        minAmountParameter = _minAmountParameter;\n        maxAmountParameter = _maxAmountParameter;\n        maxPayoutArraySize = _maxPayoutArraySize;\n\n        emit ContractParametersUpdatedEvent(feeModifier, minDueDateParameter, maxDueDateParameter, minAmountParameter, maxAmountParameter, maxPayoutArraySize);\n    }\n\n    function addRequestNetworkFeeAddress(address _requestNetworkFeeAddress) external onlyOwner {\n        allowedRequestNetworkFeeAddresses[_requestNetworkFeeAddress] = true;\n    }\n\n    function setERC20FeeProxy(address _ERC20FeeProxyAddress) external onlyOwner {\n        ERC20FeeProxyAddress = _ERC20FeeProxyAddress;\n    }\n\n    function pause() external onlyOwner {\n        _pause();\n    }\n\n    function unpause() external onlyOwner {\n        _unpause();\n    }\n\n}",
  "sourcePath": "/Users/pieterclaesen/blockchain/contracts/contracts/Paytr.sol",
  "compiler": {
    "name": "solc",
    "version": "0.8.19+commit.7dd6d404.Emscripten.clang"
  },
  "schemaVersion": "3.4.14",
  "updatedAt": "2023-11-15T21:37:28.560Z",
  "devdoc": {
    "events": {
      "Paused(address)": {
        "details": "Emitted when the pause is triggered by `account`."
      },
      "Unpaused(address)": {
        "details": "Emitted when the pause is lifted by `account`."
      }
    },
    "kind": "dev",
    "methods": {
      "owner()": {
        "details": "Returns the address of the current owner."
      },
      "paused()": {
        "details": "Returns true if the contract is paused, and false otherwise."
      },
      "payInvoiceERC20(address,address,uint256,uint256,uint256,bytes)": {
        "details": "Uses modifiers nonReentrant and whenNotPaused.The parameter _dueDate needs to be inserted in epoch time.",
        "params": {
          "_amount": "The _asset amount in wei.",
          "_dueDate": "The due date of the payment, or invoice, in epoch time.",
          "_feeAddress": "When using an additional fee, this is the address that will receive the _feeAmount.",
          "_feeAmount": "The total _asset fee amount in wei.",
          "_payee": "The receiver of the payment.",
          "_paymentReference": "Reference of the related payment."
        }
      },
      "payOutERC20Invoice(bytes[])": {
        "details": "Uses modifier nonReentrant.",
        "params": {
          "payoutReferencesArray": "Insert the bytes array of references that need to be paid out."
        }
      },
      "renounceOwnership()": {
        "details": "Leaves the contract without owner. It will not be possible to call `onlyOwner` functions. Can only be called by the current owner. NOTE: Renouncing ownership will leave the contract without an owner, thereby disabling any functionality that is only available to the owner."
      },
      "transferOwnership(address)": {
        "details": "Transfers ownership of the contract to a new account (`newOwner`). Can only be called by the current owner."
      }
    },
    "title": "Paytr",
    "version": 1
  },
  "userdoc": {
    "kind": "user",
    "methods": {
      "allowedRequestNetworkFeeAddresses(address)": {
        "notice": "allowedRequestNetworkFeeAddresses makes sure ERC20 payments originating from the Request Network protocol go through the correct ERC20FeeProxy contract.This makes sure Request Network can detect the payment."
      },
      "payInvoiceERC20(address,address,uint256,uint256,uint256,bytes)": {
        "notice": "Make a payment using an ERC20 token.This function can't be used while it's paused."
      },
      "payOutERC20Invoice(bytes[])": {
        "notice": "Allows the contract to pay payee (principal amount), payer (interest amount) and fee receiver (fee amount).This function cannot be paused."
      },
      "paymentMapping(bytes)": {
        "notice": "paymentMapping keeps track of the paid invoices."
      }
    },
    "notice": "Paytr allows you to earn by paying early.",
    "version": 1
  }
}