{
  "contractName": "Paytr",
  "abi": [
    {
      "inputs": [
        {
          "internalType": "address",
          "name": "_cometAddress",
          "type": "address"
        },
        {
          "internalType": "address",
          "name": "_wrapperAddress",
          "type": "address"
        },
        {
          "internalType": "uint16",
          "name": "_feeModifier",
          "type": "uint16"
        },
        {
          "internalType": "uint256",
          "name": "_minDueDateParameter",
          "type": "uint256"
        },
        {
          "internalType": "uint256",
          "name": "_maxDueDateParameter",
          "type": "uint256"
        },
        {
          "internalType": "uint256",
          "name": "_minAmount",
          "type": "uint256"
        },
        {
          "internalType": "uint256",
          "name": "_maxAmount",
          "type": "uint256"
        },
        {
          "internalType": "uint8",
          "name": "_maxPayoutArraySize",
          "type": "uint8"
        }
      ],
      "stateMutability": "nonpayable",
      "type": "constructor"
    },
    {
      "inputs": [],
      "name": "DueDateNotAllowed",
      "type": "error"
    },
    {
      "inputs": [],
      "name": "DueDateNotZero",
      "type": "error"
    },
    {
      "inputs": [],
      "name": "InvalidAmount",
      "type": "error"
    },
    {
      "inputs": [],
      "name": "InvalidArrayLength",
      "type": "error"
    },
    {
      "inputs": [],
      "name": "InvalidFeeModifier",
      "type": "error"
    },
    {
      "inputs": [],
      "name": "InvalidMaxArraySize",
      "type": "error"
    },
    {
      "inputs": [],
      "name": "InvalidMaxDueDate",
      "type": "error"
    },
    {
      "inputs": [],
      "name": "InvalidMinAmount",
      "type": "error"
    },
    {
      "inputs": [],
      "name": "InvalidMinDueDate",
      "type": "error"
    },
    {
      "inputs": [],
      "name": "InvalidNewDueDate",
      "type": "error"
    },
    {
      "inputs": [],
      "name": "NoPrePayment",
      "type": "error"
    },
    {
      "inputs": [],
      "name": "PaymentReferenceInUse",
      "type": "error"
    },
    {
      "inputs": [],
      "name": "ReferenceNotDue",
      "type": "error"
    },
    {
      "inputs": [],
      "name": "ZeroAddressPayee",
      "type": "error"
    },
    {
      "inputs": [],
      "name": "ZeroAmount",
      "type": "error"
    },
    {
      "inputs": [],
      "name": "ZeroFeeAddress",
      "type": "error"
    },
    {
      "anonymous": false,
      "inputs": [
        {
          "indexed": false,
          "internalType": "uint16",
          "name": "feeModifier",
          "type": "uint16"
        },
        {
          "indexed": false,
          "internalType": "uint256",
          "name": "minDueDateParameter",
          "type": "uint256"
        },
        {
          "indexed": false,
          "internalType": "uint256",
          "name": "maxDueDateParameter",
          "type": "uint256"
        },
        {
          "indexed": false,
          "internalType": "uint256",
          "name": "minAmount",
          "type": "uint256"
        },
        {
          "indexed": false,
          "internalType": "uint256",
          "name": "maxAmount",
          "type": "uint256"
        },
        {
          "indexed": false,
          "internalType": "uint8",
          "name": "maxPayoutArraySize",
          "type": "uint8"
        }
      ],
      "name": "ContractParametersUpdatedEvent",
      "type": "event"
    },
    {
      "anonymous": false,
      "inputs": [
        {
          "indexed": false,
          "internalType": "address",
          "name": "payer",
          "type": "address"
        },
        {
          "indexed": false,
          "internalType": "address",
          "name": "payee",
          "type": "address"
        },
        {
          "indexed": false,
          "internalType": "bytes",
          "name": "paymentReference",
          "type": "bytes"
        },
        {
          "indexed": false,
          "internalType": "uint256",
          "name": "dueDate",
          "type": "uint256"
        }
      ],
      "name": "DueDateUpdatedEvent",
      "type": "event"
    },
    {
      "anonymous": false,
      "inputs": [
        {
          "indexed": false,
          "internalType": "address",
          "name": "tokenAddress",
          "type": "address"
        },
        {
          "indexed": false,
          "internalType": "address",
          "name": "payee",
          "type": "address"
        },
        {
          "indexed": false,
          "internalType": "uint256",
          "name": "interestAmount",
          "type": "uint256"
        },
        {
          "indexed": false,
          "internalType": "bytes",
          "name": "paymentReference",
          "type": "bytes"
        }
      ],
      "name": "InterestPayoutEvent",
      "type": "event"
    },
    {
      "anonymous": false,
      "inputs": [
        {
          "indexed": true,
          "internalType": "address",
          "name": "previousOwner",
          "type": "address"
        },
        {
          "indexed": true,
          "internalType": "address",
          "name": "newOwner",
          "type": "address"
        }
      ],
      "name": "OwnershipTransferred",
      "type": "event"
    },
    {
      "anonymous": false,
      "inputs": [
        {
          "indexed": false,
          "internalType": "address",
          "name": "account",
          "type": "address"
        }
      ],
      "name": "Paused",
      "type": "event"
    },
    {
      "anonymous": false,
      "inputs": [
        {
          "indexed": false,
          "internalType": "address",
          "name": "tokenAddress",
          "type": "address"
        },
        {
          "indexed": false,
          "internalType": "address",
          "name": "payee",
          "type": "address"
        },
        {
          "indexed": false,
          "internalType": "address",
          "name": "feeAddress",
          "type": "address"
        },
        {
          "indexed": false,
          "internalType": "uint256",
          "name": "amount",
          "type": "uint256"
        },
        {
          "indexed": false,
          "internalType": "bytes",
          "name": "paymentReference",
          "type": "bytes"
        },
        {
          "indexed": false,
          "internalType": "uint256",
          "name": "feeAmount",
          "type": "uint256"
        }
      ],
      "name": "PayOutERC20Event",
      "type": "event"
    },
    {
      "anonymous": false,
      "inputs": [
        {
          "indexed": false,
          "internalType": "address",
          "name": "tokenAddress",
          "type": "address"
        },
        {
          "indexed": false,
          "internalType": "address",
          "name": "payee",
          "type": "address"
        },
        {
          "indexed": false,
          "internalType": "address",
          "name": "feeAddress",
          "type": "address"
        },
        {
          "indexed": false,
          "internalType": "uint256",
          "name": "amount",
          "type": "uint256"
        },
        {
          "indexed": false,
          "internalType": "uint256",
          "name": "dueDate",
          "type": "uint256"
        },
        {
          "indexed": false,
          "internalType": "uint256",
          "name": "feeAmount",
          "type": "uint256"
        },
        {
          "indexed": false,
          "internalType": "bytes",
          "name": "paymentReference",
          "type": "bytes"
        }
      ],
      "name": "PaymentERC20Event",
      "type": "event"
    },
    {
      "anonymous": false,
      "inputs": [
        {
          "indexed": false,
          "internalType": "address",
          "name": "account",
          "type": "address"
        }
      ],
      "name": "Unpaused",
      "type": "event"
    },
    {
      "inputs": [
        {
          "internalType": "address",
          "name": "",
          "type": "address"
        }
      ],
      "name": "allowedRequestNetworkFeeAddresses",
      "outputs": [
        {
          "internalType": "bool",
          "name": "",
          "type": "bool"
        }
      ],
      "stateMutability": "view",
      "type": "function"
    },
    {
      "inputs": [],
      "name": "owner",
      "outputs": [
        {
          "internalType": "address",
          "name": "",
          "type": "address"
        }
      ],
      "stateMutability": "view",
      "type": "function"
    },
    {
      "inputs": [],
      "name": "paused",
      "outputs": [
        {
          "internalType": "bool",
          "name": "",
          "type": "bool"
        }
      ],
      "stateMutability": "view",
      "type": "function"
    },
    {
      "inputs": [
        {
          "internalType": "bytes",
          "name": "",
          "type": "bytes"
        }
      ],
      "name": "paymentMapping",
      "outputs": [
        {
          "internalType": "uint256",
          "name": "amount",
          "type": "uint256"
        },
        {
          "internalType": "uint256",
          "name": "feeAmount",
          "type": "uint256"
        },
        {
          "internalType": "uint256",
          "name": "dueDate",
          "type": "uint256"
        },
        {
          "internalType": "uint256",
          "name": "wrapperSharesReceived",
          "type": "uint256"
        },
        {
          "internalType": "address",
          "name": "payer",
          "type": "address"
        },
        {
          "internalType": "address",
          "name": "payee",
          "type": "address"
        },
        {
          "internalType": "address",
          "name": "feeAddress",
          "type": "address"
        }
      ],
      "stateMutability": "view",
      "type": "function"
    },
    {
      "inputs": [],
      "name": "renounceOwnership",
      "outputs": [],
      "stateMutability": "nonpayable",
      "type": "function"
    },
    {
      "inputs": [
        {
          "internalType": "address",
          "name": "newOwner",
          "type": "address"
        }
      ],
      "name": "transferOwnership",
      "outputs": [],
      "stateMutability": "nonpayable",
      "type": "function"
    },
    {
      "inputs": [
        {
          "internalType": "address",
          "name": "_payee",
          "type": "address"
        },
        {
          "internalType": "address",
          "name": "_feeAddress",
          "type": "address"
        },
        {
          "internalType": "uint256",
          "name": "_dueDate",
          "type": "uint256"
        },
        {
          "internalType": "uint256",
          "name": "_amount",
          "type": "uint256"
        },
        {
          "internalType": "uint256",
          "name": "_feeAmount",
          "type": "uint256"
        },
        {
          "internalType": "bytes",
          "name": "_paymentReference",
          "type": "bytes"
        }
      ],
      "name": "payInvoiceERC20",
      "outputs": [],
      "stateMutability": "nonpayable",
      "type": "function"
    },
    {
      "inputs": [
        {
          "internalType": "bytes",
          "name": "_paymentReference",
          "type": "bytes"
        },
        {
          "internalType": "uint256",
          "name": "_dueDateUpdated",
          "type": "uint256"
        }
      ],
      "name": "updateDueDate",
      "outputs": [],
      "stateMutability": "nonpayable",
      "type": "function"
    },
    {
      "inputs": [
        {
          "internalType": "bytes[]",
          "name": "payoutReferencesArray",
          "type": "bytes[]"
        }
      ],
      "name": "payOutERC20Invoice",
      "outputs": [],
      "stateMutability": "nonpayable",
      "type": "function"
    },
    {
      "inputs": [],
      "name": "claimCompRewards",
      "outputs": [],
      "stateMutability": "nonpayable",
      "type": "function"
    },
    {
      "inputs": [],
      "name": "claimBaseAssetBalance",
      "outputs": [],
      "stateMutability": "nonpayable",
      "type": "function"
    },
    {
      "inputs": [
        {
          "internalType": "uint16",
          "name": "_feeModifier",
          "type": "uint16"
        },
        {
          "internalType": "uint256",
          "name": "_minDueDateParameter",
          "type": "uint256"
        },
        {
          "internalType": "uint256",
          "name": "_maxDueDateParameter",
          "type": "uint256"
        },
        {
          "internalType": "uint256",
          "name": "_minAmount",
          "type": "uint256"
        },
        {
          "internalType": "uint256",
          "name": "_maxAmount",
          "type": "uint256"
        },
        {
          "internalType": "uint8",
          "name": "_maxPayoutArraySize",
          "type": "uint8"
        }
      ],
      "name": "setContractParameters",
      "outputs": [],
      "stateMutability": "nonpayable",
      "type": "function"
    },
    {
      "inputs": [
        {
          "internalType": "address",
          "name": "_requestNetworkFeeAddress",
          "type": "address"
        }
      ],
      "name": "addRequestNetworkFeeAddress",
      "outputs": [],
      "stateMutability": "nonpayable",
      "type": "function"
    },
    {
      "inputs": [
        {
          "internalType": "address",
          "name": "_ERC20FeeProxyAddress",
          "type": "address"
        }
      ],
      "name": "setERC20FeeProxy",
      "outputs": [],
      "stateMutability": "nonpayable",
      "type": "function"
    },
    {
      "inputs": [],
      "name": "pause",
      "outputs": [],
      "stateMutability": "nonpayable",
      "type": "function"
    },
    {
      "inputs": [],
      "name": "unpause",
      "outputs": [],
      "stateMutability": "nonpayable",
      "type": "function"
    }
  ],
  "bytecode": "0x608060405234801562000010575f80fd5b5060405162003da738038062003da78339818101604052810190620000369190620004b3565b620000566200004a620002d760201b60201c565b620002de60201b60201c565b5f8060146101000a81548160ff021916908315150217905550600180819055508760055f6101000a81548173ffffffffffffffffffffffffffffffffffffffff021916908373ffffffffffffffffffffffffffffffffffffffff16021790555060055f9054906101000a900473ffffffffffffffffffffffffffffffffffffffff1673ffffffffffffffffffffffffffffffffffffffff1663c55dae636040518163ffffffff1660e01b8152600401602060405180830381865afa15801562000121573d5f803e3d5ffd5b505050506040513d601f19601f8201168201806040525081019062000147919062000577565b60025f6101000a81548173ffffffffffffffffffffffffffffffffffffffff021916908373ffffffffffffffffffffffffffffffffffffffff1602179055508660045f6101000a81548173ffffffffffffffffffffffffffffffffffffffff021916908373ffffffffffffffffffffffffffffffffffffffff16021790555085600560156101000a81548161ffff021916908361ffff1602179055508460068190555083600781905550826008819055508160098190555080600560146101000a81548160ff021916908360ff16021790555060055f9054906101000a900473ffffffffffffffffffffffffffffffffffffffff1673ffffffffffffffffffffffffffffffffffffffff1663110496e560045f9054906101000a900473ffffffffffffffffffffffffffffffffffffffff1660016040518363ffffffff1660e01b81526004016200029a929190620005d4565b5f604051808303815f87803b158015620002b2575f80fd5b505af1158015620002c5573d5f803e3d5ffd5b505050505050505050505050620005ff565b5f33905090565b5f805f9054906101000a900473ffffffffffffffffffffffffffffffffffffffff169050815f806101000a81548173ffffffffffffffffffffffffffffffffffffffff021916908373ffffffffffffffffffffffffffffffffffffffff1602179055508173ffffffffffffffffffffffffffffffffffffffff168173ffffffffffffffffffffffffffffffffffffffff167f8be0079c531659141344cd1fd0a4f28419497f9722a3daafe3b4186f6b6457e060405160405180910390a35050565b5f80fd5b5f73ffffffffffffffffffffffffffffffffffffffff82169050919050565b5f620003ce82620003a3565b9050919050565b620003e081620003c2565b8114620003eb575f80fd5b50565b5f81519050620003fe81620003d5565b92915050565b5f61ffff82169050919050565b6200041c8162000404565b811462000427575f80fd5b50565b5f815190506200043a8162000411565b92915050565b5f819050919050565b620004548162000440565b81146200045f575f80fd5b50565b5f81519050620004728162000449565b92915050565b5f60ff82169050919050565b6200048f8162000478565b81146200049a575f80fd5b50565b5f81519050620004ad8162000484565b92915050565b5f805f805f805f80610100898b031215620004d357620004d26200039f565b5b5f620004e28b828c01620003ee565b9850506020620004f58b828c01620003ee565b9750506040620005088b828c016200042a565b96505060606200051b8b828c0162000462565b95505060806200052e8b828c0162000462565b94505060a0620005418b828c0162000462565b93505060c0620005548b828c0162000462565b92505060e0620005678b828c016200049d565b9150509295985092959890939650565b5f602082840312156200058f576200058e6200039f565b5b5f6200059e84828501620003ee565b91505092915050565b620005b281620003c2565b82525050565b5f8115159050919050565b620005ce81620005b8565b82525050565b5f604082019050620005e95f830185620005a7565b620005f86020830184620005c3565b9392505050565b61379a806200060d5f395ff3fe608060405234801561000f575f80fd5b50600436106100fe575f3560e01c80638456cb5911610095578063a3e9f0fa11610064578063a3e9f0fa14610228578063a9948c9614610244578063ed19fa8414610274578063f2fde38b1461027e576100fe565b80638456cb59146101c85780638da5cb5b146101d257806391045517146101f05780639359e7b41461020c576100fe565b80634beb2a1e116100d15780634beb2a1e146101685780635c975abb146101845780636e2f87f3146101a2578063715018a6146101be576100fe565b806339c54161146101025780633f4ba83a1461011e57806345107cae146101285780634677863514610132575b5f80fd5b61011c60048036038101906101179190612530565b61029a565b005b6101266102fa565b005b61013061030c565b005b61014c60048036038101906101479190612697565b6103a4565b60405161015f9796959493929190612705565b60405180910390f35b610182600480360381019061017d91906127cf565b610457565b005b61018c610d59565b6040516101999190612834565b60405180910390f35b6101bc60048036038101906101b79190612530565b610d6e565b005b6101c6610db9565b005b6101d0610dcc565b005b6101da610dde565b6040516101e7919061284d565b60405180910390f35b61020a600480360381019061020591906128fd565b610e05565b005b610226600480360381019061022191906129db565b611011565b005b610242600480360381019061023d9190612a38565b6112d0565b005b61025e60048036038101906102599190612530565b611b58565b60405161026b9190612834565b60405180910390f35b61027c611b75565b005b61029860048036038101906102939190612530565b611c6a565b005b6102a2611cec565b6001600b5f8373ffffffffffffffffffffffffffffffffffffffff1673ffffffffffffffffffffffffffffffffffffffff1681526020019081526020015f205f6101000a81548160ff02191690831515021790555050565b610302611cec565b61030a611d6a565b565b610314611cec565b60045f9054906101000a900473ffffffffffffffffffffffffffffffffffffffff1673ffffffffffffffffffffffffffffffffffffffff1663a262f5f8610359610dde565b6040518263ffffffff1660e01b8152600401610375919061284d565b5f604051808303815f87803b15801561038c575f80fd5b505af115801561039e573d5f803e3d5ffd5b50505050565b600a818051602081018201805184825260208301602085012081835280955050505050505f91509050805f015490806001015490806002015490806003015490806004015f9054906101000a900473ffffffffffffffffffffffffffffffffffffffff1690806005015f9054906101000a900473ffffffffffffffffffffffffffffffffffffffff1690806006015f9054906101000a900473ffffffffffffffffffffffffffffffffffffffff16905087565b61045f611dcb565b5f808383905090505f8114806104865750600560149054906101000a900460ff1660ff1681115b156104bd576040517f9d89020a00000000000000000000000000000000000000000000000000000000815260040160405180910390fd5b5b80821015610d4b575f8484848181106104da576104d9612ae2565b5b90506020028101906104ec9190612b1b565b8080601f0160208091040260200160405190810160405280939291908181526020018383808284375f81840152601f19601f8201169050808301925050505050505090505f600a826040516105419190612be9565b90815260200160405180910390205f015403610589576040517f2a313f9300000000000000000000000000000000000000000000000000000000815260040160405180910390fd5b42600a8260405161059a9190612be9565b90815260200160405180910390206002015411156105e4576040517f3b713eb600000000000000000000000000000000000000000000000000000000815260040160405180910390fd5b5f600a826040516105f59190612be9565b90815260200160405180910390206005015f9054906101000a900473ffffffffffffffffffffffffffffffffffffffff1690505f600a836040516106399190612be9565b90815260200160405180910390206004015f9054906101000a900473ffffffffffffffffffffffffffffffffffffffff1690505f600a8460405161067d9190612be9565b90815260200160405180910390206006015f9054906101000a900473ffffffffffffffffffffffffffffffffffffffff1690505f600a856040516106c19190612be9565b90815260200160405180910390205f015490505f600a866040516106e59190612be9565b90815260200160405180910390206001015490505f600a8760405161070a9190612be9565b90815260200160405180910390206003015490505f600a8860405161072f9190612be9565b90815260200160405180910390205f018190555060045f9054906101000a900473ffffffffffffffffffffffffffffffffffffffff1673ffffffffffffffffffffffffffffffffffffffff1663ba0876528230306040518463ffffffff1660e01b81526004016107a193929190612bff565b6020604051808303815f875af11580156107bd573d5f803e3d5ffd5b505050506040513d601f19601f820116820180604052508101906107e19190612c48565b505f60055f9054906101000a900473ffffffffffffffffffffffffffffffffffffffff1673ffffffffffffffffffffffffffffffffffffffff166370a08231306040518263ffffffff1660e01b815260040161083d919061284d565b602060405180830381865afa158015610858573d5f803e3d5ffd5b505050506040513d601f19601f8201168201806040525081019061087c9190612c48565b905060055f9054906101000a900473ffffffffffffffffffffffffffffffffffffffff1673ffffffffffffffffffffffffffffffffffffffff1663f3fef3a360025f9054906101000a900473ffffffffffffffffffffffffffffffffffffffff16836040518363ffffffff1660e01b81526004016108fb929190612c73565b5f604051808303815f87803b158015610912575f80fd5b505af1158015610924573d5f803e3d5ffd5b505050505f8460025f9054906101000a900473ffffffffffffffffffffffffffffffffffffffff1673ffffffffffffffffffffffffffffffffffffffff166370a08231306040518263ffffffff1660e01b8152600401610984919061284d565b602060405180830381865afa15801561099f573d5f803e3d5ffd5b505050506040513d601f19601f820116820180604052508101906109c39190612c48565b6109cd9190612cc7565b90505f612710600560159054906101000a900461ffff1661ffff16836109f39190612cfa565b6109fd9190612d68565b905060011515600b5f8973ffffffffffffffffffffffffffffffffffffffff1673ffffffffffffffffffffffffffffffffffffffff1681526020019081526020015f205f9054906101000a900460ff16151503610b8357610acc60035f9054906101000a900473ffffffffffffffffffffffffffffffffffffffff168688610a859190612d98565b60025f9054906101000a900473ffffffffffffffffffffffffffffffffffffffff1673ffffffffffffffffffffffffffffffffffffffff16611e1a9092919063ffffffff16565b60035f9054906101000a900473ffffffffffffffffffffffffffffffffffffffff1673ffffffffffffffffffffffffffffffffffffffff1663c219a14d60025f9054906101000a900473ffffffffffffffffffffffffffffffffffffffff168b898e8a8d6040518763ffffffff1660e01b8152600401610b5196959493929190612e6e565b5f604051808303815f87803b158015610b68575f80fd5b505af1158015610b7a573d5f803e3d5ffd5b50505050610c24565b610bcf898760025f9054906101000a900473ffffffffffffffffffffffffffffffffffffffff1673ffffffffffffffffffffffffffffffffffffffff16611f659092919063ffffffff16565b5f8514610c2357610c22878660025f9054906101000a900473ffffffffffffffffffffffffffffffffffffffff1673ffffffffffffffffffffffffffffffffffffffff16611f659092919063ffffffff16565b5b5b610c70888260025f9054906101000a900473ffffffffffffffffffffffffffffffffffffffff1673ffffffffffffffffffffffffffffffffffffffff16611f659092919063ffffffff16565b8b610c7a90612ed4565b9b507f3c77ae279df37c7ea5dd3a57f101c57dac95417ce9c24279d6ec87d9399c82d760025f9054906101000a900473ffffffffffffffffffffffffffffffffffffffff168a89898e8a604051610cd696959493929190612f1b565b60405180910390a17fa5ed23d5ebdea6438acd5b68a3befbb14c431a7a8f221448bfb708ab8a408e9f60025f9054906101000a900473ffffffffffffffffffffffffffffffffffffffff1689838d604051610d349493929190612f81565b60405180910390a1505050505050505050506104be565b5050610d55611feb565b5050565b5f8060149054906101000a900460ff16905090565b610d76611cec565b8060035f6101000a81548173ffffffffffffffffffffffffffffffffffffffff021916908373ffffffffffffffffffffffffffffffffffffffff16021790555050565b610dc1611cec565b610dca5f611ff4565b565b610dd4611cec565b610ddc6120b5565b565b5f805f9054906101000a900473ffffffffffffffffffffffffffffffffffffffff16905090565b610e0d611cec565b6113888661ffff161080610e2657506127108661ffff16115b15610e5d576040517f2e9ebb9500000000000000000000000000000000000000000000000000000000815260040160405180910390fd5b620697808511610e99576040517ff57c57d300000000000000000000000000000000000000000000000000000000815260040160405180910390fd5b6301e133808410610ed6576040517fa7befd8c00000000000000000000000000000000000000000000000000000000815260040160405180910390fd5b6001831015610f11576040517f9c68554f00000000000000000000000000000000000000000000000000000000815260040160405180910390fd5b5f8160ff1603610f4d576040517ff39d15db00000000000000000000000000000000000000000000000000000000815260040160405180910390fd5b85600560156101000a81548161ffff021916908361ffff1602179055508460068190555083600781905550826008819055508160098190555080600560146101000a81548160ff021916908360ff1602179055507fa20f6f1bd973c2c6838ae762fb84fd32c748ca52d7feed804a1e4a1724d7f701600560159054906101000a900461ffff16600654600754600854600954600560149054906101000a900460ff1660405161100196959493929190612fe9565b60405180910390a1505050505050565b82828080601f0160208091040260200160405190810160405280939291908181526020018383808284375f81840152601f19601f82011690508083019250505050505050600a816040516110659190612be9565b90815260200160405180910390206004015f9054906101000a900473ffffffffffffffffffffffffffffffffffffffff1673ffffffffffffffffffffffffffffffffffffffff163373ffffffffffffffffffffffffffffffffffffffff1614611103576040517f08c379a00000000000000000000000000000000000000000000000000000000081526004016110fa906130a2565b60405180910390fd5b61110b611dcb565b5f600a858560405161111e9291906130e4565b90815260200160405180910390205f015403611166576040517f2a313f9300000000000000000000000000000000000000000000000000000000815260040160405180910390fd5b5f600a85856040516111799291906130e4565b908152602001604051809103902060020154146111c2576040517f90143fcb00000000000000000000000000000000000000000000000000000000815260040160405180910390fd5b428210806111dd5750600754426111d99190612d98565b8210155b15611214576040517fbcbbd1b000000000000000000000000000000000000000000000000000000000815260040160405180910390fd5b81600a85856040516112279291906130e4565b9081526020016040518091039020600201819055505f600a858560405161124f9291906130e4565b90815260200160405180910390206005015f9054906101000a900473ffffffffffffffffffffffffffffffffffffffff1690507f6319a20e65431ca4d6ef3707f86cd051713a4cb3c9d1cc11e9c2a73802b7ac8f33828787876040516112b9959493929190613128565b60405180910390a1506112ca611feb565b50505050565b6112d8611dcb565b6112e0612117565b5f8403611319576040517f1f2a200500000000000000000000000000000000000000000000000000000000815260040160405180910390fd5b60085484108061132a575060095484115b15611361576040517f2c5211c600000000000000000000000000000000000000000000000000000000815260040160405180910390fd5b3373ffffffffffffffffffffffffffffffffffffffff16600a838360405161138a9291906130e4565b90815260200160405180910390206004015f9054906101000a900473ffffffffffffffffffffffffffffffffffffffff1673ffffffffffffffffffffffffffffffffffffffff1603611408576040517fa685b0f000000000000000000000000000000000000000000000000000000000815260040160405180910390fd5b8673ffffffffffffffffffffffffffffffffffffffff16600a83836040516114319291906130e4565b90815260200160405180910390206005015f9054906101000a900473ffffffffffffffffffffffffffffffffffffffff1673ffffffffffffffffffffffffffffffffffffffff16036114af576040517fa685b0f000000000000000000000000000000000000000000000000000000000815260040160405180910390fd5b5f73ffffffffffffffffffffffffffffffffffffffff168773ffffffffffffffffffffffffffffffffffffffff1603611514576040517f8f4c176600000000000000000000000000000000000000000000000000000000815260040160405180910390fd5b5f73ffffffffffffffffffffffffffffffffffffffff168673ffffffffffffffffffffffffffffffffffffffff1603611579576040517fffd7845300000000000000000000000000000000000000000000000000000000815260040160405180910390fd5b5f85146115e1576007544261158e9190612d98565b851015806115a95750600654426115a59190612d98565b8511155b156115e0576040517fa95a225a00000000000000000000000000000000000000000000000000000000815260040160405180910390fd5b5b61163a333085876115f29190612d98565b60025f9054906101000a900473ffffffffffffffffffffffffffffffffffffffff1673ffffffffffffffffffffffffffffffffffffffff16612161909392919063ffffffff16565b6116b260055f9054906101000a900473ffffffffffffffffffffffffffffffffffffffff16848661166b9190612d98565b60025f9054906101000a900473ffffffffffffffffffffffffffffffffffffffff1673ffffffffffffffffffffffffffffffffffffffff16611e1a9092919063ffffffff16565b5f60055f9054906101000a900473ffffffffffffffffffffffffffffffffffffffff1673ffffffffffffffffffffffffffffffffffffffff166370a08231306040518263ffffffff1660e01b815260040161170d919061284d565b602060405180830381865afa158015611728573d5f803e3d5ffd5b505050506040513d601f19601f8201168201806040525081019061174c9190612c48565b905060055f9054906101000a900473ffffffffffffffffffffffffffffffffffffffff1673ffffffffffffffffffffffffffffffffffffffff1663f2b9fdb860025f9054906101000a900473ffffffffffffffffffffffffffffffffffffffff1686886117b99190612d98565b6040518363ffffffff1660e01b81526004016117d6929190612c73565b5f604051808303815f87803b1580156117ed575f80fd5b505af11580156117ff573d5f803e3d5ffd5b505050505f60055f9054906101000a900473ffffffffffffffffffffffffffffffffffffffff1673ffffffffffffffffffffffffffffffffffffffff166370a08231306040518263ffffffff1660e01b815260040161185e919061284d565b602060405180830381865afa158015611879573d5f803e3d5ffd5b505050506040513d601f19601f8201168201806040525081019061189d9190612c48565b90505f82826118ac9190612cc7565b90505f60045f9054906101000a900473ffffffffffffffffffffffffffffffffffffffff1673ffffffffffffffffffffffffffffffffffffffff16636e553f6583306040518363ffffffff1660e01b815260040161190b929190613174565b6020604051808303815f875af1158015611927573d5f803e3d5ffd5b505050506040513d601f19601f8201168201806040525081019061194b9190612c48565b90506040518060e001604052808981526020018881526020018a81526020018281526020013373ffffffffffffffffffffffffffffffffffffffff1681526020018c73ffffffffffffffffffffffffffffffffffffffff1681526020018b73ffffffffffffffffffffffffffffffffffffffff16815250600a87876040516119d49291906130e4565b90815260200160405180910390205f820151815f01556020820151816001015560408201518160020155606082015181600301556080820151816004015f6101000a81548173ffffffffffffffffffffffffffffffffffffffff021916908373ffffffffffffffffffffffffffffffffffffffff16021790555060a0820151816005015f6101000a81548173ffffffffffffffffffffffffffffffffffffffff021916908373ffffffffffffffffffffffffffffffffffffffff16021790555060c0820151816006015f6101000a81548173ffffffffffffffffffffffffffffffffffffffff021916908373ffffffffffffffffffffffffffffffffffffffff1602179055509050507f3949326165d95b8a403b9bbb410a566da35367dd971b51a8a331801a571147ed60025f9054906101000a900473ffffffffffffffffffffffffffffffffffffffff168c8c8b8d8c8c8c604051611b3b98979695949392919061319b565b60405180910390a150505050611b4f611feb565b50505050505050565b600b602052805f5260405f205f915054906101000a900460ff1681565b611b7d611cec565b611c68611b88610dde565b60025f9054906101000a900473ffffffffffffffffffffffffffffffffffffffff1673ffffffffffffffffffffffffffffffffffffffff166370a08231306040518263ffffffff1660e01b8152600401611be2919061284d565b602060405180830381865afa158015611bfd573d5f803e3d5ffd5b505050506040513d601f19601f82011682018060405250810190611c219190612c48565b60025f9054906101000a900473ffffffffffffffffffffffffffffffffffffffff1673ffffffffffffffffffffffffffffffffffffffff16611f659092919063ffffffff16565b565b611c72611cec565b5f73ffffffffffffffffffffffffffffffffffffffff168173ffffffffffffffffffffffffffffffffffffffff1603611ce0576040517f08c379a0000000000000000000000000000000000000000000000000000000008152600401611cd790613281565b60405180910390fd5b611ce981611ff4565b50565b611cf46121ea565b73ffffffffffffffffffffffffffffffffffffffff16611d12610dde565b73ffffffffffffffffffffffffffffffffffffffff1614611d68576040517f08c379a0000000000000000000000000000000000000000000000000000000008152600401611d5f906132e9565b60405180910390fd5b565b611d726121f1565b5f8060146101000a81548160ff0219169083151502179055507f5db9ee0a495bf2e6ff9c91a7834c1ba4fdd244a5e8aa4e537bd38aeae4b073aa611db46121ea565b604051611dc1919061284d565b60405180910390a1565b600260015403611e10576040517f08c379a0000000000000000000000000000000000000000000000000000000008152600401611e0790613351565b60405180910390fd5b6002600181905550565b5f811480611ea057505f8373ffffffffffffffffffffffffffffffffffffffff1663dd62ed3e30856040518363ffffffff1660e01b8152600401611e5f92919061336f565b602060405180830381865afa158015611e7a573d5f803e3d5ffd5b505050506040513d601f19601f82011682018060405250810190611e9e9190612c48565b145b611edf576040517f08c379a0000000000000000000000000000000000000000000000000000000008152600401611ed690613406565b60405180910390fd5b611f608363095ea7b360e01b8484604051602401611efe929190612c73565b604051602081830303815290604052907bffffffffffffffffffffffffffffffffffffffffffffffffffffffff19166020820180517bffffffffffffffffffffffffffffffffffffffffffffffffffffffff838183161783525050505061223a565b505050565b611fe68363a9059cbb60e01b8484604051602401611f84929190612c73565b604051602081830303815290604052907bffffffffffffffffffffffffffffffffffffffffffffffffffffffff19166020820180517bffffffffffffffffffffffffffffffffffffffffffffffffffffffff838183161783525050505061223a565b505050565b60018081905550565b5f805f9054906101000a900473ffffffffffffffffffffffffffffffffffffffff169050815f806101000a81548173ffffffffffffffffffffffffffffffffffffffff021916908373ffffffffffffffffffffffffffffffffffffffff1602179055508173ffffffffffffffffffffffffffffffffffffffff168173ffffffffffffffffffffffffffffffffffffffff167f8be0079c531659141344cd1fd0a4f28419497f9722a3daafe3b4186f6b6457e060405160405180910390a35050565b6120bd612117565b60015f60146101000a81548160ff0219169083151502179055507f62e78cea01bee320cd4e420270b5ea74000d11b0c9f74754ebdbfc544b05a2586121006121ea565b60405161210d919061284d565b60405180910390a1565b61211f610d59565b1561215f576040517f08c379a00000000000000000000000000000000000000000000000000000000081526004016121569061346e565b60405180910390fd5b565b6121e4846323b872dd60e01b8585856040516024016121829392919061348c565b604051602081830303815290604052907bffffffffffffffffffffffffffffffffffffffffffffffffffffffff19166020820180517bffffffffffffffffffffffffffffffffffffffffffffffffffffffff838183161783525050505061223a565b50505050565b5f33905090565b6121f9610d59565b612238576040517f08c379a000000000000000000000000000000000000000000000000000000000815260040161222f9061350b565b60405180910390fd5b565b5f61229b826040518060400160405280602081526020017f5361666545524332303a206c6f772d6c6576656c2063616c6c206661696c65648152508573ffffffffffffffffffffffffffffffffffffffff166123009092919063ffffffff16565b90505f815114806122bc5750808060200190518101906122bb9190613553565b5b6122fb576040517f08c379a00000000000000000000000000000000000000000000000000000000081526004016122f2906135ee565b60405180910390fd5b505050565b606061230e84845f85612317565b90509392505050565b60608247101561235c576040517f08c379a00000000000000000000000000000000000000000000000000000000081526004016123539061367c565b60405180910390fd5b5f808673ffffffffffffffffffffffffffffffffffffffff1685876040516123849190612be9565b5f6040518083038185875af1925050503d805f81146123be576040519150601f19603f3d011682016040523d82523d5f602084013e6123c3565b606091505b50915091506123d4878383876123e0565b92505050949350505050565b60608315612441575f835103612439576123f985612454565b612438576040517f08c379a000000000000000000000000000000000000000000000000000000000815260040161242f906136e4565b60405180910390fd5b5b82905061244c565b61244b8383612476565b5b949350505050565b5f808273ffffffffffffffffffffffffffffffffffffffff163b119050919050565b5f825111156124885781518083602001fd5b806040517f08c379a00000000000000000000000000000000000000000000000000000000081526004016124bc9190613744565b60405180910390fd5b5f604051905090565b5f80fd5b5f80fd5b5f73ffffffffffffffffffffffffffffffffffffffff82169050919050565b5f6124ff826124d6565b9050919050565b61250f816124f5565b8114612519575f80fd5b50565b5f8135905061252a81612506565b92915050565b5f60208284031215612545576125446124ce565b5b5f6125528482850161251c565b91505092915050565b5f80fd5b5f80fd5b5f601f19601f8301169050919050565b7f4e487b71000000000000000000000000000000000000000000000000000000005f52604160045260245ffd5b6125a982612563565b810181811067ffffffffffffffff821117156125c8576125c7612573565b5b80604052505050565b5f6125da6124c5565b90506125e682826125a0565b919050565b5f67ffffffffffffffff82111561260557612604612573565b5b61260e82612563565b9050602081019050919050565b828183375f83830152505050565b5f61263b612636846125eb565b6125d1565b9050828152602081018484840111156126575761265661255f565b5b61266284828561261b565b509392505050565b5f82601f83011261267e5761267d61255b565b5b813561268e848260208601612629565b91505092915050565b5f602082840312156126ac576126ab6124ce565b5b5f82013567ffffffffffffffff8111156126c9576126c86124d2565b5b6126d58482850161266a565b91505092915050565b5f819050919050565b6126f0816126de565b82525050565b6126ff816124f5565b82525050565b5f60e0820190506127185f83018a6126e7565b61272560208301896126e7565b61273260408301886126e7565b61273f60608301876126e7565b61274c60808301866126f6565b61275960a08301856126f6565b61276660c08301846126f6565b98975050505050505050565b5f80fd5b5f80fd5b5f8083601f84011261278f5761278e61255b565b5b8235905067ffffffffffffffff8111156127ac576127ab612772565b5b6020830191508360208202830111156127c8576127c7612776565b5b9250929050565b5f80602083850312156127e5576127e46124ce565b5b5f83013567ffffffffffffffff811115612802576128016124d2565b5b61280e8582860161277a565b92509250509250929050565b5f8115159050919050565b61282e8161281a565b82525050565b5f6020820190506128475f830184612825565b92915050565b5f6020820190506128605f8301846126f6565b92915050565b5f61ffff82169050919050565b61287c81612866565b8114612886575f80fd5b50565b5f8135905061289781612873565b92915050565b6128a6816126de565b81146128b0575f80fd5b50565b5f813590506128c18161289d565b92915050565b5f60ff82169050919050565b6128dc816128c7565b81146128e6575f80fd5b50565b5f813590506128f7816128d3565b92915050565b5f805f805f8060c08789031215612917576129166124ce565b5b5f61292489828a01612889565b965050602061293589828a016128b3565b955050604061294689828a016128b3565b945050606061295789828a016128b3565b935050608061296889828a016128b3565b92505060a061297989828a016128e9565b9150509295509295509295565b5f8083601f84011261299b5761299a61255b565b5b8235905067ffffffffffffffff8111156129b8576129b7612772565b5b6020830191508360018202830111156129d4576129d3612776565b5b9250929050565b5f805f604084860312156129f2576129f16124ce565b5b5f84013567ffffffffffffffff811115612a0f57612a0e6124d2565b5b612a1b86828701612986565b93509350506020612a2e868287016128b3565b9150509250925092565b5f805f805f805f60c0888a031215612a5357612a526124ce565b5b5f612a608a828b0161251c565b9750506020612a718a828b0161251c565b9650506040612a828a828b016128b3565b9550506060612a938a828b016128b3565b9450506080612aa48a828b016128b3565b93505060a088013567ffffffffffffffff811115612ac557612ac46124d2565b5b612ad18a828b01612986565b925092505092959891949750929550565b7f4e487b71000000000000000000000000000000000000000000000000000000005f52603260045260245ffd5b5f80fd5b5f80fd5b5f80fd5b5f8083356001602003843603038112612b3757612b36612b0f565b5b80840192508235915067ffffffffffffffff821115612b5957612b58612b13565b5b602083019250600182023603831315612b7557612b74612b17565b5b509250929050565b5f81519050919050565b5f81905092915050565b5f5b83811015612bae578082015181840152602081019050612b93565b5f8484015250505050565b5f612bc382612b7d565b612bcd8185612b87565b9350612bdd818560208601612b91565b80840191505092915050565b5f612bf48284612bb9565b915081905092915050565b5f606082019050612c125f8301866126e7565b612c1f60208301856126f6565b612c2c60408301846126f6565b949350505050565b5f81519050612c428161289d565b92915050565b5f60208284031215612c5d57612c5c6124ce565b5b5f612c6a84828501612c34565b91505092915050565b5f604082019050612c865f8301856126f6565b612c9360208301846126e7565b9392505050565b7f4e487b71000000000000000000000000000000000000000000000000000000005f52601160045260245ffd5b5f612cd1826126de565b9150612cdc836126de565b9250828203905081811115612cf457612cf3612c9a565b5b92915050565b5f612d04826126de565b9150612d0f836126de565b9250828202612d1d816126de565b91508282048414831517612d3457612d33612c9a565b5b5092915050565b7f4e487b71000000000000000000000000000000000000000000000000000000005f52601260045260245ffd5b5f612d72826126de565b9150612d7d836126de565b925082612d8d57612d8c612d3b565b5b828204905092915050565b5f612da2826126de565b9150612dad836126de565b9250828201905080821115612dc557612dc4612c9a565b5b92915050565b5f819050919050565b5f612dee612de9612de4846124d6565b612dcb565b6124d6565b9050919050565b5f612dff82612dd4565b9050919050565b5f612e1082612df5565b9050919050565b612e2081612e06565b82525050565b5f82825260208201905092915050565b5f612e4082612b7d565b612e4a8185612e26565b9350612e5a818560208601612b91565b612e6381612563565b840191505092915050565b5f60c082019050612e815f8301896126f6565b612e8e6020830188612e17565b612e9b60408301876126e7565b8181036060830152612ead8186612e36565b9050612ebc60808301856126e7565b612ec960a0830184612e17565b979650505050505050565b5f612ede826126de565b91507fffffffffffffffffffffffffffffffffffffffffffffffffffffffffffffffff8203612f1057612f0f612c9a565b5b600182019050919050565b5f60c082019050612f2e5f8301896126f6565b612f3b6020830188612e17565b612f486040830187612e17565b612f5560608301866126e7565b8181036080830152612f678185612e36565b9050612f7660a08301846126e7565b979650505050505050565b5f608082019050612f945f8301876126f6565b612fa16020830186612e17565b612fae60408301856126e7565b8181036060830152612fc08184612e36565b905095945050505050565b612fd481612866565b82525050565b612fe3816128c7565b82525050565b5f60c082019050612ffc5f830189612fcb565b61300960208301886126e7565b61301660408301876126e7565b61302360608301866126e7565b61303060808301856126e7565b61303d60a0830184612fda565b979650505050505050565b5f82825260208201905092915050565b7f4e6f7420417574686f72697a65640000000000000000000000000000000000005f82015250565b5f61308c600e83613048565b915061309782613058565b602082019050919050565b5f6020820190508181035f8301526130b981613080565b9050919050565b5f6130cb8385612b87565b93506130d883858461261b565b82840190509392505050565b5f6130f08284866130c0565b91508190509392505050565b5f6131078385612e26565b935061311483858461261b565b61311d83612563565b840190509392505050565b5f60808201905061313b5f8301886126f6565b61314860208301876126f6565b818103604083015261315b8185876130fc565b905061316a60608301846126e7565b9695505050505050565b5f6040820190506131875f8301856126e7565b61319460208301846126f6565b9392505050565b5f60e0820190506131ae5f83018b6126f6565b6131bb602083018a6126f6565b6131c860408301896126f6565b6131d560608301886126e7565b6131e260808301876126e7565b6131ef60a08301866126e7565b81810360c08301526132028184866130fc565b90509998505050505050505050565b7f4f776e61626c653a206e6577206f776e657220697320746865207a65726f20615f8201527f6464726573730000000000000000000000000000000000000000000000000000602082015250565b5f61326b602683613048565b915061327682613211565b604082019050919050565b5f6020820190508181035f8301526132988161325f565b9050919050565b7f4f776e61626c653a2063616c6c6572206973206e6f7420746865206f776e65725f82015250565b5f6132d3602083613048565b91506132de8261329f565b602082019050919050565b5f6020820190508181035f830152613300816132c7565b9050919050565b7f5265656e7472616e637947756172643a207265656e7472616e742063616c6c005f82015250565b5f61333b601f83613048565b915061334682613307565b602082019050919050565b5f6020820190508181035f8301526133688161332f565b9050919050565b5f6040820190506133825f8301856126f6565b61338f60208301846126f6565b9392505050565b7f5361666545524332303a20617070726f76652066726f6d206e6f6e2d7a65726f5f8201527f20746f206e6f6e2d7a65726f20616c6c6f77616e636500000000000000000000602082015250565b5f6133f0603683613048565b91506133fb82613396565b604082019050919050565b5f6020820190508181035f83015261341d816133e4565b9050919050565b7f5061757361626c653a20706175736564000000000000000000000000000000005f82015250565b5f613458601083613048565b915061346382613424565b602082019050919050565b5f6020820190508181035f8301526134858161344c565b9050919050565b5f60608201905061349f5f8301866126f6565b6134ac60208301856126f6565b6134b960408301846126e7565b949350505050565b7f5061757361626c653a206e6f74207061757365640000000000000000000000005f82015250565b5f6134f5601483613048565b9150613500826134c1565b602082019050919050565b5f6020820190508181035f830152613522816134e9565b9050919050565b6135328161281a565b811461353c575f80fd5b50565b5f8151905061354d81613529565b92915050565b5f60208284031215613568576135676124ce565b5b5f6135758482850161353f565b91505092915050565b7f5361666545524332303a204552433230206f7065726174696f6e20646964206e5f8201527f6f74207375636365656400000000000000000000000000000000000000000000602082015250565b5f6135d8602a83613048565b91506135e38261357e565b604082019050919050565b5f6020820190508181035f830152613605816135cc565b9050919050565b7f416464726573733a20696e73756666696369656e742062616c616e636520666f5f8201527f722063616c6c0000000000000000000000000000000000000000000000000000602082015250565b5f613666602683613048565b91506136718261360c565b604082019050919050565b5f6020820190508181035f8301526136938161365a565b9050919050565b7f416464726573733a2063616c6c20746f206e6f6e2d636f6e74726163740000005f82015250565b5f6136ce601d83613048565b91506136d98261369a565b602082019050919050565b5f6020820190508181035f8301526136fb816136c2565b9050919050565b5f81519050919050565b5f61371682613702565b6137208185613048565b9350613730818560208601612b91565b61373981612563565b840191505092915050565b5f6020820190508181035f83015261375c818461370c565b90509291505056fea2646970667358221220dd8cd91e7f15c1e1f990ad71ac3105d8c1c5e1d1d11822254fcb77eeacd40ee664736f6c63430008150033",
  "immutableReferences": {},
  "source": "// SPDX-License-Identifier: MIT\npragma solidity >=0.8.0 <0.9.0;\n \nimport \"@openzeppelin/contracts/access/Ownable.sol\";\nimport \"@openzeppelin/contracts/security/ReentrancyGuard.sol\";\nimport \"@openzeppelin/contracts/token/ERC20/Utils/SafeERC20.sol\";\nimport \"@openzeppelin/contracts/security/Pausable.sol\";\n \n \ninterface IComet {\n    function supply(address asset, uint amount) external;\n    function withdraw(address asset, uint amount) external;\n    function baseToken() external view returns (address);\n    function allow(address manager, bool isAllowed) external;\n}\n \ninterface IERC20FeeProxy {\n    function transferFromWithReferenceAndFee(\n        address _tokenAddress,\n        address _to,\n        uint256 _amount,\n        bytes calldata _paymentReference,\n        uint256 _feeAmount,\n        address _feeAddress\n    ) external;\n}\n \ninterface IWrapper {\n    function deposit(uint256 assets, address receiver) external returns (uint256 shares);\n    function redeem(uint256 assets, address receiver, address owner) external returns (uint256 shares);\n    function claimTo(address to) external;\n}\n \n/**\n* @title   Paytr\n* @notice  Paytr allows you to earn by paying early.\n*/\n \ncontract Paytr is Ownable, Pausable, ReentrancyGuard {\n    using SafeERC20 for IERC20;\n \n    error ZeroAmount();\n    error InvalidAmount();\n   error PaymentReferenceInUse();\n    error ZeroAddressPayee();\n    error ZeroFeeAddress();\n    error DueDateNotAllowed();\n    error NoPrePayment();\n    error DueDateNotZero();\n    error InvalidNewDueDate();\n    error InvalidArrayLength();\n    error ReferenceNotDue();\n    error InvalidFeeModifier();\n    error InvalidMinDueDate();\n    error InvalidMaxDueDate();\n    error InvalidMinAmount();\n    error InvalidMaxArraySize();\n \n    address baseAsset;\n    address ERC20FeeProxyAddress;\n    address wrapperAddress;\n    address cometAddress;\n    uint8 maxPayoutArraySize;\n    uint16 feeModifier;\n    uint256 minDueDateParameter;\nuint256 maxDueDateParameter;   \n    uint256 minAmount;\n    uint256 maxAmount;\n \n    struct PaymentERC20 {\n        uint256 amount;\n        uint256 feeAmount;\n        uint256 dueDate;\n       uint256 wrapperSharesReceived;\n        address payer;\n        address payee;\n        address feeAddress;\n    }\n \n    constructor(address _cometAddress, address _wrapperAddress, uint16 _feeModifier, uint256 _minDueDateParameter, uint256 _maxDueDateParameter, uint256 _minAmount, uint256 _maxAmount, uint8 _maxPayoutArraySize) {\n        cometAddress = _cometAddress;\n        baseAsset = IComet(cometAddress).baseToken();\n        wrapperAddress = _wrapperAddress;\n        feeModifier = _feeModifier;\n        minDueDateParameter = _minDueDateParameter;\n        maxDueDateParameter = _maxDueDateParameter;\n        minAmount = _minAmount;\n        maxAmount = _maxAmount;\n        maxPayoutArraySize = _maxPayoutArraySize;\n        IComet(cometAddress).allow(wrapperAddress, true);\n    }\n \n    event PaymentERC20Event(address tokenAddress, address payee, address feeAddress, uint256 amount, uint256 dueDate, uint256 feeAmount, bytes paymentReference);\n    event PayOutERC20Event(address tokenAddress, address payee, address feeAddress, uint256 amount, bytes paymentReference,uint256 feeAmount);\n    event InterestPayoutEvent(address tokenAddress, address payee, uint256 interestAmount, bytes paymentReference);\n    event DueDateUpdatedEvent(address payer, address payee, bytes paymentReference, uint256 dueDate);\n    event ContractParametersUpdatedEvent(uint16 feeModifier, uint256 minDueDateParameter, uint256 maxDueDateParameter, uint256 minAmount, uint256 maxAmount, uint8 maxPayoutArraySize);\n \n    /**\n     * @notice paymentMapping keeps track of the paid invoices.\n   */\n    mapping(bytes => PaymentERC20) public paymentMapping;\n \n    /**\n     * @notice allowedRequestNetworkFeeAddresses makes sure ERC20 payments originating from the Request Network protocol go through the correct ERC20FeeProxy contract.\n        This makes sure Request Network can detect the payment.\n    */\n    mapping(address => bool) public allowedRequestNetworkFeeAddresses;\n \n    /**\n     * @notice modifier only allows payer to use this function.\n     */\n    modifier OnlyPayer(bytes memory _paymentReference) {\n        require(msg.sender == paymentMapping[_paymentReference].payer, \"Not Authorized\");\n        _;\n    }\n \n    /**\n    * @notice Make a payment using an ERC20 token.\n    * @notice This function can't be used while it's paused.\n    * @param _payee The receiver of the payment.\n    * @param _feeAddress When using an additional fee, this is the address that will receive the _feeAmount.\n    * @param _dueDate The due date of the payment, or invoice, in epoch time.\n    * @param _amount The _asset amount in wei.\n    * @param _feeAmount The total _asset fee amount in wei.\n    * @param _paymentReference Reference of the related payment.\n    * @dev Uses modifiers nonReentrant and whenNotPaused.\n    * @dev The parameter _dueDate needs to be inserted in number of days (uint8).\n    */\n \n    function payInvoiceERC20(\n        address _payee,\n        address _feeAddress,\n        uint256 _dueDate,\n        uint256 _amount,\n        uint256 _feeAmount,\n        bytes calldata _paymentReference\n        ) public nonReentrant whenNotPaused {\n           \n            if(_amount == 0) revert ZeroAmount();\n            if(_amount < minAmount || _amount > maxAmount) revert InvalidAmount();\n            if(paymentMapping[_paymentReference].payer == msg.sender) revert PaymentReferenceInUse();\n            if(paymentMapping[_paymentReference].payee == _payee) revert PaymentReferenceInUse();\n            if(_payee == address(0)) revert ZeroAddressPayee();\n            if(_feeAddress == address(0)) revert ZeroFeeAddress();\n            if(_dueDate != 0) {\n                if(_dueDate >= block.timestamp + maxDueDateParameter || _dueDate <= block.timestamp + minDueDateParameter) revert DueDateNotAllowed();\n            }\n \n            IERC20(baseAsset).safeTransferFrom(msg.sender, address(this), _amount + _feeAmount);\n            IERC20(baseAsset).safeApprove(cometAddress, _amount + _feeAmount);\n \n            uint256 cUsdcbalanceBeforeSupply = IERC20(cometAddress).balanceOf(address(this));\n            IComet(cometAddress).supply(baseAsset, _amount + _feeAmount);\n            uint256 cUsdcbalanceAfterSupply = IERC20(cometAddress).balanceOf(address(this));\n            uint256 cUsdcAmountToWrap = cUsdcbalanceAfterSupply - cUsdcbalanceBeforeSupply;         \n            \n            uint256 wrappedShares = IWrapper(wrapperAddress).deposit(cUsdcAmountToWrap, address(this));\n    \n            paymentMapping[_paymentReference] = PaymentERC20(\n                _amount,\n                _feeAmount,\n                _dueDate,\n                wrappedShares,\n                msg.sender,\n                _payee,\n                _feeAddress     \n            );\n \n            emit PaymentERC20Event(baseAsset, _payee, _feeAddress, _amount, _dueDate, _feeAmount, _paymentReference);         \n    }\n \n    /**\n    * @notice This function allows the payer to update the due date of the payment. This is only possible when the initial payment had a '0' dueDate,\n   for example when using the Paytr contract for escrow or crowdfunding. Updating the due date means releasing the funds in the future.\n    * @param _paymentReference Input the paymentReference in bytes.\n    * @param _dueDateUpdated Input the due date in epoch time format.\n    * @dev Uses modifiers OnlyPayer and nonReentrant;\n    */ \n    \n    function updateDueDate(bytes calldata _paymentReference, uint256 _dueDateUpdated) public OnlyPayer(_paymentReference) nonReentrant{\n        if(paymentMapping[_paymentReference].amount == 0) revert NoPrePayment();\n        if(paymentMapping[_paymentReference].dueDate != 0) revert DueDateNotZero();\n        if(_dueDateUpdated < block.timestamp || _dueDateUpdated >= block.timestamp + maxDueDateParameter) revert InvalidNewDueDate();\n        paymentMapping[_paymentReference].dueDate = _dueDateUpdated;\n        address _payee = paymentMapping[_paymentReference].payee;\n \n        emit DueDateUpdatedEvent(msg.sender, _payee, _paymentReference, _dueDateUpdated);\n    }\n \n     /**                                                                             \n    * @notice Allows the contract to pay payee (principal amount), payer (interest amount) and fee receiver (fee amount).\n    This function cannot be paused.\n * @param payoutReferencesArray Insert the bytes array of references that need to be paid out.\n    * @dev Uses modifier nonReentrant.\n    **/\n    function payOutERC20Invoice(bytes[] calldata payoutReferencesArray) external nonReentrant {\n \n        uint256 i;\n        uint256 payoutReferencesArrayLength = payoutReferencesArray.length;\n \n        if(payoutReferencesArrayLength == 0 || payoutReferencesArrayLength > maxPayoutArraySize) revert InvalidArrayLength();\n \n        for (; i < payoutReferencesArrayLength;) {\n            bytes memory _paymentReference = payoutReferencesArray[i];\n          if(paymentMapping[_paymentReference].amount == 0) revert NoPrePayment();\n          if(paymentMapping[_paymentReference].dueDate > block.timestamp) revert ReferenceNotDue();\n \n            address payable _payee = payable(paymentMapping[_paymentReference].payee);\n            address payable _payer = payable(paymentMapping[_paymentReference].payer);\n            address payable _feeAddress = payable(paymentMapping[_paymentReference].feeAddress);\n            uint256 _amount = paymentMapping[_paymentReference].amount;\n            uint256 _feeAmount = paymentMapping[_paymentReference].feeAmount;\n            uint256 _wrapperSharesToRedeem = paymentMapping[_paymentReference].wrapperSharesReceived;\n \n            paymentMapping[_paymentReference].amount = 0; //prevents double payout because of the require statement\n \n            //redeem Wrapper shares and receive v3 cTokens\n            IWrapper(wrapperAddress).redeem(_wrapperSharesToRedeem, address(this), address(this));\n \n            //redeem all available v3 cTokens from Compound for baseAsset tokens\n            uint256 cTokensToRedeem = IERC20(cometAddress).balanceOf(address(this));\n            IComet(cometAddress).withdraw(baseAsset, cTokensToRedeem);\n \n            //get new USDC balance\n            uint256 _totalInterestGathered = IERC20(baseAsset).balanceOf(address(this)) - _amount;\n            uint256 _interestAmount = _totalInterestGathered * feeModifier / 10000;\n \n            if(allowedRequestNetworkFeeAddresses[_feeAddress] == true) {\n                IERC20(baseAsset).safeApprove(ERC20FeeProxyAddress, _amount + _feeAmount);\n \n                IERC20FeeProxy(ERC20FeeProxyAddress).transferFromWithReferenceAndFee(\n                  baseAsset,\n                    _payee,\n                    _amount,\n                    _paymentReference,\n                    _feeAmount,\n                    _feeAddress\n                );\n             \n            } else {\n                IERC20(baseAsset).safeTransfer(_payee, _amount);\n                if(_feeAmount != 0) {\n                    IERC20(baseAsset).safeTransfer(_feeAddress, _feeAmount);\n                }\n            }\n         \n            IERC20(baseAsset).safeTransfer(_payer, _interestAmount);\n            ++i;\n \n            emit PayOutERC20Event(baseAsset, _payee, _feeAddress, _amount, _paymentReference, _feeAmount);\n            emit InterestPayoutEvent(baseAsset, _payer, _interestAmount, _paymentReference);\n       }\n         \n    }\n \n    function claimCompRewards() external onlyOwner {\n        IWrapper(wrapperAddress).claimTo(owner());\n    }\n \n    function claimBaseAssetBalance() external onlyOwner {\n        IERC20(baseAsset).safeTransfer(owner(), IERC20(baseAsset).balanceOf(address(this)));\n    }\n \n    function setContractParameters(uint16 _feeModifier, uint256 _minDueDateParameter, uint256 _maxDueDateParameter, uint256 _minAmount, uint256 _maxAmount, uint8 _maxPayoutArraySize) external onlyOwner {\n          if(_feeModifier < 5000 || _feeModifier > 10000 ) revert InvalidFeeModifier();\n          if(_minDueDateParameter <= 5 * 86400) revert InvalidMinDueDate();\n          if(_maxDueDateParameter >= 365 * 86400) revert InvalidMaxDueDate();\n          if(_minAmount < 1) revert InvalidMinAmount();\n          if(_maxPayoutArraySize == 0) revert InvalidMaxArraySize();\n          feeModifier = _feeModifier;\n          minDueDateParameter = _minDueDateParameter;\n          maxDueDateParameter = _maxDueDateParameter;\n          minAmount = _minAmount;\n          maxAmount = _maxAmount;\n          maxPayoutArraySize = _maxPayoutArraySize;\n \n          emit ContractParametersUpdatedEvent(feeModifier, minDueDateParameter, maxDueDateParameter, minAmount, maxAmount, maxPayoutArraySize);\n    }\n        \n \n    function addRequestNetworkFeeAddress(address _requestNetworkFeeAddress) external onlyOwner {\n        allowedRequestNetworkFeeAddresses[_requestNetworkFeeAddress] = true;\n    }\n \n    function setERC20FeeProxy(address _ERC20FeeProxyAddress) external onlyOwner {\n        ERC20FeeProxyAddress = _ERC20FeeProxyAddress;\n    }\n \n    function pause() external onlyOwner {\n        _pause();\n    }\n \n    function unpause() external onlyOwner {\n        _unpause();\n    }\n \n}",
  "sourcePath": "/Users/pieterclaesen/blockchain/paytr-contracts/contracts/Paytr.sol",
  "compiler": {
    "name": "solc",
    "version": "0.8.21+commit.d9974bed.Emscripten.clang"
  },
  "schemaVersion": "3.4.14",
  "updatedAt": "2023-08-21T19:39:41.536Z",
  "devdoc": {
    "events": {
      "Paused(address)": {
        "details": "Emitted when the pause is triggered by `account`."
      },
      "Unpaused(address)": {
        "details": "Emitted when the pause is lifted by `account`."
      }
    },
    "kind": "dev",
    "methods": {
      "owner()": {
        "details": "Returns the address of the current owner."
      },
      "paused()": {
        "details": "Returns true if the contract is paused, and false otherwise."
      },
      "payInvoiceERC20(address,address,uint256,uint256,uint256,bytes)": {
        "details": "Uses modifiers nonReentrant and whenNotPaused.The parameter _dueDate needs to be inserted in number of days (uint8).",
        "params": {
          "_amount": "The _asset amount in wei.",
          "_dueDate": "The due date of the payment, or invoice, in epoch time.",
          "_feeAddress": "When using an additional fee, this is the address that will receive the _feeAmount.",
          "_feeAmount": "The total _asset fee amount in wei.",
          "_payee": "The receiver of the payment.",
          "_paymentReference": "Reference of the related payment."
        }
      },
      "payOutERC20Invoice(bytes[])": {
        "details": "Uses modifier nonReentrant.*",
        "params": {
          "payoutReferencesArray": "Insert the bytes array of references that need to be paid out."
        }
      },
      "renounceOwnership()": {
        "details": "Leaves the contract without owner. It will not be possible to call `onlyOwner` functions. Can only be called by the current owner. NOTE: Renouncing ownership will leave the contract without an owner, thereby disabling any functionality that is only available to the owner."
      },
      "transferOwnership(address)": {
        "details": "Transfers ownership of the contract to a new account (`newOwner`). Can only be called by the current owner."
      },
      "updateDueDate(bytes,uint256)": {
        "details": "Uses modifiers OnlyPayer and nonReentrant;",
        "params": {
          "_dueDateUpdated": "Input the due date in epoch time format.",
          "_paymentReference": "Input the paymentReference in bytes."
        }
      }
    },
    "title": "Paytr",
    "version": 1
  },
  "userdoc": {
    "kind": "user",
    "methods": {
      "allowedRequestNetworkFeeAddresses(address)": {
        "notice": "allowedRequestNetworkFeeAddresses makes sure ERC20 payments originating from the Request Network protocol go through the correct ERC20FeeProxy contract. This makes sure Request Network can detect the payment."
      },
      "payInvoiceERC20(address,address,uint256,uint256,uint256,bytes)": {
        "notice": "Make a payment using an ERC20 token.This function can't be used while it's paused."
      },
      "payOutERC20Invoice(bytes[])": {
        "notice": "Allows the contract to pay payee (principal amount), payer (interest amount) and fee receiver (fee amount). This function cannot be paused."
      },
      "paymentMapping(bytes)": {
        "notice": "paymentMapping keeps track of the paid invoices."
      },
      "updateDueDate(bytes,uint256)": {
        "notice": "This function allows the payer to update the due date of the payment. This is only possible when the initial payment had a '0' dueDate, for example when using the Paytr contract for escrow or crowdfunding. Updating the due date means releasing the funds in the future."
      }
    },
    "notice": "Paytr allows you to earn by paying early.",
    "version": 1
  }
}