{
  "contractName": "Paytr",
  "abi": [
    {
      "inputs": [
        {
          "internalType": "address",
          "name": "_cometAddress",
          "type": "address"
        },
        {
          "internalType": "address",
          "name": "_ERC20FeeProxyAddress",
          "type": "address"
        },
        {
          "internalType": "address",
          "name": "_wrapperAddress",
          "type": "address"
        }
      ],
      "stateMutability": "nonpayable",
      "type": "constructor"
    },
    {
      "anonymous": false,
      "inputs": [
        {
          "indexed": false,
          "internalType": "address",
          "name": "payer",
          "type": "address"
        },
        {
          "indexed": false,
          "internalType": "address",
          "name": "payee",
          "type": "address"
        },
        {
          "indexed": false,
          "internalType": "bytes",
          "name": "paymentReference",
          "type": "bytes"
        },
        {
          "indexed": false,
          "internalType": "uint256",
          "name": "dueDate",
          "type": "uint256"
        }
      ],
      "name": "DueDateUpdatedEvent",
      "type": "event"
    },
    {
      "anonymous": false,
      "inputs": [
        {
          "indexed": true,
          "internalType": "address",
          "name": "previousOwner",
          "type": "address"
        },
        {
          "indexed": true,
          "internalType": "address",
          "name": "newOwner",
          "type": "address"
        }
      ],
      "name": "OwnershipTransferred",
      "type": "event"
    },
    {
      "anonymous": false,
      "inputs": [
        {
          "indexed": false,
          "internalType": "address",
          "name": "account",
          "type": "address"
        }
      ],
      "name": "Paused",
      "type": "event"
    },
    {
      "anonymous": false,
      "inputs": [
        {
          "indexed": false,
          "internalType": "address",
          "name": "tokenAddress",
          "type": "address"
        },
        {
          "indexed": false,
          "internalType": "address",
          "name": "payee",
          "type": "address"
        },
        {
          "indexed": false,
          "internalType": "address",
          "name": "feeAddress",
          "type": "address"
        },
        {
          "indexed": false,
          "internalType": "uint256",
          "name": "amount",
          "type": "uint256"
        },
        {
          "indexed": false,
          "internalType": "uint256",
          "name": "feeAmount",
          "type": "uint256"
        },
        {
          "indexed": false,
          "internalType": "bytes",
          "name": "paymentReference",
          "type": "bytes"
        }
      ],
      "name": "PayOutERC20Event",
      "type": "event"
    },
    {
      "anonymous": false,
      "inputs": [
        {
          "indexed": false,
          "internalType": "address",
          "name": "tokenAddress",
          "type": "address"
        },
        {
          "indexed": false,
          "internalType": "address",
          "name": "payee",
          "type": "address"
        },
        {
          "indexed": false,
          "internalType": "uint256",
          "name": "amount",
          "type": "uint256"
        },
        {
          "indexed": false,
          "internalType": "uint256",
          "name": "dueDate",
          "type": "uint256"
        },
        {
          "indexed": false,
          "internalType": "bytes",
          "name": "paymentReference",
          "type": "bytes"
        }
      ],
      "name": "PaymentERC20Event",
      "type": "event"
    },
    {
      "anonymous": false,
      "inputs": [
        {
          "indexed": false,
          "internalType": "address",
          "name": "tokenAddress",
          "type": "address"
        },
        {
          "indexed": false,
          "internalType": "address",
          "name": "payee",
          "type": "address"
        },
        {
          "indexed": false,
          "internalType": "address",
          "name": "feeAddress",
          "type": "address"
        },
        {
          "indexed": false,
          "internalType": "uint256",
          "name": "amount",
          "type": "uint256"
        },
        {
          "indexed": false,
          "internalType": "uint256",
          "name": "dueDate",
          "type": "uint256"
        },
        {
          "indexed": false,
          "internalType": "uint256",
          "name": "feeAmount",
          "type": "uint256"
        },
        {
          "indexed": false,
          "internalType": "bytes",
          "name": "paymentReference",
          "type": "bytes"
        }
      ],
      "name": "PaymentERC20EventWithFee",
      "type": "event"
    },
    {
      "anonymous": false,
      "inputs": [
        {
          "indexed": false,
          "internalType": "address",
          "name": "account",
          "type": "address"
        }
      ],
      "name": "Unpaused",
      "type": "event"
    },
    {
      "inputs": [],
      "name": "ERC20FeeProxyAddress",
      "outputs": [
        {
          "internalType": "address",
          "name": "",
          "type": "address"
        }
      ],
      "stateMutability": "view",
      "type": "function"
    },
    {
      "inputs": [
        {
          "internalType": "address",
          "name": "",
          "type": "address"
        }
      ],
      "name": "allowedCometInfo",
      "outputs": [
        {
          "internalType": "bool",
          "name": "allowed",
          "type": "bool"
        },
        {
          "internalType": "uint8",
          "name": "decimals",
          "type": "uint8"
        }
      ],
      "stateMutability": "view",
      "type": "function"
    },
    {
      "inputs": [
        {
          "internalType": "address",
          "name": "",
          "type": "address"
        }
      ],
      "name": "allowedRequestNetworkFeeAddresses",
      "outputs": [
        {
          "internalType": "bool",
          "name": "",
          "type": "bool"
        }
      ],
      "stateMutability": "view",
      "type": "function"
    },
    {
      "inputs": [],
      "name": "cometAddress",
      "outputs": [
        {
          "internalType": "address",
          "name": "",
          "type": "address"
        }
      ],
      "stateMutability": "view",
      "type": "function"
    },
    {
      "inputs": [],
      "name": "owner",
      "outputs": [
        {
          "internalType": "address",
          "name": "",
          "type": "address"
        }
      ],
      "stateMutability": "view",
      "type": "function"
    },
    {
      "inputs": [],
      "name": "paused",
      "outputs": [
        {
          "internalType": "bool",
          "name": "",
          "type": "bool"
        }
      ],
      "stateMutability": "view",
      "type": "function"
    },
    {
      "inputs": [
        {
          "internalType": "uint256",
          "name": "",
          "type": "uint256"
        }
      ],
      "name": "payOutDataArray",
      "outputs": [
        {
          "internalType": "uint256",
          "name": "amount",
          "type": "uint256"
        },
        {
          "internalType": "uint256",
          "name": "interestAmount",
          "type": "uint256"
        },
        {
          "internalType": "uint256",
          "name": "feeAmount",
          "type": "uint256"
        },
        {
          "internalType": "uint256",
          "name": "txWeight",
          "type": "uint256"
        },
        {
          "internalType": "address",
          "name": "payer",
          "type": "address"
        },
        {
          "internalType": "address",
          "name": "payee",
          "type": "address"
        },
        {
          "internalType": "address",
          "name": "asset",
          "type": "address"
        },
        {
          "internalType": "address",
          "name": "feeAddress",
          "type": "address"
        },
        {
          "internalType": "bytes",
          "name": "paymentReference",
          "type": "bytes"
        }
      ],
      "stateMutability": "view",
      "type": "function"
    },
    {
      "inputs": [
        {
          "internalType": "bytes",
          "name": "",
          "type": "bytes"
        }
      ],
      "name": "paymentMapping",
      "outputs": [
        {
          "internalType": "uint256",
          "name": "amount",
          "type": "uint256"
        },
        {
          "internalType": "uint256",
          "name": "feeAmount",
          "type": "uint256"
        },
        {
          "internalType": "uint256",
          "name": "dueDate",
          "type": "uint256"
        },
        {
          "internalType": "uint256",
          "name": "wrapperSharesReceived",
          "type": "uint256"
        },
        {
          "internalType": "uint256",
          "name": "blockNumberSupply",
          "type": "uint256"
        },
        {
          "internalType": "address",
          "name": "payer",
          "type": "address"
        },
        {
          "internalType": "address",
          "name": "payee",
          "type": "address"
        },
        {
          "internalType": "address",
          "name": "asset",
          "type": "address"
        },
        {
          "internalType": "address",
          "name": "feeAddress",
          "type": "address"
        }
      ],
      "stateMutability": "view",
      "type": "function"
    },
    {
      "inputs": [],
      "name": "renounceOwnership",
      "outputs": [],
      "stateMutability": "nonpayable",
      "type": "function"
    },
    {
      "inputs": [
        {
          "internalType": "address",
          "name": "newOwner",
          "type": "address"
        }
      ],
      "name": "transferOwnership",
      "outputs": [],
      "stateMutability": "nonpayable",
      "type": "function"
    },
    {
      "inputs": [],
      "name": "wrapperAddress",
      "outputs": [
        {
          "internalType": "address",
          "name": "",
          "type": "address"
        }
      ],
      "stateMutability": "view",
      "type": "function"
    },
    {
      "inputs": [
        {
          "internalType": "address",
          "name": "_payee",
          "type": "address"
        },
        {
          "internalType": "uint8",
          "name": "_dueDate",
          "type": "uint8"
        },
        {
          "internalType": "uint256",
          "name": "_amount",
          "type": "uint256"
        },
        {
          "internalType": "bytes",
          "name": "_paymentReference",
          "type": "bytes"
        }
      ],
      "name": "payInvoiceERC20",
      "outputs": [],
      "stateMutability": "nonpayable",
      "type": "function"
    },
    {
      "inputs": [
        {
          "internalType": "uint256",
          "name": "_amount",
          "type": "uint256"
        }
      ],
      "name": "redeemFromWrapper",
      "outputs": [],
      "stateMutability": "nonpayable",
      "type": "function"
    },
    {
      "inputs": [
        {
          "internalType": "address",
          "name": "_cometAddress",
          "type": "address"
        },
        {
          "internalType": "uint256",
          "name": "_amount",
          "type": "uint256"
        }
      ],
      "name": "redeemFromCompound",
      "outputs": [],
      "stateMutability": "nonpayable",
      "type": "function"
    },
    {
      "inputs": [
        {
          "internalType": "address",
          "name": "_payee",
          "type": "address"
        },
        {
          "internalType": "address",
          "name": "_feeAddress",
          "type": "address"
        },
        {
          "internalType": "uint8",
          "name": "_dueDate",
          "type": "uint8"
        },
        {
          "internalType": "uint256",
          "name": "_amount",
          "type": "uint256"
        },
        {
          "internalType": "uint256",
          "name": "_feeAmount",
          "type": "uint256"
        },
        {
          "internalType": "bytes",
          "name": "_paymentReference",
          "type": "bytes"
        }
      ],
      "name": "payInvoiceERC20WithFee",
      "outputs": [],
      "stateMutability": "nonpayable",
      "type": "function"
    },
    {
      "inputs": [
        {
          "internalType": "bytes",
          "name": "_paymentReference",
          "type": "bytes"
        },
        {
          "internalType": "uint256",
          "name": "_dueDateUpdated",
          "type": "uint256"
        }
      ],
      "name": "updateDueDate",
      "outputs": [],
      "stateMutability": "nonpayable",
      "type": "function"
    },
    {
      "inputs": [
        {
          "internalType": "bytes[]",
          "name": "payoutReferencesArray",
          "type": "bytes[]"
        }
      ],
      "name": "payOutERC20Invoice",
      "outputs": [],
      "stateMutability": "nonpayable",
      "type": "function"
    },
    {
      "inputs": [
        {
          "internalType": "address",
          "name": "_cometAddress",
          "type": "address"
        }
      ],
      "name": "claimCompRewards",
      "outputs": [],
      "stateMutability": "nonpayable",
      "type": "function"
    },
    {
      "inputs": [
        {
          "internalType": "address",
          "name": "_requestNetworkFeeAddress",
          "type": "address"
        }
      ],
      "name": "addRequestNetworkFeeAddress",
      "outputs": [],
      "stateMutability": "nonpayable",
      "type": "function"
    },
    {
      "inputs": [
        {
          "internalType": "address",
          "name": "_ERC20FeeProxyAddress",
          "type": "address"
        }
      ],
      "name": "setERC20FeeProxy",
      "outputs": [],
      "stateMutability": "nonpayable",
      "type": "function"
    },
    {
      "inputs": [],
      "name": "pause",
      "outputs": [],
      "stateMutability": "nonpayable",
      "type": "function"
    },
    {
      "inputs": [],
      "name": "unpause",
      "outputs": [],
      "stateMutability": "nonpayable",
      "type": "function"
    }
  ],
  "bytecode": "0x608060405234801562000010575f80fd5b50604051620057273803806200572783398181016040528101906200003691906200033c565b620000566200004a6200020f60201b60201c565b6200021660201b60201c565b5f8060146101000a81548160ff021916908315150217905550600180819055508260055f6101000a81548173ffffffffffffffffffffffffffffffffffffffff021916908373ffffffffffffffffffffffffffffffffffffffff1602179055508160035f6101000a81548173ffffffffffffffffffffffffffffffffffffffff021916908373ffffffffffffffffffffffffffffffffffffffff1602179055508060045f6101000a81548173ffffffffffffffffffffffffffffffffffffffff021916908373ffffffffffffffffffffffffffffffffffffffff16021790555060055f9054906101000a900473ffffffffffffffffffffffffffffffffffffffff1673ffffffffffffffffffffffffffffffffffffffff1663c55dae636040518163ffffffff1660e01b8152600401602060405180830381865afa158015620001a1573d5f803e3d5ffd5b505050506040513d601f19601f82011682018060405250810190620001c7919062000395565b60025f6101000a81548173ffffffffffffffffffffffffffffffffffffffff021916908373ffffffffffffffffffffffffffffffffffffffff160217905550505050620003c5565b5f33905090565b5f805f9054906101000a900473ffffffffffffffffffffffffffffffffffffffff169050815f806101000a81548173ffffffffffffffffffffffffffffffffffffffff021916908373ffffffffffffffffffffffffffffffffffffffff1602179055508173ffffffffffffffffffffffffffffffffffffffff168173ffffffffffffffffffffffffffffffffffffffff167f8be0079c531659141344cd1fd0a4f28419497f9722a3daafe3b4186f6b6457e060405160405180910390a35050565b5f80fd5b5f73ffffffffffffffffffffffffffffffffffffffff82169050919050565b5f6200030682620002db565b9050919050565b6200031881620002fa565b811462000323575f80fd5b50565b5f8151905062000336816200030d565b92915050565b5f805f60608486031215620003565762000355620002d7565b5b5f620003658682870162000326565b9350506020620003788682870162000326565b92505060406200038b8682870162000326565b9150509250925092565b5f60208284031215620003ad57620003ac620002d7565b5b5f620003bc8482850162000326565b91505092915050565b61535480620003d35f395ff3fe608060405234801561000f575f80fd5b5060043610610140575f3560e01c8063715018a6116100b65780639359e7b41161007a5780639359e7b414610309578063a6ff946f14610325578063a9948c9614610341578063b7012d5114610371578063d53e049a1461038d578063f2fde38b146103c557610140565b8063715018a61461029d57806375a2b1e3146102a75780637df8b802146102c35780638456cb59146102e15780638da5cb5b146102eb57610140565b80633f4ba83a116101085780633f4ba83a146101e757806346778635146101f15780634beb2a1e146102295780635c975abb146102455780636bbb194b146102635780636e2f87f31461028157610140565b806324c207401461014457806325018c1414610162578063270f78901461017e57806339c54161146101af5780633e012105146101cb575b5f80fd5b61014c6103e1565b60405161015991906137ee565b60405180910390f35b61017c6004803603810190610177919061390c565b610406565b005b61019860048036038101906101939190613990565b610e3c565b6040516101a69291906139e4565b60405180910390f35b6101c960048036038101906101c49190613990565b610e74565b005b6101e560048036038101906101e09190613990565b610ed4565b005b6101ef610ff3565b005b61020b60048036038101906102069190613b43565b611005565b60405161022099989796959493929190613b99565b60405180910390f35b610243600480360381019061023e9190613c79565b6110e3565b005b61024d611db0565b60405161025a9190613cc4565b60405180910390f35b61026b611dc5565b60405161027891906137ee565b60405180910390f35b61029b60048036038101906102969190613990565b611dea565b005b6102a5611e35565b005b6102c160048036038101906102bc9190613cdd565b611e48565b005b6102cb612955565b6040516102d891906137ee565b60405180910390f35b6102e961297a565b005b6102f361298c565b60405161030091906137ee565b60405180910390f35b610323600480360381019061031e9190613d87565b6129b3565b005b61033f600480360381019061033a9190613de4565b612cce565b005b61035b60048036038101906103569190613990565b612d70565b6040516103689190613cc4565b60405180910390f35b61038b60048036038101906103869190613e0f565b612d8d565b005b6103a760048036038101906103a29190613de4565b612df9565b6040516103bc99989796959493929190613ec7565b60405180910390f35b6103df60048036038101906103da9190613990565b612f54565b005b60035f9054906101000a900473ffffffffffffffffffffffffffffffffffffffff1681565b61040e612fd6565b610416613025565b5f8303610458576040517f08c379a000000000000000000000000000000000000000000000000000000000815260040161044f90613fb3565b60405180910390fd5b3373ffffffffffffffffffffffffffffffffffffffff1660088383604051610481929190613fff565b90815260200160405180910390206005015f9054906101000a900473ffffffffffffffffffffffffffffffffffffffff1673ffffffffffffffffffffffffffffffffffffffff1603610508576040517f08c379a00000000000000000000000000000000000000000000000000000000081526004016104ff90614061565b60405180910390fd5b8473ffffffffffffffffffffffffffffffffffffffff1660088383604051610531929190613fff565b90815260200160405180910390206006015f9054906101000a900473ffffffffffffffffffffffffffffffffffffffff1673ffffffffffffffffffffffffffffffffffffffff16036105b8576040517f08c379a00000000000000000000000000000000000000000000000000000000081526004016105af90614061565b60405180910390fd5b5f73ffffffffffffffffffffffffffffffffffffffff168573ffffffffffffffffffffffffffffffffffffffff1603610626576040517f08c379a000000000000000000000000000000000000000000000000000000000815260040161061d906140c9565b60405180910390fd5b5f808560ff160361063d578460ff16905080610663565b620151808560ff1661064f9190614122565b62ffffff164261065f919061415e565b9050805b506106b233308660025f9054906101000a900473ffffffffffffffffffffffffffffffffffffffff1673ffffffffffffffffffffffffffffffffffffffff1661306f909392919063ffffffff16565b61071f60055f9054906101000a900473ffffffffffffffffffffffffffffffffffffffff168560025f9054906101000a900473ffffffffffffffffffffffffffffffffffffffff1673ffffffffffffffffffffffffffffffffffffffff166130f89092919063ffffffff16565b5f60055f9054906101000a900473ffffffffffffffffffffffffffffffffffffffff1673ffffffffffffffffffffffffffffffffffffffff166370a08231306040518263ffffffff1660e01b815260040161077a91906137ee565b602060405180830381865afa158015610795573d5f803e3d5ffd5b505050506040513d601f19601f820116820180604052508101906107b991906141a5565b905060055f9054906101000a900473ffffffffffffffffffffffffffffffffffffffff1673ffffffffffffffffffffffffffffffffffffffff1663f2b9fdb860025f9054906101000a900473ffffffffffffffffffffffffffffffffffffffff16876040518363ffffffff1660e01b81526004016108389291906141d0565b5f604051808303815f87803b15801561084f575f80fd5b505af1158015610861573d5f803e3d5ffd5b505050505f60055f9054906101000a900473ffffffffffffffffffffffffffffffffffffffff1673ffffffffffffffffffffffffffffffffffffffff166370a08231306040518263ffffffff1660e01b81526004016108c091906137ee565b602060405180830381865afa1580156108db573d5f803e3d5ffd5b505050506040513d601f19601f820116820180604052508101906108ff91906141a5565b90505f828261090e91906141f7565b90505f60045f9054906101000a900473ffffffffffffffffffffffffffffffffffffffff1673ffffffffffffffffffffffffffffffffffffffff166370a08231306040518263ffffffff1660e01b815260040161096b91906137ee565b602060405180830381865afa158015610986573d5f803e3d5ffd5b505050506040513d601f19601f820116820180604052508101906109aa91906141a5565b905060055f9054906101000a900473ffffffffffffffffffffffffffffffffffffffff1673ffffffffffffffffffffffffffffffffffffffff1663110496e560045f9054906101000a900473ffffffffffffffffffffffffffffffffffffffff1660016040518363ffffffff1660e01b8152600401610a2a92919061422a565b5f604051808303815f87803b158015610a41575f80fd5b505af1158015610a53573d5f803e3d5ffd5b5050505060045f9054906101000a900473ffffffffffffffffffffffffffffffffffffffff1673ffffffffffffffffffffffffffffffffffffffff16636e553f6583306040518363ffffffff1660e01b8152600401610ab3929190614251565b6020604051808303815f875af1158015610acf573d5f803e3d5ffd5b505050506040513d601f19601f82011682018060405250810190610af391906141a5565b505f60045f9054906101000a900473ffffffffffffffffffffffffffffffffffffffff1673ffffffffffffffffffffffffffffffffffffffff166370a08231306040518263ffffffff1660e01b8152600401610b4f91906137ee565b602060405180830381865afa158015610b6a573d5f803e3d5ffd5b505050506040513d601f19601f82011682018060405250810190610b8e91906141a5565b90505f8282610b9d91906141f7565b90506040518061012001604052808b81526020015f81526020018881526020018281526020014381526020013373ffffffffffffffffffffffffffffffffffffffff1681526020018d73ffffffffffffffffffffffffffffffffffffffff16815260200160025f9054906101000a900473ffffffffffffffffffffffffffffffffffffffff1673ffffffffffffffffffffffffffffffffffffffff1681526020013373ffffffffffffffffffffffffffffffffffffffff1681525060088a8a604051610c6a929190613fff565b90815260200160405180910390205f820151815f01556020820151816001015560408201518160020155606082015181600301556080820151816004015560a0820151816005015f6101000a81548173ffffffffffffffffffffffffffffffffffffffff021916908373ffffffffffffffffffffffffffffffffffffffff16021790555060c0820151816006015f6101000a81548173ffffffffffffffffffffffffffffffffffffffff021916908373ffffffffffffffffffffffffffffffffffffffff16021790555060e0820151816007015f6101000a81548173ffffffffffffffffffffffffffffffffffffffff021916908373ffffffffffffffffffffffffffffffffffffffff160217905550610100820151816008015f6101000a81548173ffffffffffffffffffffffffffffffffffffffff021916908373ffffffffffffffffffffffffffffffffffffffff1602179055509050507f7fb8ae2fb0231ff28e8202af0572cedf8607148e5c7016d186005c598d00ff7b60025f9054906101000a900473ffffffffffffffffffffffffffffffffffffffff168d8c8a8d8d604051610e1e969594939291906142a4565b60405180910390a150505050505050610e35613243565b5050505050565b6009602052805f5260405f205f91509050805f015f9054906101000a900460ff1690805f0160019054906101000a900460ff16905082565b610e7c61324c565b6001600a5f8373ffffffffffffffffffffffffffffffffffffffff1673ffffffffffffffffffffffffffffffffffffffff1681526020019081526020015f205f6101000a81548160ff02191690831515021790555050565b610edc61324c565b8073ffffffffffffffffffffffffffffffffffffffff1663b7034f7e823060016040518463ffffffff1660e01b8152600401610f1a939291906142fe565b5f604051808303815f87803b158015610f31575f80fd5b505af1158015610f43573d5f803e3d5ffd5b50505050610ff0610f5261298c565b8273ffffffffffffffffffffffffffffffffffffffff166370a08231306040518263ffffffff1660e01b8152600401610f8b91906137ee565b602060405180830381865afa158015610fa6573d5f803e3d5ffd5b505050506040513d601f19601f82011682018060405250810190610fca91906141a5565b8373ffffffffffffffffffffffffffffffffffffffff166132ca9092919063ffffffff16565b50565b610ffb61324c565b611003613350565b565b6008818051602081018201805184825260208301602085012081835280955050505050505f91509050805f015490806001015490806002015490806003015490806004015490806005015f9054906101000a900473ffffffffffffffffffffffffffffffffffffffff1690806006015f9054906101000a900473ffffffffffffffffffffffffffffffffffffffff1690806007015f9054906101000a900473ffffffffffffffffffffffffffffffffffffffff1690806008015f9054906101000a900473ffffffffffffffffffffffffffffffffffffffff16905089565b6110eb612fd6565b5f82829050118015611101575060198282905011155b611140576040517f08c379a00000000000000000000000000000000000000000000000000000000081526004016111379061437d565b60405180910390fd5b5f808383905090505f805f5b838510156116c2575f8787878181106111685761116761439b565b5b905060200281019061117a91906143d4565b8080601f0160208091040260200160405190810160405280939291908181526020018383808284375f81840152601f19601f8201169050808301925050505050505090505f6008826040516111cf9190614466565b90815260200160405180910390205f015403611220576040517f08c379a0000000000000000000000000000000000000000000000000000000008152600401611217906144c6565b60405180910390fd5b426008826040516112319190614466565b9081526020016040518091039020600201541015611284576040517f08c379a000000000000000000000000000000000000000000000000000000000815260040161127b9061452e565b60405180910390fd5b5f6008826040516112959190614466565b90815260200160405180910390206006015f9054906101000a900473ffffffffffffffffffffffffffffffffffffffff1690505f6008836040516112d99190614466565b90815260200160405180910390206005015f9054906101000a900473ffffffffffffffffffffffffffffffffffffffff1690505f60088460405161131d9190614466565b90815260200160405180910390206008015f9054906101000a900473ffffffffffffffffffffffffffffffffffffffff1690505f6008856040516113619190614466565b90815260200160405180910390206007015f9054906101000a900473ffffffffffffffffffffffffffffffffffffffff1690505f6008866040516113a59190614466565b90815260200160405180910390205f015490505f6008876040516113c99190614466565b90815260200160405180910390206001015490505f6008886040516113ee9190614466565b90815260200160405180910390206003015490505f6008896040516114139190614466565b9081526020016040518091039020600401544361143091906141f7565b90505f60088a6040516114439190614466565b90815260200160405180910390205f01819055505f8185611464919061454c565b9050808b611472919061415e565b9a50828d611480919061415e565b9c50848c61148e919061415e565b9b5060076040518061012001604052808781526020015f81526020018681526020018481526020018a73ffffffffffffffffffffffffffffffffffffffff1681526020018b73ffffffffffffffffffffffffffffffffffffffff1681526020018873ffffffffffffffffffffffffffffffffffffffff1681526020018973ffffffffffffffffffffffffffffffffffffffff1681526020018c815250908060018154018082558091505060019003905f5260205f2090600902015f909190919091505f820151815f01556020820151816001015560408201518160020155606082015181600301556080820151816004015f6101000a81548173ffffffffffffffffffffffffffffffffffffffff021916908373ffffffffffffffffffffffffffffffffffffffff16021790555060a0820151816005015f6101000a81548173ffffffffffffffffffffffffffffffffffffffff021916908373ffffffffffffffffffffffffffffffffffffffff16021790555060c0820151816006015f6101000a81548173ffffffffffffffffffffffffffffffffffffffff021916908373ffffffffffffffffffffffffffffffffffffffff16021790555060e0820151816007015f6101000a81548173ffffffffffffffffffffffffffffffffffffffff021916908373ffffffffffffffffffffffffffffffffffffffff1602179055506101008201518160080190816116a49190614787565b5050508e6116b190614856565b9e505050505050505050505061114c565b60045f9054906101000a900473ffffffffffffffffffffffffffffffffffffffff1673ffffffffffffffffffffffffffffffffffffffff1663ba0876528430306040518463ffffffff1660e01b81526004016117209392919061489d565b6020604051808303815f875af115801561173c573d5f803e3d5ffd5b505050506040513d601f19601f8201168201806040525081019061176091906141a5565b505f73c3d688b66703497daa19211eedff47f25384cdc373ffffffffffffffffffffffffffffffffffffffff166370a08231306040518263ffffffff1660e01b81526004016117af91906137ee565b602060405180830381865afa1580156117ca573d5f803e3d5ffd5b505050506040513d601f19601f820116820180604052508101906117ee91906141a5565b905073c3d688b66703497daa19211eedff47f25384cdc373ffffffffffffffffffffffffffffffffffffffff1663f3fef3a373c3d688b66703497daa19211eedff47f25384cdc3836040518363ffffffff1660e01b81526004016118539291906141d0565b5f604051808303815f87803b15801561186a575f80fd5b505af115801561187c573d5f803e3d5ffd5b505050505f8373a0b86991c6218b36c1d19d4a2e9eb0ce3606eb4873ffffffffffffffffffffffffffffffffffffffff166370a08231306040518263ffffffff1660e01b81526004016118cf91906137ee565b602060405180830381865afa1580156118ea573d5f803e3d5ffd5b505050506040513d601f19601f8201168201806040525081019061190e91906141a5565b61191891906141f7565b90505b600780549050871015611d9d575f836007898154811061193e5761193d61439b565b5b905f5260205f2090600902016003015461195891906148ff565b82611963919061454c565b90505f6007898154811061197a5761197961439b565b5b905f5260205f2090600902016005015f9054906101000a900473ffffffffffffffffffffffffffffffffffffffff1690505f60078a815481106119c0576119bf61439b565b5b905f5260205f2090600902016004015f9054906101000a900473ffffffffffffffffffffffffffffffffffffffff1690505f60078b81548110611a0657611a0561439b565b5b905f5260205f2090600902016007015f9054906101000a900473ffffffffffffffffffffffffffffffffffffffff1690505f60078c81548110611a4c57611a4b61439b565b5b905f5260205f2090600902016006015f9054906101000a900473ffffffffffffffffffffffffffffffffffffffff1690505f60078d81548110611a9257611a9161439b565b5b905f5260205f2090600902015f015490505f60078e81548110611ab857611ab761439b565b5b905f5260205f2090600902016002015490505f60078f81548110611adf57611ade61439b565b5b905f5260205f2090600902016008018054611af9906145ba565b80601f0160208091040260200160405190810160405280929190818152602001828054611b25906145ba565b8015611b705780601f10611b4757610100808354040283529160200191611b70565b820191905f5260205f20905b815481529060010190602001808311611b5357829003601f168201915b5050505050905060011515600a5f8773ffffffffffffffffffffffffffffffffffffffff1673ffffffffffffffffffffffffffffffffffffffff1681526020019081526020015f205f9054906101000a900460ff16151503611cb957611c2360035f9054906101000a900473ffffffffffffffffffffffffffffffffffffffff168385611bfd919061415e565b8673ffffffffffffffffffffffffffffffffffffffff166130f89092919063ffffffff16565b60035f9054906101000a900473ffffffffffffffffffffffffffffffffffffffff1673ffffffffffffffffffffffffffffffffffffffff1663c219a14d85898685878b6040518763ffffffff1660e01b8152600401611c8796959493929190614981565b5f604051808303815f87803b158015611c9e575f80fd5b505af1158015611cb0573d5f803e3d5ffd5b50505050611d18565b611ce487848673ffffffffffffffffffffffffffffffffffffffff166132ca9092919063ffffffff16565b5f8214611d1757611d1685838673ffffffffffffffffffffffffffffffffffffffff166132ca9092919063ffffffff16565b5b5b611d4386898673ffffffffffffffffffffffffffffffffffffffff166132ca9092919063ffffffff16565b8e611d4d90614856565b9e507f5b33d4624fc8d2068816b189e0ee578babec8e8bd3cbcae37c7790de08d25b08848887868686604051611d88969594939291906149e7565b60405180910390a1505050505050505061191b565b50505050505050611dac613243565b5050565b5f8060149054906101000a900460ff16905090565b60055f9054906101000a900473ffffffffffffffffffffffffffffffffffffffff1681565b611df261324c565b8060035f6101000a81548173ffffffffffffffffffffffffffffffffffffffff021916908373ffffffffffffffffffffffffffffffffffffffff16021790555050565b611e3d61324c565b611e465f6133b1565b565b611e50612fd6565b611e58613025565b5f8403611e9a576040517f08c379a0000000000000000000000000000000000000000000000000000000008152600401611e9190613fb3565b60405180910390fd5b3373ffffffffffffffffffffffffffffffffffffffff1660088383604051611ec3929190613fff565b90815260200160405180910390206005015f9054906101000a900473ffffffffffffffffffffffffffffffffffffffff1673ffffffffffffffffffffffffffffffffffffffff1603611f4a576040517f08c379a0000000000000000000000000000000000000000000000000000000008152600401611f4190614061565b60405180910390fd5b8673ffffffffffffffffffffffffffffffffffffffff1660088383604051611f73929190613fff565b90815260200160405180910390206006015f9054906101000a900473ffffffffffffffffffffffffffffffffffffffff1673ffffffffffffffffffffffffffffffffffffffff1603611ffa576040517f08c379a0000000000000000000000000000000000000000000000000000000008152600401611ff190614061565b60405180910390fd5b5f73ffffffffffffffffffffffffffffffffffffffff168773ffffffffffffffffffffffffffffffffffffffff1603612068576040517f08c379a000000000000000000000000000000000000000000000000000000000815260040161205f906140c9565b60405180910390fd5b5f73ffffffffffffffffffffffffffffffffffffffff168673ffffffffffffffffffffffffffffffffffffffff16036120d6576040517f08c379a00000000000000000000000000000000000000000000000000000000081526004016120cd90614a97565b60405180910390fd5b5f8303612118576040517f08c379a000000000000000000000000000000000000000000000000000000000815260040161210f90614aff565b60405180910390fd5b5f808660ff160361212f578560ff16905080612155565b620151808660ff166121419190614122565b62ffffff1642612151919061415e565b9050805b506121af33308688612167919061415e565b60025f9054906101000a900473ffffffffffffffffffffffffffffffffffffffff1673ffffffffffffffffffffffffffffffffffffffff1661306f909392919063ffffffff16565b61222760055f9054906101000a900473ffffffffffffffffffffffffffffffffffffffff1685876121e0919061415e565b60025f9054906101000a900473ffffffffffffffffffffffffffffffffffffffff1673ffffffffffffffffffffffffffffffffffffffff166130f89092919063ffffffff16565b5f60055f9054906101000a900473ffffffffffffffffffffffffffffffffffffffff1673ffffffffffffffffffffffffffffffffffffffff166370a08231306040518263ffffffff1660e01b815260040161228291906137ee565b602060405180830381865afa15801561229d573d5f803e3d5ffd5b505050506040513d601f19601f820116820180604052508101906122c191906141a5565b905060055f9054906101000a900473ffffffffffffffffffffffffffffffffffffffff1673ffffffffffffffffffffffffffffffffffffffff1663f2b9fdb860025f9054906101000a900473ffffffffffffffffffffffffffffffffffffffff16878961232e919061415e565b6040518363ffffffff1660e01b815260040161234b9291906141d0565b5f604051808303815f87803b158015612362575f80fd5b505af1158015612374573d5f803e3d5ffd5b505050505f60055f9054906101000a900473ffffffffffffffffffffffffffffffffffffffff1673ffffffffffffffffffffffffffffffffffffffff166370a08231306040518263ffffffff1660e01b81526004016123d391906137ee565b602060405180830381865afa1580156123ee573d5f803e3d5ffd5b505050506040513d601f19601f8201168201806040525081019061241291906141a5565b90505f828261242191906141f7565b90505f60045f9054906101000a900473ffffffffffffffffffffffffffffffffffffffff1673ffffffffffffffffffffffffffffffffffffffff166370a08231306040518263ffffffff1660e01b815260040161247e91906137ee565b602060405180830381865afa158015612499573d5f803e3d5ffd5b505050506040513d601f19601f820116820180604052508101906124bd91906141a5565b905060055f9054906101000a900473ffffffffffffffffffffffffffffffffffffffff1673ffffffffffffffffffffffffffffffffffffffff1663110496e560045f9054906101000a900473ffffffffffffffffffffffffffffffffffffffff1660016040518363ffffffff1660e01b815260040161253d92919061422a565b5f604051808303815f87803b158015612554575f80fd5b505af1158015612566573d5f803e3d5ffd5b5050505060045f9054906101000a900473ffffffffffffffffffffffffffffffffffffffff1673ffffffffffffffffffffffffffffffffffffffff16636e553f6583306040518363ffffffff1660e01b81526004016125c6929190614251565b6020604051808303815f875af11580156125e2573d5f803e3d5ffd5b505050506040513d601f19601f8201168201806040525081019061260691906141a5565b505f60045f9054906101000a900473ffffffffffffffffffffffffffffffffffffffff1673ffffffffffffffffffffffffffffffffffffffff166370a08231306040518263ffffffff1660e01b815260040161266291906137ee565b602060405180830381865afa15801561267d573d5f803e3d5ffd5b505050506040513d601f19601f820116820180604052508101906126a191906141a5565b90505f82826126b091906141f7565b90506040518061012001604052808c81526020018b81526020018881526020018281526020014381526020013373ffffffffffffffffffffffffffffffffffffffff1681526020018f73ffffffffffffffffffffffffffffffffffffffff16815260200160025f9054906101000a900473ffffffffffffffffffffffffffffffffffffffff1673ffffffffffffffffffffffffffffffffffffffff1681526020018e73ffffffffffffffffffffffffffffffffffffffff1681525060088a8a60405161277d929190613fff565b90815260200160405180910390205f820151815f01556020820151816001015560408201518160020155606082015181600301556080820151816004015560a0820151816005015f6101000a81548173ffffffffffffffffffffffffffffffffffffffff021916908373ffffffffffffffffffffffffffffffffffffffff16021790555060c0820151816006015f6101000a81548173ffffffffffffffffffffffffffffffffffffffff021916908373ffffffffffffffffffffffffffffffffffffffff16021790555060e0820151816007015f6101000a81548173ffffffffffffffffffffffffffffffffffffffff021916908373ffffffffffffffffffffffffffffffffffffffff160217905550610100820151816008015f6101000a81548173ffffffffffffffffffffffffffffffffffffffff021916908373ffffffffffffffffffffffffffffffffffffffff1602179055509050507f0e0914d042bfddaed54f8a0264ee56403da52452b6fe5b89f51eb91a92617cec60025f9054906101000a900473ffffffffffffffffffffffffffffffffffffffff168f8f8e8b8f8f8f604051612935989796959493929190614b1d565b60405180910390a15050505050505061294c613243565b50505050505050565b60045f9054906101000a900473ffffffffffffffffffffffffffffffffffffffff1681565b61298261324c565b61298a613472565b565b5f805f9054906101000a900473ffffffffffffffffffffffffffffffffffffffff16905090565b82828080601f0160208091040260200160405190810160405280939291908181526020018383808284375f81840152601f19601f820116905080830192505050505050505f600882604051612a089190614466565b90815260200160405180910390205f015403612a59576040517f08c379a0000000000000000000000000000000000000000000000000000000008152600401612a5090614bdd565b60405180910390fd5b83838080601f0160208091040260200160405190810160405280939291908181526020018383808284375f81840152601f19601f82011690508083019250505050505050600881604051612aad9190614466565b90815260200160405180910390206005015f9054906101000a900473ffffffffffffffffffffffffffffffffffffffff1673ffffffffffffffffffffffffffffffffffffffff163373ffffffffffffffffffffffffffffffffffffffff1614612b4b576040517f08c379a0000000000000000000000000000000000000000000000000000000008152600401612b4290614c45565b60405180910390fd5b612b53612fd6565b612b5b613025565b5f60088686604051612b6e929190613fff565b90815260200160405180910390206002015414612bc0576040517f08c379a0000000000000000000000000000000000000000000000000000000008152600401612bb790614cd3565b60405180910390fd5b6201518042612bcf919061415e565b831015612c11576040517f08c379a0000000000000000000000000000000000000000000000000000000008152600401612c0890614d61565b60405180910390fd5b8260088686604051612c24929190613fff565b9081526020016040518091039020600201819055505f60088686604051612c4c929190613fff565b90815260200160405180910390206006015f9054906101000a900473ffffffffffffffffffffffffffffffffffffffff1690507f6319a20e65431ca4d6ef3707f86cd051713a4cb3c9d1cc11e9c2a73802b7ac8f3382888888604051612cb6959493929190614d7f565b60405180910390a150612cc7613243565b5050505050565b60045f9054906101000a900473ffffffffffffffffffffffffffffffffffffffff1673ffffffffffffffffffffffffffffffffffffffff1663ba0876528230306040518463ffffffff1660e01b8152600401612d2c9392919061489d565b6020604051808303815f875af1158015612d48573d5f803e3d5ffd5b505050506040513d601f19601f82011682018060405250810190612d6c91906141a5565b5050565b600a602052805f5260405f205f915054906101000a900460ff1681565b8173ffffffffffffffffffffffffffffffffffffffff1663f3fef3a383836040518363ffffffff1660e01b8152600401612dc89291906141d0565b5f604051808303815f87803b158015612ddf575f80fd5b505af1158015612df1573d5f803e3d5ffd5b505050505050565b60078181548110612e08575f80fd5b905f5260205f2090600902015f91509050805f015490806001015490806002015490806003015490806004015f9054906101000a900473ffffffffffffffffffffffffffffffffffffffff1690806005015f9054906101000a900473ffffffffffffffffffffffffffffffffffffffff1690806006015f9054906101000a900473ffffffffffffffffffffffffffffffffffffffff1690806007015f9054906101000a900473ffffffffffffffffffffffffffffffffffffffff1690806008018054612ed3906145ba565b80601f0160208091040260200160405190810160405280929190818152602001828054612eff906145ba565b8015612f4a5780601f10612f2157610100808354040283529160200191612f4a565b820191905f5260205f20905b815481529060010190602001808311612f2d57829003601f168201915b5050505050905089565b612f5c61324c565b5f73ffffffffffffffffffffffffffffffffffffffff168173ffffffffffffffffffffffffffffffffffffffff1603612fca576040517f08c379a0000000000000000000000000000000000000000000000000000000008152600401612fc190614e3b565b60405180910390fd5b612fd3816133b1565b50565b60026001540361301b576040517f08c379a000000000000000000000000000000000000000000000000000000000815260040161301290614ea3565b60405180910390fd5b6002600181905550565b61302d611db0565b1561306d576040517f08c379a000000000000000000000000000000000000000000000000000000000815260040161306490614f0b565b60405180910390fd5b565b6130f2846323b872dd60e01b85858560405160240161309093929190614f29565b604051602081830303815290604052907bffffffffffffffffffffffffffffffffffffffffffffffffffffffff19166020820180517bffffffffffffffffffffffffffffffffffffffffffffffffffffffff83818316178352505050506134d4565b50505050565b5f81148061317e57505f8373ffffffffffffffffffffffffffffffffffffffff1663dd62ed3e30856040518363ffffffff1660e01b815260040161313d929190614f5e565b602060405180830381865afa158015613158573d5f803e3d5ffd5b505050506040513d601f19601f8201168201806040525081019061317c91906141a5565b145b6131bd576040517f08c379a00000000000000000000000000000000000000000000000000000000081526004016131b490614ff5565b60405180910390fd5b61323e8363095ea7b360e01b84846040516024016131dc9291906141d0565b604051602081830303815290604052907bffffffffffffffffffffffffffffffffffffffffffffffffffffffff19166020820180517bffffffffffffffffffffffffffffffffffffffffffffffffffffffff83818316178352505050506134d4565b505050565b60018081905550565b61325461359a565b73ffffffffffffffffffffffffffffffffffffffff1661327261298c565b73ffffffffffffffffffffffffffffffffffffffff16146132c8576040517f08c379a00000000000000000000000000000000000000000000000000000000081526004016132bf9061505d565b60405180910390fd5b565b61334b8363a9059cbb60e01b84846040516024016132e99291906141d0565b604051602081830303815290604052907bffffffffffffffffffffffffffffffffffffffffffffffffffffffff19166020820180517bffffffffffffffffffffffffffffffffffffffffffffffffffffffff83818316178352505050506134d4565b505050565b6133586135a1565b5f8060146101000a81548160ff0219169083151502179055507f5db9ee0a495bf2e6ff9c91a7834c1ba4fdd244a5e8aa4e537bd38aeae4b073aa61339a61359a565b6040516133a791906137ee565b60405180910390a1565b5f805f9054906101000a900473ffffffffffffffffffffffffffffffffffffffff169050815f806101000a81548173ffffffffffffffffffffffffffffffffffffffff021916908373ffffffffffffffffffffffffffffffffffffffff1602179055508173ffffffffffffffffffffffffffffffffffffffff168173ffffffffffffffffffffffffffffffffffffffff167f8be0079c531659141344cd1fd0a4f28419497f9722a3daafe3b4186f6b6457e060405160405180910390a35050565b61347a613025565b60015f60146101000a81548160ff0219169083151502179055507f62e78cea01bee320cd4e420270b5ea74000d11b0c9f74754ebdbfc544b05a2586134bd61359a565b6040516134ca91906137ee565b60405180910390a1565b5f613535826040518060400160405280602081526020017f5361666545524332303a206c6f772d6c6576656c2063616c6c206661696c65648152508573ffffffffffffffffffffffffffffffffffffffff166135ea9092919063ffffffff16565b90505f8151148061355657508080602001905181019061355591906150a5565b5b613595576040517f08c379a000000000000000000000000000000000000000000000000000000000815260040161358c90615140565b60405180910390fd5b505050565b5f33905090565b6135a9611db0565b6135e8576040517f08c379a00000000000000000000000000000000000000000000000000000000081526004016135df906151a8565b60405180910390fd5b565b60606135f884845f85613601565b90509392505050565b606082471015613646576040517f08c379a000000000000000000000000000000000000000000000000000000000815260040161363d90615236565b60405180910390fd5b5f808673ffffffffffffffffffffffffffffffffffffffff16858760405161366e9190614466565b5f6040518083038185875af1925050503d805f81146136a8576040519150601f19603f3d011682016040523d82523d5f602084013e6136ad565b606091505b50915091506136be878383876136ca565b92505050949350505050565b6060831561372b575f835103613723576136e38561373e565b613722576040517f08c379a00000000000000000000000000000000000000000000000000000000081526004016137199061529e565b60405180910390fd5b5b829050613736565b6137358383613760565b5b949350505050565b5f808273ffffffffffffffffffffffffffffffffffffffff163b119050919050565b5f825111156137725781518083602001fd5b806040517f08c379a00000000000000000000000000000000000000000000000000000000081526004016137a691906152fe565b60405180910390fd5b5f73ffffffffffffffffffffffffffffffffffffffff82169050919050565b5f6137d8826137af565b9050919050565b6137e8816137ce565b82525050565b5f6020820190506138015f8301846137df565b92915050565b5f604051905090565b5f80fd5b5f80fd5b613821816137ce565b811461382b575f80fd5b50565b5f8135905061383c81613818565b92915050565b5f60ff82169050919050565b61385781613842565b8114613861575f80fd5b50565b5f813590506138728161384e565b92915050565b5f819050919050565b61388a81613878565b8114613894575f80fd5b50565b5f813590506138a581613881565b92915050565b5f80fd5b5f80fd5b5f80fd5b5f8083601f8401126138cc576138cb6138ab565b5b8235905067ffffffffffffffff8111156138e9576138e86138af565b5b602083019150836001820283011115613905576139046138b3565b5b9250929050565b5f805f805f6080868803121561392557613924613810565b5b5f6139328882890161382e565b955050602061394388828901613864565b945050604061395488828901613897565b935050606086013567ffffffffffffffff81111561397557613974613814565b5b613981888289016138b7565b92509250509295509295909350565b5f602082840312156139a5576139a4613810565b5b5f6139b28482850161382e565b91505092915050565b5f8115159050919050565b6139cf816139bb565b82525050565b6139de81613842565b82525050565b5f6040820190506139f75f8301856139c6565b613a0460208301846139d5565b9392505050565b5f80fd5b5f601f19601f8301169050919050565b7f4e487b71000000000000000000000000000000000000000000000000000000005f52604160045260245ffd5b613a5582613a0f565b810181811067ffffffffffffffff82111715613a7457613a73613a1f565b5b80604052505050565b5f613a86613807565b9050613a928282613a4c565b919050565b5f67ffffffffffffffff821115613ab157613ab0613a1f565b5b613aba82613a0f565b9050602081019050919050565b828183375f83830152505050565b5f613ae7613ae284613a97565b613a7d565b905082815260208101848484011115613b0357613b02613a0b565b5b613b0e848285613ac7565b509392505050565b5f82601f830112613b2a57613b296138ab565b5b8135613b3a848260208601613ad5565b91505092915050565b5f60208284031215613b5857613b57613810565b5b5f82013567ffffffffffffffff811115613b7557613b74613814565b5b613b8184828501613b16565b91505092915050565b613b9381613878565b82525050565b5f61012082019050613bad5f83018c613b8a565b613bba602083018b613b8a565b613bc7604083018a613b8a565b613bd46060830189613b8a565b613be16080830188613b8a565b613bee60a08301876137df565b613bfb60c08301866137df565b613c0860e08301856137df565b613c166101008301846137df565b9a9950505050505050505050565b5f8083601f840112613c3957613c386138ab565b5b8235905067ffffffffffffffff811115613c5657613c556138af565b5b602083019150836020820283011115613c7257613c716138b3565b5b9250929050565b5f8060208385031215613c8f57613c8e613810565b5b5f83013567ffffffffffffffff811115613cac57613cab613814565b5b613cb885828601613c24565b92509250509250929050565b5f602082019050613cd75f8301846139c6565b92915050565b5f805f805f805f60c0888a031215613cf857613cf7613810565b5b5f613d058a828b0161382e565b9750506020613d168a828b0161382e565b9650506040613d278a828b01613864565b9550506060613d388a828b01613897565b9450506080613d498a828b01613897565b93505060a088013567ffffffffffffffff811115613d6a57613d69613814565b5b613d768a828b016138b7565b925092505092959891949750929550565b5f805f60408486031215613d9e57613d9d613810565b5b5f84013567ffffffffffffffff811115613dbb57613dba613814565b5b613dc7868287016138b7565b93509350506020613dda86828701613897565b9150509250925092565b5f60208284031215613df957613df8613810565b5b5f613e0684828501613897565b91505092915050565b5f8060408385031215613e2557613e24613810565b5b5f613e328582860161382e565b9250506020613e4385828601613897565b9150509250929050565b5f81519050919050565b5f82825260208201905092915050565b5f5b83811015613e84578082015181840152602081019050613e69565b5f8484015250505050565b5f613e9982613e4d565b613ea38185613e57565b9350613eb3818560208601613e67565b613ebc81613a0f565b840191505092915050565b5f61012082019050613edb5f83018c613b8a565b613ee8602083018b613b8a565b613ef5604083018a613b8a565b613f026060830189613b8a565b613f0f60808301886137df565b613f1c60a08301876137df565b613f2960c08301866137df565b613f3660e08301856137df565b818103610100830152613f498184613e8f565b90509a9950505050505050505050565b5f82825260208201905092915050565b7f3020416d6f756e740000000000000000000000000000000000000000000000005f82015250565b5f613f9d600883613f59565b9150613fa882613f69565b602082019050919050565b5f6020820190508181035f830152613fca81613f91565b9050919050565b5f81905092915050565b5f613fe68385613fd1565b9350613ff3838584613ac7565b82840190509392505050565b5f61400b828486613fdb565b91508190509392505050565b7f5061796d656e74207265666572656e636520616c7265616479207573656400005f82015250565b5f61404b601e83613f59565b915061405682614017565b602082019050919050565b5f6020820190508181035f8301526140788161403f565b9050919050565b7f50617965652069732030206164647265737300000000000000000000000000005f82015250565b5f6140b3601283613f59565b91506140be8261407f565b602082019050919050565b5f6020820190508181035f8301526140e0816140a7565b9050919050565b5f62ffffff82169050919050565b7f4e487b71000000000000000000000000000000000000000000000000000000005f52601160045260245ffd5b5f61412c826140e7565b9150614137836140e7565b9250828202614145816140e7565b9150808214614157576141566140f5565b5b5092915050565b5f61416882613878565b915061417383613878565b925082820190508082111561418b5761418a6140f5565b5b92915050565b5f8151905061419f81613881565b92915050565b5f602082840312156141ba576141b9613810565b5b5f6141c784828501614191565b91505092915050565b5f6040820190506141e35f8301856137df565b6141f06020830184613b8a565b9392505050565b5f61420182613878565b915061420c83613878565b9250828203905081811115614224576142236140f5565b5b92915050565b5f60408201905061423d5f8301856137df565b61424a60208301846139c6565b9392505050565b5f6040820190506142645f830185613b8a565b61427160208301846137df565b9392505050565b5f6142838385613e57565b9350614290838584613ac7565b61429983613a0f565b840190509392505050565b5f60a0820190506142b75f8301896137df565b6142c460208301886137df565b6142d16040830187613b8a565b6142de6060830186613b8a565b81810360808301526142f1818486614278565b9050979650505050505050565b5f6060820190506143115f8301866137df565b61431e60208301856137df565b61432b60408301846139c6565b949350505050565b7f496e76616c6964206172726179206c656e6774680000000000000000000000005f82015250565b5f614367601483613f59565b915061437282614333565b602082019050919050565b5f6020820190508181035f8301526143948161435b565b9050919050565b7f4e487b71000000000000000000000000000000000000000000000000000000005f52603260045260245ffd5b5f80fd5b5f80fd5b5f80fd5b5f80833560016020038436030381126143f0576143ef6143c8565b5b80840192508235915067ffffffffffffffff821115614412576144116143cc565b5b60208301925060018202360383131561442e5761442d6143d0565b5b509250929050565b5f61444082613e4d565b61444a8185613fd1565b935061445a818560208601613e67565b80840191505092915050565b5f6144718284614436565b915081905092915050565b7f556e6b6e6f776e207061796d656e74207265666572656e6365000000000000005f82015250565b5f6144b0601983613f59565b91506144bb8261447c565b602082019050919050565b5f6020820190508181035f8301526144dd816144a4565b9050919050565b7f5265666572656e6365206e6f74206475652079657400000000000000000000005f82015250565b5f614518601583613f59565b9150614523826144e4565b602082019050919050565b5f6020820190508181035f8301526145458161450c565b9050919050565b5f61455682613878565b915061456183613878565b925082820261456f81613878565b91508282048414831517614586576145856140f5565b5b5092915050565b7f4e487b71000000000000000000000000000000000000000000000000000000005f52602260045260245ffd5b5f60028204905060018216806145d157607f821691505b6020821081036145e4576145e361458d565b5b50919050565b5f819050815f5260205f209050919050565b5f6020601f8301049050919050565b5f82821b905092915050565b5f600883026146467fffffffffffffffffffffffffffffffffffffffffffffffffffffffffffffffff8261460b565b614650868361460b565b95508019841693508086168417925050509392505050565b5f819050919050565b5f61468b61468661468184613878565b614668565b613878565b9050919050565b5f819050919050565b6146a483614671565b6146b86146b082614692565b848454614617565b825550505050565b5f90565b6146cc6146c0565b6146d781848461469b565b505050565b5b818110156146fa576146ef5f826146c4565b6001810190506146dd565b5050565b601f82111561473f57614710816145ea565b614719846145fc565b81016020851015614728578190505b61473c614734856145fc565b8301826146dc565b50505b505050565b5f82821c905092915050565b5f61475f5f1984600802614744565b1980831691505092915050565b5f6147778383614750565b9150826002028217905092915050565b61479082613e4d565b67ffffffffffffffff8111156147a9576147a8613a1f565b5b6147b382546145ba565b6147be8282856146fe565b5f60209050601f8311600181146147ef575f84156147dd578287015190505b6147e7858261476c565b86555061484e565b601f1984166147fd866145ea565b5f5b82811015614824578489015182556001820191506020850194506020810190506147ff565b86831015614841578489015161483d601f891682614750565b8355505b6001600288020188555050505b505050505050565b5f61486082613878565b91507fffffffffffffffffffffffffffffffffffffffffffffffffffffffffffffffff8203614892576148916140f5565b5b600182019050919050565b5f6060820190506148b05f830186613b8a565b6148bd60208301856137df565b6148ca60408301846137df565b949350505050565b7f4e487b71000000000000000000000000000000000000000000000000000000005f52601260045260245ffd5b5f61490982613878565b915061491483613878565b925082614924576149236148d2565b5b828204905092915050565b5f61494961494461493f846137af565b614668565b6137af565b9050919050565b5f61495a8261492f565b9050919050565b5f61496b82614950565b9050919050565b61497b81614961565b82525050565b5f60c0820190506149945f8301896137df565b6149a16020830188614972565b6149ae6040830187613b8a565b81810360608301526149c08186613e8f565b90506149cf6080830185613b8a565b6149dc60a0830184614972565b979650505050505050565b5f60c0820190506149fa5f8301896137df565b614a076020830188614972565b614a146040830187614972565b614a216060830186613b8a565b614a2e6080830185613b8a565b81810360a0830152614a408184613e8f565b9050979650505050505050565b7f46656520616464726573732069732030206164647265737300000000000000005f82015250565b5f614a81601883613f59565b9150614a8c82614a4d565b602082019050919050565b5f6020820190508181035f830152614aae81614a75565b9050919050565b7f302046656520616d6f756e7400000000000000000000000000000000000000005f82015250565b5f614ae9600c83613f59565b9150614af482614ab5565b602082019050919050565b5f6020820190508181035f830152614b1681614add565b9050919050565b5f60e082019050614b305f83018b6137df565b614b3d602083018a6137df565b614b4a60408301896137df565b614b576060830188613b8a565b614b646080830187613b8a565b614b7160a0830186613b8a565b81810360c0830152614b84818486614278565b90509998505050505050505050565b7f4e6f207072657061796d656e7420666f756e64000000000000000000000000005f82015250565b5f614bc7601383613f59565b9150614bd282614b93565b602082019050919050565b5f6020820190508181035f830152614bf481614bbb565b9050919050565b7f4e6f7420417574686f72697a65640000000000000000000000000000000000005f82015250565b5f614c2f600e83613f59565b9150614c3a82614bfb565b602082019050919050565b5f6020820190508181035f830152614c5c81614c23565b9050919050565b7f596f7572207061796d656e74207265666572656e636520616c726561647920685f8201527f617320612064756520646174652061737369676e656400000000000000000000602082015250565b5f614cbd603683613f59565b9150614cc882614c63565b604082019050919050565b5f6020820190508181035f830152614cea81614cb1565b9050919050565b7f4e6577206475652064617465206e6565647320746f206265203e20626c6f636b5f8201527f2e74696d657374616d70202b2031206461790000000000000000000000000000602082015250565b5f614d4b603283613f59565b9150614d5682614cf1565b604082019050919050565b5f6020820190508181035f830152614d7881614d3f565b9050919050565b5f608082019050614d925f8301886137df565b614d9f60208301876137df565b8181036040830152614db2818587614278565b9050614dc16060830184613b8a565b9695505050505050565b7f4f776e61626c653a206e6577206f776e657220697320746865207a65726f20615f8201527f6464726573730000000000000000000000000000000000000000000000000000602082015250565b5f614e25602683613f59565b9150614e3082614dcb565b604082019050919050565b5f6020820190508181035f830152614e5281614e19565b9050919050565b7f5265656e7472616e637947756172643a207265656e7472616e742063616c6c005f82015250565b5f614e8d601f83613f59565b9150614e9882614e59565b602082019050919050565b5f6020820190508181035f830152614eba81614e81565b9050919050565b7f5061757361626c653a20706175736564000000000000000000000000000000005f82015250565b5f614ef5601083613f59565b9150614f0082614ec1565b602082019050919050565b5f6020820190508181035f830152614f2281614ee9565b9050919050565b5f606082019050614f3c5f8301866137df565b614f4960208301856137df565b614f566040830184613b8a565b949350505050565b5f604082019050614f715f8301856137df565b614f7e60208301846137df565b9392505050565b7f5361666545524332303a20617070726f76652066726f6d206e6f6e2d7a65726f5f8201527f20746f206e6f6e2d7a65726f20616c6c6f77616e636500000000000000000000602082015250565b5f614fdf603683613f59565b9150614fea82614f85565b604082019050919050565b5f6020820190508181035f83015261500c81614fd3565b9050919050565b7f4f776e61626c653a2063616c6c6572206973206e6f7420746865206f776e65725f82015250565b5f615047602083613f59565b915061505282615013565b602082019050919050565b5f6020820190508181035f8301526150748161503b565b9050919050565b615084816139bb565b811461508e575f80fd5b50565b5f8151905061509f8161507b565b92915050565b5f602082840312156150ba576150b9613810565b5b5f6150c784828501615091565b91505092915050565b7f5361666545524332303a204552433230206f7065726174696f6e20646964206e5f8201527f6f74207375636365656400000000000000000000000000000000000000000000602082015250565b5f61512a602a83613f59565b9150615135826150d0565b604082019050919050565b5f6020820190508181035f8301526151578161511e565b9050919050565b7f5061757361626c653a206e6f74207061757365640000000000000000000000005f82015250565b5f615192601483613f59565b915061519d8261515e565b602082019050919050565b5f6020820190508181035f8301526151bf81615186565b9050919050565b7f416464726573733a20696e73756666696369656e742062616c616e636520666f5f8201527f722063616c6c0000000000000000000000000000000000000000000000000000602082015250565b5f615220602683613f59565b915061522b826151c6565b604082019050919050565b5f6020820190508181035f83015261524d81615214565b9050919050565b7f416464726573733a2063616c6c20746f206e6f6e2d636f6e74726163740000005f82015250565b5f615288601d83613f59565b915061529382615254565b602082019050919050565b5f6020820190508181035f8301526152b58161527c565b9050919050565b5f81519050919050565b5f6152d0826152bc565b6152da8185613f59565b93506152ea818560208601613e67565b6152f381613a0f565b840191505092915050565b5f6020820190508181035f83015261531681846152c6565b90509291505056fea2646970667358221220094d80e68639d5a2d29e0f4b59b136966ada0db7723e7444e61d99f702b422ee64736f6c63430008150033",
  "immutableReferences": {},
  "source": "// SPDX-License-Identifier: MIT\npragma solidity >=0.8.0 <0.9.0;\n\nimport \"@openzeppelin/contracts/access/Ownable.sol\";\nimport \"@openzeppelin/contracts/security/ReentrancyGuard.sol\";\nimport \"@openzeppelin/contracts/token/ERC20/Utils/SafeERC20.sol\";\n//import \"https://github.com/OpenZeppelin/openzeppelin-contracts/blob/master/contracts/token/ERC20/utils/SafeERC20.sol\";\nimport \"@openzeppelin/contracts/security/Pausable.sol\";\nimport \"@openzeppelin/contracts/token/ERC20/IERC20.sol\";\n\n\ninterface IComet {\n    function supply(address asset, uint amount) external;\n    function withdraw(address asset, uint amount) external;\n    function baseToken() external view returns (address);\n    function balanceOf(address account) external view returns(uint256);\n    function allow(address manager, bool isAllowed) external;\n}\n\ninterface ICometRewards {\n  function claim(address comet, address src, bool shouldAccrue) external;\n}\n\ninterface IERC20FeeProxy {\n    function transferFromWithReferenceAndFee(\n        address _tokenAddress,\n        address _to,\n        uint256 _amount,\n        bytes calldata _paymentReference,\n        uint256 _feeAmount,\n        address _feeAddress\n    ) external;\n}\n\ninterface IWrapper {\n    function deposit(uint256 assets, address receiver) external returns (uint256 shares);\n    function redeem(uint256 assets, address receiver, address owner) external returns (uint256 shares);\n}\n\n/**\n * @title   Paytr\n * @notice  Paytr allows you to receive yield by making early payments.\n * @dev     All string parameters will change to bytes.\n */\n\ncontract Paytr is Ownable, Pausable, ReentrancyGuard {\n    using SafeERC20 for IERC20;\n\n    address baseAsset;\n    address public ERC20FeeProxyAddress;\n    address public wrapperAddress;\n    address public cometAddress;\n\n    constructor(address _cometAddress, address _ERC20FeeProxyAddress, address _wrapperAddress) {\n        cometAddress = _cometAddress; //Comet Mumbai cUSDCv3 address = 0xF09F0369aB0a875254fB565E52226c88f10Bc839, USDC uses 6 decimals\n        ERC20FeeProxyAddress = _ERC20FeeProxyAddress; //Mumbai ERC20FeeProxyAddress (Request Network) = 0x131eb294E3803F23dc2882AB795631A12D1d8929\n        wrapperAddress = _wrapperAddress; //Mainnet: 0xFd55fCd10d7De6C6205dBBa45C4aA67d547AD8F2;\n        baseAsset = IComet(cometAddress).baseToken();\n    }\n\n    event PaymentERC20Event(address tokenAddress, address payee, uint256 amount, uint256 dueDate, bytes paymentReference);\n    event PaymentERC20EventWithFee(address tokenAddress, address payee, address feeAddress, uint256 amount, uint256 dueDate, uint256 feeAmount, bytes paymentReference);\n    event PayOutERC20Event(address tokenAddress, address payee, address feeAddress, uint256 amount, uint256 feeAmount, bytes paymentReference);\n    event DueDateUpdatedEvent(address payer, address payee, bytes paymentReference, uint256 dueDate);    \n    \n    struct PaymentERC20 {\n        uint256 amount;\n        uint256 feeAmount;\n        uint256 dueDate;\n        uint256 wrapperSharesReceived;\n        uint256 blockNumberSupply;\n        address payer;\n        address payee;\n        address asset;\n        address feeAddress;\n    }\n\n    struct PayOutDataStruct {\n       uint256 amount;\n       uint256 interestAmount;\n       uint256 feeAmount;\n       uint256 txWeight;\n       address payer;\n       address payee;\n       address asset;\n       address feeAddress;\n       bytes paymentReference;\n   }\n\n    bytes[] payOutReferences;\n    PayOutDataStruct[] public payOutDataArray;\n\n    // struct totalPerAssetToRedeem {        \n    //     address asset;\n    //     address cometAddress;\n    //     uint256 amount;        \n    // }\n\n    struct CometInfo {\n        bool allowed;\n        uint8 decimals;\n    }\n\n    /**\n     * @notice paymentMapping keeps track of the paid invoices. The mapping uses keyType string (the payment reference of the invoice) \n        and valueType struct InvoiceERC20.\n     */   \n    mapping(bytes => PaymentERC20) public paymentMapping;\n\n    /**\n     * @notice allowedCometAddresses keeps track of the allowed Comet addresses for Compound Finance + the number of decimals, to make sure no malicious Comet contracts can be used\n        while making a payment.\n    */\n    mapping(address => CometInfo) public allowedCometInfo;\n\n    /**\n     * @notice allowedRequestNetworkFeeAddresses makes sure ERC20 payments originating from the Request Network protocol go through the correct ERC20FeeProxy contract.\n        This makes sure Request Network can detect the payment.\n        See function payOutERC20Invoice in this contract for more details.\n    */\n    mapping(address => bool) public allowedRequestNetworkFeeAddresses;\n\n    /**\n    * @notice modifier checks if payment is present in contract.\n    */\n    modifier IsInContract(bytes memory _paymentReference) {       \n        require(paymentMapping[_paymentReference].amount != 0, \"No prepayment found\");\n        _;\n    }\n\n    /**\n     * @notice modifier only allows payer to use this function.\n     */\n    modifier OnlyPayer(bytes memory _paymentReference) {\n        require(msg.sender == paymentMapping[_paymentReference].payer, \"Not Authorized\");\n        _;\n    }\n\n    /**\n    * @notice Make a payment using an ERC20 token.\n    * @notice This function can't be used while it's paused.\n    * @param _payee The receiver of the payment.\n    * @param _dueDate The due date of the payment, or invoice, in days.\n    * @param _amount The _asset amount in wei (10 USDC = 10**6 for example). Double check the number of decimals for each ERC20 token before paying the invoice.\n    * @param _paymentReference Reference of the related payment.  \n    * @dev Uses modifier IsNotPaid, nonReentrant and whenNotPaused.\n    * @dev The parameter _dueDate needs to be inserted in number of days (uint8).\n    * @dev The parameter _amount needs be inserted in wei. Double check the decimal input for each token.\n    */\n\n    function payInvoiceERC20(\n        //address _asset, //address base token, like USDC\n        address _payee,\n        uint8 _dueDate,\n        uint256 _amount,\n        bytes calldata _paymentReference\n        ) public nonReentrant whenNotPaused {\n\n            require(_amount != 0, \"0 Amount\");\n            require(paymentMapping[_paymentReference].payer != msg.sender,\"Payment reference already used\");\n            require(paymentMapping[_paymentReference].payee != _payee,\"Payment reference already used\");\n            //require(IComet(cometAddress).baseToken() == _asset, \"Invalid asset\"); //requires the use of the correct base asset for the Comet address\n            require(_payee != address(0), \"Payee is 0 address\");\n\n            uint256 dueDate;\n\n            _dueDate != 0 ? dueDate = block.timestamp + _dueDate * 1 days : dueDate = _dueDate;\n\n            IERC20(baseAsset).safeTransferFrom(msg.sender, address(this), _amount);                \n            IERC20(baseAsset).safeApprove(cometAddress, _amount);\n\n\n            uint256 cUsdcbalanceBeforeSupply = IComet(cometAddress).balanceOf(address(this));\n            IComet(cometAddress).supply(baseAsset, _amount);\n            uint256 cUsdcbalanceAfterSupply = IComet(cometAddress).balanceOf(address(this));\n            uint256 cUsdcAmountToWrap = cUsdcbalanceAfterSupply - cUsdcbalanceBeforeSupply;\n            \n            uint256 wrappedBalanceBeforeSupply = IComet(wrapperAddress).balanceOf(address(this));\n            IComet(cometAddress).allow(wrapperAddress, true);\n            IWrapper(wrapperAddress).deposit(cUsdcAmountToWrap, address(this));\n            uint256 wrappedBalanceAfterSupply = IComet(wrapperAddress).balanceOf(address(this));\n            uint256 wrappedShares = wrappedBalanceAfterSupply - wrappedBalanceBeforeSupply;\n\n            paymentMapping[_paymentReference] = PaymentERC20(\n                _amount,\n                0,\n                dueDate,\n                wrappedShares,\n                block.number,\n                msg.sender,\n                _payee,  \n                baseAsset,\n                msg.sender        \n            );\n            \n            emit PaymentERC20Event(baseAsset, _payee, _amount, dueDate, _paymentReference);\n    }\n\n    function redeemFromWrapper(uint256 _amount) external {\n        IWrapper(wrapperAddress).redeem(_amount, address(this), address(this));\n    }\n\n    function redeemFromCompound(address _cometAddress, uint256 _amount) public {\n        IComet(_cometAddress).withdraw(_cometAddress, _amount);        \n    }\n\n    /**\n    * @notice Make a payment using an ERC20 token.\n    * @notice This function can't be used while it's paused.\n    * @param _payee The receiver of the payment.\n    * @param _feeAddress When using an additional fee, this is the address that will receive the feeAmount. Requires msg.sender address when param _feeAmount == 0.\n    * @param _dueDate The due date of the payment, or invoice, in days\n    * @param _amount The _asset amount in wei (10 USDC = 10**6 for example). Double check the number of decimals for each ERC20 token before paying the invoice.\n    * @param _feeAmount The total _asset fee amount in wei.\n    * @param _paymentReference Reference of the related payment.  \n    * @dev Uses modifier IsNotPaid, nonReentrant and whenNotPaused.\n    * @dev The parameter _dueDate needs to be inserted in number of days (uint8).\n    * @dev The parameters _amount and _feeAmount need be inserted in wei. Double check the decimal input for each token.\n    */\n\n    function payInvoiceERC20WithFee(\n        //address _asset, //address base token, like USDC\n        address _payee,\n        address _feeAddress,\n        uint8 _dueDate,\n        uint256 _amount,\n        uint256 _feeAmount,\n        bytes calldata _paymentReference\n        ) public nonReentrant whenNotPaused {\n\n            require(_amount != 0, \"0 Amount\");\n            require(paymentMapping[_paymentReference].payer != msg.sender,\"Payment reference already used\");\n            require(paymentMapping[_paymentReference].payee != _payee,\"Payment reference already used\");\n            //require(IComet(cometAddress).baseToken() == _asset, \"Invalid asset\"); //requires the use of the correct base asset for the Comet address\n            require(_payee != address(0), \"Payee is 0 address\");\n            require(_feeAddress != address(0), \"Fee address is 0 address\");\n            require(_feeAmount != 0, \"0 Fee amount\");\n\n            uint256 dueDate;\n\n            _dueDate != 0 ? dueDate = block.timestamp + _dueDate * 1 days : dueDate = _dueDate;\n\n            IERC20(baseAsset).safeTransferFrom(msg.sender, address(this), _amount + _feeAmount);         \n            IERC20(baseAsset).safeApprove(cometAddress, _amount + _feeAmount);\n\n            uint256 cUsdcbalanceBeforeSupply = IComet(cometAddress).balanceOf(address(this));\n            IComet(cometAddress).supply(baseAsset, _amount + _feeAmount);\n            uint256 cUsdcbalanceAfterSupply = IComet(cometAddress).balanceOf(address(this));\n            uint256 cUsdcAmountToWrap = cUsdcbalanceAfterSupply - cUsdcbalanceBeforeSupply;\n            \n            uint256 wrappedBalanceBeforeSupply = IComet(wrapperAddress).balanceOf(address(this));\n            IComet(cometAddress).allow(wrapperAddress, true);\n            IWrapper(wrapperAddress).deposit(cUsdcAmountToWrap, address(this));\n            uint256 wrappedBalanceAfterSupply = IComet(wrapperAddress).balanceOf(address(this));\n            uint256 wrappedShares = wrappedBalanceAfterSupply - wrappedBalanceBeforeSupply;\n       \n            paymentMapping[_paymentReference] = PaymentERC20(\n                _amount,\n                _feeAmount,\n                dueDate,\n                wrappedShares,\n                block.number,\n                msg.sender,\n                _payee,  \n                baseAsset,\n                _feeAddress        \n            );\n            //event PaymentERC20EventWithFee(address tokenAddress, address payee, address feeAddress, uint256 amount, uint256 dueDate, uint256 feeAmount, bytes paymentReference);\n            emit PaymentERC20EventWithFee(baseAsset, _payee, _feeAddress, _amount, dueDate, _feeAmount, _paymentReference);            \n        }\n\n    /**\n    @notice This function allows the payer to update the due date of the payment. This is only possible when the initial payment had a '0' dueDate,\n    for example when using the Paytr contract for escrow or crowdfunding. Updating the due date means releasing the funds.\n    @param _paymentReference Input the paymentReference in bytes.\n    @param _dueDateUpdated Input the due date in Epoch time.    \n     */    \n    \n    function updateDueDate(bytes calldata _paymentReference, uint256 _dueDateUpdated) public IsInContract(_paymentReference) OnlyPayer(_paymentReference) nonReentrant whenNotPaused {\n        require(paymentMapping[_paymentReference].dueDate == 0, \"Your payment reference already has a due date assigned\");\n        require(_dueDateUpdated >= block.timestamp + 1 days, \"New due date needs to be > block.timestamp + 1 day\");\n        paymentMapping[_paymentReference].dueDate = _dueDateUpdated;\n        address _payee = paymentMapping[_paymentReference].payee;\n\n        emit DueDateUpdatedEvent(msg.sender, _payee, _paymentReference, _dueDateUpdated);\n    }\n\n     /**\n     *\n     @notice Private function \n     @dev Handles the redeeming of the asset from Compound Finance\n    */\n    // function redeemFundsERC20() private {\n    //     uint i;\n    //     uint assetsToRedeemLength = assetsToRedeem.length;\n\n    //     for (;i < assetsToRedeemLength;) {\n    //         IComet(assetsToRedeem[i].cometAddress).withdraw(assetsToRedeem[i].asset, assetsToRedeem[i].amount);\n    //         ++i;\n    //     }\n    // }\n\n     /**\n    * @notice Allows the contract to pay payee (principal amount), payer (interest amount) and fee receiver (fee amount).\n    This function cannot be paused.\n    * @dev Uses modifiers onlyGelatoOrOwner. \n    **/\n    function payOutERC20Invoice(bytes[] calldata payoutReferencesArray) external nonReentrant {\n\n       require(payoutReferencesArray.length > 0 && payoutReferencesArray.length <= 25, \"Invalid array length\");\n\n       uint256 i;\n       uint256 payoutReferencesArrayLength = payoutReferencesArray.length;\n       uint256 wrapperSharesToRedeem;\n       uint256 totalAmountForPayOut;\n       uint256 totalWeight;\n\n       for (; i < payoutReferencesArrayLength;) {\n            bytes memory _paymentReference = payoutReferencesArray[i];\n            require(paymentMapping[_paymentReference].amount != 0,\"Unknown payment reference\"); //check to see if payment reference to be paid out is present in the contract\n            require(paymentMapping[_paymentReference].dueDate >= block.timestamp,\"Reference not due yet\");\n\n            address payable _payee = payable(paymentMapping[_paymentReference].payee);\n            address payable _payer = payable(paymentMapping[_paymentReference].payer);\n            address payable _feeAddress = payable(paymentMapping[_paymentReference].feeAddress);\n            address _asset = paymentMapping[_paymentReference].asset;\n            uint256 _amount = paymentMapping[_paymentReference].amount;\n            uint256 _feeAmount = paymentMapping[_paymentReference].feeAmount;\n            uint256 _wrapperSharesReceived = paymentMapping[_paymentReference].wrapperSharesReceived;\n            uint256 _totalBlocksSupplied = block.number - paymentMapping[_paymentReference].blockNumberSupply;\n\n            paymentMapping[_paymentReference].amount = 0;\n\n            uint256 txWeight = _amount * _totalBlocksSupplied;\n            totalWeight += txWeight;\n            wrapperSharesToRedeem += _wrapperSharesReceived;\n            totalAmountForPayOut += _amount;\n\n            payOutDataArray.push(PayOutDataStruct(\n                _amount,\n                0, //real value will be calculated in the next step\n                _feeAmount,\n                _totalBlocksSupplied,\n                _payer,\n                _payee,\n                _asset,\n                _feeAddress,\n                _paymentReference\n            ));\n            ++i;\n       }\n\n       //redeem Wrapper shares and receive v3 cToken\n       IWrapper(wrapperAddress).redeem(wrapperSharesToRedeem, address(this), address(this));       \n\n       //redeem all available v3 cTokens from Compound\n       uint256 cTokensToRedeem = IComet(0xc3d688B66703497DAA19211EEdff47f25384cdc3).balanceOf(address(this));\n       IComet(0xc3d688B66703497DAA19211EEdff47f25384cdc3).withdraw(0xc3d688B66703497DAA19211EEdff47f25384cdc3, cTokensToRedeem); //comet address\n       //get new USDC balance\n       uint256 _totalInterestGathered = IERC20(0xA0b86991c6218b36c1d19D4a2e9Eb0cE3606eB48).balanceOf(address(this)) - totalAmountForPayOut; //USDC address\n        //calculate the interest amount per payment reference and execute payout\n       for(;i < payOutDataArray.length;) {\n            uint256 _interestAmount = _totalInterestGathered * (payOutDataArray[i].txWeight / totalWeight);\n            address payable _payee = payable(payOutDataArray[i].payee);\n            address payable _payer = payable(payOutDataArray[i].payer);\n            address payable _feeAddress = payable(payOutDataArray[i].feeAddress);\n            address _asset = payOutDataArray[i].asset;\n            uint256 _amount = payOutDataArray[i].amount;\n            uint256 _feeAmount = payOutDataArray[i].feeAmount;\n            bytes memory _paymentReference = payOutDataArray[i].paymentReference;\n\n            if(allowedRequestNetworkFeeAddresses[_feeAddress] == true) {\n                IERC20(_asset).safeApprove(ERC20FeeProxyAddress, _amount + _feeAmount);\n\n                IERC20FeeProxy(ERC20FeeProxyAddress).transferFromWithReferenceAndFee(\n                    _asset,\n                    _payee,\n                    _amount,\n                    _paymentReference,\n                    _feeAmount,\n                    _feeAddress\n                );\n                \n            } else {\n                IERC20(_asset).safeTransfer(_payee, _amount);\n                if(_feeAmount != 0) {\n                    IERC20(_asset).safeTransfer(_feeAddress, _feeAmount);\n                }\n            }\n            \n            IERC20(_asset).safeTransfer(_payer, _interestAmount);\n            ++i;\n\n            emit PayOutERC20Event(_asset, _payee, _feeAddress, _amount, _feeAmount, _paymentReference); \n\n       }\n\n\n\n\n       //transfer total fee amount to contract owner\n    //    uint256 j;\n    //    for (;j < assetsToRedeem.length;) {\n    //        uint256 _balanceAfterRedeeming = IERC20(assetsToRedeem[j].asset).balanceOf(address(this));\n    //        IERC20(assetsToRedeem[j].asset).safeTransfer(owner(), _balanceAfterRedeeming);\n    //        ++j;\n    //    }\n   }\n\n    function claimCompRewards(address _cometAddress) public onlyOwner {\n        ICometRewards(_cometAddress).claim(_cometAddress, address(this), true);\n        IERC20(_cometAddress).safeTransfer(owner(), IERC20(_cometAddress).balanceOf(address(this)));\n    }\n\n    function addRequestNetworkFeeAddress(address _requestNetworkFeeAddress) public onlyOwner {\n        allowedRequestNetworkFeeAddresses[_requestNetworkFeeAddress] = true;\n    }\n\n    function setERC20FeeProxy(address _ERC20FeeProxyAddress) public onlyOwner {\n        ERC20FeeProxyAddress = _ERC20FeeProxyAddress;\n    }\n\n    function pause() public onlyOwner {\n        _pause();\n    }\n\n    function unpause() public onlyOwner {\n        _unpause();\n    }\n\n}",
  "sourcePath": "/Users/pieterclaesen/blockchain/paytr-contracts/contracts/Paytr.sol",
  "compiler": {
    "name": "solc",
    "version": "0.8.21+commit.d9974bed.Emscripten.clang"
  },
  "schemaVersion": "3.4.14",
  "updatedAt": "2023-08-05T05:43:36.461Z",
  "devdoc": {
    "details": "All string parameters will change to bytes.",
    "events": {
      "Paused(address)": {
        "details": "Emitted when the pause is triggered by `account`."
      },
      "Unpaused(address)": {
        "details": "Emitted when the pause is lifted by `account`."
      }
    },
    "kind": "dev",
    "methods": {
      "owner()": {
        "details": "Returns the address of the current owner."
      },
      "paused()": {
        "details": "Returns true if the contract is paused, and false otherwise."
      },
      "payInvoiceERC20(address,uint8,uint256,bytes)": {
        "details": "Uses modifier IsNotPaid, nonReentrant and whenNotPaused.The parameter _dueDate needs to be inserted in number of days (uint8).The parameter _amount needs be inserted in wei. Double check the decimal input for each token.",
        "params": {
          "_amount": "The _asset amount in wei (10 USDC = 10**6 for example). Double check the number of decimals for each ERC20 token before paying the invoice.",
          "_dueDate": "The due date of the payment, or invoice, in days.",
          "_payee": "The receiver of the payment.",
          "_paymentReference": "Reference of the related payment.  "
        }
      },
      "payInvoiceERC20WithFee(address,address,uint8,uint256,uint256,bytes)": {
        "details": "Uses modifier IsNotPaid, nonReentrant and whenNotPaused.The parameter _dueDate needs to be inserted in number of days (uint8).The parameters _amount and _feeAmount need be inserted in wei. Double check the decimal input for each token.",
        "params": {
          "_amount": "The _asset amount in wei (10 USDC = 10**6 for example). Double check the number of decimals for each ERC20 token before paying the invoice.",
          "_dueDate": "The due date of the payment, or invoice, in days",
          "_feeAddress": "When using an additional fee, this is the address that will receive the feeAmount. Requires msg.sender address when param _feeAmount == 0.",
          "_feeAmount": "The total _asset fee amount in wei.",
          "_payee": "The receiver of the payment.",
          "_paymentReference": "Reference of the related payment.  "
        }
      },
      "payOutERC20Invoice(bytes[])": {
        "details": "Uses modifiers onlyGelatoOrOwner. *"
      },
      "renounceOwnership()": {
        "details": "Leaves the contract without owner. It will not be possible to call `onlyOwner` functions. Can only be called by the current owner. NOTE: Renouncing ownership will leave the contract without an owner, thereby disabling any functionality that is only available to the owner."
      },
      "transferOwnership(address)": {
        "details": "Transfers ownership of the contract to a new account (`newOwner`). Can only be called by the current owner."
      },
      "updateDueDate(bytes,uint256)": {
        "params": {
          "_dueDateUpdated": "Input the due date in Epoch time.    ",
          "_paymentReference": "Input the paymentReference in bytes."
        }
      }
    },
    "title": "Paytr",
    "version": 1
  },
  "userdoc": {
    "kind": "user",
    "methods": {
      "allowedCometInfo(address)": {
        "notice": "allowedCometAddresses keeps track of the allowed Comet addresses for Compound Finance + the number of decimals, to make sure no malicious Comet contracts can be used while making a payment."
      },
      "allowedRequestNetworkFeeAddresses(address)": {
        "notice": "allowedRequestNetworkFeeAddresses makes sure ERC20 payments originating from the Request Network protocol go through the correct ERC20FeeProxy contract. This makes sure Request Network can detect the payment. See function payOutERC20Invoice in this contract for more details."
      },
      "payInvoiceERC20(address,uint8,uint256,bytes)": {
        "notice": "Make a payment using an ERC20 token.This function can't be used while it's paused."
      },
      "payInvoiceERC20WithFee(address,address,uint8,uint256,uint256,bytes)": {
        "notice": "Make a payment using an ERC20 token.This function can't be used while it's paused."
      },
      "payOutERC20Invoice(bytes[])": {
        "notice": "Allows the contract to pay payee (principal amount), payer (interest amount) and fee receiver (fee amount). This function cannot be paused."
      },
      "paymentMapping(bytes)": {
        "notice": "paymentMapping keeps track of the paid invoices. The mapping uses keyType string (the payment reference of the invoice)  and valueType struct InvoiceERC20."
      },
      "updateDueDate(bytes,uint256)": {
        "notice": "This function allows the payer to update the due date of the payment. This is only possible when the initial payment had a '0' dueDate, for example when using the Paytr contract for escrow or crowdfunding. Updating the due date means releasing the funds."
      }
    },
    "notice": "Paytr allows you to receive yield by making early payments.",
    "version": 1
  }
}